{"abi":[{"type":"constructor","inputs":[],"stateMutability":"nonpayable"},{"type":"function","name":"circleList","inputs":[{"name":"","type":"uint256","internalType":"uint256"}],"outputs":[{"name":"","type":"address","internalType":"address"}],"stateMutability":"view"},{"type":"function","name":"circles","inputs":[{"name":"","type":"uint256","internalType":"uint256"}],"outputs":[{"name":"","type":"address","internalType":"address"}],"stateMutability":"view"},{"type":"function","name":"createCircle","inputs":[{"name":"agent","type":"address","internalType":"address"},{"name":"trustContract","type":"address","internalType":"address"},{"name":"lendingPool","type":"address","internalType":"address"},{"name":"aToken","type":"address","internalType":"address"},{"name":"minTrustScore","type":"uint256","internalType":"uint256"},{"name":"roundDuration","type":"uint256","internalType":"uint256"}],"outputs":[{"name":"circleAddress","type":"address","internalType":"address"}],"stateMutability":"nonpayable"},{"type":"function","name":"getAllCircles","inputs":[],"outputs":[{"name":"","type":"address[]","internalType":"address[]"}],"stateMutability":"view"},{"type":"function","name":"getCircle","inputs":[{"name":"circleId","type":"uint256","internalType":"uint256"}],"outputs":[{"name":"","type":"address","internalType":"address"}],"stateMutability":"view"},{"type":"function","name":"getCircleCount","inputs":[],"outputs":[{"name":"","type":"uint256","internalType":"uint256"}],"stateMutability":"view"},{"type":"function","name":"owner","inputs":[],"outputs":[{"name":"","type":"address","internalType":"address"}],"stateMutability":"view"},{"type":"function","name":"transferOwnership","inputs":[{"name":"newOwner","type":"address","internalType":"address"}],"outputs":[],"stateMutability":"nonpayable"},{"type":"event","name":"CircleCreated","inputs":[{"name":"circleId","type":"uint256","indexed":true,"internalType":"uint256"},{"name":"circleAddress","type":"address","indexed":true,"internalType":"address"},{"name":"agent","type":"address","indexed":true,"internalType":"address"},{"name":"trustContract","type":"address","indexed":false,"internalType":"address"},{"name":"lendingPool","type":"address","indexed":false,"internalType":"address"},{"name":"aToken","type":"address","indexed":false,"internalType":"address"},{"name":"minTrustScore","type":"uint256","indexed":false,"internalType":"uint256"},{"name":"roundDuration","type":"uint256","indexed":false,"internalType":"uint256"}],"anonymous":false}],"bytecode":{"object":"0x608060405260015f553480156012575f5ffd5b503360035f6101000a81548173ffffffffffffffffffffffffffffffffffffffff021916908373ffffffffffffffffffffffffffffffffffffffff16021790555061618d806100605f395ff3fe608060405234801561000f575f5ffd5b5060043610610086575f3560e01c8063bc51f6f511610059578063bc51f6f514610126578063bc5e0f3014610156578063e1f2dfce14610186578063f2fde38b146101a457610086565b80634210faf81461008a57806364ccecde146100ba5780638da5cb5b146100ea578063b930535314610108575b5f5ffd5b6100a4600480360381019061009f919061082b565b6101c0565b6040516100b19190610895565b60405180910390f35b6100d460048036038101906100cf919061082b565b6101fb565b6040516100e19190610895565b60405180910390f35b6100f2610234565b6040516100ff9190610895565b60405180910390f35b610110610259565b60405161011d9190610965565b60405180910390f35b610140600480360381019061013b91906109af565b6102e4565b60405161014d9190610895565b60405180910390f35b610170600480360381019061016b919061082b565b610663565b60405161017d9190610895565b60405180910390f35b61018e610693565b60405161019b9190610a47565b60405180910390f35b6101be60048036038101906101b99190610a60565b6106a7565b005b600281815481106101cf575f80fd5b905f5260205f20015f915054906101000a900473ffffffffffffffffffffffffffffffffffffffff1681565b5f60015f8381526020019081526020015f205f9054906101000a900473ffffffffffffffffffffffffffffffffffffffff169050919050565b60035f9054906101000a900473ffffffffffffffffffffffffffffffffffffffff1681565b606060028054806020026020016040519081016040528092919081815260200182805480156102da57602002820191905f5260205f20905b815f9054906101000a900473ffffffffffffffffffffffffffffffffffffffff1673ffffffffffffffffffffffffffffffffffffffff1681526020019060010190808311610291575b5050505050905090565b5f5f73ffffffffffffffffffffffffffffffffffffffff168773ffffffffffffffffffffffffffffffffffffffff1603610353576040517f08c379a000000000000000000000000000000000000000000000000000000000815260040161034a90610ae5565b60405180910390fd5b5f73ffffffffffffffffffffffffffffffffffffffff168673ffffffffffffffffffffffffffffffffffffffff16036103c1576040517f08c379a00000000000000000000000000000000000000000000000000000000081526004016103b890610b4d565b60405180910390fd5b5f73ffffffffffffffffffffffffffffffffffffffff168573ffffffffffffffffffffffffffffffffffffffff160361042f576040517f08c379a000000000000000000000000000000000000000000000000000000000815260040161042690610bb5565b60405180910390fd5b5f73ffffffffffffffffffffffffffffffffffffffff168473ffffffffffffffffffffffffffffffffffffffff160361049d576040517f08c379a000000000000000000000000000000000000000000000000000000000815260040161049490610c1d565b60405180910390fd5b5f82116104df576040517f08c379a00000000000000000000000000000000000000000000000000000000081526004016104d690610c85565b60405180910390fd5b5f5f5f8154809291906104f190610cd0565b9190505590505f8189898989898960405161050b906107e7565b61051b9796959493929190610d17565b604051809103905ff080158015610534573d5f5f3e3d5ffd5b5090508092508260015f8481526020019081526020015f205f6101000a81548173ffffffffffffffffffffffffffffffffffffffff021916908373ffffffffffffffffffffffffffffffffffffffff160217905550600283908060018154018082558091505060019003905f5260205f20015f9091909190916101000a81548173ffffffffffffffffffffffffffffffffffffffff021916908373ffffffffffffffffffffffffffffffffffffffff1602179055508873ffffffffffffffffffffffffffffffffffffffff168373ffffffffffffffffffffffffffffffffffffffff16837f709fd2574fe407db23ab93d63d71a8fdba28893eb8751f2c2f73e4aa5b9b37068b8b8b8b8b60405161064f959493929190610d84565b60405180910390a450509695505050505050565b6001602052805f5260405f205f915054906101000a900473ffffffffffffffffffffffffffffffffffffffff1681565b5f60015f546106a29190610dd5565b905090565b60035f9054906101000a900473ffffffffffffffffffffffffffffffffffffffff1673ffffffffffffffffffffffffffffffffffffffff163373ffffffffffffffffffffffffffffffffffffffff1614610736576040517f08c379a000000000000000000000000000000000000000000000000000000000815260040161072d90610e52565b60405180910390fd5b5f73ffffffffffffffffffffffffffffffffffffffff168173ffffffffffffffffffffffffffffffffffffffff16036107a4576040517f08c379a000000000000000000000000000000000000000000000000000000000815260040161079b90610eba565b60405180910390fd5b8060035f6101000a81548173ffffffffffffffffffffffffffffffffffffffff021916908373ffffffffffffffffffffffffffffffffffffffff16021790555050565b61527f80610ed983390190565b5f5ffd5b5f819050919050565b61080a816107f8565b8114610814575f5ffd5b50565b5f8135905061082581610801565b92915050565b5f602082840312156108405761083f6107f4565b5b5f61084d84828501610817565b91505092915050565b5f73ffffffffffffffffffffffffffffffffffffffff82169050919050565b5f61087f82610856565b9050919050565b61088f81610875565b82525050565b5f6020820190506108a85f830184610886565b92915050565b5f81519050919050565b5f82825260208201905092915050565b5f819050602082019050919050565b6108e081610875565b82525050565b5f6108f183836108d7565b60208301905092915050565b5f602082019050919050565b5f610913826108ae565b61091d81856108b8565b9350610928836108c8565b805f5b8381101561095857815161093f88826108e6565b975061094a836108fd565b92505060018101905061092b565b5085935050505092915050565b5f6020820190508181035f83015261097d8184610909565b905092915050565b61098e81610875565b8114610998575f5ffd5b50565b5f813590506109a981610985565b92915050565b5f5f5f5f5f5f60c087890312156109c9576109c86107f4565b5b5f6109d689828a0161099b565b96505060206109e789828a0161099b565b95505060406109f889828a0161099b565b9450506060610a0989828a0161099b565b9350506080610a1a89828a01610817565b92505060a0610a2b89828a01610817565b9150509295509295509295565b610a41816107f8565b82525050565b5f602082019050610a5a5f830184610a38565b92915050565b5f60208284031215610a7557610a746107f4565b5b5f610a828482850161099b565b91505092915050565b5f82825260208201905092915050565b7f496e76616c6964206167656e74000000000000000000000000000000000000005f82015250565b5f610acf600d83610a8b565b9150610ada82610a9b565b602082019050919050565b5f6020820190508181035f830152610afc81610ac3565b9050919050565b7f496e76616c696420747275737420636f6e7472616374000000000000000000005f82015250565b5f610b37601683610a8b565b9150610b4282610b03565b602082019050919050565b5f6020820190508181035f830152610b6481610b2b565b9050919050565b7f496e76616c6964206c656e64696e6720706f6f6c0000000000000000000000005f82015250565b5f610b9f601483610a8b565b9150610baa82610b6b565b602082019050919050565b5f6020820190508181035f830152610bcc81610b93565b9050919050565b7f496e76616c69642061546f6b656e0000000000000000000000000000000000005f82015250565b5f610c07600e83610a8b565b9150610c1282610bd3565b602082019050919050565b5f6020820190508181035f830152610c3481610bfb565b9050919050565b7f526f756e64206475726174696f6e206d757374206265203e20300000000000005f82015250565b5f610c6f601a83610a8b565b9150610c7a82610c3b565b602082019050919050565b5f6020820190508181035f830152610c9c81610c63565b9050919050565b7f4e487b71000000000000000000000000000000000000000000000000000000005f52601160045260245ffd5b5f610cda826107f8565b91507fffffffffffffffffffffffffffffffffffffffffffffffffffffffffffffffff8203610d0c57610d0b610ca3565b5b600182019050919050565b5f60e082019050610d2a5f83018a610a38565b610d376020830189610886565b610d446040830188610886565b610d516060830187610886565b610d5e6080830186610886565b610d6b60a0830185610a38565b610d7860c0830184610a38565b98975050505050505050565b5f60a082019050610d975f830188610886565b610da46020830187610886565b610db16040830186610886565b610dbe6060830185610a38565b610dcb6080830184610a38565b9695505050505050565b5f610ddf826107f8565b9150610dea836107f8565b9250828203905081811115610e0257610e01610ca3565b5b92915050565b7f4f6e6c79206f776e65722063616e2063616c6c207468697300000000000000005f82015250565b5f610e3c601883610a8b565b9150610e4782610e08565b602082019050919050565b5f6020820190508181035f830152610e6981610e30565b9050919050565b7f496e76616c6964206e6577206f776e65720000000000000000000000000000005f82015250565b5f610ea4601183610a8b565b9150610eaf82610e70565b602082019050919050565b5f6020820190508181035f830152610ed181610e98565b905091905056fe608060405234801561000f575f5ffd5b5060405161527f38038061527f8339818101604052810190610031919061026f565b600161004f6100446101ac60201b60201c565b6101d560201b60201c565b5f0181905550865f819055508560015f6101000a81548173ffffffffffffffffffffffffffffffffffffffff021916908373ffffffffffffffffffffffffffffffffffffffff1602179055508460025f6101000a81548173ffffffffffffffffffffffffffffffffffffffff021916908373ffffffffffffffffffffffffffffffffffffffff1602179055508360035f6101000a81548173ffffffffffffffffffffffffffffffffffffffff021916908373ffffffffffffffffffffffffffffffffffffffff1602179055508260045f6101000a81548173ffffffffffffffffffffffffffffffffffffffff021916908373ffffffffffffffffffffffffffffffffffffffff16021790555081600681905550806007819055505f60095f6101000a81548160ff0219169083600381111561018d5761018c61030c565b5b02179055505f600b819055505f600c8190555050505050505050610339565b5f7f9b779b17422d0df92223018b32b4d1fa46e071723d6817e2486d003becc55f005f1b905090565b5f819050919050565b5f5ffd5b5f819050919050565b6101f4816101e2565b81146101fe575f5ffd5b50565b5f8151905061020f816101eb565b92915050565b5f73ffffffffffffffffffffffffffffffffffffffff82169050919050565b5f61023e82610215565b9050919050565b61024e81610234565b8114610258575f5ffd5b50565b5f8151905061026981610245565b92915050565b5f5f5f5f5f5f5f60e0888a03121561028a576102896101de565b5b5f6102978a828b01610201565b97505060206102a88a828b0161025b565b96505060406102b98a828b0161025b565b95505060606102ca8a828b0161025b565b94505060806102db8a828b0161025b565b93505060a06102ec8a828b01610201565b92505060c06102fd8a828b01610201565b91505092959891949750929550565b7f4e487b71000000000000000000000000000000000000000000000000000000005f52602160045260245ffd5b614f39806103465f395ff3fe608060405234801561000f575f5ffd5b5060043610610251575f3560e01c80639d76ea5811610144578063c30db746116100c1578063e8d991d111610085578063e8d991d11461067d578063e99daac914610687578063f5ff5c7614610691578063f745cb47146106af578063f7cb789a146106cb578063f8c4d13f146106e957610251565b8063c30db746146105eb578063c6dbe15a14610609578063cd6dc68714610639578063d7bb99ba14610655578063dd4f8f741461065f57610251565b8063a59a997311610108578063a59a99731461056b578063a9330b0e14610589578063b688a363146105b9578063c0430ea4146105c3578063c19d93fb146105cd57610251565b80639d76ea58146104b15780639eab5253146104cf578063a0c1f15e146104ed578063a0f243b81461050b578063a230c5241461053b57610251565b80635fa0b65f116101d25780638c825056116101965780638c8250561461041f57806395a853d41461043d57806396ff51b41461045b5780639722a6d614610477578063997072f71461049357610251565b80635fa0b65f1461038b578063668b229f146103a957806378d97c94146103c7578063859d448c146103e35780638a19c8bc1461040157610251565b80633bef8a3a116102195780633bef8a3a146102d35780633dd35279146102dd57806347d3dad91461030d5780635d2774611461033d5780635daf08ca1461035b57610251565b806309e8bfa7146102555780630e9228cb14610271578063125de6771461028d5780631865c57d1461029757806337d287f7146102b5575b5f5ffd5b61026f600480360381019061026a9190613e1d565b610719565b005b61028b60048036038101906102869190613e7b565b610a43565b005b610295610ef5565b005b61029f611376565b6040516102ac9190613f2c565b60405180910390f35b6102bd61138b565b6040516102ca9190613f54565b60405180910390f35b6102db611391565b005b6102f760048036038101906102f29190613fc7565b61172d565b6040516103049190613f54565b60405180910390f35b61032760048036038101906103229190613fc7565b611742565b604051610334919061400c565b60405180910390f35b61034561175f565b6040516103529190613f54565b60405180910390f35b61037560048036038101906103709190613e1d565b611764565b6040516103829190614034565b60405180910390f35b61039361179f565b6040516103a09190613f54565b60405180910390f35b6103b16117a5565b6040516103be919061400c565b60405180910390f35b6103e160048036038101906103dc9190613fc7565b6117b7565b005b6103eb611bf6565b6040516103f89190613f54565b60405180910390f35b610409611bfc565b6040516104169190613f54565b60405180910390f35b610427611c02565b6040516104349190613f54565b60405180910390f35b610445611c08565b6040516104529190614034565b60405180910390f35b61047560048036038101906104709190613fc7565b611c2d565b005b610491600480360381019061048c919061404d565b611f3c565b005b61049b61232e565b6040516104a89190613f54565b60405180910390f35b6104b961233a565b6040516104c69190614034565b60405180910390f35b6104d761235f565b6040516104e49190614142565b60405180910390f35b6104f56123ea565b6040516105029190614034565b60405180910390f35b61052560048036038101906105209190613fc7565b61240f565b6040516105329190613f54565b60405180910390f35b61055560048036038101906105509190613fc7565b612424565b604051610562919061400c565b60405180910390f35b610573612441565b6040516105809190614034565b60405180910390f35b6105a3600480360381019061059e9190613fc7565b612466565b6040516105b09190613f54565b60405180910390f35b6105c161247b565b005b6105cb6127f5565b005b6105d5612992565b6040516105e29190613f2c565b60405180910390f35b6105f36129a4565b6040516106009190613f54565b60405180910390f35b610623600480360381019061061e9190613fc7565b6129a9565b604051610630919061400c565b60405180910390f35b610653600480360381019061064e919061404d565b6129c6565b005b61065d612bc6565b005b610667612eb1565b6040516106749190613f54565b60405180910390f35b610685612eb7565b005b61068f6133bd565b005b610699613572565b6040516106a69190614034565b60405180910390f35b6106c960048036038101906106c49190614162565b613597565b005b6106d361384d565b6040516106e09190613f54565b60405180910390f35b61070360048036038101906106fe9190613fc7565b613853565b604051610710919061419c565b60405180910390f35b60015f9054906101000a900473ffffffffffffffffffffffffffffffffffffffff1673ffffffffffffffffffffffffffffffffffffffff163373ffffffffffffffffffffffffffffffffffffffff16146107a8576040517f08c379a000000000000000000000000000000000000000000000000000000000815260040161079f9061420f565b60405180910390fd5b60018060038111156107bd576107bc613eb9565b5b60095f9054906101000a900460ff1660038111156107de576107dd613eb9565b5b1461081e576040517f08c379a000000000000000000000000000000000000000000000000000000000815260040161081590614277565b60405180910390fd5b610826613868565b5f60055f9054906101000a900473ffffffffffffffffffffffffffffffffffffffff169050828173ffffffffffffffffffffffffffffffffffffffff166370a08231306040518263ffffffff1660e01b81526004016108859190614034565b602060405180830381865afa1580156108a0573d5f5f3e3d5ffd5b505050506040513d601f19601f820116820180604052508101906108c491906142a9565b1015610905576040517f08c379a00000000000000000000000000000000000000000000000000000000081526004016108fc9061431e565b60405180910390fd5b61095160035f9054906101000a900473ffffffffffffffffffffffffffffffffffffffff16848373ffffffffffffffffffffffffffffffffffffffff1661388a9092919063ffffffff16565b60035f9054906101000a900473ffffffffffffffffffffffffffffffffffffffff1673ffffffffffffffffffffffffffffffffffffffff1663e8eda9df60055f9054906101000a900473ffffffffffffffffffffffffffffffffffffffff1685305f6040518563ffffffff1660e01b81526004016109d2949392919061438b565b5f604051808303815f87803b1580156109e9575f5ffd5b505af11580156109fb573d5f5f3e3d5ffd5b505050507f30913accb920534a9bbf66fa5d30be5b69e38f91e4167d42c02d132c17dcd3a783604051610a2e9190613f54565b60405180910390a150610a3f61393c565b5050565b600e5f3373ffffffffffffffffffffffffffffffffffffffff1673ffffffffffffffffffffffffffffffffffffffff1681526020019081526020015f205f9054906101000a900460ff16610acc576040517f08c379a0000000000000000000000000000000000000000000000000000000008152600401610ac390614418565b60405180910390fd5b6001806003811115610ae157610ae0613eb9565b5b60095f9054906101000a900460ff166003811115610b0257610b01613eb9565b5b14610b42576040517f08c379a0000000000000000000000000000000000000000000000000000000008152600401610b3990614277565b60405180910390fd5b610b4a613868565b60165f3373ffffffffffffffffffffffffffffffffffffffff1673ffffffffffffffffffffffffffffffffffffffff1681526020019081526020015f205f9054906101000a900460ff16610bd3576040517f08c379a0000000000000000000000000000000000000000000000000000000008152600401610bca90614480565b60405180910390fd5b60115f3373ffffffffffffffffffffffffffffffffffffffff1673ffffffffffffffffffffffffffffffffffffffff1681526020019081526020015f205f9054906101000a900460ff1615610c5d576040517f08c379a0000000000000000000000000000000000000000000000000000000008152600401610c54906144e8565b60405180910390fd5b5f8383604051602001610c71929190614546565b60405160208183030381529060405280519060200120905060155f3373ffffffffffffffffffffffffffffffffffffffff1673ffffffffffffffffffffffffffffffffffffffff1681526020019081526020015f20548114610d08576040517f08c379a0000000000000000000000000000000000000000000000000000000008152600401610cff906145bb565b60405180910390fd5b5f60055f9054906101000a900473ffffffffffffffffffffffffffffffffffffffff169050610d5a3330878473ffffffffffffffffffffffffffffffffffffffff16613956909392919063ffffffff16565b8460105f3373ffffffffffffffffffffffffffffffffffffffff1673ffffffffffffffffffffffffffffffffffffffff1681526020019081526020015f205f828254610da69190614606565b92505081905550600160115f3373ffffffffffffffffffffffffffffffffffffffff1673ffffffffffffffffffffffffffffffffffffffff1681526020019081526020015f205f6101000a81548160ff0219169083151502179055505f60165f3373ffffffffffffffffffffffffffffffffffffffff1673ffffffffffffffffffffffffffffffffffffffff1681526020019081526020015f205f6101000a81548160ff02191690831515021790555060155f3373ffffffffffffffffffffffffffffffffffffffff1673ffffffffffffffffffffffffffffffffffffffff1681526020019081526020015f205f90553373ffffffffffffffffffffffffffffffffffffffff167fd8913e56e9b35463ed7a8542e3f1025d233b5c7ecb646204d8feb01bb3892067600c54604051610ede9190613f54565b60405180910390a25050610ef061393c565b505050565b600e5f3373ffffffffffffffffffffffffffffffffffffffff1673ffffffffffffffffffffffffffffffffffffffff1681526020019081526020015f205f9054906101000a900460ff16610f7e576040517f08c379a0000000000000000000000000000000000000000000000000000000008152600401610f7590614418565b60405180910390fd5b6001806003811115610f9357610f92613eb9565b5b60095f9054906101000a900460ff166003811115610fb457610fb3613eb9565b5b14610ff4576040517f08c379a0000000000000000000000000000000000000000000000000000000008152600401610feb90614277565b60405180910390fd5b610ffc613868565b600b54600f5f3373ffffffffffffffffffffffffffffffffffffffff1673ffffffffffffffffffffffffffffffffffffffff1681526020019081526020015f20541461107d576040517f08c379a000000000000000000000000000000000000000000000000000000000815260040161107490614683565b60405180910390fd5b5f600d8054905060085461109191906146a1565b90505f5f601354116110a3575f6110b7565b600d805490506013546110b6919061470f565b5b90505f81836110c69190614606565b90505f60055f9054906101000a900473ffffffffffffffffffffffffffffffffffffffff1690505f8173ffffffffffffffffffffffffffffffffffffffff166370a08231306040518263ffffffff1660e01b81526004016111279190614034565b602060405180830381865afa158015611142573d5f5f3e3d5ffd5b505050506040513d601f19601f8201168201806040525081019061116691906142a9565b9050828110156111ab576040517f08c379a00000000000000000000000000000000000000000000000000000000081526004016111a290614789565b60405180910390fd5b6111d633848473ffffffffffffffffffffffffffffffffffffffff166139ab9092919063ffffffff16565b3373ffffffffffffffffffffffffffffffffffffffff167f9aef81cc79530644ebe2e7de375cfc443eef0e1cb3d1122dd29b657358f04ee58460405161121c9190613f54565b60405180910390a2600b5f815480929190611236906147a7565b9190505550600c5f81548092919061124d906147a7565b91905055505f5f90505b600d80549050811015611300575f60115f600d848154811061127c5761127b6147ee565b5b905f5260205f20015f9054906101000a900473ffffffffffffffffffffffffffffffffffffffff1673ffffffffffffffffffffffffffffffffffffffff1673ffffffffffffffffffffffffffffffffffffffff1681526020019081526020015f205f6101000a81548160ff0219169083151502179055508080600101915050611257565b50600d80549050600b541061136657600260095f6101000a81548160ff0219169083600381111561133457611333613eb9565b5b02179055507fdf90819e1122eef4a1d19215dfe6aa85aa2f8a1c60e53ae52143e1fd6c5f3bee60405160405180910390a15b505050505061137361393c565b50565b5f60095f9054906101000a900460ff16905090565b600b5481565b60015f9054906101000a900473ffffffffffffffffffffffffffffffffffffffff1673ffffffffffffffffffffffffffffffffffffffff163373ffffffffffffffffffffffffffffffffffffffff1614611420576040517f08c379a00000000000000000000000000000000000000000000000000000000081526004016114179061420f565b60405180910390fd5b611428613868565b6002600381111561143c5761143b613eb9565b5b60095f9054906101000a900460ff16600381111561145d5761145c613eb9565b5b0361149d576040517f08c379a000000000000000000000000000000000000000000000000000000000815260040161149490614865565b60405180910390fd5b5f60055f9054906101000a900473ffffffffffffffffffffffffffffffffffffffff1690505f8173ffffffffffffffffffffffffffffffffffffffff166370a08231306040518263ffffffff1660e01b81526004016114fc9190614034565b602060405180830381865afa158015611517573d5f5f3e3d5ffd5b505050506040513d601f19601f8201168201806040525081019061153b91906142a9565b90505f8111801561155057505f600d80549050115b156116cb575f600d8054905082611567919061470f565b90505f5f90505b600d805490508110156115f7575f8211156115ea576115e9600d828154811061159a576115996147ee565b5b905f5260205f20015f9054906101000a900473ffffffffffffffffffffffffffffffffffffffff16838673ffffffffffffffffffffffffffffffffffffffff166139ab9092919063ffffffff16565b5b808060010191505061156e565b505f8373ffffffffffffffffffffffffffffffffffffffff166370a08231306040518263ffffffff1660e01b81526004016116329190614034565b602060405180830381865afa15801561164d573d5f5f3e3d5ffd5b505050506040513d601f19601f8201168201806040525081019061167191906142a9565b90505f8111156116c8576116c760015f9054906101000a900473ffffffffffffffffffffffffffffffffffffffff16828673ffffffffffffffffffffffffffffffffffffffff166139ab9092919063ffffffff16565b5b50505b600360095f6101000a81548160ff021916908360038111156116f0576116ef613eb9565b5b02179055507fdedf6c81900dcd7d3df33e4392e5a0f9f5dbbd3c424bd45d6f5148d960e3827360405160405180910390a1505061172b61393c565b565b600f602052805f5260405f205f915090505481565b6011602052805f5260405f205f915054906101000a900460ff1681565b606481565b600d8181548110611773575f80fd5b905f5260205f20015f915054906101000a900473ffffffffffffffffffffffffffffffffffffffff1681565b60085481565b60145f9054906101000a900460ff1681565b60015f9054906101000a900473ffffffffffffffffffffffffffffffffffffffff1673ffffffffffffffffffffffffffffffffffffffff163373ffffffffffffffffffffffffffffffffffffffff1614611846576040517f08c379a000000000000000000000000000000000000000000000000000000000815260040161183d9061420f565b60405180910390fd5b600180600381111561185b5761185a613eb9565b5b60095f9054906101000a900460ff16600381111561187c5761187b613eb9565b5b146118bc576040517f08c379a00000000000000000000000000000000000000000000000000000000081526004016118b390614277565b60405180910390fd5b6118c4613868565b600e5f8373ffffffffffffffffffffffffffffffffffffffff1673ffffffffffffffffffffffffffffffffffffffff1681526020019081526020015f205f9054906101000a900460ff1661194d576040517f08c379a000000000000000000000000000000000000000000000000000000000815260040161194490614418565b60405180910390fd5b5f6064600a60085461195f91906146a1565b611969919061470f565b905060125f8473ffffffffffffffffffffffffffffffffffffffff1673ffffffffffffffffffffffffffffffffffffffff1681526020019081526020015f205f8154809291906119b8906147a7565b91905055505f60055f9054906101000a900473ffffffffffffffffffffffffffffffffffffffff1690508160105f8673ffffffffffffffffffffffffffffffffffffffff1673ffffffffffffffffffffffffffffffffffffffff1681526020019081526020015f205410158015611aa65750818173ffffffffffffffffffffffffffffffffffffffff166370a08231306040518263ffffffff1660e01b8152600401611a649190614034565b602060405180830381865afa158015611a7f573d5f5f3e3d5ffd5b505050506040513d601f19601f82011682018060405250810190611aa391906142a9565b10155b15611b4b578160105f8673ffffffffffffffffffffffffffffffffffffffff1673ffffffffffffffffffffffffffffffffffffffff1681526020019081526020015f205f828254611af79190614883565b92505081905550611b4a60015f9054906101000a900473ffffffffffffffffffffffffffffffffffffffff16838373ffffffffffffffffffffffffffffffffffffffff166139ab9092919063ffffffff16565b5b8373ffffffffffffffffffffffffffffffffffffffff167ff40ef45a88500961e4ca8bb34c3545f8b26de69ea8af680f186cbaf39d72152783604051611b919190613f54565b60405180910390a2600360125f8673ffffffffffffffffffffffffffffffffffffffff1673ffffffffffffffffffffffffffffffffffffffff1681526020019081526020015f205410611be857611be7846139fe565b5b5050611bf261393c565b5050565b60065481565b600c5481565b60135481565b60025f9054906101000a900473ffffffffffffffffffffffffffffffffffffffff1681565b60015f9054906101000a900473ffffffffffffffffffffffffffffffffffffffff1673ffffffffffffffffffffffffffffffffffffffff163373ffffffffffffffffffffffffffffffffffffffff1614611cbc576040517f08c379a0000000000000000000000000000000000000000000000000000000008152600401611cb39061420f565b60405180910390fd5b6001806003811115611cd157611cd0613eb9565b5b60095f9054906101000a900460ff166003811115611cf257611cf1613eb9565b5b14611d32576040517f08c379a0000000000000000000000000000000000000000000000000000000008152600401611d2990614277565b60405180910390fd5b600e5f8373ffffffffffffffffffffffffffffffffffffffff1673ffffffffffffffffffffffffffffffffffffffff1681526020019081526020015f205f9054906101000a900460ff16611dbb576040517f08c379a0000000000000000000000000000000000000000000000000000000008152600401611db290614418565b60405180910390fd5b60145f9054906101000a900460ff16611e09576040517f08c379a0000000000000000000000000000000000000000000000000000000008152600401611e0090614900565b60405180910390fd5b60115f8373ffffffffffffffffffffffffffffffffffffffff1673ffffffffffffffffffffffffffffffffffffffff1681526020019081526020015f205f9054906101000a900460ff1615611e93576040517f08c379a0000000000000000000000000000000000000000000000000000000008152600401611e8a90614968565b60405180910390fd5b600160115f8473ffffffffffffffffffffffffffffffffffffffff1673ffffffffffffffffffffffffffffffffffffffff1681526020019081526020015f205f6101000a81548160ff0219169083151502179055508173ffffffffffffffffffffffffffffffffffffffff167fe00650a181c1a2b1d3f6c55fe66bc77550c78a8f72c5715e047cafd61be06c67600c54604051611f309190613f54565b60405180910390a25050565b60015f9054906101000a900473ffffffffffffffffffffffffffffffffffffffff1673ffffffffffffffffffffffffffffffffffffffff163373ffffffffffffffffffffffffffffffffffffffff1614611fcb576040517f08c379a0000000000000000000000000000000000000000000000000000000008152600401611fc29061420f565b60405180910390fd5b6001806003811115611fe057611fdf613eb9565b5b60095f9054906101000a900460ff16600381111561200157612000613eb9565b5b14612041576040517f08c379a000000000000000000000000000000000000000000000000000000000815260040161203890614277565b60405180910390fd5b600e5f8473ffffffffffffffffffffffffffffffffffffffff1673ffffffffffffffffffffffffffffffffffffffff1681526020019081526020015f205f9054906101000a900460ff166120ca576040517f08c379a00000000000000000000000000000000000000000000000000000000081526004016120c190614418565b60405180910390fd5b60145f9054906101000a900460ff16612118576040517f08c379a000000000000000000000000000000000000000000000000000000000815260040161210f90614900565b60405180910390fd5b600b54600f5f8573ffffffffffffffffffffffffffffffffffffffff1673ffffffffffffffffffffffffffffffffffffffff1681526020019081526020015f205414612199576040517f08c379a0000000000000000000000000000000000000000000000000000000008152600401612190906149d0565b60405180910390fd5b600b5f8154809291906121ab906147a7565b9190505550600c5f8154809291906121c2906147a7565b91905055505f5f90505b600d80549050811015612275575f60115f600d84815481106121f1576121f06147ee565b5b905f5260205f20015f9054906101000a900473ffffffffffffffffffffffffffffffffffffffff1673ffffffffffffffffffffffffffffffffffffffff1673ffffffffffffffffffffffffffffffffffffffff1681526020019081526020015f205f6101000a81548160ff02191690831515021790555080806001019150506121cc565b50600d80549050600b54106122db57600260095f6101000a81548160ff021916908360038111156122a9576122a8613eb9565b5b02179055507fdf90819e1122eef4a1d19215dfe6aa85aa2f8a1c60e53ae52143e1fd6c5f3bee60405160405180910390a15b8273ffffffffffffffffffffffffffffffffffffffff167fc4354f62513a3e5611a6f4c3a1e58511ff84c28bb0d387a89496d352d7aa8939836040516123219190613f54565b60405180910390a2505050565b5f600d80549050905090565b60055f9054906101000a900473ffffffffffffffffffffffffffffffffffffffff1681565b6060600d8054806020026020016040519081016040528092919081815260200182805480156123e057602002820191905f5260205f20905b815f9054906101000a900473ffffffffffffffffffffffffffffffffffffffff1673ffffffffffffffffffffffffffffffffffffffff1681526020019060010190808311612397575b5050505050905090565b60045f9054906101000a900473ffffffffffffffffffffffffffffffffffffffff1681565b6010602052805f5260405f205f915090505481565b600e602052805f5260405f205f915054906101000a900460ff1681565b60035f9054906101000a900473ffffffffffffffffffffffffffffffffffffffff1681565b6012602052805f5260405f205f915090505481565b5f80600381111561248f5761248e613eb9565b5b60095f9054906101000a900460ff1660038111156124b0576124af613eb9565b5b146124f0576040517f08c379a00000000000000000000000000000000000000000000000000000000081526004016124e790614277565b60405180910390fd5b6124f8613868565b600e5f3373ffffffffffffffffffffffffffffffffffffffff1673ffffffffffffffffffffffffffffffffffffffff1681526020019081526020015f205f9054906101000a900460ff1615612582576040517f08c379a000000000000000000000000000000000000000000000000000000000815260040161257990614a38565b60405180910390fd5b6032600d80549050106125ca576040517f08c379a00000000000000000000000000000000000000000000000000000000081526004016125c190614aa0565b60405180910390fd5b5f60025f9054906101000a900473ffffffffffffffffffffffffffffffffffffffff1690508073ffffffffffffffffffffffffffffffffffffffff166327822fcf336006546040518363ffffffff1660e01b815260040161262c929190614abe565b602060405180830381865afa158015612647573d5f5f3e3d5ffd5b505050506040513d601f19601f8201168201806040525081019061266b9190614b0f565b6126aa576040517f08c379a00000000000000000000000000000000000000000000000000000000081526004016126a190614b84565b60405180910390fd5b600d80549050600f5f3373ffffffffffffffffffffffffffffffffffffffff1673ffffffffffffffffffffffffffffffffffffffff1681526020019081526020015f2081905550600d33908060018154018082558091505060019003905f5260205f20015f9091909190916101000a81548173ffffffffffffffffffffffffffffffffffffffff021916908373ffffffffffffffffffffffffffffffffffffffff1602179055506001600e5f3373ffffffffffffffffffffffffffffffffffffffff1673ffffffffffffffffffffffffffffffffffffffff1681526020019081526020015f205f6101000a81548160ff0219169083151502179055503373ffffffffffffffffffffffffffffffffffffffff167f0abf3b3f643594d958297062a019458e27d7766629590ac621aa1000fa1298ab60405160405180910390a2506127f261393c565b50565b60015f9054906101000a900473ffffffffffffffffffffffffffffffffffffffff1673ffffffffffffffffffffffffffffffffffffffff163373ffffffffffffffffffffffffffffffffffffffff1614612884576040517f08c379a000000000000000000000000000000000000000000000000000000000815260040161287b9061420f565b60405180910390fd5b600180600381111561289957612898613eb9565b5b60095f9054906101000a900460ff1660038111156128ba576128b9613eb9565b5b146128fa576040517f08c379a00000000000000000000000000000000000000000000000000000000081526004016128f190614277565b60405180910390fd5b60145f9054906101000a900460ff1615612949576040517f08c379a000000000000000000000000000000000000000000000000000000000815260040161294090614bec565b60405180910390fd5b600160145f6101000a81548160ff0219169083151502179055507f7d93b5f9dc67fd0a202d146bdcb8d0c172093df52d6d086ab2486eccda57fe9460405160405180910390a150565b60095f9054906101000a900460ff1681565b5f5481565b6016602052805f5260405f205f915054906101000a900460ff1681565b60015f9054906101000a900473ffffffffffffffffffffffffffffffffffffffff1673ffffffffffffffffffffffffffffffffffffffff163373ffffffffffffffffffffffffffffffffffffffff1614612a55576040517f08c379a0000000000000000000000000000000000000000000000000000000008152600401612a4c9061420f565b60405180910390fd5b5f806003811115612a6957612a68613eb9565b5b60095f9054906101000a900460ff166003811115612a8a57612a89613eb9565b5b14612aca576040517f08c379a0000000000000000000000000000000000000000000000000000000008152600401612ac190614277565b60405180910390fd5b5f73ffffffffffffffffffffffffffffffffffffffff168373ffffffffffffffffffffffffffffffffffffffff1603612b38576040517f08c379a0000000000000000000000000000000000000000000000000000000008152600401612b2f90614c54565b60405180910390fd5b5f8211612b7a576040517f08c379a0000000000000000000000000000000000000000000000000000000008152600401612b7190614cbc565b60405180910390fd5b8260055f6101000a81548173ffffffffffffffffffffffffffffffffffffffff021916908373ffffffffffffffffffffffffffffffffffffffff16021790555081600881905550505050565b600e5f3373ffffffffffffffffffffffffffffffffffffffff1673ffffffffffffffffffffffffffffffffffffffff1681526020019081526020015f205f9054906101000a900460ff16612c4f576040517f08c379a0000000000000000000000000000000000000000000000000000000008152600401612c4690614418565b60405180910390fd5b6001806003811115612c6457612c63613eb9565b5b60095f9054906101000a900460ff166003811115612c8557612c84613eb9565b5b14612cc5576040517f08c379a0000000000000000000000000000000000000000000000000000000008152600401612cbc90614277565b60405180910390fd5b612ccd613868565b60115f3373ffffffffffffffffffffffffffffffffffffffff1673ffffffffffffffffffffffffffffffffffffffff1681526020019081526020015f205f9054906101000a900460ff1615612d57576040517f08c379a0000000000000000000000000000000000000000000000000000000008152600401612d4e90614968565b60405180910390fd5b5f60055f9054906101000a900473ffffffffffffffffffffffffffffffffffffffff169050612dab33306008548473ffffffffffffffffffffffffffffffffffffffff16613956909392919063ffffffff16565b60085460105f3373ffffffffffffffffffffffffffffffffffffffff1673ffffffffffffffffffffffffffffffffffffffff1681526020019081526020015f205f828254612df99190614606565b92505081905550600160115f3373ffffffffffffffffffffffffffffffffffffffff1673ffffffffffffffffffffffffffffffffffffffff1681526020019081526020015f205f6101000a81548160ff0219169083151502179055503373ffffffffffffffffffffffffffffffffffffffff167f6770260ea820d2f539364e7617e021543aaf6d192f2fd2a47c20db6bd99a4eb9600854604051612e9d9190613f54565b60405180910390a250612eae61393c565b50565b600a5481565b60015f9054906101000a900473ffffffffffffffffffffffffffffffffffffffff1673ffffffffffffffffffffffffffffffffffffffff163373ffffffffffffffffffffffffffffffffffffffff1614612f46576040517f08c379a0000000000000000000000000000000000000000000000000000000008152600401612f3d9061420f565b60405180910390fd5b6001806003811115612f5b57612f5a613eb9565b5b60095f9054906101000a900460ff166003811115612f7c57612f7b613eb9565b5b14612fbc576040517f08c379a0000000000000000000000000000000000000000000000000000000008152600401612fb390614277565b60405180910390fd5b612fc4613868565b5f60035f9054906101000a900473ffffffffffffffffffffffffffffffffffffffff1690505f8173ffffffffffffffffffffffffffffffffffffffff1663d15e005360055f9054906101000a900473ffffffffffffffffffffffffffffffffffffffff166040518263ffffffff1660e01b81526004016130449190614034565b602060405180830381865afa15801561305f573d5f5f3e3d5ffd5b505050506040513d601f19601f8201168201806040525081019061308391906142a9565b90505f81116130c7576040517f08c379a00000000000000000000000000000000000000000000000000000000081526004016130be90614d24565b60405180910390fd5b5f60045f9054906101000a900473ffffffffffffffffffffffffffffffffffffffff1690505f8173ffffffffffffffffffffffffffffffffffffffff166370a08231306040518263ffffffff1660e01b81526004016131269190614034565b602060405180830381865afa158015613141573d5f5f3e3d5ffd5b505050506040513d601f19601f8201168201806040525081019061316591906142a9565b90505f8111156133ae578373ffffffffffffffffffffffffffffffffffffffff166369328dec60055f9054906101000a900473ffffffffffffffffffffffffffffffffffffffff1683306040518463ffffffff1660e01b81526004016131cd93929190614d42565b6020604051808303815f875af11580156131e9573d5f5f3e3d5ffd5b505050506040513d601f19601f8201168201806040525081019061320d91906142a9565b505f60055f9054906101000a900473ffffffffffffffffffffffffffffffffffffffff1690505f8173ffffffffffffffffffffffffffffffffffffffff166370a08231306040518263ffffffff1660e01b815260040161326d9190614034565b602060405180830381865afa158015613288573d5f5f3e3d5ffd5b505050506040513d601f19601f820116820180604052508101906132ac91906142a9565b90505f600d805490506008546132c291906146a1565b9050808211156133aa575f81836132d99190614883565b90505f6127106064836132ec91906146a1565b6132f6919061470f565b90505f81111561334d5761334c60015f9054906101000a900473ffffffffffffffffffffffffffffffffffffffff16828773ffffffffffffffffffffffffffffffffffffffff166139ab9092919063ffffffff16565b5b80826133599190614883565b60135f8282546133699190614606565b925050819055507feb2d114a827fe0da3db4c0e374010959cf461f7ed76987aeff51666dea9add9b8260405161339f9190613f54565b60405180910390a150505b5050505b505050506133ba61393c565b50565b60015f9054906101000a900473ffffffffffffffffffffffffffffffffffffffff1673ffffffffffffffffffffffffffffffffffffffff163373ffffffffffffffffffffffffffffffffffffffff161461344c576040517f08c379a00000000000000000000000000000000000000000000000000000000081526004016134439061420f565b60405180910390fd5b5f8060038111156134605761345f613eb9565b5b60095f9054906101000a900460ff16600381111561348157613480613eb9565b5b146134c1576040517f08c379a00000000000000000000000000000000000000000000000000000000081526004016134b890614277565b60405180910390fd5b5f600d8054905011613508576040517f08c379a00000000000000000000000000000000000000000000000000000000081526004016134ff90614dc1565b60405180910390fd5b600160095f6101000a81548160ff0219169083600381111561352d5761352c613eb9565b5b021790555042600a819055506001600c819055505f547f99a57c67df4f41b63e799c8f7427b6f3e4e4fbea70a2fde7dfdecbce4b62c98560405160405180910390a250565b60015f9054906101000a900473ffffffffffffffffffffffffffffffffffffffff1681565b600e5f3373ffffffffffffffffffffffffffffffffffffffff1673ffffffffffffffffffffffffffffffffffffffff1681526020019081526020015f205f9054906101000a900460ff16613620576040517f08c379a000000000000000000000000000000000000000000000000000000000815260040161361790614418565b60405180910390fd5b600180600381111561363557613634613eb9565b5b60095f9054906101000a900460ff16600381111561365657613655613eb9565b5b14613696576040517f08c379a000000000000000000000000000000000000000000000000000000000815260040161368d90614277565b60405180910390fd5b5f5f1b82036136da576040517f08c379a00000000000000000000000000000000000000000000000000000000081526004016136d190614e29565b60405180910390fd5b60165f3373ffffffffffffffffffffffffffffffffffffffff1673ffffffffffffffffffffffffffffffffffffffff1681526020019081526020015f205f9054906101000a900460ff1615613764576040517f08c379a000000000000000000000000000000000000000000000000000000000815260040161375b90614e91565b60405180910390fd5b8160155f3373ffffffffffffffffffffffffffffffffffffffff1673ffffffffffffffffffffffffffffffffffffffff1681526020019081526020015f2081905550600160165f3373ffffffffffffffffffffffffffffffffffffffff1673ffffffffffffffffffffffffffffffffffffffff1681526020019081526020015f205f6101000a81548160ff0219169083151502179055503373ffffffffffffffffffffffffffffffffffffffff167f51b7fd9bf25ba725ee4207ae0eec00838c80a4a9318c760e162c19666ae2471483604051613841919061419c565b60405180910390a25050565b60075481565b6015602052805f5260405f205f915090505481565b613870613c22565b600261388261387d613c63565b613c8c565b5f0181905550565b6138968383835f613c95565b613937576138a783835f6001613c95565b6138e857826040517f5274afe70000000000000000000000000000000000000000000000000000000081526004016138df9190614034565b60405180910390fd5b6138f58383836001613c95565b61393657826040517f5274afe700000000000000000000000000000000000000000000000000000000815260040161392d9190614034565b60405180910390fd5b5b505050565b600161394e613949613c63565b613c8c565b5f0181905550565b613964848484846001613cf7565b6139a557836040517f5274afe700000000000000000000000000000000000000000000000000000000815260040161399c9190614034565b60405180910390fd5b50505050565b6139b88383836001613d68565b6139f957826040517f5274afe70000000000000000000000000000000000000000000000000000000081526004016139f09190614034565b60405180910390fd5b505050565b5f600f5f8373ffffffffffffffffffffffffffffffffffffffff1673ffffffffffffffffffffffffffffffffffffffff1681526020019081526020015f20549050600b54811015613a6157600b5f815480929190613a5b90614eaf565b91905055505b5f600d6001600d80549050613a769190614883565b81548110613a8757613a866147ee565b5b905f5260205f20015f9054906101000a900473ffffffffffffffffffffffffffffffffffffffff16905080600d8381548110613ac657613ac56147ee565b5b905f5260205f20015f6101000a81548173ffffffffffffffffffffffffffffffffffffffff021916908373ffffffffffffffffffffffffffffffffffffffff16021790555081600f5f8373ffffffffffffffffffffffffffffffffffffffff1673ffffffffffffffffffffffffffffffffffffffff1681526020019081526020015f2081905550600d805480613b5f57613b5e614ed6565b5b600190038181905f5260205f20015f6101000a81549073ffffffffffffffffffffffffffffffffffffffff02191690559055600e5f8473ffffffffffffffffffffffffffffffffffffffff1673ffffffffffffffffffffffffffffffffffffffff1681526020019081526020015f205f6101000a81549060ff0219169055600f5f8473ffffffffffffffffffffffffffffffffffffffff1673ffffffffffffffffffffffffffffffffffffffff1681526020019081526020015f205f9055505050565b613c2a613dca565b15613c61576040517f3ee5aeb500000000000000000000000000000000000000000000000000000000815260040160405180910390fd5b565b5f7f9b779b17422d0df92223018b32b4d1fa46e071723d6817e2486d003becc55f005f1b905090565b5f819050919050565b5f5f63095ea7b360e01b9050604051815f525f1960601c86166004528460245260205f60445f5f8b5af1925060015f51148316613ce9578383151615613cdd573d5f823e3d81fd5b5f873b113d1516831692505b806040525050949350505050565b5f5f6323b872dd60e01b9050604051815f525f1960601c87166004525f1960601c86166024528460445260205f60645f5f8c5af1925060015f51148316613d55578383151615613d49573d5f823e3d81fd5b5f883b113d1516831692505b806040525f606052505095945050505050565b5f5f63a9059cbb60e01b9050604051815f525f1960601c86166004528460245260205f60445f5f8b5af1925060015f51148316613dbc578383151615613db0573d5f823e3d81fd5b5f873b113d1516831692505b806040525050949350505050565b5f6002613ddd613dd8613c63565b613c8c565b5f015414905090565b5f5ffd5b5f819050919050565b613dfc81613dea565b8114613e06575f5ffd5b50565b5f81359050613e1781613df3565b92915050565b5f60208284031215613e3257613e31613de6565b5b5f613e3f84828501613e09565b91505092915050565b5f819050919050565b613e5a81613e48565b8114613e64575f5ffd5b50565b5f81359050613e7581613e51565b92915050565b5f5f60408385031215613e9157613e90613de6565b5b5f613e9e85828601613e09565b9250506020613eaf85828601613e67565b9150509250929050565b7f4e487b71000000000000000000000000000000000000000000000000000000005f52602160045260245ffd5b60048110613ef757613ef6613eb9565b5b50565b5f819050613f0782613ee6565b919050565b5f613f1682613efa565b9050919050565b613f2681613f0c565b82525050565b5f602082019050613f3f5f830184613f1d565b92915050565b613f4e81613dea565b82525050565b5f602082019050613f675f830184613f45565b92915050565b5f73ffffffffffffffffffffffffffffffffffffffff82169050919050565b5f613f9682613f6d565b9050919050565b613fa681613f8c565b8114613fb0575f5ffd5b50565b5f81359050613fc181613f9d565b92915050565b5f60208284031215613fdc57613fdb613de6565b5b5f613fe984828501613fb3565b91505092915050565b5f8115159050919050565b61400681613ff2565b82525050565b5f60208201905061401f5f830184613ffd565b92915050565b61402e81613f8c565b82525050565b5f6020820190506140475f830184614025565b92915050565b5f5f6040838503121561406357614062613de6565b5b5f61407085828601613fb3565b925050602061408185828601613e09565b9150509250929050565b5f81519050919050565b5f82825260208201905092915050565b5f819050602082019050919050565b6140bd81613f8c565b82525050565b5f6140ce83836140b4565b60208301905092915050565b5f602082019050919050565b5f6140f08261408b565b6140fa8185614095565b9350614105836140a5565b805f5b8381101561413557815161411c88826140c3565b9750614127836140da565b925050600181019050614108565b5085935050505092915050565b5f6020820190508181035f83015261415a81846140e6565b905092915050565b5f6020828403121561417757614176613de6565b5b5f61418484828501613e67565b91505092915050565b61419681613e48565b82525050565b5f6020820190506141af5f83018461418d565b92915050565b5f82825260208201905092915050565b7f4f6e6c79206167656e742063616e2063616c6c207468697300000000000000005f82015250565b5f6141f96018836141b5565b9150614204826141c5565b602082019050919050565b5f6020820190508181035f830152614226816141ed565b9050919050565b7f496e76616c696420636972636c652073746174650000000000000000000000005f82015250565b5f6142616014836141b5565b915061426c8261422d565b602082019050919050565b5f6020820190508181035f83015261428e81614255565b9050919050565b5f815190506142a381613df3565b92915050565b5f602082840312156142be576142bd613de6565b5b5f6142cb84828501614295565b91505092915050565b7f496e73756666696369656e742062616c616e63650000000000000000000000005f82015250565b5f6143086014836141b5565b9150614313826142d4565b602082019050919050565b5f6020820190508181035f830152614335816142fc565b9050919050565b5f819050919050565b5f61ffff82169050919050565b5f819050919050565b5f61437561437061436b8461433c565b614352565b614345565b9050919050565b6143858161435b565b82525050565b5f60808201905061439e5f830187614025565b6143ab6020830186613f45565b6143b86040830185614025565b6143c5606083018461437c565b95945050505050565b7f4e6f742061206d656d62657200000000000000000000000000000000000000005f82015250565b5f614402600c836141b5565b915061440d826143ce565b602082019050919050565b5f6020820190508181035f83015261442f816143f6565b9050919050565b7f4e6f20636f6d6d69746d656e7420666f756e64000000000000000000000000005f82015250565b5f61446a6013836141b5565b915061447582614436565b602082019050919050565b5f6020820190508181035f8301526144978161445e565b9050919050565b7f416c72656164792072657665616c6564207468697320726f756e6400000000005f82015250565b5f6144d2601b836141b5565b91506144dd8261449e565b602082019050919050565b5f6020820190508181035f8301526144ff816144c6565b9050919050565b5f819050919050565b61452061451b82613dea565b614506565b82525050565b5f819050919050565b61454061453b82613e48565b614526565b82525050565b5f614551828561450f565b602082019150614561828461452f565b6020820191508190509392505050565b7f436f6d6d69746d656e742068617368206d69736d6174636800000000000000005f82015250565b5f6145a56018836141b5565b91506145b082614571565b602082019050919050565b5f6020820190508181035f8301526145d281614599565b9050919050565b7f4e487b71000000000000000000000000000000000000000000000000000000005f52601160045260245ffd5b5f61461082613dea565b915061461b83613dea565b9250828201905080821115614633576146326145d9565b5b92915050565b7f4e6f7420796f7572207475726e000000000000000000000000000000000000005f82015250565b5f61466d600d836141b5565b915061467882614639565b602082019050919050565b5f6020820190508181035f83015261469a81614661565b9050919050565b5f6146ab82613dea565b91506146b683613dea565b92508282026146c481613dea565b915082820484148315176146db576146da6145d9565b5b5092915050565b7f4e487b71000000000000000000000000000000000000000000000000000000005f52601260045260245ffd5b5f61471982613dea565b915061472483613dea565b925082614734576147336146e2565b5b828204905092915050565b7f496e73756666696369656e742066756e647300000000000000000000000000005f82015250565b5f6147736012836141b5565b915061477e8261473f565b602082019050919050565b5f6020820190508181035f8301526147a081614767565b9050919050565b5f6147b182613dea565b91507fffffffffffffffffffffffffffffffffffffffffffffffffffffffffffffffff82036147e3576147e26145d9565b5b600182019050919050565b7f4e487b71000000000000000000000000000000000000000000000000000000005f52603260045260245ffd5b7f416c726561647920636f6d706c657465640000000000000000000000000000005f82015250565b5f61484f6011836141b5565b915061485a8261481b565b602082019050919050565b5f6020820190508181035f83015261487c81614843565b9050919050565b5f61488d82613dea565b915061489883613dea565b92508282039050818111156148b0576148af6145d9565b5b92915050565b7f4e6967687466616c6c206d6f6465206e6f7420656e61626c65640000000000005f82015250565b5f6148ea601a836141b5565b91506148f5826148b6565b602082019050919050565b5f6020820190508181035f830152614917816148de565b9050919050565b7f416c726561647920636f6e7472696275746564207468697320726f756e6400005f82015250565b5f614952601e836141b5565b915061495d8261491e565b602082019050919050565b5f6020820190508181035f83015261497f81614946565b9050919050565b7f4e6f74207468656972207475726e0000000000000000000000000000000000005f82015250565b5f6149ba600e836141b5565b91506149c582614986565b602082019050919050565b5f6020820190508181035f8301526149e7816149ae565b9050919050565b7f416c72656164792061206d656d626572000000000000000000000000000000005f82015250565b5f614a226010836141b5565b9150614a2d826149ee565b602082019050919050565b5f6020820190508181035f830152614a4f81614a16565b9050919050565b7f436972636c652069732066756c6c0000000000000000000000000000000000005f82015250565b5f614a8a600e836141b5565b9150614a9582614a56565b602082019050919050565b5f6020820190508181035f830152614ab781614a7e565b9050919050565b5f604082019050614ad15f830185614025565b614ade6020830184613f45565b9392505050565b614aee81613ff2565b8114614af8575f5ffd5b50565b5f81519050614b0981614ae5565b92915050565b5f60208284031215614b2457614b23613de6565b5b5f614b3184828501614afb565b91505092915050565b7f496e73756666696369656e742074727573742073636f726500000000000000005f82015250565b5f614b6e6018836141b5565b9150614b7982614b3a565b602082019050919050565b5f6020820190508181035f830152614b9b81614b62565b9050919050565b7f4e6967687466616c6c206d6f646520616c726561647920656e61626c656400005f82015250565b5f614bd6601e836141b5565b9150614be182614ba2565b602082019050919050565b5f6020820190508181035f830152614c0381614bca565b9050919050565b7f496e76616c696420746f6b656e000000000000000000000000000000000000005f82015250565b5f614c3e600d836141b5565b9150614c4982614c0a565b602082019050919050565b5f6020820190508181035f830152614c6b81614c32565b9050919050565b7f496e76616c696420636f6e747269627574696f6e20616d6f756e7400000000005f82015250565b5f614ca6601b836141b5565b9150614cb182614c72565b602082019050919050565b5f6020820190508181035f830152614cd381614c9a565b9050919050565b7f496e76616c6964207265736572766500000000000000000000000000000000005f82015250565b5f614d0e600f836141b5565b9150614d1982614cda565b602082019050919050565b5f6020820190508181035f830152614d3b81614d02565b9050919050565b5f606082019050614d555f830186614025565b614d626020830185613f45565b614d6f6040830184614025565b949350505050565b7f4e6f206d656d6265727320696e20636972636c650000000000000000000000005f82015250565b5f614dab6014836141b5565b9150614db682614d77565b602082019050919050565b5f6020820190508181035f830152614dd881614d9f565b9050919050565b7f496e76616c696420636f6d6d69746d656e7400000000000000000000000000005f82015250565b5f614e136012836141b5565b9150614e1e82614ddf565b602082019050919050565b5f6020820190508181035f830152614e4081614e07565b9050919050565b7f416c726561647920636f6d6d6974746564207468697320726f756e64000000005f82015250565b5f614e7b601c836141b5565b9150614e8682614e47565b602082019050919050565b5f6020820190508181035f830152614ea881614e6f565b9050919050565b5f614eb982613dea565b91505f8203614ecb57614eca6145d9565b5b600182039050919050565b7f4e487b71000000000000000000000000000000000000000000000000000000005f52603160045260245ffdfea2646970667358221220105ada0b109ac11590783469002b89c3c8ffee9e9d8aaa6c76c50564b8d1b1f164736f6c634300081c0033a26469706673582212202787875c13a0bebcd7511a683cc7c6da752b31b1726a45b5f46f1d84cef4681c64736f6c634300081c0033","linkReferences":{}},"methodIdentifiers":{"circleList(uint256)":"4210faf8","circles(uint256)":"bc5e0f30","createCircle(address,address,address,address,uint256,uint256)":"bc51f6f5","getAllCircles()":"b9305353","getCircle(uint256)":"64ccecde","getCircleCount()":"e1f2dfce","owner()":"8da5cb5b","transferOwnership(address)":"f2fde38b"},"id":46}