{"abi":[{"type":"constructor","inputs":[],"stateMutability":"nonpayable"},{"type":"function","name":"batchFulfill","inputs":[{"name":"intentIds","type":"uint256[]","internalType":"uint256[]"},{"name":"compositeSolution","type":"bytes","internalType":"bytes"}],"outputs":[],"stateMutability":"nonpayable"},{"type":"function","name":"cancelIntent","inputs":[{"name":"intentId","type":"uint256","internalType":"uint256"}],"outputs":[],"stateMutability":"nonpayable"},{"type":"function","name":"depositIntentCounter","inputs":[],"outputs":[{"name":"","type":"uint256","internalType":"uint256"}],"stateMutability":"view"},{"type":"function","name":"depositIntents","inputs":[{"name":"","type":"uint256","internalType":"uint256"}],"outputs":[{"name":"circleId","type":"uint256","internalType":"uint256"},{"name":"amount","type":"uint256","internalType":"uint256"},{"name":"salt","type":"bytes32","internalType":"bytes32"},{"name":"commitmentHash","type":"bytes32","internalType":"bytes32"},{"name":"createdAt","type":"uint256","internalType":"uint256"},{"name":"deposited","type":"bool","internalType":"bool"}],"stateMutability":"view"},{"type":"function","name":"deregisterAgent","inputs":[{"name":"agent","type":"address","internalType":"address"}],"outputs":[],"stateMutability":"nonpayable"},{"type":"function","name":"fulfillIntent","inputs":[{"name":"intentId","type":"uint256","internalType":"uint256"},{"name":"solution","type":"bytes","internalType":"bytes"}],"outputs":[],"stateMutability":"nonpayable"},{"type":"function","name":"getDepositIntent","inputs":[{"name":"depositIntentId","type":"uint256","internalType":"uint256"}],"outputs":[{"name":"","type":"tuple","internalType":"struct IntentRegistry.NightfallDepositIntent","components":[{"name":"circleId","type":"uint256","internalType":"uint256"},{"name":"amount","type":"uint256","internalType":"uint256"},{"name":"salt","type":"bytes32","internalType":"bytes32"},{"name":"commitmentHash","type":"bytes32","internalType":"bytes32"},{"name":"createdAt","type":"uint256","internalType":"uint256"},{"name":"deposited","type":"bool","internalType":"bool"}]}],"stateMutability":"view"},{"type":"function","name":"getIntent","inputs":[{"name":"intentId","type":"uint256","internalType":"uint256"}],"outputs":[{"name":"","type":"tuple","internalType":"struct IntentRegistry.Intent","components":[{"name":"id","type":"uint256","internalType":"uint256"},{"name":"intentType","type":"uint8","internalType":"enum IntentRegistry.IntentType"},{"name":"creator","type":"address","internalType":"address"},{"name":"paramsHash","type":"bytes32","internalType":"bytes32"},{"name":"createdAt","type":"uint256","internalType":"uint256"},{"name":"expiresAt","type":"uint256","internalType":"uint256"},{"name":"fulfilled","type":"bool","internalType":"bool"},{"name":"cancelled","type":"bool","internalType":"bool"}]}],"stateMutability":"view"},{"type":"function","name":"getIntentCount","inputs":[],"outputs":[{"name":"","type":"uint256","internalType":"uint256"}],"stateMutability":"view"},{"type":"function","name":"getOpenIntents","inputs":[{"name":"intentType","type":"uint8","internalType":"enum IntentRegistry.IntentType"}],"outputs":[{"name":"","type":"tuple[]","internalType":"struct IntentRegistry.Intent[]","components":[{"name":"id","type":"uint256","internalType":"uint256"},{"name":"intentType","type":"uint8","internalType":"enum IntentRegistry.IntentType"},{"name":"creator","type":"address","internalType":"address"},{"name":"paramsHash","type":"bytes32","internalType":"bytes32"},{"name":"createdAt","type":"uint256","internalType":"uint256"},{"name":"expiresAt","type":"uint256","internalType":"uint256"},{"name":"fulfilled","type":"bool","internalType":"bool"},{"name":"cancelled","type":"bool","internalType":"bool"}]}],"stateMutability":"view"},{"type":"function","name":"intents","inputs":[{"name":"","type":"uint256","internalType":"uint256"}],"outputs":[{"name":"id","type":"uint256","internalType":"uint256"},{"name":"intentType","type":"uint8","internalType":"enum IntentRegistry.IntentType"},{"name":"creator","type":"address","internalType":"address"},{"name":"paramsHash","type":"bytes32","internalType":"bytes32"},{"name":"createdAt","type":"uint256","internalType":"uint256"},{"name":"expiresAt","type":"uint256","internalType":"uint256"},{"name":"fulfilled","type":"bool","internalType":"bool"},{"name":"cancelled","type":"bool","internalType":"bool"}],"stateMutability":"view"},{"type":"function","name":"markNightfallDeposited","inputs":[{"name":"depositIntentId","type":"uint256","internalType":"uint256"}],"outputs":[],"stateMutability":"nonpayable"},{"type":"function","name":"owner","inputs":[],"outputs":[{"name":"","type":"address","internalType":"address"}],"stateMutability":"view"},{"type":"function","name":"registerAgent","inputs":[{"name":"agent","type":"address","internalType":"address"}],"outputs":[],"stateMutability":"nonpayable"},{"type":"function","name":"registeredAgents","inputs":[{"name":"","type":"address","internalType":"address"}],"outputs":[{"name":"","type":"bool","internalType":"bool"}],"stateMutability":"view"},{"type":"function","name":"submitIntent","inputs":[{"name":"intentType","type":"uint8","internalType":"enum IntentRegistry.IntentType"},{"name":"params","type":"bytes","internalType":"bytes"},{"name":"expiresAt","type":"uint256","internalType":"uint256"}],"outputs":[{"name":"","type":"uint256","internalType":"uint256"}],"stateMutability":"nonpayable"},{"type":"function","name":"submitNightfallDeposit","inputs":[{"name":"circleId","type":"uint256","internalType":"uint256"},{"name":"amount","type":"uint256","internalType":"uint256"},{"name":"salt","type":"bytes32","internalType":"bytes32"}],"outputs":[{"name":"","type":"uint256","internalType":"uint256"}],"stateMutability":"nonpayable"},{"type":"function","name":"transferOwnership","inputs":[{"name":"newOwner","type":"address","internalType":"address"}],"outputs":[],"stateMutability":"nonpayable"},{"type":"event","name":"AgentDeregistered","inputs":[{"name":"agent","type":"address","indexed":true,"internalType":"address"}],"anonymous":false},{"type":"event","name":"AgentRegistered","inputs":[{"name":"agent","type":"address","indexed":true,"internalType":"address"}],"anonymous":false},{"type":"event","name":"IntentBatchFulfilled","inputs":[{"name":"intentIds","type":"uint256[]","indexed":false,"internalType":"uint256[]"},{"name":"agent","type":"address","indexed":true,"internalType":"address"},{"name":"compositeSolution","type":"bytes","indexed":false,"internalType":"bytes"}],"anonymous":false},{"type":"event","name":"IntentCancelled","inputs":[{"name":"intentId","type":"uint256","indexed":true,"internalType":"uint256"}],"anonymous":false},{"type":"event","name":"IntentFulfilled","inputs":[{"name":"intentId","type":"uint256","indexed":true,"internalType":"uint256"},{"name":"agent","type":"address","indexed":true,"internalType":"address"}],"anonymous":false},{"type":"event","name":"IntentSubmitted","inputs":[{"name":"intentId","type":"uint256","indexed":true,"internalType":"uint256"},{"name":"intentType","type":"uint8","indexed":true,"internalType":"enum IntentRegistry.IntentType"},{"name":"creator","type":"address","indexed":true,"internalType":"address"},{"name":"expiresAt","type":"uint256","indexed":false,"internalType":"uint256"}],"anonymous":false}],"bytecode":{"object":"0x608060405260015f55600180553480156016575f5ffd5b503360065f6101000a81548173ffffffffffffffffffffffffffffffffffffffff021916908373ffffffffffffffffffffffffffffffffffffffff160217905550612cb4806100645f395ff3fe608060405234801561000f575f5ffd5b5060043610610114575f3560e01c80638da5cb5b116100a0578063a0a31aac1161006f578063a0a31aac14610320578063df6933931461033c578063f2fde38b1461036c578063f6c0d45a14610388578063fd930f0b146103a657610114565b80638da5cb5b146102865780638f6c0f92146102a4578063906e277b146102c05780639acb58d1146102f057610114565b806322229c7e116100e757806322229c7e146101b7578063306b9bb9146101e757806344caa8391461020357806346a1a0951461021f57806374ee82fc1461025657610114565b806309498789146101185780630e1f4b89146101345780631bb8f26c146101525780631f90c4ea14610187575b5f5ffd5b610132600480360381019061012d9190611a8e565b6103c2565b005b61013c61064f565b6040516101499190611b24565b60405180910390f35b61016c60048036038101906101679190611b67565b610663565b60405161017e96959493929190611bc4565b60405180910390f35b6101a1600480360381019061019c9190611c46565b6106a7565b6040516101ae9190611b24565b60405180910390f35b6101d160048036038101906101cc9190611cb7565b6108cc565b6040516101de9190611f0a565b60405180910390f35b61020160048036038101906101fc9190611f54565b610be0565b005b61021d60048036038101906102189190611f7f565b610d78565b005b61023960048036038101906102349190611b67565b610f73565b60405161024d989796959493929190611ffa565b60405180910390f35b610270600480360381019061026b9190611f54565b610ffc565b60405161027d9190612076565b60405180910390f35b61028e611019565b60405161029b919061208f565b60405180910390f35b6102be60048036038101906102b99190611f54565b61103e565b005b6102da60048036038101906102d59190611b67565b611167565b6040516102e79190612148565b60405180910390f35b61030a6004803603810190610305919061218c565b61127f565b6040516103179190611b24565b60405180910390f35b61033a60048036038101906103359190611b67565b61144a565b005b61035660048036038101906103519190611b67565b6115e1565b6040516103639190612255565b60405180910390f35b61038660048036038101906103819190611f54565b611657565b005b610390611797565b60405161039d9190611b24565b60405180910390f35b6103c060048036038101906103bb9190611b67565b61179d565b005b60055f3373ffffffffffffffffffffffffffffffffffffffff1673ffffffffffffffffffffffffffffffffffffffff1681526020019081526020015f205f9054906101000a900460ff1661044b576040517f08c379a0000000000000000000000000000000000000000000000000000000008152600401610442906122c8565b60405180910390fd5b5f8484905011610490576040517f08c379a000000000000000000000000000000000000000000000000000000000815260040161048790612330565b60405180910390fd5b5f5f90505b848490508110156105f4575f8585838181106104b4576104b361234e565b5b9050602002013590505f60025f8381526020019081526020015f209050806005015f9054906101000a900460ff1615610522576040517f08c379a0000000000000000000000000000000000000000000000000000000008152600401610519906123c5565b60405180910390fd5b8060050160019054906101000a900460ff1615610574576040517f08c379a000000000000000000000000000000000000000000000000000000000815260040161056b9061242d565b60405180910390fd5b5f8160040154148061058a575080600401544211155b6105c9576040517f08c379a00000000000000000000000000000000000000000000000000000000081526004016105c090612495565b60405180910390fd5b6001816005015f6101000a81548160ff02191690831515021790555050508080600101915050610495565b503373ffffffffffffffffffffffffffffffffffffffff167ff8a811a1aea7198314ebec8ea10f515e14624267c44f77b23d557359c50cf94d858585856040516106419493929190612585565b60405180910390a250505050565b5f60015f5461065e91906125eb565b905090565b6004602052805f5260405f205f91509050805f015490806001015490806002015490806003015490806004015490806005015f9054906101000a900460ff16905086565b5f5f8214806106b557504282115b6106f4576040517f08c379a00000000000000000000000000000000000000000000000000000000081526004016106eb90612668565b60405180910390fd5b5f5f5f81548092919061070690612686565b9190505590505f858560405161071d9291906126fb565b604051809103902090505f60025f8481526020019081526020015f20905082815f018190555087816001015f6101000a81548160ff0219169083600681111561076957610768611d1a565b5b0217905550338160010160016101000a81548173ffffffffffffffffffffffffffffffffffffffff021916908373ffffffffffffffffffffffffffffffffffffffff1602179055508181600201819055504281600301819055508481600401819055505f816005015f6101000a81548160ff0219169083151502179055505f8160050160016101000a81548160ff02191690831515021790555060035f89600681111561081957610818611d1a565b5b600681111561082b5761082a611d1a565b5b81526020019081526020015f2083908060018154018082558091505060019003905f5260205f20015f90919091909150553373ffffffffffffffffffffffffffffffffffffffff1688600681111561088657610885611d1a565b5b847ffdfa5fb93fcd4c63f8ca885e92aba86a610027d5e85367a6e96a46e6331916c7886040516108b69190611b24565b60405180910390a4829350505050949350505050565b60605f60035f8460068111156108e5576108e4611d1a565b5b60068111156108f7576108f6611d1a565b5b81526020019081526020015f2090505f5f90505f5f90505b82805490508110156109b5575f60025f8584815481106109325761093161234e565b5b905f5260205f20015481526020019081526020015f209050806005015f9054906101000a900460ff1615801561097757508060050160019054906101000a900460ff16155b156109a7575f81600401541480610992575080600401544211155b156109a65782806109a290612686565b9350505b5b50808060010191505061090f565b505f8167ffffffffffffffff8111156109d1576109d0612713565b5b604051908082528060200260200182016040528015610a0a57816020015b6109f7611935565b8152602001906001900390816109ef5790505b5090505f5f90505f5f90505b8480549050811015610bd3575f60025f878481548110610a3957610a3861234e565b5b905f5260205f20015481526020019081526020015f209050806005015f9054906101000a900460ff16158015610a7e57508060050160019054906101000a900460ff16155b15610bc5575f81600401541480610a99575080600401544211155b15610bc45780604051806101000160405290815f8201548152602001600182015f9054906101000a900460ff166006811115610ad857610ad7611d1a565b5b6006811115610aea57610ae9611d1a565b5b81526020016001820160019054906101000a900473ffffffffffffffffffffffffffffffffffffffff1673ffffffffffffffffffffffffffffffffffffffff1673ffffffffffffffffffffffffffffffffffffffff168152602001600282015481526020016003820154815260200160048201548152602001600582015f9054906101000a900460ff161515151581526020016005820160019054906101000a900460ff161515151581525050848481518110610baa57610ba961234e565b5b60200260200101819052508280610bc090612686565b9350505b5b508080600101915050610a16565b5081945050505050919050565b60065f9054906101000a900473ffffffffffffffffffffffffffffffffffffffff1673ffffffffffffffffffffffffffffffffffffffff163373ffffffffffffffffffffffffffffffffffffffff1614610c6f576040517f08c379a0000000000000000000000000000000000000000000000000000000008152600401610c669061278a565b60405180910390fd5b5f73ffffffffffffffffffffffffffffffffffffffff168173ffffffffffffffffffffffffffffffffffffffff1603610cdd576040517f08c379a0000000000000000000000000000000000000000000000000000000008152600401610cd4906127f2565b60405180910390fd5b600160055f8373ffffffffffffffffffffffffffffffffffffffff1673ffffffffffffffffffffffffffffffffffffffff1681526020019081526020015f205f6101000a81548160ff0219169083151502179055508073ffffffffffffffffffffffffffffffffffffffff167f82d0829d9d481e4cb9913897f9b9c903271c4db68c7b3324071d2a7e3b2c5ff060405160405180910390a250565b60055f3373ffffffffffffffffffffffffffffffffffffffff1673ffffffffffffffffffffffffffffffffffffffff1681526020019081526020015f205f9054906101000a900460ff16610e01576040517f08c379a0000000000000000000000000000000000000000000000000000000008152600401610df8906122c8565b60405180910390fd5b5f60025f8581526020019081526020015f209050806005015f9054906101000a900460ff1615610e66576040517f08c379a0000000000000000000000000000000000000000000000000000000008152600401610e5d9061285a565b60405180910390fd5b8060050160019054906101000a900460ff1615610eb8576040517f08c379a0000000000000000000000000000000000000000000000000000000008152600401610eaf9061242d565b60405180910390fd5b5f81600401541480610ece575080600401544211155b610f0d576040517f08c379a0000000000000000000000000000000000000000000000000000000008152600401610f0490612495565b60405180910390fd5b6001816005015f6101000a81548160ff0219169083151502179055503373ffffffffffffffffffffffffffffffffffffffff16847facd98cc903e879a3f583a5e699eb13024d10e0ec0c48a036ed45469ed9994ff660405160405180910390a350505050565b6002602052805f5260405f205f91509050805f015490806001015f9054906101000a900460ff16908060010160019054906101000a900473ffffffffffffffffffffffffffffffffffffffff1690806002015490806003015490806004015490806005015f9054906101000a900460ff16908060050160019054906101000a900460ff16905088565b6005602052805f5260405f205f915054906101000a900460ff1681565b60065f9054906101000a900473ffffffffffffffffffffffffffffffffffffffff1681565b60065f9054906101000a900473ffffffffffffffffffffffffffffffffffffffff1673ffffffffffffffffffffffffffffffffffffffff163373ffffffffffffffffffffffffffffffffffffffff16146110cd576040517f08c379a00000000000000000000000000000000000000000000000000000000081526004016110c49061278a565b60405180910390fd5b5f60055f8373ffffffffffffffffffffffffffffffffffffffff1673ffffffffffffffffffffffffffffffffffffffff1681526020019081526020015f205f6101000a81548160ff0219169083151502179055508073ffffffffffffffffffffffffffffffffffffffff167fcd7d9ced6282be80b75fa747c535d58e02a973ac92b9707cb663514caa62fb8d60405160405180910390a250565b61116f611935565b60025f8381526020019081526020015f20604051806101000160405290815f8201548152602001600182015f9054906101000a900460ff1660068111156111b9576111b8611d1a565b5b60068111156111cb576111ca611d1a565b5b81526020016001820160019054906101000a900473ffffffffffffffffffffffffffffffffffffffff1673ffffffffffffffffffffffffffffffffffffffff1673ffffffffffffffffffffffffffffffffffffffff168152602001600282015481526020016003820154815260200160048201548152602001600582015f9054906101000a900460ff161515151581526020016005820160019054906101000a900460ff1615151515815250509050919050565b5f5f84116112c2576040517f08c379a00000000000000000000000000000000000000000000000000000000081526004016112b9906128c2565b60405180910390fd5b5f8311611304576040517f08c379a00000000000000000000000000000000000000000000000000000000081526004016112fb9061292a565b60405180910390fd5b5f8383604051602001611318929190612988565b6040516020818303038152906040528051906020012090505f60015f81548092919061134390612686565b9190505590506040518060c001604052808781526020018681526020018581526020018381526020014281526020015f151581525060045f8381526020019081526020015f205f820151815f01556020820151816001015560408201518160020155606082015181600301556080820151816004015560a0820151816005015f6101000a81548160ff0219169083151502179055509050503373ffffffffffffffffffffffffffffffffffffffff166005600681111561140657611405611d1a565b5b827ffdfa5fb93fcd4c63f8ca885e92aba86a610027d5e85367a6e96a46e6331916c75f60405161143691906129f5565b60405180910390a480925050509392505050565b5f60025f8381526020019081526020015f2090503373ffffffffffffffffffffffffffffffffffffffff168160010160019054906101000a900473ffffffffffffffffffffffffffffffffffffffff1673ffffffffffffffffffffffffffffffffffffffff16146114f0576040517f08c379a00000000000000000000000000000000000000000000000000000000081526004016114e790612a58565b60405180910390fd5b806005015f9054906101000a900460ff1615611541576040517f08c379a000000000000000000000000000000000000000000000000000000000815260040161153890612ac0565b60405180910390fd5b8060050160019054906101000a900460ff1615611593576040517f08c379a000000000000000000000000000000000000000000000000000000000815260040161158a90612b28565b60405180910390fd5b60018160050160016101000a81548160ff021916908315150217905550817f2d8c53f76eb0afab114916b6c3aa17406ad39c7e874c92b099f79ab89c2e2a5460405160405180910390a25050565b6115e961199e565b60045f8381526020019081526020015f206040518060c00160405290815f820154815260200160018201548152602001600282015481526020016003820154815260200160048201548152602001600582015f9054906101000a900460ff1615151515815250509050919050565b60065f9054906101000a900473ffffffffffffffffffffffffffffffffffffffff1673ffffffffffffffffffffffffffffffffffffffff163373ffffffffffffffffffffffffffffffffffffffff16146116e6576040517f08c379a00000000000000000000000000000000000000000000000000000000081526004016116dd9061278a565b60405180910390fd5b5f73ffffffffffffffffffffffffffffffffffffffff168173ffffffffffffffffffffffffffffffffffffffff1603611754576040517f08c379a000000000000000000000000000000000000000000000000000000000815260040161174b90612b90565b60405180910390fd5b8060065f6101000a81548173ffffffffffffffffffffffffffffffffffffffff021916908373ffffffffffffffffffffffffffffffffffffffff16021790555050565b60015481565b60055f3373ffffffffffffffffffffffffffffffffffffffff1673ffffffffffffffffffffffffffffffffffffffff1681526020019081526020015f205f9054906101000a900460ff16611826576040517f08c379a000000000000000000000000000000000000000000000000000000000815260040161181d906122c8565b60405180910390fd5b5f60045f8381526020019081526020015f2090505f816004015403611880576040517f08c379a000000000000000000000000000000000000000000000000000000000815260040161187790612bf8565b60405180910390fd5b806005015f9054906101000a900460ff16156118d1576040517f08c379a00000000000000000000000000000000000000000000000000000000081526004016118c890612c60565b60405180910390fd5b6001816005015f6101000a81548160ff0219169083151502179055503373ffffffffffffffffffffffffffffffffffffffff16827facd98cc903e879a3f583a5e699eb13024d10e0ec0c48a036ed45469ed9994ff660405160405180910390a35050565b6040518061010001604052805f81526020015f600681111561195a57611959611d1a565b5b81526020015f73ffffffffffffffffffffffffffffffffffffffff1681526020015f81526020015f81526020015f81526020015f151581526020015f151581525090565b6040518060c001604052805f81526020015f81526020015f81526020015f81526020015f81526020015f151581525090565b5f5ffd5b5f5ffd5b5f5ffd5b5f5ffd5b5f5ffd5b5f5f83601f8401126119f9576119f86119d8565b5b8235905067ffffffffffffffff811115611a1657611a156119dc565b5b602083019150836020820283011115611a3257611a316119e0565b5b9250929050565b5f5f83601f840112611a4e57611a4d6119d8565b5b8235905067ffffffffffffffff811115611a6b57611a6a6119dc565b5b602083019150836001820283011115611a8757611a866119e0565b5b9250929050565b5f5f5f5f60408587031215611aa657611aa56119d0565b5b5f85013567ffffffffffffffff811115611ac357611ac26119d4565b5b611acf878288016119e4565b9450945050602085013567ffffffffffffffff811115611af257611af16119d4565b5b611afe87828801611a39565b925092505092959194509250565b5f819050919050565b611b1e81611b0c565b82525050565b5f602082019050611b375f830184611b15565b92915050565b611b4681611b0c565b8114611b50575f5ffd5b50565b5f81359050611b6181611b3d565b92915050565b5f60208284031215611b7c57611b7b6119d0565b5b5f611b8984828501611b53565b91505092915050565b5f819050919050565b611ba481611b92565b82525050565b5f8115159050919050565b611bbe81611baa565b82525050565b5f60c082019050611bd75f830189611b15565b611be46020830188611b15565b611bf16040830187611b9b565b611bfe6060830186611b9b565b611c0b6080830185611b15565b611c1860a0830184611bb5565b979650505050505050565b60078110611c2f575f5ffd5b50565b5f81359050611c4081611c23565b92915050565b5f5f5f5f60608587031215611c5e57611c5d6119d0565b5b5f611c6b87828801611c32565b945050602085013567ffffffffffffffff811115611c8c57611c8b6119d4565b5b611c9887828801611a39565b93509350506040611cab87828801611b53565b91505092959194509250565b5f60208284031215611ccc57611ccb6119d0565b5b5f611cd984828501611c32565b91505092915050565b5f81519050919050565b5f82825260208201905092915050565b5f819050602082019050919050565b611d1481611b0c565b82525050565b7f4e487b71000000000000000000000000000000000000000000000000000000005f52602160045260245ffd5b60078110611d5857611d57611d1a565b5b50565b5f819050611d6882611d47565b919050565b5f611d7782611d5b565b9050919050565b611d8781611d6d565b82525050565b5f73ffffffffffffffffffffffffffffffffffffffff82169050919050565b5f611db682611d8d565b9050919050565b611dc681611dac565b82525050565b611dd581611b92565b82525050565b611de481611baa565b82525050565b61010082015f820151611dff5f850182611d0b565b506020820151611e126020850182611d7e565b506040820151611e256040850182611dbd565b506060820151611e386060850182611dcc565b506080820151611e4b6080850182611d0b565b5060a0820151611e5e60a0850182611d0b565b5060c0820151611e7160c0850182611ddb565b5060e0820151611e8460e0850182611ddb565b50505050565b5f611e958383611dea565b6101008301905092915050565b5f602082019050919050565b5f611eb882611ce2565b611ec28185611cec565b9350611ecd83611cfc565b805f5b83811015611efd578151611ee48882611e8a565b9750611eef83611ea2565b925050600181019050611ed0565b5085935050505092915050565b5f6020820190508181035f830152611f228184611eae565b905092915050565b611f3381611dac565b8114611f3d575f5ffd5b50565b5f81359050611f4e81611f2a565b92915050565b5f60208284031215611f6957611f686119d0565b5b5f611f7684828501611f40565b91505092915050565b5f5f5f60408486031215611f9657611f956119d0565b5b5f611fa386828701611b53565b935050602084013567ffffffffffffffff811115611fc457611fc36119d4565b5b611fd086828701611a39565b92509250509250925092565b611fe581611d6d565b82525050565b611ff481611dac565b82525050565b5f6101008201905061200e5f83018b611b15565b61201b602083018a611fdc565b6120286040830189611feb565b6120356060830188611b9b565b6120426080830187611b15565b61204f60a0830186611b15565b61205c60c0830185611bb5565b61206960e0830184611bb5565b9998505050505050505050565b5f6020820190506120895f830184611bb5565b92915050565b5f6020820190506120a25f830184611feb565b92915050565b61010082015f8201516120bd5f850182611d0b565b5060208201516120d06020850182611d7e565b5060408201516120e36040850182611dbd565b5060608201516120f66060850182611dcc565b5060808201516121096080850182611d0b565b5060a082015161211c60a0850182611d0b565b5060c082015161212f60c0850182611ddb565b5060e082015161214260e0850182611ddb565b50505050565b5f6101008201905061215c5f8301846120a8565b92915050565b61216b81611b92565b8114612175575f5ffd5b50565b5f8135905061218681612162565b92915050565b5f5f5f606084860312156121a3576121a26119d0565b5b5f6121b086828701611b53565b93505060206121c186828701611b53565b92505060406121d286828701612178565b9150509250925092565b60c082015f8201516121f05f850182611d0b565b5060208201516122036020850182611d0b565b5060408201516122166040850182611dcc565b5060608201516122296060850182611dcc565b50608082015161223c6080850182611d0b565b5060a082015161224f60a0850182611ddb565b50505050565b5f60c0820190506122685f8301846121dc565b92915050565b5f82825260208201905092915050565b7f4e6f7420612072656769737465726564206167656e74000000000000000000005f82015250565b5f6122b260168361226e565b91506122bd8261227e565b602082019050919050565b5f6020820190508181035f8301526122df816122a6565b9050919050565b7f4d7573742066756c66696c6c206174206c65617374206f6e6520696e74656e745f82015250565b5f61231a60208361226e565b9150612325826122e6565b602082019050919050565b5f6020820190508181035f8301526123478161230e565b9050919050565b7f4e487b71000000000000000000000000000000000000000000000000000000005f52603260045260245ffd5b7f496e74656e7420616c72656164792066756c66696c6c656400000000000000005f82015250565b5f6123af60188361226e565b91506123ba8261237b565b602082019050919050565b5f6020820190508181035f8301526123dc816123a3565b9050919050565b7f496e74656e742069732063616e63656c6c6564000000000000000000000000005f82015250565b5f61241760138361226e565b9150612422826123e3565b602082019050919050565b5f6020820190508181035f8301526124448161240b565b9050919050565b7f496e74656e7420657870697265640000000000000000000000000000000000005f82015250565b5f61247f600e8361226e565b915061248a8261244b565b602082019050919050565b5f6020820190508181035f8301526124ac81612473565b9050919050565b5f82825260208201905092915050565b5f5ffd5b82818337505050565b5f6124db83856124b3565b93507f07ffffffffffffffffffffffffffffffffffffffffffffffffffffffffffffff83111561250e5761250d6124c3565b5b60208302925061251f8385846124c7565b82840190509392505050565b5f82825260208201905092915050565b828183375f83830152505050565b5f601f19601f8301169050919050565b5f612564838561252b565b935061257183858461253b565b61257a83612549565b840190509392505050565b5f6040820190508181035f83015261259e8186886124d0565b905081810360208301526125b3818486612559565b905095945050505050565b7f4e487b71000000000000000000000000000000000000000000000000000000005f52601160045260245ffd5b5f6125f582611b0c565b915061260083611b0c565b9250828203905081811115612618576126176125be565b5b92915050565b7f496e76616c6964206578706972790000000000000000000000000000000000005f82015250565b5f612652600e8361226e565b915061265d8261261e565b602082019050919050565b5f6020820190508181035f83015261267f81612646565b9050919050565b5f61269082611b0c565b91507fffffffffffffffffffffffffffffffffffffffffffffffffffffffffffffffff82036126c2576126c16125be565b5b600182019050919050565b5f81905092915050565b5f6126e283856126cd565b93506126ef83858461253b565b82840190509392505050565b5f6127078284866126d7565b91508190509392505050565b7f4e487b71000000000000000000000000000000000000000000000000000000005f52604160045260245ffd5b7f4f6e6c79206f776e65722063616e2063616c6c207468697300000000000000005f82015250565b5f61277460188361226e565b915061277f82612740565b602082019050919050565b5f6020820190508181035f8301526127a181612768565b9050919050565b7f496e76616c6964206167656e74206164647265737300000000000000000000005f82015250565b5f6127dc60158361226e565b91506127e7826127a8565b602082019050919050565b5f6020820190508181035f830152612809816127d0565b9050919050565b7f416c72656164792066756c66696c6c65640000000000000000000000000000005f82015250565b5f61284460118361226e565b915061284f82612810565b602082019050919050565b5f6020820190508181035f83015261287181612838565b9050919050565b7f496e76616c696420636972636c652049440000000000000000000000000000005f82015250565b5f6128ac60118361226e565b91506128b782612878565b602082019050919050565b5f6020820190508181035f8301526128d9816128a0565b9050919050565b7f496e76616c696420616d6f756e740000000000000000000000000000000000005f82015250565b5f612914600e8361226e565b915061291f826128e0565b602082019050919050565b5f6020820190508181035f83015261294181612908565b9050919050565b5f819050919050565b61296261295d82611b0c565b612948565b82525050565b5f819050919050565b61298261297d82611b92565b612968565b82525050565b5f6129938285612951565b6020820191506129a38284612971565b6020820191508190509392505050565b5f819050919050565b5f819050919050565b5f6129df6129da6129d5846129b3565b6129bc565b611b0c565b9050919050565b6129ef816129c5565b82525050565b5f602082019050612a085f8301846129e6565b92915050565b7f4f6e6c792063726561746f722063616e2063616e63656c0000000000000000005f82015250565b5f612a4260178361226e565b9150612a4d82612a0e565b602082019050919050565b5f6020820190508181035f830152612a6f81612a36565b9050919050565b7f43616e6e6f742063616e63656c2066756c66696c6c656420696e74656e7400005f82015250565b5f612aaa601e8361226e565b9150612ab582612a76565b602082019050919050565b5f6020820190508181035f830152612ad781612a9e565b9050919050565b7f416c72656164792063616e63656c6c65640000000000000000000000000000005f82015250565b5f612b1260118361226e565b9150612b1d82612ade565b602082019050919050565b5f6020820190508181035f830152612b3f81612b06565b9050919050565b7f496e76616c6964206e6577206f776e65720000000000000000000000000000005f82015250565b5f612b7a60118361226e565b9150612b8582612b46565b602082019050919050565b5f6020820190508181035f830152612ba781612b6e565b9050919050565b7f4465706f73697420696e74656e74206e6f7420666f756e6400000000000000005f82015250565b5f612be260188361226e565b9150612bed82612bae565b602082019050919050565b5f6020820190508181035f830152612c0f81612bd6565b9050919050565b7f416c7265616479206d61726b6564206173206465706f736974656400000000005f82015250565b5f612c4a601b8361226e565b9150612c5582612c16565b602082019050919050565b5f6020820190508181035f830152612c7781612c3e565b905091905056fea2646970667358221220554da0882998627b87bac70f72dc4da6e1745462403db960eb0c7936cfb6b00764736f6c634300081c0033","linkReferences":{}},"methodIdentifiers":{"batchFulfill(uint256[],bytes)":"09498789","cancelIntent(uint256)":"a0a31aac","depositIntentCounter()":"f6c0d45a","depositIntents(uint256)":"1bb8f26c","deregisterAgent(address)":"8f6c0f92","fulfillIntent(uint256,bytes)":"44caa839","getDepositIntent(uint256)":"df693393","getIntent(uint256)":"906e277b","getIntentCount()":"0e1f4b89","getOpenIntents(uint8)":"22229c7e","intents(uint256)":"46a1a095","markNightfallDeposited(uint256)":"fd930f0b","owner()":"8da5cb5b","registerAgent(address)":"306b9bb9","registeredAgents(address)":"74ee82fc","submitIntent(uint8,bytes,uint256)":"1f90c4ea","submitNightfallDeposit(uint256,uint256,bytes32)":"9acb58d1","transferOwnership(address)":"f2fde38b"},"id":33}