{"abi":[{"type":"constructor","inputs":[],"stateMutability":"nonpayable"},{"type":"function","name":"batchFulfill","inputs":[{"name":"intentIds","type":"uint256[]","internalType":"uint256[]"},{"name":"compositeSolution","type":"bytes","internalType":"bytes"}],"outputs":[],"stateMutability":"nonpayable"},{"type":"function","name":"cancelIntent","inputs":[{"name":"intentId","type":"uint256","internalType":"uint256"}],"outputs":[],"stateMutability":"nonpayable"},{"type":"function","name":"deregisterAgent","inputs":[{"name":"agent","type":"address","internalType":"address"}],"outputs":[],"stateMutability":"nonpayable"},{"type":"function","name":"fulfillIntent","inputs":[{"name":"intentId","type":"uint256","internalType":"uint256"},{"name":"solution","type":"bytes","internalType":"bytes"}],"outputs":[],"stateMutability":"nonpayable"},{"type":"function","name":"getIntent","inputs":[{"name":"intentId","type":"uint256","internalType":"uint256"}],"outputs":[{"name":"","type":"tuple","internalType":"struct IntentRegistry.Intent","components":[{"name":"id","type":"uint256","internalType":"uint256"},{"name":"intentType","type":"uint8","internalType":"enum IntentRegistry.IntentType"},{"name":"creator","type":"address","internalType":"address"},{"name":"paramsHash","type":"bytes32","internalType":"bytes32"},{"name":"createdAt","type":"uint256","internalType":"uint256"},{"name":"expiresAt","type":"uint256","internalType":"uint256"},{"name":"fulfilled","type":"bool","internalType":"bool"},{"name":"cancelled","type":"bool","internalType":"bool"}]}],"stateMutability":"view"},{"type":"function","name":"getIntentCount","inputs":[],"outputs":[{"name":"","type":"uint256","internalType":"uint256"}],"stateMutability":"view"},{"type":"function","name":"getOpenIntents","inputs":[{"name":"intentType","type":"uint8","internalType":"enum IntentRegistry.IntentType"}],"outputs":[{"name":"","type":"tuple[]","internalType":"struct IntentRegistry.Intent[]","components":[{"name":"id","type":"uint256","internalType":"uint256"},{"name":"intentType","type":"uint8","internalType":"enum IntentRegistry.IntentType"},{"name":"creator","type":"address","internalType":"address"},{"name":"paramsHash","type":"bytes32","internalType":"bytes32"},{"name":"createdAt","type":"uint256","internalType":"uint256"},{"name":"expiresAt","type":"uint256","internalType":"uint256"},{"name":"fulfilled","type":"bool","internalType":"bool"},{"name":"cancelled","type":"bool","internalType":"bool"}]}],"stateMutability":"view"},{"type":"function","name":"intents","inputs":[{"name":"","type":"uint256","internalType":"uint256"}],"outputs":[{"name":"id","type":"uint256","internalType":"uint256"},{"name":"intentType","type":"uint8","internalType":"enum IntentRegistry.IntentType"},{"name":"creator","type":"address","internalType":"address"},{"name":"paramsHash","type":"bytes32","internalType":"bytes32"},{"name":"createdAt","type":"uint256","internalType":"uint256"},{"name":"expiresAt","type":"uint256","internalType":"uint256"},{"name":"fulfilled","type":"bool","internalType":"bool"},{"name":"cancelled","type":"bool","internalType":"bool"}],"stateMutability":"view"},{"type":"function","name":"owner","inputs":[],"outputs":[{"name":"","type":"address","internalType":"address"}],"stateMutability":"view"},{"type":"function","name":"registerAgent","inputs":[{"name":"agent","type":"address","internalType":"address"}],"outputs":[],"stateMutability":"nonpayable"},{"type":"function","name":"registeredAgents","inputs":[{"name":"","type":"address","internalType":"address"}],"outputs":[{"name":"","type":"bool","internalType":"bool"}],"stateMutability":"view"},{"type":"function","name":"submitIntent","inputs":[{"name":"intentType","type":"uint8","internalType":"enum IntentRegistry.IntentType"},{"name":"params","type":"bytes","internalType":"bytes"},{"name":"expiresAt","type":"uint256","internalType":"uint256"}],"outputs":[{"name":"","type":"uint256","internalType":"uint256"}],"stateMutability":"nonpayable"},{"type":"function","name":"transferOwnership","inputs":[{"name":"newOwner","type":"address","internalType":"address"}],"outputs":[],"stateMutability":"nonpayable"},{"type":"event","name":"AgentDeregistered","inputs":[{"name":"agent","type":"address","indexed":true,"internalType":"address"}],"anonymous":false},{"type":"event","name":"AgentRegistered","inputs":[{"name":"agent","type":"address","indexed":true,"internalType":"address"}],"anonymous":false},{"type":"event","name":"IntentBatchFulfilled","inputs":[{"name":"intentIds","type":"uint256[]","indexed":false,"internalType":"uint256[]"},{"name":"agent","type":"address","indexed":true,"internalType":"address"},{"name":"compositeSolution","type":"bytes","indexed":false,"internalType":"bytes"}],"anonymous":false},{"type":"event","name":"IntentCancelled","inputs":[{"name":"intentId","type":"uint256","indexed":true,"internalType":"uint256"}],"anonymous":false},{"type":"event","name":"IntentFulfilled","inputs":[{"name":"intentId","type":"uint256","indexed":true,"internalType":"uint256"},{"name":"agent","type":"address","indexed":true,"internalType":"address"}],"anonymous":false},{"type":"event","name":"IntentSubmitted","inputs":[{"name":"intentId","type":"uint256","indexed":true,"internalType":"uint256"},{"name":"intentType","type":"uint8","indexed":true,"internalType":"enum IntentRegistry.IntentType"},{"name":"creator","type":"address","indexed":true,"internalType":"address"},{"name":"expiresAt","type":"uint256","indexed":false,"internalType":"uint256"}],"anonymous":false}],"bytecode":{"object":"0x608060405260015f553480156012575f5ffd5b503360045f6101000a81548173ffffffffffffffffffffffffffffffffffffffff021916908373ffffffffffffffffffffffffffffffffffffffff160217905550612378806100605f395ff3fe608060405234801561000f575f5ffd5b50600436106100cd575f3560e01c806346a1a0951161008a5780638f6c0f92116100645780638f6c0f9214610228578063906e277b14610244578063a0a31aac14610274578063f2fde38b14610290576100cd565b806346a1a095146101a357806374ee82fc146101da5780638da5cb5b1461020a576100cd565b806309498789146100d15780630e1f4b89146100ed5780631f90c4ea1461010b57806322229c7e1461013b578063306b9bb91461016b57806344caa83914610187575b5f5ffd5b6100eb60048036038101906100e69190611523565b6102ac565b005b6100f5610539565b60405161010291906115b9565b60405180910390f35b6101256004803603810190610120919061161f565b61054d565b60405161013291906115b9565b60405180910390f35b61015560048036038101906101509190611690565b610772565b60405161016291906118f7565b60405180910390f35b61018560048036038101906101809190611941565b610a86565b005b6101a1600480360381019061019c919061196c565b610c1e565b005b6101bd60048036038101906101b891906119c9565b610e19565b6040516101d1989796959493929190611a30565b60405180910390f35b6101f460048036038101906101ef9190611941565b610ea2565b6040516102019190611aac565b60405180910390f35b610212610ebf565b60405161021f9190611ac5565b60405180910390f35b610242600480360381019061023d9190611941565b610ee4565b005b61025e600480360381019061025991906119c9565b61100d565b60405161026b9190611b7e565b60405180910390f35b61028e600480360381019061028991906119c9565b611125565b005b6102aa60048036038101906102a59190611941565b6112bc565b005b60035f3373ffffffffffffffffffffffffffffffffffffffff1673ffffffffffffffffffffffffffffffffffffffff1681526020019081526020015f205f9054906101000a900460ff16610335576040517f08c379a000000000000000000000000000000000000000000000000000000000815260040161032c90611bf2565b60405180910390fd5b5f848490501161037a576040517f08c379a000000000000000000000000000000000000000000000000000000000815260040161037190611c5a565b60405180910390fd5b5f5f90505b848490508110156104de575f85858381811061039e5761039d611c78565b5b9050602002013590505f60015f8381526020019081526020015f209050806005015f9054906101000a900460ff161561040c576040517f08c379a000000000000000000000000000000000000000000000000000000000815260040161040390611cef565b60405180910390fd5b8060050160019054906101000a900460ff161561045e576040517f08c379a000000000000000000000000000000000000000000000000000000000815260040161045590611d57565b60405180910390fd5b5f81600401541480610474575080600401544211155b6104b3576040517f08c379a00000000000000000000000000000000000000000000000000000000081526004016104aa90611dbf565b60405180910390fd5b6001816005015f6101000a81548160ff0219169083151502179055505050808060010191505061037f565b503373ffffffffffffffffffffffffffffffffffffffff167ff8a811a1aea7198314ebec8ea10f515e14624267c44f77b23d557359c50cf94d8585858560405161052b9493929190611eaf565b60405180910390a250505050565b5f60015f546105489190611f15565b905090565b5f5f82148061055b57504282115b61059a576040517f08c379a000000000000000000000000000000000000000000000000000000000815260040161059190611f92565b60405180910390fd5b5f5f5f8154809291906105ac90611fb0565b9190505590505f85856040516105c3929190612025565b604051809103902090505f60015f8481526020019081526020015f20905082815f018190555087816001015f6101000a81548160ff0219169083600481111561060f5761060e6116f3565b5b0217905550338160010160016101000a81548173ffffffffffffffffffffffffffffffffffffffff021916908373ffffffffffffffffffffffffffffffffffffffff1602179055508181600201819055504281600301819055508481600401819055505f816005015f6101000a81548160ff0219169083151502179055505f8160050160016101000a81548160ff02191690831515021790555060025f8960048111156106bf576106be6116f3565b5b60048111156106d1576106d06116f3565b5b81526020019081526020015f2083908060018154018082558091505060019003905f5260205f20015f90919091909150553373ffffffffffffffffffffffffffffffffffffffff1688600481111561072c5761072b6116f3565b5b847ffdfa5fb93fcd4c63f8ca885e92aba86a610027d5e85367a6e96a46e6331916c78860405161075c91906115b9565b60405180910390a4829350505050949350505050565b60605f60025f84600481111561078b5761078a6116f3565b5b600481111561079d5761079c6116f3565b5b81526020019081526020015f2090505f5f90505f5f90505b828054905081101561085b575f60015f8584815481106107d8576107d7611c78565b5b905f5260205f20015481526020019081526020015f209050806005015f9054906101000a900460ff1615801561081d57508060050160019054906101000a900460ff16155b1561084d575f81600401541480610838575080600401544211155b1561084c57828061084890611fb0565b9350505b5b5080806001019150506107b5565b505f8167ffffffffffffffff8111156108775761087661203d565b5b6040519080825280602002602001820160405280156108b057816020015b61089d6113fc565b8152602001906001900390816108955790505b5090505f5f90505f5f90505b8480549050811015610a79575f60015f8784815481106108df576108de611c78565b5b905f5260205f20015481526020019081526020015f209050806005015f9054906101000a900460ff1615801561092457508060050160019054906101000a900460ff16155b15610a6b575f8160040154148061093f575080600401544211155b15610a6a5780604051806101000160405290815f8201548152602001600182015f9054906101000a900460ff16600481111561097e5761097d6116f3565b5b60048111156109905761098f6116f3565b5b81526020016001820160019054906101000a900473ffffffffffffffffffffffffffffffffffffffff1673ffffffffffffffffffffffffffffffffffffffff1673ffffffffffffffffffffffffffffffffffffffff168152602001600282015481526020016003820154815260200160048201548152602001600582015f9054906101000a900460ff161515151581526020016005820160019054906101000a900460ff161515151581525050848481518110610a5057610a4f611c78565b5b60200260200101819052508280610a6690611fb0565b9350505b5b5080806001019150506108bc565b5081945050505050919050565b60045f9054906101000a900473ffffffffffffffffffffffffffffffffffffffff1673ffffffffffffffffffffffffffffffffffffffff163373ffffffffffffffffffffffffffffffffffffffff1614610b15576040517f08c379a0000000000000000000000000000000000000000000000000000000008152600401610b0c906120b4565b60405180910390fd5b5f73ffffffffffffffffffffffffffffffffffffffff168173ffffffffffffffffffffffffffffffffffffffff1603610b83576040517f08c379a0000000000000000000000000000000000000000000000000000000008152600401610b7a9061211c565b60405180910390fd5b600160035f8373ffffffffffffffffffffffffffffffffffffffff1673ffffffffffffffffffffffffffffffffffffffff1681526020019081526020015f205f6101000a81548160ff0219169083151502179055508073ffffffffffffffffffffffffffffffffffffffff167f82d0829d9d481e4cb9913897f9b9c903271c4db68c7b3324071d2a7e3b2c5ff060405160405180910390a250565b60035f3373ffffffffffffffffffffffffffffffffffffffff1673ffffffffffffffffffffffffffffffffffffffff1681526020019081526020015f205f9054906101000a900460ff16610ca7576040517f08c379a0000000000000000000000000000000000000000000000000000000008152600401610c9e90611bf2565b60405180910390fd5b5f60015f8581526020019081526020015f209050806005015f9054906101000a900460ff1615610d0c576040517f08c379a0000000000000000000000000000000000000000000000000000000008152600401610d0390612184565b60405180910390fd5b8060050160019054906101000a900460ff1615610d5e576040517f08c379a0000000000000000000000000000000000000000000000000000000008152600401610d5590611d57565b60405180910390fd5b5f81600401541480610d74575080600401544211155b610db3576040517f08c379a0000000000000000000000000000000000000000000000000000000008152600401610daa90611dbf565b60405180910390fd5b6001816005015f6101000a81548160ff0219169083151502179055503373ffffffffffffffffffffffffffffffffffffffff16847facd98cc903e879a3f583a5e699eb13024d10e0ec0c48a036ed45469ed9994ff660405160405180910390a350505050565b6001602052805f5260405f205f91509050805f015490806001015f9054906101000a900460ff16908060010160019054906101000a900473ffffffffffffffffffffffffffffffffffffffff1690806002015490806003015490806004015490806005015f9054906101000a900460ff16908060050160019054906101000a900460ff16905088565b6003602052805f5260405f205f915054906101000a900460ff1681565b60045f9054906101000a900473ffffffffffffffffffffffffffffffffffffffff1681565b60045f9054906101000a900473ffffffffffffffffffffffffffffffffffffffff1673ffffffffffffffffffffffffffffffffffffffff163373ffffffffffffffffffffffffffffffffffffffff1614610f73576040517f08c379a0000000000000000000000000000000000000000000000000000000008152600401610f6a906120b4565b60405180910390fd5b5f60035f8373ffffffffffffffffffffffffffffffffffffffff1673ffffffffffffffffffffffffffffffffffffffff1681526020019081526020015f205f6101000a81548160ff0219169083151502179055508073ffffffffffffffffffffffffffffffffffffffff167fcd7d9ced6282be80b75fa747c535d58e02a973ac92b9707cb663514caa62fb8d60405160405180910390a250565b6110156113fc565b60015f8381526020019081526020015f20604051806101000160405290815f8201548152602001600182015f9054906101000a900460ff16600481111561105f5761105e6116f3565b5b6004811115611071576110706116f3565b5b81526020016001820160019054906101000a900473ffffffffffffffffffffffffffffffffffffffff1673ffffffffffffffffffffffffffffffffffffffff1673ffffffffffffffffffffffffffffffffffffffff168152602001600282015481526020016003820154815260200160048201548152602001600582015f9054906101000a900460ff161515151581526020016005820160019054906101000a900460ff1615151515815250509050919050565b5f60015f8381526020019081526020015f2090503373ffffffffffffffffffffffffffffffffffffffff168160010160019054906101000a900473ffffffffffffffffffffffffffffffffffffffff1673ffffffffffffffffffffffffffffffffffffffff16146111cb576040517f08c379a00000000000000000000000000000000000000000000000000000000081526004016111c2906121ec565b60405180910390fd5b806005015f9054906101000a900460ff161561121c576040517f08c379a000000000000000000000000000000000000000000000000000000000815260040161121390612254565b60405180910390fd5b8060050160019054906101000a900460ff161561126e576040517f08c379a0000000000000000000000000000000000000000000000000000000008152600401611265906122bc565b60405180910390fd5b60018160050160016101000a81548160ff021916908315150217905550817f2d8c53f76eb0afab114916b6c3aa17406ad39c7e874c92b099f79ab89c2e2a5460405160405180910390a25050565b60045f9054906101000a900473ffffffffffffffffffffffffffffffffffffffff1673ffffffffffffffffffffffffffffffffffffffff163373ffffffffffffffffffffffffffffffffffffffff161461134b576040517f08c379a0000000000000000000000000000000000000000000000000000000008152600401611342906120b4565b60405180910390fd5b5f73ffffffffffffffffffffffffffffffffffffffff168173ffffffffffffffffffffffffffffffffffffffff16036113b9576040517f08c379a00000000000000000000000000000000000000000000000000000000081526004016113b090612324565b60405180910390fd5b8060045f6101000a81548173ffffffffffffffffffffffffffffffffffffffff021916908373ffffffffffffffffffffffffffffffffffffffff16021790555050565b6040518061010001604052805f81526020015f6004811115611421576114206116f3565b5b81526020015f73ffffffffffffffffffffffffffffffffffffffff1681526020015f81526020015f81526020015f81526020015f151581526020015f151581525090565b5f5ffd5b5f5ffd5b5f5ffd5b5f5ffd5b5f5ffd5b5f5f83601f84011261148e5761148d61146d565b5b8235905067ffffffffffffffff8111156114ab576114aa611471565b5b6020830191508360208202830111156114c7576114c6611475565b5b9250929050565b5f5f83601f8401126114e3576114e261146d565b5b8235905067ffffffffffffffff811115611500576114ff611471565b5b60208301915083600182028301111561151c5761151b611475565b5b9250929050565b5f5f5f5f6040858703121561153b5761153a611465565b5b5f85013567ffffffffffffffff81111561155857611557611469565b5b61156487828801611479565b9450945050602085013567ffffffffffffffff81111561158757611586611469565b5b611593878288016114ce565b925092505092959194509250565b5f819050919050565b6115b3816115a1565b82525050565b5f6020820190506115cc5f8301846115aa565b92915050565b600581106115de575f5ffd5b50565b5f813590506115ef816115d2565b92915050565b6115fe816115a1565b8114611608575f5ffd5b50565b5f81359050611619816115f5565b92915050565b5f5f5f5f6060858703121561163757611636611465565b5b5f611644878288016115e1565b945050602085013567ffffffffffffffff81111561166557611664611469565b5b611671878288016114ce565b935093505060406116848782880161160b565b91505092959194509250565b5f602082840312156116a5576116a4611465565b5b5f6116b2848285016115e1565b91505092915050565b5f81519050919050565b5f82825260208201905092915050565b5f819050602082019050919050565b6116ed816115a1565b82525050565b7f4e487b71000000000000000000000000000000000000000000000000000000005f52602160045260245ffd5b60058110611731576117306116f3565b5b50565b5f81905061174182611720565b919050565b5f61175082611734565b9050919050565b61176081611746565b82525050565b5f73ffffffffffffffffffffffffffffffffffffffff82169050919050565b5f61178f82611766565b9050919050565b61179f81611785565b82525050565b5f819050919050565b6117b7816117a5565b82525050565b5f8115159050919050565b6117d1816117bd565b82525050565b61010082015f8201516117ec5f8501826116e4565b5060208201516117ff6020850182611757565b5060408201516118126040850182611796565b50606082015161182560608501826117ae565b50608082015161183860808501826116e4565b5060a082015161184b60a08501826116e4565b5060c082015161185e60c08501826117c8565b5060e082015161187160e08501826117c8565b50505050565b5f61188283836117d7565b6101008301905092915050565b5f602082019050919050565b5f6118a5826116bb565b6118af81856116c5565b93506118ba836116d5565b805f5b838110156118ea5781516118d18882611877565b97506118dc8361188f565b9250506001810190506118bd565b5085935050505092915050565b5f6020820190508181035f83015261190f818461189b565b905092915050565b61192081611785565b811461192a575f5ffd5b50565b5f8135905061193b81611917565b92915050565b5f6020828403121561195657611955611465565b5b5f6119638482850161192d565b91505092915050565b5f5f5f6040848603121561198357611982611465565b5b5f6119908682870161160b565b935050602084013567ffffffffffffffff8111156119b1576119b0611469565b5b6119bd868287016114ce565b92509250509250925092565b5f602082840312156119de576119dd611465565b5b5f6119eb8482850161160b565b91505092915050565b6119fd81611746565b82525050565b611a0c81611785565b82525050565b611a1b816117a5565b82525050565b611a2a816117bd565b82525050565b5f61010082019050611a445f83018b6115aa565b611a51602083018a6119f4565b611a5e6040830189611a03565b611a6b6060830188611a12565b611a7860808301876115aa565b611a8560a08301866115aa565b611a9260c0830185611a21565b611a9f60e0830184611a21565b9998505050505050505050565b5f602082019050611abf5f830184611a21565b92915050565b5f602082019050611ad85f830184611a03565b92915050565b61010082015f820151611af35f8501826116e4565b506020820151611b066020850182611757565b506040820151611b196040850182611796565b506060820151611b2c60608501826117ae565b506080820151611b3f60808501826116e4565b5060a0820151611b5260a08501826116e4565b5060c0820151611b6560c08501826117c8565b5060e0820151611b7860e08501826117c8565b50505050565b5f61010082019050611b925f830184611ade565b92915050565b5f82825260208201905092915050565b7f4e6f7420612072656769737465726564206167656e74000000000000000000005f82015250565b5f611bdc601683611b98565b9150611be782611ba8565b602082019050919050565b5f6020820190508181035f830152611c0981611bd0565b9050919050565b7f4d7573742066756c66696c6c206174206c65617374206f6e6520696e74656e745f82015250565b5f611c44602083611b98565b9150611c4f82611c10565b602082019050919050565b5f6020820190508181035f830152611c7181611c38565b9050919050565b7f4e487b71000000000000000000000000000000000000000000000000000000005f52603260045260245ffd5b7f496e74656e7420616c72656164792066756c66696c6c656400000000000000005f82015250565b5f611cd9601883611b98565b9150611ce482611ca5565b602082019050919050565b5f6020820190508181035f830152611d0681611ccd565b9050919050565b7f496e74656e742069732063616e63656c6c6564000000000000000000000000005f82015250565b5f611d41601383611b98565b9150611d4c82611d0d565b602082019050919050565b5f6020820190508181035f830152611d6e81611d35565b9050919050565b7f496e74656e7420657870697265640000000000000000000000000000000000005f82015250565b5f611da9600e83611b98565b9150611db482611d75565b602082019050919050565b5f6020820190508181035f830152611dd681611d9d565b9050919050565b5f82825260208201905092915050565b5f5ffd5b82818337505050565b5f611e058385611ddd565b93507f07ffffffffffffffffffffffffffffffffffffffffffffffffffffffffffffff831115611e3857611e37611ded565b5b602083029250611e49838584611df1565b82840190509392505050565b5f82825260208201905092915050565b828183375f83830152505050565b5f601f19601f8301169050919050565b5f611e8e8385611e55565b9350611e9b838584611e65565b611ea483611e73565b840190509392505050565b5f6040820190508181035f830152611ec8818688611dfa565b90508181036020830152611edd818486611e83565b905095945050505050565b7f4e487b71000000000000000000000000000000000000000000000000000000005f52601160045260245ffd5b5f611f1f826115a1565b9150611f2a836115a1565b9250828203905081811115611f4257611f41611ee8565b5b92915050565b7f496e76616c6964206578706972790000000000000000000000000000000000005f82015250565b5f611f7c600e83611b98565b9150611f8782611f48565b602082019050919050565b5f6020820190508181035f830152611fa981611f70565b9050919050565b5f611fba826115a1565b91507fffffffffffffffffffffffffffffffffffffffffffffffffffffffffffffffff8203611fec57611feb611ee8565b5b600182019050919050565b5f81905092915050565b5f61200c8385611ff7565b9350612019838584611e65565b82840190509392505050565b5f612031828486612001565b91508190509392505050565b7f4e487b71000000000000000000000000000000000000000000000000000000005f52604160045260245ffd5b7f4f6e6c79206f776e65722063616e2063616c6c207468697300000000000000005f82015250565b5f61209e601883611b98565b91506120a98261206a565b602082019050919050565b5f6020820190508181035f8301526120cb81612092565b9050919050565b7f496e76616c6964206167656e74206164647265737300000000000000000000005f82015250565b5f612106601583611b98565b9150612111826120d2565b602082019050919050565b5f6020820190508181035f830152612133816120fa565b9050919050565b7f416c72656164792066756c66696c6c65640000000000000000000000000000005f82015250565b5f61216e601183611b98565b91506121798261213a565b602082019050919050565b5f6020820190508181035f83015261219b81612162565b9050919050565b7f4f6e6c792063726561746f722063616e2063616e63656c0000000000000000005f82015250565b5f6121d6601783611b98565b91506121e1826121a2565b602082019050919050565b5f6020820190508181035f830152612203816121ca565b9050919050565b7f43616e6e6f742063616e63656c2066756c66696c6c656420696e74656e7400005f82015250565b5f61223e601e83611b98565b91506122498261220a565b602082019050919050565b5f6020820190508181035f83015261226b81612232565b9050919050565b7f416c72656164792063616e63656c6c65640000000000000000000000000000005f82015250565b5f6122a6601183611b98565b91506122b182612272565b602082019050919050565b5f6020820190508181035f8301526122d38161229a565b9050919050565b7f496e76616c6964206e6577206f776e65720000000000000000000000000000005f82015250565b5f61230e601183611b98565b9150612319826122da565b602082019050919050565b5f6020820190508181035f83015261233b81612302565b905091905056fea2646970667358221220a661904a9e6490cfb4eaccfd18efac3f888edfb049809ce7c5b6b9905e9f5a8864736f6c634300081c0033","linkReferences":{}},"methodIdentifiers":{"batchFulfill(uint256[],bytes)":"09498789","cancelIntent(uint256)":"a0a31aac","deregisterAgent(address)":"8f6c0f92","fulfillIntent(uint256,bytes)":"44caa839","getIntent(uint256)":"906e277b","getIntentCount()":"0e1f4b89","getOpenIntents(uint8)":"22229c7e","intents(uint256)":"46a1a095","owner()":"8da5cb5b","registerAgent(address)":"306b9bb9","registeredAgents(address)":"74ee82fc","submitIntent(uint8,bytes,uint256)":"1f90c4ea","transferOwnership(address)":"f2fde38b"},"id":36}