{"abi":[{"type":"constructor","inputs":[],"stateMutability":"nonpayable"},{"type":"function","name":"agentInfo","inputs":[{"name":"agent","type":"address","internalType":"address"}],"outputs":[{"name":"","type":"tuple","internalType":"struct AgentRegistry8004.AgentInfo","components":[{"name":"name","type":"string","internalType":"string"},{"name":"serviceEndpoint","type":"string","internalType":"string"},{"name":"agentURI","type":"string","internalType":"string"},{"name":"successCount","type":"uint256","internalType":"uint256"},{"name":"failureCount","type":"uint256","internalType":"uint256"},{"name":"registrationTimestamp","type":"uint256","internalType":"uint256"},{"name":"isRegistered","type":"bool","internalType":"bool"},{"name":"owner","type":"address","internalType":"address"},{"name":"operator","type":"address","internalType":"address"}]}],"stateMutability":"view"},{"type":"function","name":"agentToTokenId","inputs":[{"name":"","type":"address","internalType":"address"}],"outputs":[{"name":"","type":"uint256","internalType":"uint256"}],"stateMutability":"view"},{"type":"function","name":"agentURI","inputs":[{"name":"tokenId","type":"uint256","internalType":"uint256"}],"outputs":[{"name":"","type":"string","internalType":"string"}],"stateMutability":"view"},{"type":"function","name":"agents","inputs":[{"name":"","type":"address","internalType":"address"}],"outputs":[{"name":"name","type":"string","internalType":"string"},{"name":"serviceEndpoint","type":"string","internalType":"string"},{"name":"agentURI","type":"string","internalType":"string"},{"name":"successCount","type":"uint256","internalType":"uint256"},{"name":"failureCount","type":"uint256","internalType":"uint256"},{"name":"registrationTimestamp","type":"uint256","internalType":"uint256"},{"name":"isRegistered","type":"bool","internalType":"bool"},{"name":"owner","type":"address","internalType":"address"},{"name":"operator","type":"address","internalType":"address"}],"stateMutability":"view"},{"type":"function","name":"allowedTags","inputs":[{"name":"","type":"bytes32","internalType":"bytes32"}],"outputs":[{"name":"","type":"bool","internalType":"bool"}],"stateMutability":"view"},{"type":"function","name":"approve","inputs":[{"name":"to","type":"address","internalType":"address"},{"name":"tokenId","type":"uint256","internalType":"uint256"}],"outputs":[],"stateMutability":"nonpayable"},{"type":"function","name":"authorizeReporter","inputs":[{"name":"reporter","type":"address","internalType":"address"}],"outputs":[],"stateMutability":"nonpayable"},{"type":"function","name":"authorizedReporters","inputs":[{"name":"","type":"address","internalType":"address"}],"outputs":[{"name":"","type":"bool","internalType":"bool"}],"stateMutability":"view"},{"type":"function","name":"balanceOf","inputs":[{"name":"owner","type":"address","internalType":"address"}],"outputs":[{"name":"","type":"uint256","internalType":"uint256"}],"stateMutability":"view"},{"type":"function","name":"deauthorizeReporter","inputs":[{"name":"reporter","type":"address","internalType":"address"}],"outputs":[],"stateMutability":"nonpayable"},{"type":"function","name":"getAgentCount","inputs":[],"outputs":[{"name":"","type":"uint256","internalType":"uint256"}],"stateMutability":"view"},{"type":"function","name":"getAgentTokenId","inputs":[{"name":"agent","type":"address","internalType":"address"}],"outputs":[{"name":"","type":"uint256","internalType":"uint256"}],"stateMutability":"view"},{"type":"function","name":"getAllFeedback","inputs":[{"name":"agent","type":"address","internalType":"address"}],"outputs":[{"name":"","type":"tuple[]","internalType":"struct AgentRegistry8004.ReputationTag[]","components":[{"name":"tagName","type":"string","internalType":"string"},{"name":"value","type":"uint256","internalType":"uint256"},{"name":"rater","type":"address","internalType":"address"},{"name":"timestamp","type":"uint256","internalType":"uint256"},{"name":"comment","type":"string","internalType":"string"}]}],"stateMutability":"view"},{"type":"function","name":"getApproved","inputs":[{"name":"tokenId","type":"uint256","internalType":"uint256"}],"outputs":[{"name":"","type":"address","internalType":"address"}],"stateMutability":"view"},{"type":"function","name":"getRegisteredAgents","inputs":[],"outputs":[{"name":"","type":"address[]","internalType":"address[]"}],"stateMutability":"view"},{"type":"function","name":"getReputation","inputs":[{"name":"agent","type":"address","internalType":"address"}],"outputs":[{"name":"successCount","type":"uint256","internalType":"uint256"},{"name":"failureCount","type":"uint256","internalType":"uint256"},{"name":"score","type":"uint256","internalType":"uint256"}],"stateMutability":"view"},{"type":"function","name":"getTagReputation","inputs":[{"name":"agent","type":"address","internalType":"address"},{"name":"tagName","type":"string","internalType":"string"}],"outputs":[{"name":"average","type":"uint256","internalType":"uint256"},{"name":"count","type":"uint256","internalType":"uint256"}],"stateMutability":"view"},{"type":"function","name":"giveFeedback","inputs":[{"name":"agent","type":"address","internalType":"address"},{"name":"tagName","type":"string","internalType":"string"},{"name":"value","type":"uint256","internalType":"uint256"},{"name":"comment","type":"string","internalType":"string"}],"outputs":[],"stateMutability":"nonpayable"},{"type":"function","name":"isAgentRegistered","inputs":[{"name":"agent","type":"address","internalType":"address"}],"outputs":[{"name":"","type":"bool","internalType":"bool"}],"stateMutability":"view"},{"type":"function","name":"isApprovedForAll","inputs":[{"name":"owner","type":"address","internalType":"address"},{"name":"operator","type":"address","internalType":"address"}],"outputs":[{"name":"","type":"bool","internalType":"bool"}],"stateMutability":"view"},{"type":"function","name":"name","inputs":[],"outputs":[{"name":"","type":"string","internalType":"string"}],"stateMutability":"view"},{"type":"function","name":"owner","inputs":[],"outputs":[{"name":"","type":"address","internalType":"address"}],"stateMutability":"view"},{"type":"function","name":"ownerOf","inputs":[{"name":"tokenId","type":"uint256","internalType":"uint256"}],"outputs":[{"name":"","type":"address","internalType":"address"}],"stateMutability":"view"},{"type":"function","name":"registerAgent","inputs":[{"name":"name","type":"string","internalType":"string"},{"name":"serviceEndpoint","type":"string","internalType":"string"},{"name":"uri","type":"string","internalType":"string"}],"outputs":[],"stateMutability":"nonpayable"},{"type":"function","name":"registeredAgentsList","inputs":[{"name":"","type":"uint256","internalType":"uint256"}],"outputs":[{"name":"","type":"address","internalType":"address"}],"stateMutability":"view"},{"type":"function","name":"renounceOwnership","inputs":[],"outputs":[],"stateMutability":"nonpayable"},{"type":"function","name":"reportFailure","inputs":[{"name":"agent","type":"address","internalType":"address"}],"outputs":[],"stateMutability":"nonpayable"},{"type":"function","name":"reportSuccess","inputs":[{"name":"agent","type":"address","internalType":"address"}],"outputs":[],"stateMutability":"nonpayable"},{"type":"function","name":"safeTransferFrom","inputs":[{"name":"from","type":"address","internalType":"address"},{"name":"to","type":"address","internalType":"address"},{"name":"tokenId","type":"uint256","internalType":"uint256"}],"outputs":[],"stateMutability":"nonpayable"},{"type":"function","name":"safeTransferFrom","inputs":[{"name":"from","type":"address","internalType":"address"},{"name":"to","type":"address","internalType":"address"},{"name":"tokenId","type":"uint256","internalType":"uint256"},{"name":"data","type":"bytes","internalType":"bytes"}],"outputs":[],"stateMutability":"nonpayable"},{"type":"function","name":"setApprovalForAll","inputs":[{"name":"operator","type":"address","internalType":"address"},{"name":"approved","type":"bool","internalType":"bool"}],"outputs":[],"stateMutability":"nonpayable"},{"type":"function","name":"supportsInterface","inputs":[{"name":"interfaceId","type":"bytes4","internalType":"bytes4"}],"outputs":[{"name":"","type":"bool","internalType":"bool"}],"stateMutability":"view"},{"type":"function","name":"symbol","inputs":[],"outputs":[{"name":"","type":"string","internalType":"string"}],"stateMutability":"view"},{"type":"function","name":"tokenIdToAgent","inputs":[{"name":"","type":"uint256","internalType":"uint256"}],"outputs":[{"name":"","type":"address","internalType":"address"}],"stateMutability":"view"},{"type":"function","name":"tokenURI","inputs":[{"name":"tokenId","type":"uint256","internalType":"uint256"}],"outputs":[{"name":"","type":"string","internalType":"string"}],"stateMutability":"view"},{"type":"function","name":"transferFrom","inputs":[{"name":"from","type":"address","internalType":"address"},{"name":"to","type":"address","internalType":"address"},{"name":"tokenId","type":"uint256","internalType":"uint256"}],"outputs":[],"stateMutability":"nonpayable"},{"type":"function","name":"transferOwnership","inputs":[{"name":"newOwner","type":"address","internalType":"address"}],"outputs":[],"stateMutability":"nonpayable"},{"type":"function","name":"updateAgentURI","inputs":[{"name":"agent","type":"address","internalType":"address"},{"name":"newAgentURI","type":"string","internalType":"string"}],"outputs":[],"stateMutability":"nonpayable"},{"type":"event","name":"AgentRegistered","inputs":[{"name":"agent","type":"address","indexed":true,"internalType":"address"},{"name":"name","type":"string","indexed":false,"internalType":"string"},{"name":"serviceEndpoint","type":"string","indexed":false,"internalType":"string"},{"name":"agentURI","type":"string","indexed":false,"internalType":"string"},{"name":"tokenId","type":"uint256","indexed":true,"internalType":"uint256"},{"name":"timestamp","type":"uint256","indexed":false,"internalType":"uint256"}],"anonymous":false},{"type":"event","name":"AgentURIUpdated","inputs":[{"name":"agent","type":"address","indexed":true,"internalType":"address"},{"name":"newAgentURI","type":"string","indexed":false,"internalType":"string"},{"name":"timestamp","type":"uint256","indexed":false,"internalType":"uint256"}],"anonymous":false},{"type":"event","name":"Approval","inputs":[{"name":"owner","type":"address","indexed":true,"internalType":"address"},{"name":"approved","type":"address","indexed":true,"internalType":"address"},{"name":"tokenId","type":"uint256","indexed":true,"internalType":"uint256"}],"anonymous":false},{"type":"event","name":"ApprovalForAll","inputs":[{"name":"owner","type":"address","indexed":true,"internalType":"address"},{"name":"operator","type":"address","indexed":true,"internalType":"address"},{"name":"approved","type":"bool","indexed":false,"internalType":"bool"}],"anonymous":false},{"type":"event","name":"FailureReported","inputs":[{"name":"agent","type":"address","indexed":true,"internalType":"address"},{"name":"reporter","type":"address","indexed":true,"internalType":"address"},{"name":"newFailureCount","type":"uint256","indexed":false,"internalType":"uint256"}],"anonymous":false},{"type":"event","name":"FeedbackGiven","inputs":[{"name":"agent","type":"address","indexed":true,"internalType":"address"},{"name":"rater","type":"address","indexed":true,"internalType":"address"},{"name":"tagName","type":"string","indexed":false,"internalType":"string"},{"name":"value","type":"uint256","indexed":false,"internalType":"uint256"},{"name":"comment","type":"string","indexed":false,"internalType":"string"},{"name":"timestamp","type":"uint256","indexed":false,"internalType":"uint256"}],"anonymous":false},{"type":"event","name":"OwnershipTransferred","inputs":[{"name":"previousOwner","type":"address","indexed":true,"internalType":"address"},{"name":"newOwner","type":"address","indexed":true,"internalType":"address"}],"anonymous":false},{"type":"event","name":"ReporterAuthorized","inputs":[{"name":"reporter","type":"address","indexed":true,"internalType":"address"}],"anonymous":false},{"type":"event","name":"ReporterDeauthorized","inputs":[{"name":"reporter","type":"address","indexed":true,"internalType":"address"}],"anonymous":false},{"type":"event","name":"SuccessReported","inputs":[{"name":"agent","type":"address","indexed":true,"internalType":"address"},{"name":"reporter","type":"address","indexed":true,"internalType":"address"},{"name":"newSuccessCount","type":"uint256","indexed":false,"internalType":"uint256"}],"anonymous":false},{"type":"event","name":"Transfer","inputs":[{"name":"from","type":"address","indexed":true,"internalType":"address"},{"name":"to","type":"address","indexed":true,"internalType":"address"},{"name":"tokenId","type":"uint256","indexed":true,"internalType":"uint256"}],"anonymous":false},{"type":"error","name":"ERC721IncorrectOwner","inputs":[{"name":"sender","type":"address","internalType":"address"},{"name":"tokenId","type":"uint256","internalType":"uint256"},{"name":"owner","type":"address","internalType":"address"}]},{"type":"error","name":"ERC721InsufficientApproval","inputs":[{"name":"operator","type":"address","internalType":"address"},{"name":"tokenId","type":"uint256","internalType":"uint256"}]},{"type":"error","name":"ERC721InvalidApprover","inputs":[{"name":"approver","type":"address","internalType":"address"}]},{"type":"error","name":"ERC721InvalidOperator","inputs":[{"name":"operator","type":"address","internalType":"address"}]},{"type":"error","name":"ERC721InvalidOwner","inputs":[{"name":"owner","type":"address","internalType":"address"}]},{"type":"error","name":"ERC721InvalidReceiver","inputs":[{"name":"receiver","type":"address","internalType":"address"}]},{"type":"error","name":"ERC721InvalidSender","inputs":[{"name":"sender","type":"address","internalType":"address"}]},{"type":"error","name":"ERC721NonexistentToken","inputs":[{"name":"tokenId","type":"uint256","internalType":"uint256"}]},{"type":"error","name":"OwnableInvalidOwner","inputs":[{"name":"owner","type":"address","internalType":"address"}]},{"type":"error","name":"OwnableUnauthorizedAccount","inputs":[{"name":"account","type":"address","internalType":"address"}]}],"bytecode":{"object":"0x60806040525f600755348015610013575f5ffd5b50336040518060400160405280601381526020017f496e74656e74436972636c6573204167656e74000000000000000000000000008152506040518060400160405280600581526020017f4147454e54000000000000000000000000000000000000000000000000000000815250815f908161008f91906105a8565b50806001908161009f91906105a8565b5050505f73ffffffffffffffffffffffffffffffffffffffff168173ffffffffffffffffffffffffffffffffffffffff1603610112575f6040517f1e4fbdf700000000000000000000000000000000000000000000000000000000815260040161010991906106b6565b60405180910390fd5b610121816102a860201b60201c565b506001600e5f60405160200161013690610723565b6040516020818303038152906040528051906020012081526020019081526020015f205f6101000a81548160ff0219169083151502179055506001600e5f60405160200161018390610781565b6040516020818303038152906040528051906020012081526020019081526020015f205f6101000a81548160ff0219169083151502179055506001600e5f6040516020016101d0906107df565b6040516020818303038152906040528051906020012081526020019081526020015f205f6101000a81548160ff0219169083151502179055506001600e5f60405160200161021d9061083d565b6040516020818303038152906040528051906020012081526020019081526020015f205f6101000a81548160ff0219169083151502179055506001600e5f60405160200161026a9061089b565b6040516020818303038152906040528051906020012081526020019081526020015f205f6101000a81548160ff0219169083151502179055506108af565b5f60065f9054906101000a900473ffffffffffffffffffffffffffffffffffffffff1690508160065f6101000a81548173ffffffffffffffffffffffffffffffffffffffff021916908373ffffffffffffffffffffffffffffffffffffffff1602179055508173ffffffffffffffffffffffffffffffffffffffff168173ffffffffffffffffffffffffffffffffffffffff167f8be0079c531659141344cd1fd0a4f28419497f9722a3daafe3b4186f6b6457e060405160405180910390a35050565b5f81519050919050565b7f4e487b71000000000000000000000000000000000000000000000000000000005f52604160045260245ffd5b7f4e487b71000000000000000000000000000000000000000000000000000000005f52602260045260245ffd5b5f60028204905060018216806103e657607f821691505b6020821081036103f9576103f86103a2565b5b50919050565b5f819050815f5260205f209050919050565b5f6020601f8301049050919050565b5f82821b905092915050565b5f6008830261045b7fffffffffffffffffffffffffffffffffffffffffffffffffffffffffffffffff82610420565b6104658683610420565b95508019841693508086168417925050509392505050565b5f819050919050565b5f819050919050565b5f6104a96104a461049f8461047d565b610486565b61047d565b9050919050565b5f819050919050565b6104c28361048f565b6104d66104ce826104b0565b84845461042c565b825550505050565b5f5f905090565b6104ed6104de565b6104f88184846104b9565b505050565b5b8181101561051b576105105f826104e5565b6001810190506104fe565b5050565b601f82111561056057610531816103ff565b61053a84610411565b81016020851015610549578190505b61055d61055585610411565b8301826104fd565b50505b505050565b5f82821c905092915050565b5f6105805f1984600802610565565b1980831691505092915050565b5f6105988383610571565b9150826002028217905092915050565b6105b18261036b565b67ffffffffffffffff8111156105ca576105c9610375565b5b6105d482546103cf565b6105df82828561051f565b5f60209050601f831160018114610610575f84156105fe578287015190505b610608858261058d565b86555061066f565b601f19841661061e866103ff565b5f5b8281101561064557848901518255600182019150602085019450602081019050610620565b86831015610662578489015161065e601f891682610571565b8355505b6001600288020188555050505b505050505050565b5f73ffffffffffffffffffffffffffffffffffffffff82169050919050565b5f6106a082610677565b9050919050565b6106b081610696565b82525050565b5f6020820190506106c95f8301846106a7565b92915050565b5f81905092915050565b7f73746172726564000000000000000000000000000000000000000000000000005f82015250565b5f61070d6007836106cf565b9150610718826106d9565b600782019050919050565b5f61072d82610701565b9150819050919050565b7f757074696d6500000000000000000000000000000000000000000000000000005f82015250565b5f61076b6006836106cf565b915061077682610737565b600682019050919050565b5f61078b8261075f565b9150819050919050565b7f73756363657373526174650000000000000000000000000000000000000000005f82015250565b5f6107c9600b836106cf565b91506107d482610795565b600b82019050919050565b5f6107e9826107bd565b9150819050919050565b7f726573706f6e736554696d6500000000000000000000000000000000000000005f82015250565b5f610827600c836106cf565b9150610832826107f3565b600c82019050919050565b5f6108478261081b565b9150819050919050565b7f726561636861626c6500000000000000000000000000000000000000000000005f82015250565b5f6108856009836106cf565b915061089082610851565b600982019050919050565b5f6108a582610879565b9150819050919050565b615b1d806108bc5f395ff3fe608060405234801561000f575f5ffd5b5060043610610230575f3560e01c806378396cb31161012e5780639b5b6ddc116100b6578063c87b56dd1161007a578063c87b56dd146106f7578063e985e9c514610727578063f2fde38b14610757578063f8ae83b814610773578063fd66091e146107a357610230565b80639b5b6ddc146106555780639c89a0e214610671578063a22cb465146106a3578063a2384911146106bf578063b88d4fde146106db57610230565b8063875ff280116100fd578063875ff280146105ac5780638da5cb5b146105ca57806391cab63e146105e857806395d89b4114610606578063998264e31461062457610230565b806378396cb3146105005780637a56f72b146105305780637c3b361f146105605780638030482f1461059057610230565b806342842e0e116101bc57806362c885ee1161018057806362c885ee146104365780636352211e14610466578063689b6c441461049657806370a08231146104c6578063715018a6146104f657610230565b806342842e0e146103825780634e048b5e1461039e5780634f1590cb146103ce57806356a2d660146103ea5780635b8fb37f1461040657610230565b80630f23920c116102035780630f23920c146102ce578063209d7c30146102fe57806323b872dd1461031a57806328483673146103365780633a41429a1461035257610230565b806301ffc9a71461023457806306fdde0314610264578063081812fc14610282578063095ea7b3146102b2575b5f5ffd5b61024e60048036038101906102499190614133565b6107db565b60405161025b9190614178565b60405180910390f35b61026c6107ec565b6040516102799190614201565b60405180910390f35b61029c60048036038101906102979190614254565b61087b565b6040516102a991906142be565b60405180910390f35b6102cc60048036038101906102c79190614301565b610896565b005b6102e860048036038101906102e3919061433f565b6108ac565b6040516102f59190614505565b60405180910390f35b6103186004803603810190610313919061433f565b610b5c565b005b610334600480360381019061032f9190614525565b610d6e565b005b610350600480360381019061034b919061433f565b610e6d565b005b61036c6004803603810190610367919061433f565b610f98565b6040516103799190614178565b60405180910390f35b61039c60048036038101906103979190614525565b610fb5565b005b6103b860048036038101906103b3919061433f565b610fd4565b6040516103c59190614584565b60405180910390f35b6103e860048036038101906103e391906145fe565b6110a6565b005b61040460048036038101906103ff919061465b565b61135e565b005b610420600480360381019061041b9190614254565b6118b9565b60405161042d91906142be565b60405180910390f35b610450600480360381019061044b919061433f565b6118f4565b60405161045d91906147ea565b60405180910390f35b610480600480360381019061047b9190614254565b611c6a565b60405161048d91906142be565b60405180910390f35b6104b060048036038101906104ab919061433f565b611c7b565b6040516104bd9190614178565b60405180910390f35b6104e060048036038101906104db919061433f565b611cd0565b6040516104ed9190614584565b60405180910390f35b6104fe611d86565b005b61051a60048036038101906105159190614254565b611d99565b6040516105279190614201565b60405180910390f35b61054a60048036038101906105459190614254565b611fa0565b60405161055791906142be565b60405180910390f35b61057a6004803603810190610575919061483d565b611fd0565b6040516105879190614178565b60405180910390f35b6105aa60048036038101906105a59190614868565b611fed565b005b6105b461251f565b6040516105c191906149b3565b60405180910390f35b6105d26125aa565b6040516105df91906142be565b60405180910390f35b6105f06125d2565b6040516105fd9190614584565b60405180910390f35b61060e6125de565b60405161061b9190614201565b60405180910390f35b61063e600480360381019061063991906145fe565b61266e565b60405161064c9291906149d3565b60405180910390f35b61066f600480360381019061066a919061433f565b612802565b005b61068b6004803603810190610686919061433f565b61299d565b60405161069a939291906149fa565b60405180910390f35b6106bd60048036038101906106b89190614a59565b612abd565b005b6106d960048036038101906106d4919061433f565b612ad3565b005b6106f560048036038101906106f09190614bbf565b612ce5565b005b610711600480360381019061070c9190614254565b612d0a565b60405161071e9190614201565b60405180910390f35b610741600480360381019061073c9190614c3f565b612d70565b60405161074e9190614178565b60405180910390f35b610771600480360381019061076c919061433f565b612dfe565b005b61078d6004803603810190610788919061433f565b612e82565b60405161079a9190614584565b60405180910390f35b6107bd60048036038101906107b8919061433f565b612e97565b6040516107d299989796959493929190614c7d565b60405180910390f35b5f6107e5826130be565b9050919050565b60605f80546107fa90614d4a565b80601f016020809104026020016040519081016040528092919081815260200182805461082690614d4a565b80156108715780601f1061084857610100808354040283529160200191610871565b820191905f5260205f20905b81548152906001019060200180831161085457829003601f168201915b5050505050905090565b5f6108858261319f565b5061088f82613225565b9050919050565b6108a882826108a361325e565b613265565b5050565b6060600a5f8373ffffffffffffffffffffffffffffffffffffffff1673ffffffffffffffffffffffffffffffffffffffff1681526020019081526020015f206006015f9054906101000a900460ff1661093a576040517f08c379a000000000000000000000000000000000000000000000000000000000815260040161093190614dc4565b60405180910390fd5b600b5f8373ffffffffffffffffffffffffffffffffffffffff1673ffffffffffffffffffffffffffffffffffffffff1681526020019081526020015f20600201805480602002602001604051908101604052809291908181526020015f905b82821015610b51578382905f5260205f2090600502016040518060a00160405290815f820180546109c990614d4a565b80601f01602080910402602001604051908101604052809291908181526020018280546109f590614d4a565b8015610a405780601f10610a1757610100808354040283529160200191610a40565b820191905f5260205f20905b815481529060010190602001808311610a2357829003601f168201915b5050505050815260200160018201548152602001600282015f9054906101000a900473ffffffffffffffffffffffffffffffffffffffff1673ffffffffffffffffffffffffffffffffffffffff1673ffffffffffffffffffffffffffffffffffffffff16815260200160038201548152602001600482018054610ac290614d4a565b80601f0160208091040260200160405190810160405280929190818152602001828054610aee90614d4a565b8015610b395780601f10610b1057610100808354040283529160200191610b39565b820191905f5260205f20905b815481529060010190602001808311610b1c57829003601f168201915b50505050508152505081526020019060010190610999565b505050509050919050565b600c5f3373ffffffffffffffffffffffffffffffffffffffff1673ffffffffffffffffffffffffffffffffffffffff1681526020019081526020015f205f9054906101000a900460ff16610be5576040517f08c379a0000000000000000000000000000000000000000000000000000000008152600401610bdc90614e2c565b60405180910390fd5b600a5f8273ffffffffffffffffffffffffffffffffffffffff1673ffffffffffffffffffffffffffffffffffffffff1681526020019081526020015f206006015f9054906101000a900460ff16610c71576040517f08c379a0000000000000000000000000000000000000000000000000000000008152600401610c6890614dc4565b60405180910390fd5b600a5f8273ffffffffffffffffffffffffffffffffffffffff1673ffffffffffffffffffffffffffffffffffffffff1681526020019081526020015f206004015f815480929190610cc190614e77565b91905055503373ffffffffffffffffffffffffffffffffffffffff168173ffffffffffffffffffffffffffffffffffffffff167fba87b38246ac2d8b31b6fe13b08226edc5b86803edadf90eac81802f0d3de7ff600a5f8573ffffffffffffffffffffffffffffffffffffffff1673ffffffffffffffffffffffffffffffffffffffff1681526020019081526020015f2060040154604051610d639190614584565b60405180910390a350565b5f73ffffffffffffffffffffffffffffffffffffffff168273ffffffffffffffffffffffffffffffffffffffff1603610dde575f6040517f64a0ae92000000000000000000000000000000000000000000000000000000008152600401610dd591906142be565b60405180910390fd5b5f610df18383610dec61325e565b613277565b90508373ffffffffffffffffffffffffffffffffffffffff168173ffffffffffffffffffffffffffffffffffffffff1614610e67578382826040517f64283d7b000000000000000000000000000000000000000000000000000000008152600401610e5e93929190614ebe565b60405180910390fd5b50505050565b610e75613482565b600c5f8273ffffffffffffffffffffffffffffffffffffffff1673ffffffffffffffffffffffffffffffffffffffff1681526020019081526020015f205f9054906101000a900460ff16610efe576040517f08c379a0000000000000000000000000000000000000000000000000000000008152600401610ef590614f3d565b60405180910390fd5b5f600c5f8373ffffffffffffffffffffffffffffffffffffffff1673ffffffffffffffffffffffffffffffffffffffff1681526020019081526020015f205f6101000a81548160ff0219169083151502179055508073ffffffffffffffffffffffffffffffffffffffff167f47bd90c9b0ef7707d9ec5f433132fde73e093cbe6f1af89baf8044b93b2e071b60405160405180910390a250565b600c602052805f5260405f205f915054906101000a900460ff1681565b610fcf83838360405180602001604052805f815250612ce5565b505050565b5f600a5f8373ffffffffffffffffffffffffffffffffffffffff1673ffffffffffffffffffffffffffffffffffffffff1681526020019081526020015f206006015f9054906101000a900460ff16611061576040517f08c379a000000000000000000000000000000000000000000000000000000000815260040161105890614dc4565b60405180910390fd5b60085f8373ffffffffffffffffffffffffffffffffffffffff1673ffffffffffffffffffffffffffffffffffffffff1681526020019081526020015f20549050919050565b5f82829050116110eb576040517f08c379a00000000000000000000000000000000000000000000000000000000081526004016110e290614fa5565b60405180910390fd5b600a5f8473ffffffffffffffffffffffffffffffffffffffff1673ffffffffffffffffffffffffffffffffffffffff1681526020019081526020015f206006015f9054906101000a900460ff16611177576040517f08c379a000000000000000000000000000000000000000000000000000000000815260040161116e90614dc4565b60405180910390fd5b8273ffffffffffffffffffffffffffffffffffffffff163373ffffffffffffffffffffffffffffffffffffffff16148061123b5750600a5f8473ffffffffffffffffffffffffffffffffffffffff1673ffffffffffffffffffffffffffffffffffffffff1681526020019081526020015f206007015f9054906101000a900473ffffffffffffffffffffffffffffffffffffffff1673ffffffffffffffffffffffffffffffffffffffff163373ffffffffffffffffffffffffffffffffffffffff16145b8061127857506112496125aa565b73ffffffffffffffffffffffffffffffffffffffff163373ffffffffffffffffffffffffffffffffffffffff16145b6112b7576040517f08c379a00000000000000000000000000000000000000000000000000000000081526004016112ae90615033565b60405180910390fd5b8181600a5f8673ffffffffffffffffffffffffffffffffffffffff1673ffffffffffffffffffffffffffffffffffffffff1681526020019081526020015f2060020191826113069291906151fb565b508273ffffffffffffffffffffffffffffffffffffffff167fe1f6c71164ee1e1202a8fbb75bd7d0acfd4b0b83bc51aa3cd9d9360104fc29e7838342604051611351939291906152f4565b60405180910390a2505050565b5f86869050116113a3576040517f08c379a000000000000000000000000000000000000000000000000000000000815260040161139a9061536e565b60405180910390fd5b5f84849050116113e8576040517f08c379a00000000000000000000000000000000000000000000000000000000081526004016113df906153d6565b60405180910390fd5b5f828290501161142d576040517f08c379a000000000000000000000000000000000000000000000000000000000815260040161142490614fa5565b60405180910390fd5b600a5f3373ffffffffffffffffffffffffffffffffffffffff1673ffffffffffffffffffffffffffffffffffffffff1681526020019081526020015f206006015f9054906101000a900460ff16156114ba576040517f08c379a00000000000000000000000000000000000000000000000000000000081526004016114b19061543e565b60405180910390fd5b5f600754905060075f8154809291906114d290614e77565b91905055506114e13382613509565b60405180610120016040528088888080601f0160208091040260200160405190810160405280939291908181526020018383808284375f81840152601f19601f82011690508083019250505050505050815260200186868080601f0160208091040260200160405190810160405280939291908181526020018383808284375f81840152601f19601f82011690508083019250505050505050815260200184848080601f0160208091040260200160405190810160405280939291908181526020018383808284375f81840152601f19601f8201169050808301925050505050505081526020015f81526020015f81526020014281526020016001151581526020013373ffffffffffffffffffffffffffffffffffffffff1681526020015f73ffffffffffffffffffffffffffffffffffffffff16815250600a5f3373ffffffffffffffffffffffffffffffffffffffff1673ffffffffffffffffffffffffffffffffffffffff1681526020019081526020015f205f820151815f019081611669919061545c565b50602082015181600101908161167f919061545c565b506040820151816002019081611695919061545c565b50606082015181600301556080820151816004015560a0820151816005015560c0820151816006015f6101000a81548160ff02191690831515021790555060e08201518160060160016101000a81548173ffffffffffffffffffffffffffffffffffffffff021916908373ffffffffffffffffffffffffffffffffffffffff160217905550610100820151816007015f6101000a81548173ffffffffffffffffffffffffffffffffffffffff021916908373ffffffffffffffffffffffffffffffffffffffff1602179055509050508060085f3373ffffffffffffffffffffffffffffffffffffffff1673ffffffffffffffffffffffffffffffffffffffff1681526020019081526020015f20819055503360095f8381526020019081526020015f205f6101000a81548173ffffffffffffffffffffffffffffffffffffffff021916908373ffffffffffffffffffffffffffffffffffffffff160217905550600d33908060018154018082558091505060019003905f5260205f20015f9091909190916101000a81548173ffffffffffffffffffffffffffffffffffffffff021916908373ffffffffffffffffffffffffffffffffffffffff160217905550803373ffffffffffffffffffffffffffffffffffffffff167fbd0a69466b6363a8315d879f4a9c6997a5f0dd20e2cf91eb206ab301bbf194e7898989898989426040516118a8979695949392919061552b565b60405180910390a350505050505050565b600d81815481106118c8575f80fd5b905f5260205f20015f915054906101000a900473ffffffffffffffffffffffffffffffffffffffff1681565b6118fc614059565b600a5f8373ffffffffffffffffffffffffffffffffffffffff1673ffffffffffffffffffffffffffffffffffffffff1681526020019081526020015f206006015f9054906101000a900460ff16611988576040517f08c379a000000000000000000000000000000000000000000000000000000000815260040161197f90614dc4565b60405180910390fd5b600a5f8373ffffffffffffffffffffffffffffffffffffffff1673ffffffffffffffffffffffffffffffffffffffff1681526020019081526020015f20604051806101200160405290815f820180546119e090614d4a565b80601f0160208091040260200160405190810160405280929190818152602001828054611a0c90614d4a565b8015611a575780601f10611a2e57610100808354040283529160200191611a57565b820191905f5260205f20905b815481529060010190602001808311611a3a57829003601f168201915b50505050508152602001600182018054611a7090614d4a565b80601f0160208091040260200160405190810160405280929190818152602001828054611a9c90614d4a565b8015611ae75780601f10611abe57610100808354040283529160200191611ae7565b820191905f5260205f20905b815481529060010190602001808311611aca57829003601f168201915b50505050508152602001600282018054611b0090614d4a565b80601f0160208091040260200160405190810160405280929190818152602001828054611b2c90614d4a565b8015611b775780601f10611b4e57610100808354040283529160200191611b77565b820191905f5260205f20905b815481529060010190602001808311611b5a57829003601f168201915b50505050508152602001600382015481526020016004820154815260200160058201548152602001600682015f9054906101000a900460ff161515151581526020016006820160019054906101000a900473ffffffffffffffffffffffffffffffffffffffff1673ffffffffffffffffffffffffffffffffffffffff1673ffffffffffffffffffffffffffffffffffffffff168152602001600782015f9054906101000a900473ffffffffffffffffffffffffffffffffffffffff1673ffffffffffffffffffffffffffffffffffffffff1673ffffffffffffffffffffffffffffffffffffffff16815250509050919050565b5f611c748261319f565b9050919050565b5f600a5f8373ffffffffffffffffffffffffffffffffffffffff1673ffffffffffffffffffffffffffffffffffffffff1681526020019081526020015f206006015f9054906101000a900460ff169050919050565b5f5f73ffffffffffffffffffffffffffffffffffffffff168273ffffffffffffffffffffffffffffffffffffffff1603611d41575f6040517f89c62b64000000000000000000000000000000000000000000000000000000008152600401611d3891906142be565b60405180910390fd5b60035f8373ffffffffffffffffffffffffffffffffffffffff1673ffffffffffffffffffffffffffffffffffffffff1681526020019081526020015f20549050919050565b611d8e613482565b611d975f6135fc565b565b60605f73ffffffffffffffffffffffffffffffffffffffff16611dbb836136bf565b73ffffffffffffffffffffffffffffffffffffffff1603611e11576040517f08c379a0000000000000000000000000000000000000000000000000000000008152600401611e08906155d3565b60405180910390fd5b5f60095f8481526020019081526020015f205f9054906101000a900473ffffffffffffffffffffffffffffffffffffffff169050600a5f8273ffffffffffffffffffffffffffffffffffffffff1673ffffffffffffffffffffffffffffffffffffffff1681526020019081526020015f206006015f9054906101000a900460ff16611ed1576040517f08c379a0000000000000000000000000000000000000000000000000000000008152600401611ec890614dc4565b60405180910390fd5b600a5f8273ffffffffffffffffffffffffffffffffffffffff1673ffffffffffffffffffffffffffffffffffffffff1681526020019081526020015f206002018054611f1c90614d4a565b80601f0160208091040260200160405190810160405280929190818152602001828054611f4890614d4a565b8015611f935780601f10611f6a57610100808354040283529160200191611f93565b820191905f5260205f20905b815481529060010190602001808311611f7657829003601f168201915b5050505050915050919050565b6009602052805f5260405f205f915054906101000a900473ffffffffffffffffffffffffffffffffffffffff1681565b600e602052805f5260405f205f915054906101000a900460ff1681565b600a5f8773ffffffffffffffffffffffffffffffffffffffff1673ffffffffffffffffffffffffffffffffffffffff1681526020019081526020015f206006015f9054906101000a900460ff16612079576040517f08c379a000000000000000000000000000000000000000000000000000000000815260040161207090614dc4565b60405180910390fd5b8573ffffffffffffffffffffffffffffffffffffffff163373ffffffffffffffffffffffffffffffffffffffff16141580156121405750600a5f8773ffffffffffffffffffffffffffffffffffffffff1673ffffffffffffffffffffffffffffffffffffffff1681526020019081526020015f206007015f9054906101000a900473ffffffffffffffffffffffffffffffffffffffff1673ffffffffffffffffffffffffffffffffffffffff163373ffffffffffffffffffffffffffffffffffffffff1614155b61217f576040517f08c379a00000000000000000000000000000000000000000000000000000000081526004016121769061563b565b60405180910390fd5b5f8585604051602001612193929190615687565b604051602081830303815290604052805190602001209050600e5f8281526020019081526020015f205f9054906101000a900460ff16612208576040517f08c379a00000000000000000000000000000000000000000000000000000000081526004016121ff906156e9565b60405180910390fd5b606484111561224c576040517f08c379a000000000000000000000000000000000000000000000000000000000815260040161224390615751565b60405180910390fd5b5f600b5f8973ffffffffffffffffffffffffffffffffffffffff1673ffffffffffffffffffffffffffffffffffffffff1681526020019081526020015f209050806002016040518060a0016040528089898080601f0160208091040260200160405190810160405280939291908181526020018383808284375f81840152601f19601f8201169050808301925050505050505081526020018781526020013373ffffffffffffffffffffffffffffffffffffffff16815260200142815260200186868080601f0160208091040260200160405190810160405280939291908181526020018383808284375f81840152601f19601f82011690508083019250505050505050815250908060018154018082558091505060019003905f5260205f2090600502015f909190919091505f820151815f01908161238c919061545c565b50602082015181600101556040820151816002015f6101000a81548173ffffffffffffffffffffffffffffffffffffffff021916908373ffffffffffffffffffffffffffffffffffffffff1602179055506060820151816003015560808201518160040190816123fc919061545c565b505050805f015f8381526020019081526020015f2085908060018154018082558091505060019003905f5260205f20015f9091909190915055806001015f8381526020019081526020015f2033908060018154018082558091505060019003905f5260205f20015f9091909190916101000a81548173ffffffffffffffffffffffffffffffffffffffff021916908373ffffffffffffffffffffffffffffffffffffffff1602179055503373ffffffffffffffffffffffffffffffffffffffff168873ffffffffffffffffffffffffffffffffffffffff167fccfb69f6519c34a3d04890c6191dd8f6b5b954f299fc127fa7c5ac03a084934089898989894260405161250d9695949392919061576f565b60405180910390a35050505050505050565b6060600d8054806020026020016040519081016040528092919081815260200182805480156125a057602002820191905f5260205f20905b815f9054906101000a900473ffffffffffffffffffffffffffffffffffffffff1673ffffffffffffffffffffffffffffffffffffffff1681526020019060010190808311612557575b5050505050905090565b5f60065f9054906101000a900473ffffffffffffffffffffffffffffffffffffffff16905090565b5f600d80549050905090565b6060600180546125ed90614d4a565b80601f016020809104026020016040519081016040528092919081815260200182805461261990614d4a565b80156126645780601f1061263b57610100808354040283529160200191612664565b820191905f5260205f20905b81548152906001019060200180831161264757829003601f168201915b5050505050905090565b5f5f600a5f8673ffffffffffffffffffffffffffffffffffffffff1673ffffffffffffffffffffffffffffffffffffffff1681526020019081526020015f206006015f9054906101000a900460ff166126fc576040517f08c379a00000000000000000000000000000000000000000000000000000000081526004016126f390614dc4565b60405180910390fd5b5f8484604051602001612710929190615687565b6040516020818303038152906040528051906020012090505f600b5f8873ffffffffffffffffffffffffffffffffffffffff1673ffffffffffffffffffffffffffffffffffffffff1681526020019081526020015f205f015f8381526020019081526020015f2090505f818054905003612791575f5f9350935050506127fa565b5f5f90505f5f90505b82805490508110156127dc578281815481106127b9576127b86157c4565b5b905f5260205f200154826127cd91906157f1565b9150808060010191505061279a565b508180549050816127ed9190615851565b8280549050945094505050505b935093915050565b61280a613482565b5f73ffffffffffffffffffffffffffffffffffffffff168173ffffffffffffffffffffffffffffffffffffffff1603612878576040517f08c379a000000000000000000000000000000000000000000000000000000000815260040161286f906158cb565b60405180910390fd5b600c5f8273ffffffffffffffffffffffffffffffffffffffff1673ffffffffffffffffffffffffffffffffffffffff1681526020019081526020015f205f9054906101000a900460ff1615612902576040517f08c379a00000000000000000000000000000000000000000000000000000000081526004016128f990615933565b60405180910390fd5b6001600c5f8373ffffffffffffffffffffffffffffffffffffffff1673ffffffffffffffffffffffffffffffffffffffff1681526020019081526020015f205f6101000a81548160ff0219169083151502179055508073ffffffffffffffffffffffffffffffffffffffff167fd576729e54c1a0846f1efbfdf9ec547dea55be936f85a664fa0e40801e17caf960405160405180910390a250565b5f5f5f600a5f8573ffffffffffffffffffffffffffffffffffffffff1673ffffffffffffffffffffffffffffffffffffffff1681526020019081526020015f206006015f9054906101000a900460ff16612a2c576040517f08c379a0000000000000000000000000000000000000000000000000000000008152600401612a2390614dc4565b60405180910390fd5b5f600a5f8673ffffffffffffffffffffffffffffffffffffffff1673ffffffffffffffffffffffffffffffffffffffff1681526020019081526020015f20905080600301549350806004015492505f8385612a8791906157f1565b90505f8103612a98575f9250612ab4565b8061271086612aa79190615951565b612ab19190615851565b92505b50509193909250565b612acf612ac861325e565b83836136f8565b5050565b600c5f3373ffffffffffffffffffffffffffffffffffffffff1673ffffffffffffffffffffffffffffffffffffffff1681526020019081526020015f205f9054906101000a900460ff16612b5c576040517f08c379a0000000000000000000000000000000000000000000000000000000008152600401612b5390614e2c565b60405180910390fd5b600a5f8273ffffffffffffffffffffffffffffffffffffffff1673ffffffffffffffffffffffffffffffffffffffff1681526020019081526020015f206006015f9054906101000a900460ff16612be8576040517f08c379a0000000000000000000000000000000000000000000000000000000008152600401612bdf90614dc4565b60405180910390fd5b600a5f8273ffffffffffffffffffffffffffffffffffffffff1673ffffffffffffffffffffffffffffffffffffffff1681526020019081526020015f206003015f815480929190612c3890614e77565b91905055503373ffffffffffffffffffffffffffffffffffffffff168173ffffffffffffffffffffffffffffffffffffffff167fbce9f4eae895d070109bdf42082b88c13896f801372146c07966cae7a54c4fae600a5f8573ffffffffffffffffffffffffffffffffffffffff1673ffffffffffffffffffffffffffffffffffffffff1681526020019081526020015f2060030154604051612cda9190614584565b60405180910390a350565b612cf0848484610d6e565b612d04612cfb61325e565b858585856138d1565b50505050565b6060612d158261319f565b505f612d1f613a7d565b90505f815111612d3d5760405180602001604052805f815250612d68565b80612d4784613a93565b604051602001612d589291906159c2565b6040516020818303038152906040525b915050919050565b5f60055f8473ffffffffffffffffffffffffffffffffffffffff1673ffffffffffffffffffffffffffffffffffffffff1681526020019081526020015f205f8373ffffffffffffffffffffffffffffffffffffffff1673ffffffffffffffffffffffffffffffffffffffff1681526020019081526020015f205f9054906101000a900460ff16905092915050565b612e06613482565b5f73ffffffffffffffffffffffffffffffffffffffff168173ffffffffffffffffffffffffffffffffffffffff1603612e76575f6040517f1e4fbdf7000000000000000000000000000000000000000000000000000000008152600401612e6d91906142be565b60405180910390fd5b612e7f816135fc565b50565b6008602052805f5260405f205f915090505481565b600a602052805f5260405f205f91509050805f018054612eb690614d4a565b80601f0160208091040260200160405190810160405280929190818152602001828054612ee290614d4a565b8015612f2d5780601f10612f0457610100808354040283529160200191612f2d565b820191905f5260205f20905b815481529060010190602001808311612f1057829003601f168201915b505050505090806001018054612f4290614d4a565b80601f0160208091040260200160405190810160405280929190818152602001828054612f6e90614d4a565b8015612fb95780601f10612f9057610100808354040283529160200191612fb9565b820191905f5260205f20905b815481529060010190602001808311612f9c57829003601f168201915b505050505090806002018054612fce90614d4a565b80601f0160208091040260200160405190810160405280929190818152602001828054612ffa90614d4a565b80156130455780601f1061301c57610100808354040283529160200191613045565b820191905f5260205f20905b81548152906001019060200180831161302857829003601f168201915b505050505090806003015490806004015490806005015490806006015f9054906101000a900460ff16908060060160019054906101000a900473ffffffffffffffffffffffffffffffffffffffff1690806007015f9054906101000a900473ffffffffffffffffffffffffffffffffffffffff16905089565b5f7f80ac58cd000000000000000000000000000000000000000000000000000000007bffffffffffffffffffffffffffffffffffffffffffffffffffffffff1916827bffffffffffffffffffffffffffffffffffffffffffffffffffffffff1916148061318857507f5b5e139f000000000000000000000000000000000000000000000000000000007bffffffffffffffffffffffffffffffffffffffffffffffffffffffff1916827bffffffffffffffffffffffffffffffffffffffffffffffffffffffff1916145b80613198575061319782613b5d565b5b9050919050565b5f5f6131aa836136bf565b90505f73ffffffffffffffffffffffffffffffffffffffff168173ffffffffffffffffffffffffffffffffffffffff160361321c57826040517f7e2732890000000000000000000000000000000000000000000000000000000081526004016132139190614584565b60405180910390fd5b80915050919050565b5f60045f8381526020019081526020015f205f9054906101000a900473ffffffffffffffffffffffffffffffffffffffff169050919050565b5f33905090565b6132728383836001613bc6565b505050565b5f5f613282846136bf565b90505f73ffffffffffffffffffffffffffffffffffffffff168373ffffffffffffffffffffffffffffffffffffffff16146132c3576132c2818486613d85565b5b5f73ffffffffffffffffffffffffffffffffffffffff168173ffffffffffffffffffffffffffffffffffffffff161461334e576133025f855f5f613bc6565b600160035f8373ffffffffffffffffffffffffffffffffffffffff1673ffffffffffffffffffffffffffffffffffffffff1681526020019081526020015f205f82825403925050819055505b5f73ffffffffffffffffffffffffffffffffffffffff168573ffffffffffffffffffffffffffffffffffffffff16146133cd57600160035f8773ffffffffffffffffffffffffffffffffffffffff1673ffffffffffffffffffffffffffffffffffffffff1681526020019081526020015f205f82825401925050819055505b8460025f8681526020019081526020015f205f6101000a81548173ffffffffffffffffffffffffffffffffffffffff021916908373ffffffffffffffffffffffffffffffffffffffff160217905550838573ffffffffffffffffffffffffffffffffffffffff168273ffffffffffffffffffffffffffffffffffffffff167fddf252ad1be2c89b69c2b068fc378daa952ba7f163c4a11628f55a4df523b3ef60405160405180910390a4809150509392505050565b61348a61325e565b73ffffffffffffffffffffffffffffffffffffffff166134a86125aa565b73ffffffffffffffffffffffffffffffffffffffff1614613507576134cb61325e565b6040517f118cdaa70000000000000000000000000000000000000000000000000000000081526004016134fe91906142be565b60405180910390fd5b565b5f73ffffffffffffffffffffffffffffffffffffffff168273ffffffffffffffffffffffffffffffffffffffff1603613579575f6040517f64a0ae9200000000000000000000000000000000000000000000000000000000815260040161357091906142be565b60405180910390fd5b5f61358583835f613277565b90505f73ffffffffffffffffffffffffffffffffffffffff168173ffffffffffffffffffffffffffffffffffffffff16146135f7575f6040517f73c6ac6e0000000000000000000000000000000000000000000000000000000081526004016135ee91906142be565b60405180910390fd5b505050565b5f60065f9054906101000a900473ffffffffffffffffffffffffffffffffffffffff1690508160065f6101000a81548173ffffffffffffffffffffffffffffffffffffffff021916908373ffffffffffffffffffffffffffffffffffffffff1602179055508173ffffffffffffffffffffffffffffffffffffffff168173ffffffffffffffffffffffffffffffffffffffff167f8be0079c531659141344cd1fd0a4f28419497f9722a3daafe3b4186f6b6457e060405160405180910390a35050565b5f60025f8381526020019081526020015f205f9054906101000a900473ffffffffffffffffffffffffffffffffffffffff169050919050565b5f73ffffffffffffffffffffffffffffffffffffffff168373ffffffffffffffffffffffffffffffffffffffff1603613768575f6040517fa9fbf51f00000000000000000000000000000000000000000000000000000000815260040161375f91906142be565b60405180910390fd5b5f73ffffffffffffffffffffffffffffffffffffffff168273ffffffffffffffffffffffffffffffffffffffff16036137d857816040517f5b08ba180000000000000000000000000000000000000000000000000000000081526004016137cf91906142be565b60405180910390fd5b8060055f8573ffffffffffffffffffffffffffffffffffffffff1673ffffffffffffffffffffffffffffffffffffffff1681526020019081526020015f205f8473ffffffffffffffffffffffffffffffffffffffff1673ffffffffffffffffffffffffffffffffffffffff1681526020019081526020015f205f6101000a81548160ff0219169083151502179055508173ffffffffffffffffffffffffffffffffffffffff168373ffffffffffffffffffffffffffffffffffffffff167f17307eab39ab6107e8899845ad3d59bd9653f200f220920489ca2b5937696c31836040516138c49190614178565b60405180910390a3505050565b5f8373ffffffffffffffffffffffffffffffffffffffff163b1115613a76578273ffffffffffffffffffffffffffffffffffffffff1663150b7a02868685856040518563ffffffff1660e01b815260040161392f9493929190615a37565b6020604051808303815f875af192505050801561396a57506040513d601f19601f820116820180604052508101906139679190615a95565b60015b6139eb573d805f8114613998576040519150601f19603f3d011682016040523d82523d5f602084013e61399d565b606091505b505f8151036139e357836040517f64a0ae920000000000000000000000000000000000000000000000000000000081526004016139da91906142be565b60405180910390fd5b805160208201fd5b63150b7a0260e01b7bffffffffffffffffffffffffffffffffffffffffffffffffffffffff1916817bffffffffffffffffffffffffffffffffffffffffffffffffffffffff191614613a7457836040517f64a0ae92000000000000000000000000000000000000000000000000000000008152600401613a6b91906142be565b60405180910390fd5b505b5050505050565b606060405180602001604052805f815250905090565b60605f6001613aa184613e48565b0190505f8167ffffffffffffffff811115613abf57613abe614a9b565b5b6040519080825280601f01601f191660200182016040528015613af15781602001600182028036833780820191505090505b5090505f82602083010190505b600115613b52578080600190039150507f3031323334353637383961626364656600000000000000000000000000000000600a86061a8153600a8581613b4757613b46615824565b5b0494505f8503613afe575b819350505050919050565b5f7f01ffc9a7000000000000000000000000000000000000000000000000000000007bffffffffffffffffffffffffffffffffffffffffffffffffffffffff1916827bffffffffffffffffffffffffffffffffffffffffffffffffffffffff1916149050919050565b8080613bfe57505f73ffffffffffffffffffffffffffffffffffffffff168273ffffffffffffffffffffffffffffffffffffffff1614155b15613d30575f613c0d8461319f565b90505f73ffffffffffffffffffffffffffffffffffffffff168373ffffffffffffffffffffffffffffffffffffffff1614158015613c7757508273ffffffffffffffffffffffffffffffffffffffff168173ffffffffffffffffffffffffffffffffffffffff1614155b8015613c8a5750613c888184612d70565b155b15613ccc57826040517fa9fbf51f000000000000000000000000000000000000000000000000000000008152600401613cc391906142be565b60405180910390fd5b8115613d2e57838573ffffffffffffffffffffffffffffffffffffffff168273ffffffffffffffffffffffffffffffffffffffff167f8c5be1e5ebec7d5bd14f71427d1e84f3dd0314c0f7b2291e5b200ac8c7c3b92560405160405180910390a45b505b8360045f8581526020019081526020015f205f6101000a81548173ffffffffffffffffffffffffffffffffffffffff021916908373ffffffffffffffffffffffffffffffffffffffff16021790555050505050565b613d90838383613f99565b613e43575f73ffffffffffffffffffffffffffffffffffffffff168373ffffffffffffffffffffffffffffffffffffffff1603613e0457806040517f7e273289000000000000000000000000000000000000000000000000000000008152600401613dfb9190614584565b60405180910390fd5b81816040517f177e802f000000000000000000000000000000000000000000000000000000008152600401613e3a929190615ac0565b60405180910390fd5b505050565b5f5f5f90507a184f03e93ff9f4daa797ed6e38ed64bf6a1f0100000000000000008310613ea4577a184f03e93ff9f4daa797ed6e38ed64bf6a1f0100000000000000008381613e9a57613e99615824565b5b0492506040810190505b6d04ee2d6d415b85acef81000000008310613ee1576d04ee2d6d415b85acef81000000008381613ed757613ed6615824565b5b0492506020810190505b662386f26fc100008310613f1057662386f26fc100008381613f0657613f05615824565b5b0492506010810190505b6305f5e1008310613f39576305f5e1008381613f2f57613f2e615824565b5b0492506008810190505b6127108310613f5e576127108381613f5457613f53615824565b5b0492506004810190505b60648310613f815760648381613f7757613f76615824565b5b0492506002810190505b600a8310613f90576001810190505b80915050919050565b5f5f73ffffffffffffffffffffffffffffffffffffffff168373ffffffffffffffffffffffffffffffffffffffff161415801561405057508273ffffffffffffffffffffffffffffffffffffffff168473ffffffffffffffffffffffffffffffffffffffff16148061401157506140108484612d70565b5b8061404f57508273ffffffffffffffffffffffffffffffffffffffff1661403783613225565b73ffffffffffffffffffffffffffffffffffffffff16145b5b90509392505050565b6040518061012001604052806060815260200160608152602001606081526020015f81526020015f81526020015f81526020015f151581526020015f73ffffffffffffffffffffffffffffffffffffffff1681526020015f73ffffffffffffffffffffffffffffffffffffffff1681525090565b5f604051905090565b5f5ffd5b5f5ffd5b5f7fffffffff0000000000000000000000000000000000000000000000000000000082169050919050565b614112816140de565b811461411c575f5ffd5b50565b5f8135905061412d81614109565b92915050565b5f60208284031215614148576141476140d6565b5b5f6141558482850161411f565b91505092915050565b5f8115159050919050565b6141728161415e565b82525050565b5f60208201905061418b5f830184614169565b92915050565b5f81519050919050565b5f82825260208201905092915050565b8281835e5f83830152505050565b5f601f19601f8301169050919050565b5f6141d382614191565b6141dd818561419b565b93506141ed8185602086016141ab565b6141f6816141b9565b840191505092915050565b5f6020820190508181035f83015261421981846141c9565b905092915050565b5f819050919050565b61423381614221565b811461423d575f5ffd5b50565b5f8135905061424e8161422a565b92915050565b5f60208284031215614269576142686140d6565b5b5f61427684828501614240565b91505092915050565b5f73ffffffffffffffffffffffffffffffffffffffff82169050919050565b5f6142a88261427f565b9050919050565b6142b88161429e565b82525050565b5f6020820190506142d15f8301846142af565b92915050565b6142e08161429e565b81146142ea575f5ffd5b50565b5f813590506142fb816142d7565b92915050565b5f5f60408385031215614317576143166140d6565b5b5f614324858286016142ed565b925050602061433585828601614240565b9150509250929050565b5f60208284031215614354576143536140d6565b5b5f614361848285016142ed565b91505092915050565b5f81519050919050565b5f82825260208201905092915050565b5f819050602082019050919050565b5f82825260208201905092915050565b5f6143ad82614191565b6143b78185614393565b93506143c78185602086016141ab565b6143d0816141b9565b840191505092915050565b6143e481614221565b82525050565b6143f38161429e565b82525050565b5f60a083015f8301518482035f86015261441382826143a3565b915050602083015161442860208601826143db565b50604083015161443b60408601826143ea565b50606083015161444e60608601826143db565b506080830151848203608086015261446682826143a3565b9150508091505092915050565b5f61447e83836143f9565b905092915050565b5f602082019050919050565b5f61449c8261436a565b6144a68185614374565b9350836020820285016144b885614384565b805f5b858110156144f357848403895281516144d48582614473565b94506144df83614486565b925060208a019950506001810190506144bb565b50829750879550505050505092915050565b5f6020820190508181035f83015261451d8184614492565b905092915050565b5f5f5f6060848603121561453c5761453b6140d6565b5b5f614549868287016142ed565b935050602061455a868287016142ed565b925050604061456b86828701614240565b9150509250925092565b61457e81614221565b82525050565b5f6020820190506145975f830184614575565b92915050565b5f5ffd5b5f5ffd5b5f5ffd5b5f5f83601f8401126145be576145bd61459d565b5b8235905067ffffffffffffffff8111156145db576145da6145a1565b5b6020830191508360018202830111156145f7576145f66145a5565b5b9250929050565b5f5f5f60408486031215614615576146146140d6565b5b5f614622868287016142ed565b935050602084013567ffffffffffffffff811115614643576146426140da565b5b61464f868287016145a9565b92509250509250925092565b5f5f5f5f5f5f60608789031215614675576146746140d6565b5b5f87013567ffffffffffffffff811115614692576146916140da565b5b61469e89828a016145a9565b9650965050602087013567ffffffffffffffff8111156146c1576146c06140da565b5b6146cd89828a016145a9565b9450945050604087013567ffffffffffffffff8111156146f0576146ef6140da565b5b6146fc89828a016145a9565b92509250509295509295509295565b6147148161415e565b82525050565b5f61012083015f8301518482035f86015261473582826143a3565b9150506020830151848203602086015261474f82826143a3565b9150506040830151848203604086015261476982826143a3565b915050606083015161477e60608601826143db565b50608083015161479160808601826143db565b5060a08301516147a460a08601826143db565b5060c08301516147b760c086018261470b565b5060e08301516147ca60e08601826143ea565b506101008301516147df6101008601826143ea565b508091505092915050565b5f6020820190508181035f830152614802818461471a565b905092915050565b5f819050919050565b61481c8161480a565b8114614826575f5ffd5b50565b5f8135905061483781614813565b92915050565b5f60208284031215614852576148516140d6565b5b5f61485f84828501614829565b91505092915050565b5f5f5f5f5f5f60808789031215614882576148816140d6565b5b5f61488f89828a016142ed565b965050602087013567ffffffffffffffff8111156148b0576148af6140da565b5b6148bc89828a016145a9565b955095505060406148cf89828a01614240565b935050606087013567ffffffffffffffff8111156148f0576148ef6140da565b5b6148fc89828a016145a9565b92509250509295509295509295565b5f81519050919050565b5f82825260208201905092915050565b5f819050602082019050919050565b5f61493f83836143ea565b60208301905092915050565b5f602082019050919050565b5f6149618261490b565b61496b8185614915565b935061497683614925565b805f5b838110156149a657815161498d8882614934565b97506149988361494b565b925050600181019050614979565b5085935050505092915050565b5f6020820190508181035f8301526149cb8184614957565b905092915050565b5f6040820190506149e65f830185614575565b6149f36020830184614575565b9392505050565b5f606082019050614a0d5f830186614575565b614a1a6020830185614575565b614a276040830184614575565b949350505050565b614a388161415e565b8114614a42575f5ffd5b50565b5f81359050614a5381614a2f565b92915050565b5f5f60408385031215614a6f57614a6e6140d6565b5b5f614a7c858286016142ed565b9250506020614a8d85828601614a45565b9150509250929050565b5f5ffd5b7f4e487b71000000000000000000000000000000000000000000000000000000005f52604160045260245ffd5b614ad1826141b9565b810181811067ffffffffffffffff82111715614af057614aef614a9b565b5b80604052505050565b5f614b026140cd565b9050614b0e8282614ac8565b919050565b5f67ffffffffffffffff821115614b2d57614b2c614a9b565b5b614b36826141b9565b9050602081019050919050565b828183375f83830152505050565b5f614b63614b5e84614b13565b614af9565b905082815260208101848484011115614b7f57614b7e614a97565b5b614b8a848285614b43565b509392505050565b5f82601f830112614ba657614ba561459d565b5b8135614bb6848260208601614b51565b91505092915050565b5f5f5f5f60808587031215614bd757614bd66140d6565b5b5f614be4878288016142ed565b9450506020614bf5878288016142ed565b9350506040614c0687828801614240565b925050606085013567ffffffffffffffff811115614c2757614c266140da565b5b614c3387828801614b92565b91505092959194509250565b5f5f60408385031215614c5557614c546140d6565b5b5f614c62858286016142ed565b9250506020614c73858286016142ed565b9150509250929050565b5f610120820190508181035f830152614c96818c6141c9565b90508181036020830152614caa818b6141c9565b90508181036040830152614cbe818a6141c9565b9050614ccd6060830189614575565b614cda6080830188614575565b614ce760a0830187614575565b614cf460c0830186614169565b614d0160e08301856142af565b614d0f6101008301846142af565b9a9950505050505050505050565b7f4e487b71000000000000000000000000000000000000000000000000000000005f52602260045260245ffd5b5f6002820490506001821680614d6157607f821691505b602082108103614d7457614d73614d1d565b5b50919050565b7f4167656e74206e6f7420726567697374657265640000000000000000000000005f82015250565b5f614dae60148361419b565b9150614db982614d7a565b602082019050919050565b5f6020820190508181035f830152614ddb81614da2565b9050919050565b7f4e6f7420616e20617574686f72697a6564207265706f727465720000000000005f82015250565b5f614e16601a8361419b565b9150614e2182614de2565b602082019050919050565b5f6020820190508181035f830152614e4381614e0a565b9050919050565b7f4e487b71000000000000000000000000000000000000000000000000000000005f52601160045260245ffd5b5f614e8182614221565b91507fffffffffffffffffffffffffffffffffffffffffffffffffffffffffffffffff8203614eb357614eb2614e4a565b5b600182019050919050565b5f606082019050614ed15f8301866142af565b614ede6020830185614575565b614eeb60408301846142af565b949350505050565b7f5265706f72746572206e6f7420617574686f72697a65640000000000000000005f82015250565b5f614f2760178361419b565b9150614f3282614ef3565b602082019050919050565b5f6020820190508181035f830152614f5481614f1b565b9050919050565b7f4167656e74205552492063616e6e6f7420626520656d707479000000000000005f82015250565b5f614f8f60198361419b565b9150614f9a82614f5b565b602082019050919050565b5f6020820190508181035f830152614fbc81614f83565b9050919050565b7f4e6f7420617574686f72697a656420746f20757064617465206167656e7420555f8201527f5249000000000000000000000000000000000000000000000000000000000000602082015250565b5f61501d60228361419b565b915061502882614fc3565b604082019050919050565b5f6020820190508181035f83015261504a81615011565b9050919050565b5f82905092915050565b5f819050815f5260205f209050919050565b5f6020601f8301049050919050565b5f82821b905092915050565b5f600883026150b77fffffffffffffffffffffffffffffffffffffffffffffffffffffffffffffffff8261507c565b6150c1868361507c565b95508019841693508086168417925050509392505050565b5f819050919050565b5f6150fc6150f76150f284614221565b6150d9565b614221565b9050919050565b5f819050919050565b615115836150e2565b61512961512182615103565b848454615088565b825550505050565b5f5f905090565b615140615131565b61514b81848461510c565b505050565b5b8181101561516e576151635f82615138565b600181019050615151565b5050565b601f8211156151b3576151848161505b565b61518d8461506d565b8101602085101561519c578190505b6151b06151a88561506d565b830182615150565b50505b505050565b5f82821c905092915050565b5f6151d35f19846008026151b8565b1980831691505092915050565b5f6151eb83836151c4565b9150826002028217905092915050565b6152058383615051565b67ffffffffffffffff81111561521e5761521d614a9b565b5b6152288254614d4a565b615233828285615172565b5f601f831160018114615260575f841561524e578287013590505b61525885826151e0565b8655506152bf565b601f19841661526e8661505b565b5f5b8281101561529557848901358255600182019150602085019450602081019050615270565b868310156152b257848901356152ae601f8916826151c4565b8355505b6001600288020188555050505b50505050505050565b5f6152d3838561419b565b93506152e0838584614b43565b6152e9836141b9565b840190509392505050565b5f6040820190508181035f83015261530d8185876152c8565b905061531c6020830184614575565b949350505050565b7f4e616d652063616e6e6f7420626520656d7074790000000000000000000000005f82015250565b5f61535860148361419b565b915061536382615324565b602082019050919050565b5f6020820190508181035f8301526153858161534c565b9050919050565b7f5365727669636520656e64706f696e742063616e6e6f7420626520656d7074795f82015250565b5f6153c060208361419b565b91506153cb8261538c565b602082019050919050565b5f6020820190508181035f8301526153ed816153b4565b9050919050565b7f4167656e7420616c7265616479207265676973746572656400000000000000005f82015250565b5f61542860188361419b565b9150615433826153f4565b602082019050919050565b5f6020820190508181035f8301526154558161541c565b9050919050565b61546582614191565b67ffffffffffffffff81111561547e5761547d614a9b565b5b6154888254614d4a565b615493828285615172565b5f60209050601f8311600181146154c4575f84156154b2578287015190505b6154bc85826151e0565b865550615523565b601f1984166154d28661505b565b5f5b828110156154f9578489015182556001820191506020850194506020810190506154d4565b868310156155165784890151615512601f8916826151c4565b8355505b6001600288020188555050505b505050505050565b5f6080820190508181035f83015261554481898b6152c8565b905081810360208301526155598187896152c8565b9050818103604083015261556e8185876152c8565b905061557d6060830184614575565b98975050505050505050565b7f546f6b656e20646f6573206e6f742065786973740000000000000000000000005f82015250565b5f6155bd60148361419b565b91506155c882615589565b602082019050919050565b5f6020820190508181035f8301526155ea816155b1565b9050919050565b7f43616e6e6f742072617465206f776e206167656e7400000000000000000000005f82015250565b5f61562560158361419b565b9150615630826155f1565b602082019050919050565b5f6020820190508181035f83015261565281615619565b9050919050565b5f81905092915050565b5f61566e8385615659565b935061567b838584614b43565b82840190509392505050565b5f615693828486615663565b91508190509392505050565b7f546167206e6f7420616c6c6f77656400000000000000000000000000000000005f82015250565b5f6156d3600f8361419b565b91506156de8261569f565b602082019050919050565b5f6020820190508181035f830152615700816156c7565b9050919050565b7f56616c7565206d75737420626520302d313030000000000000000000000000005f82015250565b5f61573b60138361419b565b915061574682615707565b602082019050919050565b5f6020820190508181035f8301526157688161572f565b9050919050565b5f6080820190508181035f83015261578881888a6152c8565b90506157976020830187614575565b81810360408301526157aa8185876152c8565b90506157b96060830184614575565b979650505050505050565b7f4e487b71000000000000000000000000000000000000000000000000000000005f52603260045260245ffd5b5f6157fb82614221565b915061580683614221565b925082820190508082111561581e5761581d614e4a565b5b92915050565b7f4e487b71000000000000000000000000000000000000000000000000000000005f52601260045260245ffd5b5f61585b82614221565b915061586683614221565b92508261587657615875615824565b5b828204905092915050565b7f496e76616c6964207265706f72746572206164647265737300000000000000005f82015250565b5f6158b560188361419b565b91506158c082615881565b602082019050919050565b5f6020820190508181035f8301526158e2816158a9565b9050919050565b7f5265706f7274657220616c726561647920617574686f72697a656400000000005f82015250565b5f61591d601b8361419b565b9150615928826158e9565b602082019050919050565b5f6020820190508181035f83015261594a81615911565b9050919050565b5f61595b82614221565b915061596683614221565b925082820261597481614221565b9150828204841483151761598b5761598a614e4a565b5b5092915050565b5f61599c82614191565b6159a68185615659565b93506159b68185602086016141ab565b80840191505092915050565b5f6159cd8285615992565b91506159d98284615992565b91508190509392505050565b5f81519050919050565b5f82825260208201905092915050565b5f615a09826159e5565b615a1381856159ef565b9350615a238185602086016141ab565b615a2c816141b9565b840191505092915050565b5f608082019050615a4a5f8301876142af565b615a5760208301866142af565b615a646040830185614575565b8181036060830152615a7681846159ff565b905095945050505050565b5f81519050615a8f81614109565b92915050565b5f60208284031215615aaa57615aa96140d6565b5b5f615ab784828501615a81565b91505092915050565b5f604082019050615ad35f8301856142af565b615ae06020830184614575565b939250505056fea2646970667358221220cec50cb4bcceb82519abb3e84b3f75867d6ede606de06a793d0d4fabf795f3e664736f6c634300081c0033","linkReferences":{}},"methodIdentifiers":{"agentInfo(address)":"62c885ee","agentToTokenId(address)":"f8ae83b8","agentURI(uint256)":"78396cb3","agents(address)":"fd66091e","allowedTags(bytes32)":"7c3b361f","approve(address,uint256)":"095ea7b3","authorizeReporter(address)":"9b5b6ddc","authorizedReporters(address)":"3a41429a","balanceOf(address)":"70a08231","deauthorizeReporter(address)":"28483673","getAgentCount()":"91cab63e","getAgentTokenId(address)":"4e048b5e","getAllFeedback(address)":"0f23920c","getApproved(uint256)":"081812fc","getRegisteredAgents()":"875ff280","getReputation(address)":"9c89a0e2","getTagReputation(address,string)":"998264e3","giveFeedback(address,string,uint256,string)":"8030482f","isAgentRegistered(address)":"689b6c44","isApprovedForAll(address,address)":"e985e9c5","name()":"06fdde03","owner()":"8da5cb5b","ownerOf(uint256)":"6352211e","registerAgent(string,string,string)":"56a2d660","registeredAgentsList(uint256)":"5b8fb37f","renounceOwnership()":"715018a6","reportFailure(address)":"209d7c30","reportSuccess(address)":"a2384911","safeTransferFrom(address,address,uint256)":"42842e0e","safeTransferFrom(address,address,uint256,bytes)":"b88d4fde","setApprovalForAll(address,bool)":"a22cb465","supportsInterface(bytes4)":"01ffc9a7","symbol()":"95d89b41","tokenIdToAgent(uint256)":"7a56f72b","tokenURI(uint256)":"c87b56dd","transferFrom(address,address,uint256)":"23b872dd","transferOwnership(address)":"f2fde38b","updateAgentURI(address,string)":"4f1590cb"},"id":46}