{"abi":[{"type":"constructor","inputs":[],"stateMutability":"nonpayable"},{"type":"function","name":"agentInfo","inputs":[{"name":"agent","type":"address","internalType":"address"}],"outputs":[{"name":"","type":"tuple","internalType":"struct AgentRegistry8004.AgentInfo","components":[{"name":"name","type":"string","internalType":"string"},{"name":"serviceEndpoint","type":"string","internalType":"string"},{"name":"successCount","type":"uint256","internalType":"uint256"},{"name":"failureCount","type":"uint256","internalType":"uint256"},{"name":"registrationTimestamp","type":"uint256","internalType":"uint256"},{"name":"isRegistered","type":"bool","internalType":"bool"}]}],"stateMutability":"view"},{"type":"function","name":"agents","inputs":[{"name":"","type":"address","internalType":"address"}],"outputs":[{"name":"name","type":"string","internalType":"string"},{"name":"serviceEndpoint","type":"string","internalType":"string"},{"name":"successCount","type":"uint256","internalType":"uint256"},{"name":"failureCount","type":"uint256","internalType":"uint256"},{"name":"registrationTimestamp","type":"uint256","internalType":"uint256"},{"name":"isRegistered","type":"bool","internalType":"bool"}],"stateMutability":"view"},{"type":"function","name":"authorizeReporter","inputs":[{"name":"reporter","type":"address","internalType":"address"}],"outputs":[],"stateMutability":"nonpayable"},{"type":"function","name":"authorizedReporters","inputs":[{"name":"","type":"address","internalType":"address"}],"outputs":[{"name":"","type":"bool","internalType":"bool"}],"stateMutability":"view"},{"type":"function","name":"deauthorizeReporter","inputs":[{"name":"reporter","type":"address","internalType":"address"}],"outputs":[],"stateMutability":"nonpayable"},{"type":"function","name":"getAgentCount","inputs":[],"outputs":[{"name":"","type":"uint256","internalType":"uint256"}],"stateMutability":"view"},{"type":"function","name":"getRegisteredAgents","inputs":[],"outputs":[{"name":"","type":"address[]","internalType":"address[]"}],"stateMutability":"view"},{"type":"function","name":"getReputation","inputs":[{"name":"agent","type":"address","internalType":"address"}],"outputs":[{"name":"successCount","type":"uint256","internalType":"uint256"},{"name":"failureCount","type":"uint256","internalType":"uint256"},{"name":"score","type":"uint256","internalType":"uint256"}],"stateMutability":"view"},{"type":"function","name":"isAgentRegistered","inputs":[{"name":"agent","type":"address","internalType":"address"}],"outputs":[{"name":"","type":"bool","internalType":"bool"}],"stateMutability":"view"},{"type":"function","name":"owner","inputs":[],"outputs":[{"name":"","type":"address","internalType":"address"}],"stateMutability":"view"},{"type":"function","name":"registerAgent","inputs":[{"name":"name","type":"string","internalType":"string"},{"name":"serviceEndpoint","type":"string","internalType":"string"}],"outputs":[],"stateMutability":"nonpayable"},{"type":"function","name":"registeredAgentsList","inputs":[{"name":"","type":"uint256","internalType":"uint256"}],"outputs":[{"name":"","type":"address","internalType":"address"}],"stateMutability":"view"},{"type":"function","name":"renounceOwnership","inputs":[],"outputs":[],"stateMutability":"nonpayable"},{"type":"function","name":"reportFailure","inputs":[{"name":"agent","type":"address","internalType":"address"}],"outputs":[],"stateMutability":"nonpayable"},{"type":"function","name":"reportSuccess","inputs":[{"name":"agent","type":"address","internalType":"address"}],"outputs":[],"stateMutability":"nonpayable"},{"type":"function","name":"supportsInterface","inputs":[{"name":"interfaceId","type":"bytes4","internalType":"bytes4"}],"outputs":[{"name":"","type":"bool","internalType":"bool"}],"stateMutability":"pure"},{"type":"function","name":"transferOwnership","inputs":[{"name":"newOwner","type":"address","internalType":"address"}],"outputs":[],"stateMutability":"nonpayable"},{"type":"event","name":"AgentRegistered","inputs":[{"name":"agent","type":"address","indexed":true,"internalType":"address"},{"name":"name","type":"string","indexed":false,"internalType":"string"},{"name":"serviceEndpoint","type":"string","indexed":false,"internalType":"string"},{"name":"timestamp","type":"uint256","indexed":false,"internalType":"uint256"}],"anonymous":false},{"type":"event","name":"FailureReported","inputs":[{"name":"agent","type":"address","indexed":true,"internalType":"address"},{"name":"reporter","type":"address","indexed":true,"internalType":"address"},{"name":"newFailureCount","type":"uint256","indexed":false,"internalType":"uint256"}],"anonymous":false},{"type":"event","name":"OwnershipTransferred","inputs":[{"name":"previousOwner","type":"address","indexed":true,"internalType":"address"},{"name":"newOwner","type":"address","indexed":true,"internalType":"address"}],"anonymous":false},{"type":"event","name":"ReporterAuthorized","inputs":[{"name":"reporter","type":"address","indexed":true,"internalType":"address"}],"anonymous":false},{"type":"event","name":"ReporterDeauthorized","inputs":[{"name":"reporter","type":"address","indexed":true,"internalType":"address"}],"anonymous":false},{"type":"event","name":"SuccessReported","inputs":[{"name":"agent","type":"address","indexed":true,"internalType":"address"},{"name":"reporter","type":"address","indexed":true,"internalType":"address"},{"name":"newSuccessCount","type":"uint256","indexed":false,"internalType":"uint256"}],"anonymous":false},{"type":"error","name":"OwnableInvalidOwner","inputs":[{"name":"owner","type":"address","internalType":"address"}]},{"type":"error","name":"OwnableUnauthorizedAccount","inputs":[{"name":"account","type":"address","internalType":"address"}]}],"bytecode":{"object":"0x608060405234801561000f575f5ffd5b50335f73ffffffffffffffffffffffffffffffffffffffff168173ffffffffffffffffffffffffffffffffffffffff1603610081575f6040517f1e4fbdf70000000000000000000000000000000000000000000000000000000081526004016100789190610196565b60405180910390fd5b6100908161009660201b60201c565b506101af565b5f5f5f9054906101000a900473ffffffffffffffffffffffffffffffffffffffff169050815f5f6101000a81548173ffffffffffffffffffffffffffffffffffffffff021916908373ffffffffffffffffffffffffffffffffffffffff1602179055508173ffffffffffffffffffffffffffffffffffffffff168173ffffffffffffffffffffffffffffffffffffffff167f8be0079c531659141344cd1fd0a4f28419497f9722a3daafe3b4186f6b6457e060405160405180910390a35050565b5f73ffffffffffffffffffffffffffffffffffffffff82169050919050565b5f61018082610157565b9050919050565b61019081610176565b82525050565b5f6020820190506101a95f830184610187565b92915050565b612450806101bc5f395ff3fe608060405234801561000f575f5ffd5b5060043610610109575f3560e01c8063875ff280116100a05780639c89a0e21161006f5780639c89a0e2146102b5578063a2384911146102e7578063f2fde38b14610303578063fd66091e1461031f578063ff17aca41461035457610109565b8063875ff2801461023f5780638da5cb5b1461025d57806391cab63e1461027b5780639b5b6ddc1461029957610109565b80635b8fb37f116100dc5780635b8fb37f146101a557806362c885ee146101d5578063689b6c4414610205578063715018a61461023557610109565b806301ffc9a71461010d578063209d7c301461013d57806328483673146101595780633a41429a14610175575b5f5ffd5b610127600480360381019061012291906116af565b610370565b60405161013491906116f4565b60405180910390f35b61015760048036038101906101529190611767565b610409565b005b610173600480360381019061016e9190611767565b61061b565b005b61018f600480360381019061018a9190611767565b610746565b60405161019c91906116f4565b60405180910390f35b6101bf60048036038101906101ba91906117c5565b610763565b6040516101cc91906117ff565b60405180910390f35b6101ef60048036038101906101ea9190611767565b61079e565b6040516101fc9190611933565b60405180910390f35b61021f600480360381019061021a9190611767565b6109d8565b60405161022c91906116f4565b60405180910390f35b61023d610a2d565b005b610247610a40565b6040516102549190611a0a565b60405180910390f35b610265610acb565b60405161027291906117ff565b60405180910390f35b610283610af2565b6040516102909190611a39565b60405180910390f35b6102b360048036038101906102ae9190611767565b610afe565b005b6102cf60048036038101906102ca9190611767565b610c99565b6040516102de93929190611a52565b60405180910390f35b61030160048036038101906102fc9190611767565b610db9565b005b61031d60048036038101906103189190611767565b610fcb565b005b61033960048036038101906103349190611767565b61104f565b60405161034b96959493929190611acf565b60405180910390f35b61036e60048036038101906103699190611b9d565b61119f565b005b5f7f01ffc9a7000000000000000000000000000000000000000000000000000000007bffffffffffffffffffffffffffffffffffffffffffffffffffffffff1916827bffffffffffffffffffffffffffffffffffffffffffffffffffffffff191614806104025750631234567860e01b827bffffffffffffffffffffffffffffffffffffffffffffffffffffffff1916145b9050919050565b60025f3373ffffffffffffffffffffffffffffffffffffffff1673ffffffffffffffffffffffffffffffffffffffff1681526020019081526020015f205f9054906101000a900460ff16610492576040517f08c379a000000000000000000000000000000000000000000000000000000000815260040161048990611c65565b60405180910390fd5b60015f8273ffffffffffffffffffffffffffffffffffffffff1673ffffffffffffffffffffffffffffffffffffffff1681526020019081526020015f206005015f9054906101000a900460ff1661051e576040517f08c379a000000000000000000000000000000000000000000000000000000000815260040161051590611ccd565b60405180910390fd5b60015f8273ffffffffffffffffffffffffffffffffffffffff1673ffffffffffffffffffffffffffffffffffffffff1681526020019081526020015f206003015f81548092919061056e90611d18565b91905055503373ffffffffffffffffffffffffffffffffffffffff168173ffffffffffffffffffffffffffffffffffffffff167fba87b38246ac2d8b31b6fe13b08226edc5b86803edadf90eac81802f0d3de7ff60015f8573ffffffffffffffffffffffffffffffffffffffff1673ffffffffffffffffffffffffffffffffffffffff1681526020019081526020015f20600301546040516106109190611a39565b60405180910390a350565b6106236114cf565b60025f8273ffffffffffffffffffffffffffffffffffffffff1673ffffffffffffffffffffffffffffffffffffffff1681526020019081526020015f205f9054906101000a900460ff166106ac576040517f08c379a00000000000000000000000000000000000000000000000000000000081526004016106a390611da9565b60405180910390fd5b5f60025f8373ffffffffffffffffffffffffffffffffffffffff1673ffffffffffffffffffffffffffffffffffffffff1681526020019081526020015f205f6101000a81548160ff0219169083151502179055508073ffffffffffffffffffffffffffffffffffffffff167f47bd90c9b0ef7707d9ec5f433132fde73e093cbe6f1af89baf8044b93b2e071b60405160405180910390a250565b6002602052805f5260405f205f915054906101000a900460ff1681565b60038181548110610772575f80fd5b905f5260205f20015f915054906101000a900473ffffffffffffffffffffffffffffffffffffffff1681565b6107a661161e565b60015f8373ffffffffffffffffffffffffffffffffffffffff1673ffffffffffffffffffffffffffffffffffffffff1681526020019081526020015f206005015f9054906101000a900460ff16610832576040517f08c379a000000000000000000000000000000000000000000000000000000000815260040161082990611ccd565b60405180910390fd5b60015f8373ffffffffffffffffffffffffffffffffffffffff1673ffffffffffffffffffffffffffffffffffffffff1681526020019081526020015f206040518060c00160405290815f8201805461088990611df4565b80601f01602080910402602001604051908101604052809291908181526020018280546108b590611df4565b80156109005780601f106108d757610100808354040283529160200191610900565b820191905f5260205f20905b8154815290600101906020018083116108e357829003601f168201915b5050505050815260200160018201805461091990611df4565b80601f016020809104026020016040519081016040528092919081815260200182805461094590611df4565b80156109905780601f1061096757610100808354040283529160200191610990565b820191905f5260205f20905b81548152906001019060200180831161097357829003601f168201915b50505050508152602001600282015481526020016003820154815260200160048201548152602001600582015f9054906101000a900460ff1615151515815250509050919050565b5f60015f8373ffffffffffffffffffffffffffffffffffffffff1673ffffffffffffffffffffffffffffffffffffffff1681526020019081526020015f206005015f9054906101000a900460ff169050919050565b610a356114cf565b610a3e5f611556565b565b60606003805480602002602001604051908101604052809291908181526020018280548015610ac157602002820191905f5260205f20905b815f9054906101000a900473ffffffffffffffffffffffffffffffffffffffff1673ffffffffffffffffffffffffffffffffffffffff1681526020019060010190808311610a78575b5050505050905090565b5f5f5f9054906101000a900473ffffffffffffffffffffffffffffffffffffffff16905090565b5f600380549050905090565b610b066114cf565b5f73ffffffffffffffffffffffffffffffffffffffff168173ffffffffffffffffffffffffffffffffffffffff1603610b74576040517f08c379a0000000000000000000000000000000000000000000000000000000008152600401610b6b90611e6e565b60405180910390fd5b60025f8273ffffffffffffffffffffffffffffffffffffffff1673ffffffffffffffffffffffffffffffffffffffff1681526020019081526020015f205f9054906101000a900460ff1615610bfe576040517f08c379a0000000000000000000000000000000000000000000000000000000008152600401610bf590611ed6565b60405180910390fd5b600160025f8373ffffffffffffffffffffffffffffffffffffffff1673ffffffffffffffffffffffffffffffffffffffff1681526020019081526020015f205f6101000a81548160ff0219169083151502179055508073ffffffffffffffffffffffffffffffffffffffff167fd576729e54c1a0846f1efbfdf9ec547dea55be936f85a664fa0e40801e17caf960405160405180910390a250565b5f5f5f60015f8573ffffffffffffffffffffffffffffffffffffffff1673ffffffffffffffffffffffffffffffffffffffff1681526020019081526020015f206005015f9054906101000a900460ff16610d28576040517f08c379a0000000000000000000000000000000000000000000000000000000008152600401610d1f90611ccd565b60405180910390fd5b5f60015f8673ffffffffffffffffffffffffffffffffffffffff1673ffffffffffffffffffffffffffffffffffffffff1681526020019081526020015f20905080600201549350806003015492505f8385610d839190611ef4565b90505f8103610d94575f9250610db0565b8061271086610da39190611f27565b610dad9190611f95565b92505b50509193909250565b60025f3373ffffffffffffffffffffffffffffffffffffffff1673ffffffffffffffffffffffffffffffffffffffff1681526020019081526020015f205f9054906101000a900460ff16610e42576040517f08c379a0000000000000000000000000000000000000000000000000000000008152600401610e3990611c65565b60405180910390fd5b60015f8273ffffffffffffffffffffffffffffffffffffffff1673ffffffffffffffffffffffffffffffffffffffff1681526020019081526020015f206005015f9054906101000a900460ff16610ece576040517f08c379a0000000000000000000000000000000000000000000000000000000008152600401610ec590611ccd565b60405180910390fd5b60015f8273ffffffffffffffffffffffffffffffffffffffff1673ffffffffffffffffffffffffffffffffffffffff1681526020019081526020015f206002015f815480929190610f1e90611d18565b91905055503373ffffffffffffffffffffffffffffffffffffffff168173ffffffffffffffffffffffffffffffffffffffff167fbce9f4eae895d070109bdf42082b88c13896f801372146c07966cae7a54c4fae60015f8573ffffffffffffffffffffffffffffffffffffffff1673ffffffffffffffffffffffffffffffffffffffff1681526020019081526020015f2060020154604051610fc09190611a39565b60405180910390a350565b610fd36114cf565b5f73ffffffffffffffffffffffffffffffffffffffff168173ffffffffffffffffffffffffffffffffffffffff1603611043575f6040517f1e4fbdf700000000000000000000000000000000000000000000000000000000815260040161103a91906117ff565b60405180910390fd5b61104c81611556565b50565b6001602052805f5260405f205f91509050805f01805461106e90611df4565b80601f016020809104026020016040519081016040528092919081815260200182805461109a90611df4565b80156110e55780601f106110bc576101008083540402835291602001916110e5565b820191905f5260205f20905b8154815290600101906020018083116110c857829003601f168201915b5050505050908060010180546110fa90611df4565b80601f016020809104026020016040519081016040528092919081815260200182805461112690611df4565b80156111715780601f1061114857610100808354040283529160200191611171565b820191905f5260205f20905b81548152906001019060200180831161115457829003601f168201915b505050505090806002015490806003015490806004015490806005015f9054906101000a900460ff16905086565b5f84849050116111e4576040517f08c379a00000000000000000000000000000000000000000000000000000000081526004016111db9061200f565b60405180910390fd5b5f8282905011611229576040517f08c379a000000000000000000000000000000000000000000000000000000000815260040161122090612077565b60405180910390fd5b60015f3373ffffffffffffffffffffffffffffffffffffffff1673ffffffffffffffffffffffffffffffffffffffff1681526020019081526020015f206005015f9054906101000a900460ff16156112b6576040517f08c379a00000000000000000000000000000000000000000000000000000000081526004016112ad906120df565b60405180910390fd5b6040518060c0016040528085858080601f0160208091040260200160405190810160405280939291908181526020018383808284375f81840152601f19601f82011690508083019250505050505050815260200183838080601f0160208091040260200160405190810160405280939291908181526020018383808284375f81840152601f19601f8201169050808301925050505050505081526020015f81526020015f81526020014281526020016001151581525060015f3373ffffffffffffffffffffffffffffffffffffffff1673ffffffffffffffffffffffffffffffffffffffff1681526020019081526020015f205f820151815f0190816113bc91906122ca565b5060208201518160010190816113d291906122ca565b5060408201518160020155606082015181600301556080820151816004015560a0820151816005015f6101000a81548160ff021916908315150217905550905050600333908060018154018082558091505060019003905f5260205f20015f9091909190916101000a81548173ffffffffffffffffffffffffffffffffffffffff021916908373ffffffffffffffffffffffffffffffffffffffff1602179055503373ffffffffffffffffffffffffffffffffffffffff167fda383fa67b156e4a54602cae094dfe780f97854ec2bb821ec1d0836381055c7f85858585426040516114c19594939291906123d3565b60405180910390a250505050565b6114d7611617565b73ffffffffffffffffffffffffffffffffffffffff166114f5610acb565b73ffffffffffffffffffffffffffffffffffffffff161461155457611518611617565b6040517f118cdaa700000000000000000000000000000000000000000000000000000000815260040161154b91906117ff565b60405180910390fd5b565b5f5f5f9054906101000a900473ffffffffffffffffffffffffffffffffffffffff169050815f5f6101000a81548173ffffffffffffffffffffffffffffffffffffffff021916908373ffffffffffffffffffffffffffffffffffffffff1602179055508173ffffffffffffffffffffffffffffffffffffffff168173ffffffffffffffffffffffffffffffffffffffff167f8be0079c531659141344cd1fd0a4f28419497f9722a3daafe3b4186f6b6457e060405160405180910390a35050565b5f33905090565b6040518060c0016040528060608152602001606081526020015f81526020015f81526020015f81526020015f151581525090565b5f5ffd5b5f5ffd5b5f7fffffffff0000000000000000000000000000000000000000000000000000000082169050919050565b61168e8161165a565b8114611698575f5ffd5b50565b5f813590506116a981611685565b92915050565b5f602082840312156116c4576116c3611652565b5b5f6116d18482850161169b565b91505092915050565b5f8115159050919050565b6116ee816116da565b82525050565b5f6020820190506117075f8301846116e5565b92915050565b5f73ffffffffffffffffffffffffffffffffffffffff82169050919050565b5f6117368261170d565b9050919050565b6117468161172c565b8114611750575f5ffd5b50565b5f813590506117618161173d565b92915050565b5f6020828403121561177c5761177b611652565b5b5f61178984828501611753565b91505092915050565b5f819050919050565b6117a481611792565b81146117ae575f5ffd5b50565b5f813590506117bf8161179b565b92915050565b5f602082840312156117da576117d9611652565b5b5f6117e7848285016117b1565b91505092915050565b6117f98161172c565b82525050565b5f6020820190506118125f8301846117f0565b92915050565b5f81519050919050565b5f82825260208201905092915050565b8281835e5f83830152505050565b5f601f19601f8301169050919050565b5f61185a82611818565b6118648185611822565b9350611874818560208601611832565b61187d81611840565b840191505092915050565b61189181611792565b82525050565b6118a0816116da565b82525050565b5f60c083015f8301518482035f8601526118c08282611850565b915050602083015184820360208601526118da8282611850565b91505060408301516118ef6040860182611888565b5060608301516119026060860182611888565b5060808301516119156080860182611888565b5060a083015161192860a0860182611897565b508091505092915050565b5f6020820190508181035f83015261194b81846118a6565b905092915050565b5f81519050919050565b5f82825260208201905092915050565b5f819050602082019050919050565b6119858161172c565b82525050565b5f611996838361197c565b60208301905092915050565b5f602082019050919050565b5f6119b882611953565b6119c2818561195d565b93506119cd8361196d565b805f5b838110156119fd5781516119e4888261198b565b97506119ef836119a2565b9250506001810190506119d0565b5085935050505092915050565b5f6020820190508181035f830152611a2281846119ae565b905092915050565b611a3381611792565b82525050565b5f602082019050611a4c5f830184611a2a565b92915050565b5f606082019050611a655f830186611a2a565b611a726020830185611a2a565b611a7f6040830184611a2a565b949350505050565b5f82825260208201905092915050565b5f611aa182611818565b611aab8185611a87565b9350611abb818560208601611832565b611ac481611840565b840191505092915050565b5f60c0820190508181035f830152611ae78189611a97565b90508181036020830152611afb8188611a97565b9050611b0a6040830187611a2a565b611b176060830186611a2a565b611b246080830185611a2a565b611b3160a08301846116e5565b979650505050505050565b5f5ffd5b5f5ffd5b5f5ffd5b5f5f83601f840112611b5d57611b5c611b3c565b5b8235905067ffffffffffffffff811115611b7a57611b79611b40565b5b602083019150836001820283011115611b9657611b95611b44565b5b9250929050565b5f5f5f5f60408587031215611bb557611bb4611652565b5b5f85013567ffffffffffffffff811115611bd257611bd1611656565b5b611bde87828801611b48565b9450945050602085013567ffffffffffffffff811115611c0157611c00611656565b5b611c0d87828801611b48565b925092505092959194509250565b7f4e6f7420616e20617574686f72697a6564207265706f727465720000000000005f82015250565b5f611c4f601a83611a87565b9150611c5a82611c1b565b602082019050919050565b5f6020820190508181035f830152611c7c81611c43565b9050919050565b7f4167656e74206e6f7420726567697374657265640000000000000000000000005f82015250565b5f611cb7601483611a87565b9150611cc282611c83565b602082019050919050565b5f6020820190508181035f830152611ce481611cab565b9050919050565b7f4e487b71000000000000000000000000000000000000000000000000000000005f52601160045260245ffd5b5f611d2282611792565b91507fffffffffffffffffffffffffffffffffffffffffffffffffffffffffffffffff8203611d5457611d53611ceb565b5b600182019050919050565b7f5265706f72746572206e6f7420617574686f72697a65640000000000000000005f82015250565b5f611d93601783611a87565b9150611d9e82611d5f565b602082019050919050565b5f6020820190508181035f830152611dc081611d87565b9050919050565b7f4e487b71000000000000000000000000000000000000000000000000000000005f52602260045260245ffd5b5f6002820490506001821680611e0b57607f821691505b602082108103611e1e57611e1d611dc7565b5b50919050565b7f496e76616c6964207265706f72746572206164647265737300000000000000005f82015250565b5f611e58601883611a87565b9150611e6382611e24565b602082019050919050565b5f6020820190508181035f830152611e8581611e4c565b9050919050565b7f5265706f7274657220616c726561647920617574686f72697a656400000000005f82015250565b5f611ec0601b83611a87565b9150611ecb82611e8c565b602082019050919050565b5f6020820190508181035f830152611eed81611eb4565b9050919050565b5f611efe82611792565b9150611f0983611792565b9250828201905080821115611f2157611f20611ceb565b5b92915050565b5f611f3182611792565b9150611f3c83611792565b9250828202611f4a81611792565b91508282048414831517611f6157611f60611ceb565b5b5092915050565b7f4e487b71000000000000000000000000000000000000000000000000000000005f52601260045260245ffd5b5f611f9f82611792565b9150611faa83611792565b925082611fba57611fb9611f68565b5b828204905092915050565b7f4e616d652063616e6e6f7420626520656d7074790000000000000000000000005f82015250565b5f611ff9601483611a87565b915061200482611fc5565b602082019050919050565b5f6020820190508181035f83015261202681611fed565b9050919050565b7f5365727669636520656e64706f696e742063616e6e6f7420626520656d7074795f82015250565b5f612061602083611a87565b915061206c8261202d565b602082019050919050565b5f6020820190508181035f83015261208e81612055565b9050919050565b7f4167656e7420616c7265616479207265676973746572656400000000000000005f82015250565b5f6120c9601883611a87565b91506120d482612095565b602082019050919050565b5f6020820190508181035f8301526120f6816120bd565b9050919050565b7f4e487b71000000000000000000000000000000000000000000000000000000005f52604160045260245ffd5b5f819050815f5260205f209050919050565b5f6020601f8301049050919050565b5f82821b905092915050565b5f600883026121867fffffffffffffffffffffffffffffffffffffffffffffffffffffffffffffffff8261214b565b612190868361214b565b95508019841693508086168417925050509392505050565b5f819050919050565b5f6121cb6121c66121c184611792565b6121a8565b611792565b9050919050565b5f819050919050565b6121e4836121b1565b6121f86121f0826121d2565b848454612157565b825550505050565b5f5f905090565b61220f612200565b61221a8184846121db565b505050565b5b8181101561223d576122325f82612207565b600181019050612220565b5050565b601f821115612282576122538161212a565b61225c8461213c565b8101602085101561226b578190505b61227f6122778561213c565b83018261221f565b50505b505050565b5f82821c905092915050565b5f6122a25f1984600802612287565b1980831691505092915050565b5f6122ba8383612293565b9150826002028217905092915050565b6122d382611818565b67ffffffffffffffff8111156122ec576122eb6120fd565b5b6122f68254611df4565b612301828285612241565b5f60209050601f831160018114612332575f8415612320578287015190505b61232a85826122af565b865550612391565b601f1984166123408661212a565b5f5b8281101561236757848901518255600182019150602085019450602081019050612342565b868310156123845784890151612380601f891682612293565b8355505b6001600288020188555050505b505050505050565b828183375f83830152505050565b5f6123b28385611a87565b93506123bf838584612399565b6123c883611840565b840190509392505050565b5f6060820190508181035f8301526123ec8187896123a7565b905081810360208301526124018185876123a7565b90506124106040830184611a2a565b969550505050505056fea2646970667358221220db59e834d7736f1a3f255b7a64a0e1f1f207b69132717c24e8fd7b1054ed954e64736f6c634300081c0033","linkReferences":{}},"methodIdentifiers":{"agentInfo(address)":"62c885ee","agents(address)":"fd66091e","authorizeReporter(address)":"9b5b6ddc","authorizedReporters(address)":"3a41429a","deauthorizeReporter(address)":"28483673","getAgentCount()":"91cab63e","getRegisteredAgents()":"875ff280","getReputation(address)":"9c89a0e2","isAgentRegistered(address)":"689b6c44","owner()":"8da5cb5b","registerAgent(string,string)":"ff17aca4","registeredAgentsList(uint256)":"5b8fb37f","renounceOwnership()":"715018a6","reportFailure(address)":"209d7c30","reportSuccess(address)":"a2384911","supportsInterface(bytes4)":"01ffc9a7","transferOwnership(address)":"f2fde38b"},"id":23}