{"abi":[{"type":"constructor","inputs":[{"name":"_cusdToken","type":"address","internalType":"address"},{"name":"_trustTierManager","type":"address","internalType":"address"},{"name":"_agentRegistry","type":"address","internalType":"address"}],"stateMutability":"nonpayable"},{"type":"function","name":"agentRegistry","inputs":[],"outputs":[{"name":"","type":"address","internalType":"contract AgentRegistry8004"}],"stateMutability":"view"},{"type":"function","name":"creditLines","inputs":[{"name":"","type":"uint256","internalType":"uint256"}],"outputs":[{"name":"id","type":"uint256","internalType":"uint256"},{"name":"issuer","type":"address","internalType":"address"},{"name":"borrower","type":"address","internalType":"address"},{"name":"maxAmount","type":"uint256","internalType":"uint256"},{"name":"drawnAmount","type":"uint256","internalType":"uint256"},{"name":"repaidAmount","type":"uint256","internalType":"uint256"},{"name":"interestRateBps","type":"uint256","internalType":"uint256"},{"name":"issuedAt","type":"uint256","internalType":"uint256"},{"name":"expiresAt","type":"uint256","internalType":"uint256"},{"name":"durationDays","type":"uint256","internalType":"uint256"},{"name":"isActive","type":"bool","internalType":"bool"},{"name":"isDefaulted","type":"bool","internalType":"bool"}],"stateMutability":"view"},{"type":"function","name":"cusdToken","inputs":[],"outputs":[{"name":"","type":"address","internalType":"contract IERC20"}],"stateMutability":"view"},{"type":"function","name":"defaultCount","inputs":[{"name":"","type":"address","internalType":"address"}],"outputs":[{"name":"","type":"uint256","internalType":"uint256"}],"stateMutability":"view"},{"type":"function","name":"defaultCreditLine","inputs":[{"name":"creditLineId","type":"uint256","internalType":"uint256"}],"outputs":[],"stateMutability":"nonpayable"},{"type":"function","name":"drawCredit","inputs":[{"name":"creditLineId","type":"uint256","internalType":"uint256"},{"name":"amount","type":"uint256","internalType":"uint256"}],"outputs":[],"stateMutability":"nonpayable"},{"type":"function","name":"getCreditLine","inputs":[{"name":"creditLineId","type":"uint256","internalType":"uint256"}],"outputs":[{"name":"","type":"tuple","internalType":"struct CreditLine.CreditLineData","components":[{"name":"id","type":"uint256","internalType":"uint256"},{"name":"issuer","type":"address","internalType":"address"},{"name":"borrower","type":"address","internalType":"address"},{"name":"maxAmount","type":"uint256","internalType":"uint256"},{"name":"drawnAmount","type":"uint256","internalType":"uint256"},{"name":"repaidAmount","type":"uint256","internalType":"uint256"},{"name":"interestRateBps","type":"uint256","internalType":"uint256"},{"name":"issuedAt","type":"uint256","internalType":"uint256"},{"name":"expiresAt","type":"uint256","internalType":"uint256"},{"name":"durationDays","type":"uint256","internalType":"uint256"},{"name":"isActive","type":"bool","internalType":"bool"},{"name":"isDefaulted","type":"bool","internalType":"bool"}]}],"stateMutability":"view"},{"type":"function","name":"getDefaultCount","inputs":[{"name":"borrower","type":"address","internalType":"address"}],"outputs":[{"name":"","type":"uint256","internalType":"uint256"}],"stateMutability":"view"},{"type":"function","name":"getDrawnAmount","inputs":[{"name":"borrower","type":"address","internalType":"address"}],"outputs":[{"name":"","type":"uint256","internalType":"uint256"}],"stateMutability":"view"},{"type":"function","name":"getIssuedCreditLines","inputs":[{"name":"issuer","type":"address","internalType":"address"}],"outputs":[{"name":"","type":"uint256[]","internalType":"uint256[]"}],"stateMutability":"view"},{"type":"function","name":"getReceivedCreditLines","inputs":[{"name":"borrower","type":"address","internalType":"address"}],"outputs":[{"name":"","type":"uint256[]","internalType":"uint256[]"}],"stateMutability":"view"},{"type":"function","name":"getRepaidAmount","inputs":[{"name":"borrower","type":"address","internalType":"address"}],"outputs":[{"name":"","type":"uint256","internalType":"uint256"}],"stateMutability":"view"},{"type":"function","name":"issueCreditLine","inputs":[{"name":"borrower","type":"address","internalType":"address"},{"name":"maxAmount","type":"uint256","internalType":"uint256"},{"name":"durationDays","type":"uint256","internalType":"uint256"},{"name":"interestRateBps","type":"uint256","internalType":"uint256"}],"outputs":[{"name":"creditLineId","type":"uint256","internalType":"uint256"}],"stateMutability":"nonpayable"},{"type":"function","name":"issuedCreditLines","inputs":[{"name":"","type":"address","internalType":"address"},{"name":"","type":"uint256","internalType":"uint256"}],"outputs":[{"name":"","type":"uint256","internalType":"uint256"}],"stateMutability":"view"},{"type":"function","name":"owner","inputs":[],"outputs":[{"name":"","type":"address","internalType":"address"}],"stateMutability":"view"},{"type":"function","name":"receivedCreditLines","inputs":[{"name":"","type":"address","internalType":"address"},{"name":"","type":"uint256","internalType":"uint256"}],"outputs":[{"name":"","type":"uint256","internalType":"uint256"}],"stateMutability":"view"},{"type":"function","name":"renounceOwnership","inputs":[],"outputs":[],"stateMutability":"nonpayable"},{"type":"function","name":"repayCredit","inputs":[{"name":"creditLineId","type":"uint256","internalType":"uint256"},{"name":"principalAmount","type":"uint256","internalType":"uint256"}],"outputs":[],"stateMutability":"nonpayable"},{"type":"function","name":"totalDrawn","inputs":[{"name":"","type":"address","internalType":"address"}],"outputs":[{"name":"","type":"uint256","internalType":"uint256"}],"stateMutability":"view"},{"type":"function","name":"totalRepaid","inputs":[{"name":"","type":"address","internalType":"address"}],"outputs":[{"name":"","type":"uint256","internalType":"uint256"}],"stateMutability":"view"},{"type":"function","name":"transferOwnership","inputs":[{"name":"newOwner","type":"address","internalType":"address"}],"outputs":[],"stateMutability":"nonpayable"},{"type":"function","name":"trustTierManager","inputs":[],"outputs":[{"name":"","type":"address","internalType":"contract TrustTierManager"}],"stateMutability":"view"},{"type":"event","name":"CreditDrawn","inputs":[{"name":"creditLineId","type":"uint256","indexed":true,"internalType":"uint256"},{"name":"borrower","type":"address","indexed":true,"internalType":"address"},{"name":"amount","type":"uint256","indexed":false,"internalType":"uint256"},{"name":"newDrawnTotal","type":"uint256","indexed":false,"internalType":"uint256"}],"anonymous":false},{"type":"event","name":"CreditLineDefaulted","inputs":[{"name":"creditLineId","type":"uint256","indexed":true,"internalType":"uint256"},{"name":"borrower","type":"address","indexed":true,"internalType":"address"},{"name":"defaultAmount","type":"uint256","indexed":false,"internalType":"uint256"},{"name":"reputationPenalty","type":"uint256","indexed":false,"internalType":"uint256"}],"anonymous":false},{"type":"event","name":"CreditLineExpired","inputs":[{"name":"creditLineId","type":"uint256","indexed":true,"internalType":"uint256"}],"anonymous":false},{"type":"event","name":"CreditLineIssued","inputs":[{"name":"creditLineId","type":"uint256","indexed":true,"internalType":"uint256"},{"name":"issuer","type":"address","indexed":true,"internalType":"address"},{"name":"borrower","type":"address","indexed":true,"internalType":"address"},{"name":"maxAmount","type":"uint256","indexed":false,"internalType":"uint256"},{"name":"durationDays","type":"uint256","indexed":false,"internalType":"uint256"},{"name":"interestRateBps","type":"uint256","indexed":false,"internalType":"uint256"},{"name":"expiresAt","type":"uint256","indexed":false,"internalType":"uint256"}],"anonymous":false},{"type":"event","name":"CreditRepaid","inputs":[{"name":"creditLineId","type":"uint256","indexed":true,"internalType":"uint256"},{"name":"borrower","type":"address","indexed":true,"internalType":"address"},{"name":"principalAmount","type":"uint256","indexed":false,"internalType":"uint256"},{"name":"interestAmount","type":"uint256","indexed":false,"internalType":"uint256"}],"anonymous":false},{"type":"event","name":"OwnershipTransferred","inputs":[{"name":"previousOwner","type":"address","indexed":true,"internalType":"address"},{"name":"newOwner","type":"address","indexed":true,"internalType":"address"}],"anonymous":false},{"type":"error","name":"CreditLineHasExpired","inputs":[]},{"type":"error","name":"CreditLineNotActive","inputs":[]},{"type":"error","name":"ExceedsMaxAmount","inputs":[]},{"type":"error","name":"InsufficientBalance","inputs":[]},{"type":"error","name":"InsufficientCreditorTier","inputs":[]},{"type":"error","name":"InvalidAmount","inputs":[]},{"type":"error","name":"NotAuthorized","inputs":[]},{"type":"error","name":"OwnableInvalidOwner","inputs":[{"name":"owner","type":"address","internalType":"address"}]},{"type":"error","name":"OwnableUnauthorizedAccount","inputs":[{"name":"account","type":"address","internalType":"address"}]},{"type":"error","name":"ReentrancyGuardReentrantCall","inputs":[]},{"type":"error","name":"ZeroAddress","inputs":[]}],"bytecode":{"object":"0x60806040526001600455348015610014575f5ffd5b50604051613a45380380613a458339818101604052810190610036919061043e565b335f73ffffffffffffffffffffffffffffffffffffffff168173ffffffffffffffffffffffffffffffffffffffff16036100a7575f6040517f1e4fbdf700000000000000000000000000000000000000000000000000000000815260040161009e919061049d565b60405180910390fd5b6100b6816102ed60201b60201c565b5060016100d56100ca6103ae60201b60201c565b6103d760201b60201c565b5f01819055505f73ffffffffffffffffffffffffffffffffffffffff168373ffffffffffffffffffffffffffffffffffffffff1603610149576040517f08c379a000000000000000000000000000000000000000000000000000000000815260040161014090610510565b60405180910390fd5b5f73ffffffffffffffffffffffffffffffffffffffff168273ffffffffffffffffffffffffffffffffffffffff16036101b7576040517f08c379a00000000000000000000000000000000000000000000000000000000081526004016101ae90610578565b60405180910390fd5b5f73ffffffffffffffffffffffffffffffffffffffff168173ffffffffffffffffffffffffffffffffffffffff1603610225576040517f08c379a000000000000000000000000000000000000000000000000000000000815260040161021c906105e0565b60405180910390fd5b8260015f6101000a81548173ffffffffffffffffffffffffffffffffffffffff021916908373ffffffffffffffffffffffffffffffffffffffff1602179055508160025f6101000a81548173ffffffffffffffffffffffffffffffffffffffff021916908373ffffffffffffffffffffffffffffffffffffffff1602179055508060035f6101000a81548173ffffffffffffffffffffffffffffffffffffffff021916908373ffffffffffffffffffffffffffffffffffffffff1602179055505050506105fe565b5f5f5f9054906101000a900473ffffffffffffffffffffffffffffffffffffffff169050815f5f6101000a81548173ffffffffffffffffffffffffffffffffffffffff021916908373ffffffffffffffffffffffffffffffffffffffff1602179055508173ffffffffffffffffffffffffffffffffffffffff168173ffffffffffffffffffffffffffffffffffffffff167f8be0079c531659141344cd1fd0a4f28419497f9722a3daafe3b4186f6b6457e060405160405180910390a35050565b5f7f9b779b17422d0df92223018b32b4d1fa46e071723d6817e2486d003becc55f005f1b905090565b5f819050919050565b5f5ffd5b5f73ffffffffffffffffffffffffffffffffffffffff82169050919050565b5f61040d826103e4565b9050919050565b61041d81610403565b8114610427575f5ffd5b50565b5f8151905061043881610414565b92915050565b5f5f5f60608486031215610455576104546103e0565b5b5f6104628682870161042a565b93505060206104738682870161042a565b92505060406104848682870161042a565b9150509250925092565b61049781610403565b82525050565b5f6020820190506104b05f83018461048e565b92915050565b5f82825260208201905092915050565b7f496e76616c696420746f6b656e206164647265737300000000000000000000005f82015250565b5f6104fa6015836104b6565b9150610505826104c6565b602082019050919050565b5f6020820190508181035f830152610527816104ee565b9050919050565b7f496e76616c69642074727573742074696572206d616e616765720000000000005f82015250565b5f610562601a836104b6565b915061056d8261052e565b602082019050919050565b5f6020820190508181035f83015261058f81610556565b9050919050565b7f496e76616c6964206167656e74207265676973747279000000000000000000005f82015250565b5f6105ca6016836104b6565b91506105d582610596565b602082019050919050565b5f6020820190508181035f8301526105f7816105be565b9050919050565b61343a8061060b5f395ff3fe608060405234801561000f575f5ffd5b5060043610610140575f3560e01c80637f6a6db4116100b6578063cae078431161007a578063cae07843146103b7578063d3a637f2146103d5578063edad855014610405578063f2fde38b14610435578063f65a1d6514610451578063f669f6851461048157610140565b80637f6a6db4146102ed578063834dfc3d1461031d57806383590a721461034d5780638da5cb5b14610369578063cada841a1461038757610140565b806353231b471161010857806353231b47146102055780636b71a8d114610235578063715018a614610265578063735425931461026f578063773f07811461028d57806378d876a6146102bd57610140565b80630d1cfcae146101445780631ba82d6a14610162578063241985e71461017e57806336e433ba1461019a57806342d46186146101d5575b5f5ffd5b61014c6104b1565b6040516101599190612255565b60405180910390f35b61017c600480360381019061017791906122a5565b6104d6565b005b610198600480360381019061019391906122d0565b610799565b005b6101b460048036038101906101af91906122a5565b610cd9565b6040516101cc9c9b9a99989796959493929190612357565b60405180910390f35b6101ef60048036038101906101ea9190612439565b610d8c565b6040516101fc9190612464565b60405180910390f35b61021f600480360381019061021a9190612439565b610da1565b60405161022c9190612464565b60405180910390f35b61024f600480360381019061024a9190612439565b610de7565b60405161025c9190612464565b60405180910390f35b61026d610e2d565b005b610277610e40565b604051610284919061249d565b60405180910390f35b6102a760048036038101906102a29190612439565b610e65565b6040516102b4919061256d565b60405180910390f35b6102d760048036038101906102d29190612439565b610ef8565b6040516102e49190612464565b60405180910390f35b6103076004803603810190610302919061258d565b610f0d565b6040516103149190612464565b60405180910390f35b6103376004803603810190610332919061258d565b610f38565b6040516103449190612464565b60405180910390f35b610367600480360381019061036291906122d0565b610f63565b005b6103716113fb565b60405161037e91906125cb565b60405180910390f35b6103a1600480360381019061039c9190612439565b611422565b6040516103ae919061256d565b60405180910390f35b6103bf6114b5565b6040516103cc9190612604565b60405180910390f35b6103ef60048036038101906103ea9190612439565b6114da565b6040516103fc9190612464565b60405180910390f35b61041f600480360381019061041a91906122a5565b6114ef565b60405161042c919061272f565b60405180910390f35b61044f600480360381019061044a9190612439565b61169e565b005b61046b60048036038101906104669190612749565b611722565b6040516104789190612464565b60405180910390f35b61049b60048036038101906104969190612439565b611ef6565b6040516104a89190612464565b60405180910390f35b60035f9054906101000a900473ffffffffffffffffffffffffffffffffffffffff1681565b5f60055f8381526020019081526020015f2090505f815f01540361052f576040517f08c379a000000000000000000000000000000000000000000000000000000000815260040161052690612807565b60405180910390fd5b806001015f9054906101000a900473ffffffffffffffffffffffffffffffffffffffff1673ffffffffffffffffffffffffffffffffffffffff163373ffffffffffffffffffffffffffffffffffffffff1614806105be575061058f6113fb565b73ffffffffffffffffffffffffffffffffffffffff163373ffffffffffffffffffffffffffffffffffffffff16145b6105fd576040517f08c379a00000000000000000000000000000000000000000000000000000000081526004016105f49061286f565b60405180910390fd5b5f816004015482600501541080156106185750816008015442115b90508061065a576040517f08c379a0000000000000000000000000000000000000000000000000000000008152600401610651906128d7565b60405180910390fd5b5f82600a015f6101000a81548160ff021916908315150217905550600182600a0160016101000a81548160ff0219169083151502179055505f826005015483600401546106a79190612922565b9050600a5f846002015f9054906101000a900473ffffffffffffffffffffffffffffffffffffffff1673ffffffffffffffffffffffffffffffffffffffff1673ffffffffffffffffffffffffffffffffffffffff1681526020019081526020015f205f81548092919061071990612955565b9190505550826002015f9054906101000a900473ffffffffffffffffffffffffffffffffffffffff1673ffffffffffffffffffffffffffffffffffffffff16847f7c2e5369322613b3e79d421457a4b5643c0a49357642a5a5485a56fe01de9c4683603260405161078b9291906129d5565b60405180910390a350505050565b6107a1611f3c565b5f81116107e3576040517f08c379a00000000000000000000000000000000000000000000000000000000081526004016107da90612a46565b60405180910390fd5b5f60055f8481526020019081526020015f2090505f815f01540361083c576040517f08c379a000000000000000000000000000000000000000000000000000000000815260040161083390612807565b60405180910390fd5b80600a015f9054906101000a900460ff1661088c576040517f08c379a000000000000000000000000000000000000000000000000000000000815260040161088390612aae565b60405180910390fd5b80600a0160019054906101000a900460ff16156108de576040517f08c379a00000000000000000000000000000000000000000000000000000000081526004016108d590612b16565b60405180910390fd5b8060080154421115610925576040517f08c379a000000000000000000000000000000000000000000000000000000000815260040161091c90612b7e565b60405180910390fd5b806002015f9054906101000a900473ffffffffffffffffffffffffffffffffffffffff1673ffffffffffffffffffffffffffffffffffffffff163373ffffffffffffffffffffffffffffffffffffffff16146109b6576040517f08c379a00000000000000000000000000000000000000000000000000000000081526004016109ad90612be6565b60405180910390fd5b80600301548282600401546109cb9190612c04565b1115610a0c576040517f08c379a0000000000000000000000000000000000000000000000000000000008152600401610a0390612c81565b60405180910390fd5b8160015f9054906101000a900473ffffffffffffffffffffffffffffffffffffffff1673ffffffffffffffffffffffffffffffffffffffff166370a08231836001015f9054906101000a900473ffffffffffffffffffffffffffffffffffffffff166040518263ffffffff1660e01b8152600401610a8a91906125cb565b602060405180830381865afa158015610aa5573d5f5f3e3d5ffd5b505050506040513d601f19601f82011682018060405250810190610ac99190612cb3565b1015610b0a576040517f08c379a0000000000000000000000000000000000000000000000000000000008152600401610b0190612d28565b60405180910390fd5b60015f9054906101000a900473ffffffffffffffffffffffffffffffffffffffff1673ffffffffffffffffffffffffffffffffffffffff166323b872dd826001015f9054906101000a900473ffffffffffffffffffffffffffffffffffffffff1633856040518463ffffffff1660e01b8152600401610b8b93929190612d46565b6020604051808303815f875af1158015610ba7573d5f5f3e3d5ffd5b505050506040513d601f19601f82011682018060405250810190610bcb9190612da5565b610c0a576040517f08c379a0000000000000000000000000000000000000000000000000000000008152600401610c0190612e1a565b60405180910390fd5b81816004015f828254610c1d9190612c04565b925050819055508160085f3373ffffffffffffffffffffffffffffffffffffffff1673ffffffffffffffffffffffffffffffffffffffff1681526020019081526020015f205f828254610c709190612c04565b925050819055503373ffffffffffffffffffffffffffffffffffffffff16837fd1f1858e45d495eed9cffbd750166cbfc2976caf6beee022e626aba1f63676b6848460040154604051610cc4929190612e38565b60405180910390a350610cd5611f5e565b5050565b6005602052805f5260405f205f91509050805f015490806001015f9054906101000a900473ffffffffffffffffffffffffffffffffffffffff1690806002015f9054906101000a900473ffffffffffffffffffffffffffffffffffffffff169080600301549080600401549080600501549080600601549080600701549080600801549080600901549080600a015f9054906101000a900460ff169080600a0160019054906101000a900460ff1690508c565b600a602052805f5260405f205f915090505481565b5f60095f8373ffffffffffffffffffffffffffffffffffffffff1673ffffffffffffffffffffffffffffffffffffffff1681526020019081526020015f20549050919050565b5f60085f8373ffffffffffffffffffffffffffffffffffffffff1673ffffffffffffffffffffffffffffffffffffffff1681526020019081526020015f20549050919050565b610e35611f78565b610e3e5f611fff565b565b60025f9054906101000a900473ffffffffffffffffffffffffffffffffffffffff1681565b606060075f8373ffffffffffffffffffffffffffffffffffffffff1673ffffffffffffffffffffffffffffffffffffffff1681526020019081526020015f20805480602002602001604051908101604052809291908181526020018280548015610eec57602002820191905f5260205f20905b815481526020019060010190808311610ed8575b50505050509050919050565b6009602052805f5260405f205f915090505481565b6007602052815f5260405f208181548110610f26575f80fd5b905f5260205f20015f91509150505481565b6006602052815f5260405f208181548110610f51575f80fd5b905f5260205f20015f91509150505481565b610f6b611f3c565b5f8111610fad576040517f08c379a0000000000000000000000000000000000000000000000000000000008152600401610fa490612a46565b60405180910390fd5b5f60055f8481526020019081526020015f2090505f815f015403611006576040517f08c379a0000000000000000000000000000000000000000000000000000000008152600401610ffd90612807565b60405180910390fd5b806002015f9054906101000a900473ffffffffffffffffffffffffffffffffffffffff1673ffffffffffffffffffffffffffffffffffffffff163373ffffffffffffffffffffffffffffffffffffffff1614611097576040517f08c379a000000000000000000000000000000000000000000000000000000000815260040161108e90612ea9565b60405180910390fd5b5f8160070154426110a89190612922565b90505f6301e1338090505f612710826110c19190612ec7565b83856006015486600401546110d69190612ec7565b6110e09190612ec7565b6110ea9190612f35565b9050836005015484600401546111009190612922565b851115611142576040517f08c379a000000000000000000000000000000000000000000000000000000000815260040161113990612faf565b60405180910390fd5b5f818661114f9190612c04565b90508060015f9054906101000a900473ffffffffffffffffffffffffffffffffffffffff1673ffffffffffffffffffffffffffffffffffffffff166370a08231336040518263ffffffff1660e01b81526004016111ac91906125cb565b602060405180830381865afa1580156111c7573d5f5f3e3d5ffd5b505050506040513d601f19601f820116820180604052508101906111eb9190612cb3565b101561122c576040517f08c379a00000000000000000000000000000000000000000000000000000000081526004016112239061303d565b60405180910390fd5b60015f9054906101000a900473ffffffffffffffffffffffffffffffffffffffff1673ffffffffffffffffffffffffffffffffffffffff166323b872dd33876001015f9054906101000a900473ffffffffffffffffffffffffffffffffffffffff16846040518463ffffffff1660e01b81526004016112ad93929190612d46565b6020604051808303815f875af11580156112c9573d5f5f3e3d5ffd5b505050506040513d601f19601f820116820180604052508101906112ed9190612da5565b61132c576040517f08c379a0000000000000000000000000000000000000000000000000000000008152600401611323906130a5565b60405180910390fd5b85856005015f82825461133f9190612c04565b925050819055508560095f3373ffffffffffffffffffffffffffffffffffffffff1673ffffffffffffffffffffffffffffffffffffffff1681526020019081526020015f205f8282546113929190612c04565b925050819055503373ffffffffffffffffffffffffffffffffffffffff16877fb3dc754e3cd0adca79aedb0cf9cbcada6b0ed980dbb9d384b635f283985b968788856040516113e2929190612e38565b60405180910390a350505050506113f7611f5e565b5050565b5f5f5f9054906101000a900473ffffffffffffffffffffffffffffffffffffffff16905090565b606060065f8373ffffffffffffffffffffffffffffffffffffffff1673ffffffffffffffffffffffffffffffffffffffff1681526020019081526020015f208054806020026020016040519081016040528092919081815260200182805480156114a957602002820191905f5260205f20905b815481526020019060010190808311611495575b50505050509050919050565b60015f9054906101000a900473ffffffffffffffffffffffffffffffffffffffff1681565b6008602052805f5260405f205f915090505481565b6114f7612156565b5f60055f8481526020019081526020015f205f01540361154c576040517f08c379a000000000000000000000000000000000000000000000000000000000815260040161154390612807565b60405180910390fd5b60055f8381526020019081526020015f20604051806101800160405290815f8201548152602001600182015f9054906101000a900473ffffffffffffffffffffffffffffffffffffffff1673ffffffffffffffffffffffffffffffffffffffff1673ffffffffffffffffffffffffffffffffffffffff168152602001600282015f9054906101000a900473ffffffffffffffffffffffffffffffffffffffff1673ffffffffffffffffffffffffffffffffffffffff1673ffffffffffffffffffffffffffffffffffffffff16815260200160038201548152602001600482015481526020016005820154815260200160068201548152602001600782015481526020016008820154815260200160098201548152602001600a82015f9054906101000a900460ff16151515158152602001600a820160019054906101000a900460ff1615151515815250509050919050565b6116a6611f78565b5f73ffffffffffffffffffffffffffffffffffffffff168173ffffffffffffffffffffffffffffffffffffffff1603611716575f6040517f1e4fbdf700000000000000000000000000000000000000000000000000000000815260040161170d91906125cb565b60405180910390fd5b61171f81611fff565b50565b5f61172b611f3c565b5f73ffffffffffffffffffffffffffffffffffffffff168573ffffffffffffffffffffffffffffffffffffffff1603611799576040517f08c379a00000000000000000000000000000000000000000000000000000000081526004016117909061310d565b60405180910390fd5b5f84116117db576040517f08c379a00000000000000000000000000000000000000000000000000000000081526004016117d290612a46565b60405180910390fd5b5f831161181d576040517f08c379a000000000000000000000000000000000000000000000000000000000815260040161181490613175565b60405180910390fd5b612710821115611862576040517f08c379a0000000000000000000000000000000000000000000000000000000008152600401611859906131dd565b60405180910390fd5b60035f9054906101000a900473ffffffffffffffffffffffffffffffffffffffff1673ffffffffffffffffffffffffffffffffffffffff1663689b6c44336040518263ffffffff1660e01b81526004016118bc91906125cb565b602060405180830381865afa1580156118d7573d5f5f3e3d5ffd5b505050506040513d601f19601f820116820180604052508101906118fb9190612da5565b61193a576040517f08c379a000000000000000000000000000000000000000000000000000000000815260040161193190613245565b60405180910390fd5b60025f9054906101000a900473ffffffffffffffffffffffffffffffffffffffff1673ffffffffffffffffffffffffffffffffffffffff1663b46a65c4336040518263ffffffff1660e01b815260040161199491906125cb565b602060405180830381865afa1580156119af573d5f5f3e3d5ffd5b505050506040513d601f19601f820116820180604052508101906119d39190612da5565b611a12576040517f08c379a0000000000000000000000000000000000000000000000000000000008152600401611a09906132d3565b60405180910390fd5b60035f9054906101000a900473ffffffffffffffffffffffffffffffffffffffff1673ffffffffffffffffffffffffffffffffffffffff1663689b6c44866040518263ffffffff1660e01b8152600401611a6c91906125cb565b602060405180830381865afa158015611a87573d5f5f3e3d5ffd5b505050506040513d601f19601f82011682018060405250810190611aab9190612da5565b611aea576040517f08c379a0000000000000000000000000000000000000000000000000000000008152600401611ae19061333b565b60405180910390fd5b5f60025f9054906101000a900473ffffffffffffffffffffffffffffffffffffffff1673ffffffffffffffffffffffffffffffffffffffff1663020ff92e336040518263ffffffff1660e01b8152600401611b4591906125cb565b602060405180830381865afa158015611b60573d5f5f3e3d5ffd5b505050506040513d601f19601f82011682018060405250810190611b849190612cb3565b905080851115611bc9576040517f08c379a0000000000000000000000000000000000000000000000000000000008152600401611bc0906133a3565b60405180910390fd5b600454915060045f815480929190611be090612955565b91905055505f6201518085611bf59190612ec7565b42611c009190612c04565b90506040518061018001604052808481526020013373ffffffffffffffffffffffffffffffffffffffff1681526020018873ffffffffffffffffffffffffffffffffffffffff1681526020018781526020015f81526020015f81526020018581526020014281526020018281526020018681526020016001151581526020015f151581525060055f8581526020019081526020015f205f820151815f01556020820151816001015f6101000a81548173ffffffffffffffffffffffffffffffffffffffff021916908373ffffffffffffffffffffffffffffffffffffffff1602179055506040820151816002015f6101000a81548173ffffffffffffffffffffffffffffffffffffffff021916908373ffffffffffffffffffffffffffffffffffffffff160217905550606082015181600301556080820151816004015560a0820151816005015560c0820151816006015560e082015181600701556101008201518160080155610120820151816009015561014082015181600a015f6101000a81548160ff02191690831515021790555061016082015181600a0160016101000a81548160ff02191690831515021790555090505060065f3373ffffffffffffffffffffffffffffffffffffffff1673ffffffffffffffffffffffffffffffffffffffff1681526020019081526020015f2083908060018154018082558091505060019003905f5260205f20015f909190919091505560075f8873ffffffffffffffffffffffffffffffffffffffff1673ffffffffffffffffffffffffffffffffffffffff1681526020019081526020015f2083908060018154018082558091505060019003905f5260205f20015f90919091909150558673ffffffffffffffffffffffffffffffffffffffff163373ffffffffffffffffffffffffffffffffffffffff16847fec88e5a433ab99f579e38833aa25e293980d909544dd3a833e814dd3d0a12b1e89898987604051611edc94939291906133c1565b60405180910390a45050611eee611f5e565b949350505050565b5f600a5f8373ffffffffffffffffffffffffffffffffffffffff1673ffffffffffffffffffffffffffffffffffffffff1681526020019081526020015f20549050919050565b611f446120c0565b6002611f56611f51612101565b61212a565b5f0181905550565b6001611f70611f6b612101565b61212a565b5f0181905550565b611f80612133565b73ffffffffffffffffffffffffffffffffffffffff16611f9e6113fb565b73ffffffffffffffffffffffffffffffffffffffff1614611ffd57611fc1612133565b6040517f118cdaa7000000000000000000000000000000000000000000000000000000008152600401611ff491906125cb565b60405180910390fd5b565b5f5f5f9054906101000a900473ffffffffffffffffffffffffffffffffffffffff169050815f5f6101000a81548173ffffffffffffffffffffffffffffffffffffffff021916908373ffffffffffffffffffffffffffffffffffffffff1602179055508173ffffffffffffffffffffffffffffffffffffffff168173ffffffffffffffffffffffffffffffffffffffff167f8be0079c531659141344cd1fd0a4f28419497f9722a3daafe3b4186f6b6457e060405160405180910390a35050565b6120c861213a565b156120ff576040517f3ee5aeb500000000000000000000000000000000000000000000000000000000815260040160405180910390fd5b565b5f7f9b779b17422d0df92223018b32b4d1fa46e071723d6817e2486d003becc55f005f1b905090565b5f819050919050565b5f33905090565b5f600261214d612148612101565b61212a565b5f015414905090565b6040518061018001604052805f81526020015f73ffffffffffffffffffffffffffffffffffffffff1681526020015f73ffffffffffffffffffffffffffffffffffffffff1681526020015f81526020015f81526020015f81526020015f81526020015f81526020015f81526020015f81526020015f151581526020015f151581525090565b5f73ffffffffffffffffffffffffffffffffffffffff82169050919050565b5f819050919050565b5f61221d612218612213846121db565b6121fa565b6121db565b9050919050565b5f61222e82612203565b9050919050565b5f61223f82612224565b9050919050565b61224f81612235565b82525050565b5f6020820190506122685f830184612246565b92915050565b5f5ffd5b5f819050919050565b61228481612272565b811461228e575f5ffd5b50565b5f8135905061229f8161227b565b92915050565b5f602082840312156122ba576122b961226e565b5b5f6122c784828501612291565b91505092915050565b5f5f604083850312156122e6576122e561226e565b5b5f6122f385828601612291565b925050602061230485828601612291565b9150509250929050565b61231781612272565b82525050565b5f612327826121db565b9050919050565b6123378161231d565b82525050565b5f8115159050919050565b6123518161233d565b82525050565b5f6101808201905061236b5f83018f61230e565b612378602083018e61232e565b612385604083018d61232e565b612392606083018c61230e565b61239f608083018b61230e565b6123ac60a083018a61230e565b6123b960c083018961230e565b6123c660e083018861230e565b6123d461010083018761230e565b6123e261012083018661230e565b6123f0610140830185612348565b6123fe610160830184612348565b9d9c50505050505050505050505050565b6124188161231d565b8114612422575f5ffd5b50565b5f813590506124338161240f565b92915050565b5f6020828403121561244e5761244d61226e565b5b5f61245b84828501612425565b91505092915050565b5f6020820190506124775f83018461230e565b92915050565b5f61248782612224565b9050919050565b6124978161247d565b82525050565b5f6020820190506124b05f83018461248e565b92915050565b5f81519050919050565b5f82825260208201905092915050565b5f819050602082019050919050565b6124e881612272565b82525050565b5f6124f983836124df565b60208301905092915050565b5f602082019050919050565b5f61251b826124b6565b61252581856124c0565b9350612530836124d0565b805f5b8381101561256057815161254788826124ee565b975061255283612505565b925050600181019050612533565b5085935050505092915050565b5f6020820190508181035f8301526125858184612511565b905092915050565b5f5f604083850312156125a3576125a261226e565b5b5f6125b085828601612425565b92505060206125c185828601612291565b9150509250929050565b5f6020820190506125de5f83018461232e565b92915050565b5f6125ee82612224565b9050919050565b6125fe816125e4565b82525050565b5f6020820190506126175f8301846125f5565b92915050565b6126268161231d565b82525050565b6126358161233d565b82525050565b61018082015f8201516126505f8501826124df565b506020820151612663602085018261261d565b506040820151612676604085018261261d565b50606082015161268960608501826124df565b50608082015161269c60808501826124df565b5060a08201516126af60a08501826124df565b5060c08201516126c260c08501826124df565b5060e08201516126d560e08501826124df565b506101008201516126ea6101008501826124df565b506101208201516126ff6101208501826124df565b5061014082015161271461014085018261262c565b5061016082015161272961016085018261262c565b50505050565b5f610180820190506127435f83018461263b565b92915050565b5f5f5f5f608085870312156127615761276061226e565b5b5f61276e87828801612425565b945050602061277f87828801612291565b935050604061279087828801612291565b92505060606127a187828801612291565b91505092959194509250565b5f82825260208201905092915050565b7f437265646974206c696e6520646f6573206e6f742065786973740000000000005f82015250565b5f6127f1601a836127ad565b91506127fc826127bd565b602082019050919050565b5f6020820190508181035f83015261281e816127e5565b9050919050565b7f4f6e6c7920697373756572206f72206f776e65722063616e2064656661756c745f82015250565b5f6128596020836127ad565b915061286482612825565b602082019050919050565b5f6020820190508181035f8301526128868161284d565b9050919050565b7f437265646974206c696e65206973206e6f74206f7665726475650000000000005f82015250565b5f6128c1601a836127ad565b91506128cc8261288d565b602082019050919050565b5f6020820190508181035f8301526128ee816128b5565b9050919050565b7f4e487b71000000000000000000000000000000000000000000000000000000005f52601160045260245ffd5b5f61292c82612272565b915061293783612272565b925082820390508181111561294f5761294e6128f5565b5b92915050565b5f61295f82612272565b91507fffffffffffffffffffffffffffffffffffffffffffffffffffffffffffffffff8203612991576129906128f5565b5b600182019050919050565b5f819050919050565b5f6129bf6129ba6129b58461299c565b6121fa565b612272565b9050919050565b6129cf816129a5565b82525050565b5f6040820190506129e85f83018561230e565b6129f560208301846129c6565b9392505050565b7f416d6f756e74206d7573742062652067726561746572207468616e20300000005f82015250565b5f612a30601d836127ad565b9150612a3b826129fc565b602082019050919050565b5f6020820190508181035f830152612a5d81612a24565b9050919050565b7f437265646974206c696e65206973206e6f7420616374697665000000000000005f82015250565b5f612a986019836127ad565b9150612aa382612a64565b602082019050919050565b5f6020820190508181035f830152612ac581612a8c565b9050919050565b7f437265646974206c696e652069732064656661756c74656400000000000000005f82015250565b5f612b006018836127ad565b9150612b0b82612acc565b602082019050919050565b5f6020820190508181035f830152612b2d81612af4565b9050919050565b7f437265646974206c696e652065787069726564000000000000000000000000005f82015250565b5f612b686013836127ad565b9150612b7382612b34565b602082019050919050565b5f6020820190508181035f830152612b9581612b5c565b9050919050565b7f4f6e6c7920626f72726f7765722063616e2064726177000000000000000000005f82015250565b5f612bd06016836127ad565b9150612bdb82612b9c565b602082019050919050565b5f6020820190508181035f830152612bfd81612bc4565b9050919050565b5f612c0e82612272565b9150612c1983612272565b9250828201905080821115612c3157612c306128f5565b5b92915050565b7f4578636565647320637265646974206c696d69740000000000000000000000005f82015250565b5f612c6b6014836127ad565b9150612c7682612c37565b602082019050919050565b5f6020820190508181035f830152612c9881612c5f565b9050919050565b5f81519050612cad8161227b565b92915050565b5f60208284031215612cc857612cc761226e565b5b5f612cd584828501612c9f565b91505092915050565b7f4973737565722068617320696e73756666696369656e742062616c616e6365005f82015250565b5f612d12601f836127ad565b9150612d1d82612cde565b602082019050919050565b5f6020820190508181035f830152612d3f81612d06565b9050919050565b5f606082019050612d595f83018661232e565b612d66602083018561232e565b612d73604083018461230e565b949350505050565b612d848161233d565b8114612d8e575f5ffd5b50565b5f81519050612d9f81612d7b565b92915050565b5f60208284031215612dba57612db961226e565b5b5f612dc784828501612d91565b91505092915050565b7f5472616e73666572206661696c656400000000000000000000000000000000005f82015250565b5f612e04600f836127ad565b9150612e0f82612dd0565b602082019050919050565b5f6020820190508181035f830152612e3181612df8565b9050919050565b5f604082019050612e4b5f83018561230e565b612e58602083018461230e565b9392505050565b7f4f6e6c7920626f72726f7765722063616e2072657061790000000000000000005f82015250565b5f612e936017836127ad565b9150612e9e82612e5f565b602082019050919050565b5f6020820190508181035f830152612ec081612e87565b9050919050565b5f612ed182612272565b9150612edc83612272565b9250828202612eea81612272565b91508282048414831517612f0157612f006128f5565b5b5092915050565b7f4e487b71000000000000000000000000000000000000000000000000000000005f52601260045260245ffd5b5f612f3f82612272565b9150612f4a83612272565b925082612f5a57612f59612f08565b5b828204905092915050565b7f52657061796d656e74206578636565647320647261776e20616d6f756e7400005f82015250565b5f612f99601e836127ad565b9150612fa482612f65565b602082019050919050565b5f6020820190508181035f830152612fc681612f8d565b9050919050565b7f496e73756666696369656e742062616c616e636520666f722072657061796d655f8201527f6e74000000000000000000000000000000000000000000000000000000000000602082015250565b5f6130276022836127ad565b915061303282612fcd565b604082019050919050565b5f6020820190508181035f8301526130548161301b565b9050919050565b7f52657061796d656e74207472616e73666572206661696c6564000000000000005f82015250565b5f61308f6019836127ad565b915061309a8261305b565b602082019050919050565b5f6020820190508181035f8301526130bc81613083565b9050919050565b7f496e76616c696420626f72726f776572206164647265737300000000000000005f82015250565b5f6130f76018836127ad565b9150613102826130c3565b602082019050919050565b5f6020820190508181035f830152613124816130eb565b9050919050565b7f4475726174696f6e206d7573742062652067726561746572207468616e2030005f82015250565b5f61315f601f836127ad565b915061316a8261312b565b602082019050919050565b5f6020820190508181035f83015261318c81613153565b9050919050565b7f496e7465726573742072617465206d757374206265203c3d20313030250000005f82015250565b5f6131c7601d836127ad565b91506131d282613193565b602082019050919050565b5f6020820190508181035f8301526131f4816131bb565b9050919050565b7f497373756572206e6f74207265676973746572656400000000000000000000005f82015250565b5f61322f6015836127ad565b915061323a826131fb565b602082019050919050565b5f6020820190508181035f83015261325c81613223565b9050919050565b7f49737375657220646f6573206e6f742068617665204352454449544f522074695f8201527f6572000000000000000000000000000000000000000000000000000000000000602082015250565b5f6132bd6022836127ad565b91506132c882613263565b604082019050919050565b5f6020820190508181035f8301526132ea816132b1565b9050919050565b7f426f72726f776572206e6f7420726567697374657265640000000000000000005f82015250565b5f6133256017836127ad565b9150613330826132f1565b602082019050919050565b5f6020820190508181035f83015261335281613319565b9050919050565b7f45786365656473206973737565722773206d61782063726564697400000000005f82015250565b5f61338d601b836127ad565b915061339882613359565b602082019050919050565b5f6020820190508181035f8301526133ba81613381565b9050919050565b5f6080820190506133d45f83018761230e565b6133e1602083018661230e565b6133ee604083018561230e565b6133fb606083018461230e565b9594505050505056fea2646970667358221220efc4cd435085f309e835c5f32eb68bdfe2c8adca37035acfd39f07ecbc4d8ea764736f6c634300081c0033","linkReferences":{}},"methodIdentifiers":{"agentRegistry()":"0d1cfcae","creditLines(uint256)":"36e433ba","cusdToken()":"cae07843","defaultCount(address)":"42d46186","defaultCreditLine(uint256)":"1ba82d6a","drawCredit(uint256,uint256)":"241985e7","getCreditLine(uint256)":"edad8550","getDefaultCount(address)":"f669f685","getDrawnAmount(address)":"6b71a8d1","getIssuedCreditLines(address)":"cada841a","getReceivedCreditLines(address)":"773f0781","getRepaidAmount(address)":"53231b47","issueCreditLine(address,uint256,uint256,uint256)":"f65a1d65","issuedCreditLines(address,uint256)":"834dfc3d","owner()":"8da5cb5b","receivedCreditLines(address,uint256)":"7f6a6db4","renounceOwnership()":"715018a6","repayCredit(uint256,uint256)":"83590a72","totalDrawn(address)":"d3a637f2","totalRepaid(address)":"78d876a6","transferOwnership(address)":"f2fde38b","trustTierManager()":"73542593"},"id":49}