{"abi":[{"type":"constructor","inputs":[{"name":"_identityRegistry","type":"address","internalType":"address"},{"name":"_reputationRegistry","type":"address","internalType":"address"}],"stateMutability":"nonpayable"},{"type":"function","name":"erc8004RegistrationIds","inputs":[{"name":"","type":"address","internalType":"address"}],"outputs":[{"name":"","type":"uint256","internalType":"uint256"}],"stateMutability":"view"},{"type":"function","name":"getAgentInfoFromERC8004","inputs":[{"name":"agent","type":"address","internalType":"address"}],"outputs":[{"name":"agentType","type":"string","internalType":"string"},{"name":"serviceEndpoint","type":"string","internalType":"string"},{"name":"isActive","type":"bool","internalType":"bool"}],"stateMutability":"view"},{"type":"function","name":"getRegistrationId","inputs":[{"name":"agent","type":"address","internalType":"address"}],"outputs":[{"name":"registrationId","type":"uint256","internalType":"uint256"}],"stateMutability":"view"},{"type":"function","name":"getReputationFromERC8004","inputs":[{"name":"agent","type":"address","internalType":"address"}],"outputs":[{"name":"avgRating","type":"uint256","internalType":"uint256"},{"name":"feedbackCount","type":"uint256","internalType":"uint256"},{"name":"successCount","type":"uint256","internalType":"uint256"},{"name":"failureCount","type":"uint256","internalType":"uint256"}],"stateMutability":"view"},{"type":"function","name":"identityRegistry","inputs":[],"outputs":[{"name":"","type":"address","internalType":"contract IERC8004IdentityRegistry"}],"stateMutability":"view"},{"type":"function","name":"isAgentRegisteredOnERC8004","inputs":[{"name":"agent","type":"address","internalType":"address"}],"outputs":[{"name":"isRegistered","type":"bool","internalType":"bool"}],"stateMutability":"view"},{"type":"function","name":"isRegisteredOnERC8004","inputs":[{"name":"","type":"address","internalType":"address"}],"outputs":[{"name":"","type":"bool","internalType":"bool"}],"stateMutability":"view"},{"type":"function","name":"owner","inputs":[],"outputs":[{"name":"","type":"address","internalType":"address"}],"stateMutability":"view"},{"type":"function","name":"postFeedbackToERC8004","inputs":[{"name":"agent","type":"address","internalType":"address"},{"name":"rating","type":"uint8","internalType":"uint8"},{"name":"feedbackText","type":"string","internalType":"string"},{"name":"tags","type":"string[]","internalType":"string[]"}],"outputs":[],"stateMutability":"nonpayable"},{"type":"function","name":"registerAgentOnERC8004","inputs":[{"name":"agentType","type":"string","internalType":"string"},{"name":"serviceEndpoint","type":"string","internalType":"string"},{"name":"endpointMetadata","type":"string[]","internalType":"string[]"}],"outputs":[{"name":"registrationId","type":"uint256","internalType":"uint256"}],"stateMutability":"nonpayable"},{"type":"function","name":"renounceOwnership","inputs":[],"outputs":[],"stateMutability":"nonpayable"},{"type":"function","name":"reputationRegistry","inputs":[],"outputs":[{"name":"","type":"address","internalType":"contract IERC8004ReputationRegistry"}],"stateMutability":"view"},{"type":"function","name":"setIdentityRegistry","inputs":[{"name":"newRegistry","type":"address","internalType":"address"}],"outputs":[],"stateMutability":"nonpayable"},{"type":"function","name":"setReputationRegistry","inputs":[{"name":"newRegistry","type":"address","internalType":"address"}],"outputs":[],"stateMutability":"nonpayable"},{"type":"function","name":"transferOwnership","inputs":[{"name":"newOwner","type":"address","internalType":"address"}],"outputs":[],"stateMutability":"nonpayable"},{"type":"event","name":"AgentRegisteredOnERC8004","inputs":[{"name":"agent","type":"address","indexed":true,"internalType":"address"},{"name":"registrationId","type":"uint256","indexed":false,"internalType":"uint256"},{"name":"agentType","type":"string","indexed":false,"internalType":"string"}],"anonymous":false},{"type":"event","name":"FeedbackPostedToERC8004","inputs":[{"name":"agent","type":"address","indexed":true,"internalType":"address"},{"name":"rating","type":"uint8","indexed":false,"internalType":"uint8"},{"name":"rater","type":"address","indexed":true,"internalType":"address"}],"anonymous":false},{"type":"event","name":"OwnershipTransferred","inputs":[{"name":"previousOwner","type":"address","indexed":true,"internalType":"address"},{"name":"newOwner","type":"address","indexed":true,"internalType":"address"}],"anonymous":false},{"type":"event","name":"RegistryAddressUpdated","inputs":[{"name":"registryType","type":"string","indexed":true,"internalType":"string"},{"name":"oldAddress","type":"address","indexed":false,"internalType":"address"},{"name":"newAddress","type":"address","indexed":false,"internalType":"address"}],"anonymous":false},{"type":"error","name":"OwnableInvalidOwner","inputs":[{"name":"owner","type":"address","internalType":"address"}]},{"type":"error","name":"OwnableUnauthorizedAccount","inputs":[{"name":"account","type":"address","internalType":"address"}]}],"bytecode":{"object":"0x608060405234801561000f575f5ffd5b50604051614b6a380380614b6a833981810160405281019061003191906103ae565b335f73ffffffffffffffffffffffffffffffffffffffff168173ffffffffffffffffffffffffffffffffffffffff16036100a2575f6040517f1e4fbdf700000000000000000000000000000000000000000000000000000000815260040161009991906103fb565b60405180910390fd5b6100b18161027560201b60201c565b505f73ffffffffffffffffffffffffffffffffffffffff168273ffffffffffffffffffffffffffffffffffffffff160361014f576040516100f190610336565b604051809103905ff08015801561010a573d5f5f3e3d5ffd5b5060015f6101000a81548173ffffffffffffffffffffffffffffffffffffffff021916908373ffffffffffffffffffffffffffffffffffffffff160217905550610190565b8160015f6101000a81548173ffffffffffffffffffffffffffffffffffffffff021916908373ffffffffffffffffffffffffffffffffffffffff1602179055505b5f73ffffffffffffffffffffffffffffffffffffffff168173ffffffffffffffffffffffffffffffffffffffff160361022d576040516101cf90610343565b604051809103905ff0801580156101e8573d5f5f3e3d5ffd5b5060025f6101000a81548173ffffffffffffffffffffffffffffffffffffffff021916908373ffffffffffffffffffffffffffffffffffffffff16021790555061026e565b8060025f6101000a81548173ffffffffffffffffffffffffffffffffffffffff021916908373ffffffffffffffffffffffffffffffffffffffff1602179055505b5050610414565b5f5f5f9054906101000a900473ffffffffffffffffffffffffffffffffffffffff169050815f5f6101000a81548173ffffffffffffffffffffffffffffffffffffffff021916908373ffffffffffffffffffffffffffffffffffffffff1602179055508173ffffffffffffffffffffffffffffffffffffffff168173ffffffffffffffffffffffffffffffffffffffff167f8be0079c531659141344cd1fd0a4f28419497f9722a3daafe3b4186f6b6457e060405160405180910390a35050565b61156f80611ec583390190565b6117368061343483390190565b5f5ffd5b5f73ffffffffffffffffffffffffffffffffffffffff82169050919050565b5f61037d82610354565b9050919050565b61038d81610373565b8114610397575f5ffd5b50565b5f815190506103a881610384565b92915050565b5f5f604083850312156103c4576103c3610350565b5b5f6103d18582860161039a565b92505060206103e28582860161039a565b9150509250929050565b6103f581610373565b82525050565b5f60208201905061040e5f8301846103ec565b92915050565b611aa4806104215f395ff3fe608060405234801561000f575f5ffd5b50600436106100f3575f3560e01c8063aa228ab711610095578063de347eaf11610064578063de347eaf14610272578063df6f053e146102a2578063f03b5704146102d2578063f2fde38b14610304576100f3565b8063aa228ab7146101d5578063c8db44e314610208578063cbf3f86114610226578063d773a74114610242576100f3565b80634cfa2cbd116100d15780634cfa2cbd14610161578063715018a61461017d57806375f16d50146101875780638da5cb5b146101b7576100f3565b8063134e18f4146100f75780633d52c3a7146101155780633f0ce71414610145575b5f5ffd5b6100ff610320565b60405161010c9190610e43565b60405180910390f35b61012f600480360381019061012a9190610ea8565b610345565b60405161013c9190610eed565b60405180910390f35b61015f600480360381019061015a9190610ea8565b610362565b005b61017b60048036038101906101769190610ff2565b61048e565b005b610185610641565b005b6101a1600480360381019061019c9190610ea8565b610654565b6040516101ae9190610eed565b60405180910390f35b6101bf6106a6565b6040516101cc91906110a4565b60405180910390f35b6101ef60048036038101906101ea9190610ea8565b6106cd565b6040516101ff94939291906110d5565b60405180910390f35b610210610779565b60405161021d9190611138565b60405180910390f35b610240600480360381019061023b9190610ea8565b61079e565b005b61025c60048036038101906102579190610ea8565b6108ca565b6040516102699190611151565b60405180910390f35b61028c6004803603810190610287919061116a565b610910565b6040516102999190611151565b60405180910390f35b6102bc60048036038101906102b79190610ea8565b610b34565b6040516102c99190611151565b60405180910390f35b6102ec60048036038101906102e79190610ea8565b610b49565b6040516102fb9392919061128a565b60405180910390f35b61031e60048036038101906103199190610ea8565b610bf6565b005b60015f9054906101000a900473ffffffffffffffffffffffffffffffffffffffff1681565b6003602052805f5260405f205f915054906101000a900460ff1681565b61036a610c7a565b5f73ffffffffffffffffffffffffffffffffffffffff168173ffffffffffffffffffffffffffffffffffffffff16036103d8576040517f08c379a00000000000000000000000000000000000000000000000000000000081526004016103cf90611317565b60405180910390fd5b5f60025f9054906101000a900473ffffffffffffffffffffffffffffffffffffffff1690508160025f6101000a81548173ffffffffffffffffffffffffffffffffffffffff021916908373ffffffffffffffffffffffffffffffffffffffff16021790555060405161044990611389565b60405180910390207fdfe31c6979a3cd452216e91e4254a0f811e9bc9f36e6e1eb62a0ed464de0e9f4828460405161048292919061139d565b60405180910390a25050565b60648560ff1611156104d5576040517f08c379a00000000000000000000000000000000000000000000000000000000081526004016104cc9061140e565b60405180910390fd5b5f73ffffffffffffffffffffffffffffffffffffffff168673ffffffffffffffffffffffffffffffffffffffff1603610543576040517f08c379a000000000000000000000000000000000000000000000000000000000815260040161053a90611476565b60405180910390fd5b60025f9054906101000a900473ffffffffffffffffffffffffffffffffffffffff1673ffffffffffffffffffffffffffffffffffffffff1663e2d5276a8787878787876040518763ffffffff1660e01b81526004016105a796959493929190611635565b5f604051808303815f87803b1580156105be575f5ffd5b505af11580156105d0573d5f5f3e3d5ffd5b505050503373ffffffffffffffffffffffffffffffffffffffff168673ffffffffffffffffffffffffffffffffffffffff167f3881113be84988775716ce61480af9f3d888bed38b8a41e8217a7a881ec6470787604051610631919061168a565b60405180910390a3505050505050565b610649610c7a565b6106525f610d01565b565b5f60035f8373ffffffffffffffffffffffffffffffffffffffff1673ffffffffffffffffffffffffffffffffffffffff1681526020019081526020015f205f9054906101000a900460ff169050919050565b5f5f5f9054906101000a900473ffffffffffffffffffffffffffffffffffffffff16905090565b5f5f5f5f60025f9054906101000a900473ffffffffffffffffffffffffffffffffffffffff1673ffffffffffffffffffffffffffffffffffffffff16639c89a0e2866040518263ffffffff1660e01b815260040161072b91906110a4565b608060405180830381865afa158015610746573d5f5f3e3d5ffd5b505050506040513d601f19601f8201168201806040525081019061076a91906116cd565b93509350935093509193509193565b60025f9054906101000a900473ffffffffffffffffffffffffffffffffffffffff1681565b6107a6610c7a565b5f73ffffffffffffffffffffffffffffffffffffffff168173ffffffffffffffffffffffffffffffffffffffff1603610814576040517f08c379a000000000000000000000000000000000000000000000000000000000815260040161080b90611317565b60405180910390fd5b5f60015f9054906101000a900473ffffffffffffffffffffffffffffffffffffffff1690508160015f6101000a81548173ffffffffffffffffffffffffffffffffffffffff021916908373ffffffffffffffffffffffffffffffffffffffff1602179055506040516108859061177b565b60405180910390207fdfe31c6979a3cd452216e91e4254a0f811e9bc9f36e6e1eb62a0ed464de0e9f482846040516108be92919061139d565b60405180910390a25050565b5f60045f8373ffffffffffffffffffffffffffffffffffffffff1673ffffffffffffffffffffffffffffffffffffffff1681526020019081526020015f20549050919050565b5f60035f3373ffffffffffffffffffffffffffffffffffffffff1673ffffffffffffffffffffffffffffffffffffffff1681526020019081526020015f205f9054906101000a900460ff161561099b576040517f08c379a0000000000000000000000000000000000000000000000000000000008152600401610992906117d9565b60405180910390fd5b60015f9054906101000a900473ffffffffffffffffffffffffffffffffffffffff1673ffffffffffffffffffffffffffffffffffffffff16638eff9c8a8888888888886040518763ffffffff1660e01b81526004016109ff969594939291906117f7565b6020604051808303815f875af1158015610a1b573d5f5f3e3d5ffd5b505050506040513d601f19601f82011682018060405250810190610a3f9190611847565b9050600160035f3373ffffffffffffffffffffffffffffffffffffffff1673ffffffffffffffffffffffffffffffffffffffff1681526020019081526020015f205f6101000a81548160ff0219169083151502179055508060045f3373ffffffffffffffffffffffffffffffffffffffff1673ffffffffffffffffffffffffffffffffffffffff1681526020019081526020015f20819055503373ffffffffffffffffffffffffffffffffffffffff167f78b71066428bf5198fe6166f9fd9c3e120f07b8ff5df098563dff23f3020008b828989604051610b2293929190611872565b60405180910390a29695505050505050565b6004602052805f5260405f205f915090505481565b6060805f60015f9054906101000a900473ffffffffffffffffffffffffffffffffffffffff1673ffffffffffffffffffffffffffffffffffffffff1663152052b0856040518263ffffffff1660e01b8152600401610ba791906110a4565b5f60405180830381865afa158015610bc1573d5f5f3e3d5ffd5b505050506040513d5f823e3d601f19601f82011682018060405250810190610be991906119e6565b9250925092509193909250565b610bfe610c7a565b5f73ffffffffffffffffffffffffffffffffffffffff168173ffffffffffffffffffffffffffffffffffffffff1603610c6e575f6040517f1e4fbdf7000000000000000000000000000000000000000000000000000000008152600401610c6591906110a4565b60405180910390fd5b610c7781610d01565b50565b610c82610dc2565b73ffffffffffffffffffffffffffffffffffffffff16610ca06106a6565b73ffffffffffffffffffffffffffffffffffffffff1614610cff57610cc3610dc2565b6040517f118cdaa7000000000000000000000000000000000000000000000000000000008152600401610cf691906110a4565b60405180910390fd5b565b5f5f5f9054906101000a900473ffffffffffffffffffffffffffffffffffffffff169050815f5f6101000a81548173ffffffffffffffffffffffffffffffffffffffff021916908373ffffffffffffffffffffffffffffffffffffffff1602179055508173ffffffffffffffffffffffffffffffffffffffff168173ffffffffffffffffffffffffffffffffffffffff167f8be0079c531659141344cd1fd0a4f28419497f9722a3daafe3b4186f6b6457e060405160405180910390a35050565b5f33905090565b5f73ffffffffffffffffffffffffffffffffffffffff82169050919050565b5f819050919050565b5f610e0b610e06610e0184610dc9565b610de8565b610dc9565b9050919050565b5f610e1c82610df1565b9050919050565b5f610e2d82610e12565b9050919050565b610e3d81610e23565b82525050565b5f602082019050610e565f830184610e34565b92915050565b5f604051905090565b5f5ffd5b5f5ffd5b5f610e7782610dc9565b9050919050565b610e8781610e6d565b8114610e91575f5ffd5b50565b5f81359050610ea281610e7e565b92915050565b5f60208284031215610ebd57610ebc610e65565b5b5f610eca84828501610e94565b91505092915050565b5f8115159050919050565b610ee781610ed3565b82525050565b5f602082019050610f005f830184610ede565b92915050565b5f60ff82169050919050565b610f1b81610f06565b8114610f25575f5ffd5b50565b5f81359050610f3681610f12565b92915050565b5f5ffd5b5f5ffd5b5f5ffd5b5f5f83601f840112610f5d57610f5c610f3c565b5b8235905067ffffffffffffffff811115610f7a57610f79610f40565b5b602083019150836001820283011115610f9657610f95610f44565b5b9250929050565b5f5f83601f840112610fb257610fb1610f3c565b5b8235905067ffffffffffffffff811115610fcf57610fce610f40565b5b602083019150836020820283011115610feb57610fea610f44565b5b9250929050565b5f5f5f5f5f5f6080878903121561100c5761100b610e65565b5b5f61101989828a01610e94565b965050602061102a89828a01610f28565b955050604087013567ffffffffffffffff81111561104b5761104a610e69565b5b61105789828a01610f48565b9450945050606087013567ffffffffffffffff81111561107a57611079610e69565b5b61108689828a01610f9d565b92509250509295509295509295565b61109e81610e6d565b82525050565b5f6020820190506110b75f830184611095565b92915050565b5f819050919050565b6110cf816110bd565b82525050565b5f6080820190506110e85f8301876110c6565b6110f560208301866110c6565b61110260408301856110c6565b61110f60608301846110c6565b95945050505050565b5f61112282610e12565b9050919050565b61113281611118565b82525050565b5f60208201905061114b5f830184611129565b92915050565b5f6020820190506111645f8301846110c6565b92915050565b5f5f5f5f5f5f6060878903121561118457611183610e65565b5b5f87013567ffffffffffffffff8111156111a1576111a0610e69565b5b6111ad89828a01610f48565b9650965050602087013567ffffffffffffffff8111156111d0576111cf610e69565b5b6111dc89828a01610f48565b9450945050604087013567ffffffffffffffff8111156111ff576111fe610e69565b5b61120b89828a01610f9d565b92509250509295509295509295565b5f81519050919050565b5f82825260208201905092915050565b8281835e5f83830152505050565b5f601f19601f8301169050919050565b5f61125c8261121a565b6112668185611224565b9350611276818560208601611234565b61127f81611242565b840191505092915050565b5f6060820190508181035f8301526112a28186611252565b905081810360208301526112b68185611252565b90506112c56040830184610ede565b949350505050565b7f496e76616c6964206164647265737300000000000000000000000000000000005f82015250565b5f611301600f83611224565b915061130c826112cd565b602082019050919050565b5f6020820190508181035f83015261132e816112f5565b9050919050565b5f81905092915050565b7f72657075746174696f6e000000000000000000000000000000000000000000005f82015250565b5f611373600a83611335565b915061137e8261133f565b600a82019050919050565b5f61139382611367565b9150819050919050565b5f6040820190506113b05f830185611095565b6113bd6020830184611095565b9392505050565b7f526174696e67206d75737420626520302d3130300000000000000000000000005f82015250565b5f6113f8601483611224565b9150611403826113c4565b602082019050919050565b5f6020820190508181035f830152611425816113ec565b9050919050565b7f496e76616c6964206167656e74206164647265737300000000000000000000005f82015250565b5f611460601583611224565b915061146b8261142c565b602082019050919050565b5f6020820190508181035f83015261148d81611454565b9050919050565b61149d81610f06565b82525050565b828183375f83830152505050565b5f6114bc8385611224565b93506114c98385846114a3565b6114d283611242565b840190509392505050565b5f82825260208201905092915050565b5f819050919050565b5f82825260208201905092915050565b5f61151183856114f6565b935061151e8385846114a3565b61152783611242565b840190509392505050565b5f61153e848484611506565b90509392505050565b5f5ffd5b5f5ffd5b5f5ffd5b5f5f8335600160200384360303811261156f5761156e61154f565b5b83810192508235915060208301925067ffffffffffffffff82111561159757611596611547565b5b6001820236038313156115ad576115ac61154b565b5b509250929050565b5f602082019050919050565b5f6115cc83856114dd565b9350836020840285016115de846114ed565b805f5b878110156116235784840389526115f88284611553565b611603868284611532565b955061160e846115b5565b935060208b019a5050506001810190506115e1565b50829750879450505050509392505050565b5f6080820190506116485f830189611095565b6116556020830188611494565b81810360408301526116688186886114b1565b9050818103606083015261167d8184866115c1565b9050979650505050505050565b5f60208201905061169d5f830184611494565b92915050565b6116ac816110bd565b81146116b6575f5ffd5b50565b5f815190506116c7816116a3565b92915050565b5f5f5f5f608085870312156116e5576116e4610e65565b5b5f6116f2878288016116b9565b9450506020611703878288016116b9565b9350506040611714878288016116b9565b9250506060611725878288016116b9565b91505092959194509250565b7f6964656e746974790000000000000000000000000000000000000000000000005f82015250565b5f611765600883611335565b915061177082611731565b600882019050919050565b5f61178582611759565b9150819050919050565b7f4167656e7420616c7265616479207265676973746572656400000000000000005f82015250565b5f6117c3601883611224565b91506117ce8261178f565b602082019050919050565b5f6020820190508181035f8301526117f0816117b7565b9050919050565b5f6060820190508181035f83015261181081888a6114b1565b905081810360208301526118258186886114b1565b9050818103604083015261183a8184866115c1565b9050979650505050505050565b5f6020828403121561185c5761185b610e65565b5b5f611869848285016116b9565b91505092915050565b5f6040820190506118855f8301866110c6565b81810360208301526118988184866114b1565b9050949350505050565b5f5ffd5b7f4e487b71000000000000000000000000000000000000000000000000000000005f52604160045260245ffd5b6118dc82611242565b810181811067ffffffffffffffff821117156118fb576118fa6118a6565b5b80604052505050565b5f61190d610e5c565b905061191982826118d3565b919050565b5f67ffffffffffffffff821115611938576119376118a6565b5b61194182611242565b9050602081019050919050565b5f61196061195b8461191e565b611904565b90508281526020810184848401111561197c5761197b6118a2565b5b611987848285611234565b509392505050565b5f82601f8301126119a3576119a2610f3c565b5b81516119b384826020860161194e565b91505092915050565b6119c581610ed3565b81146119cf575f5ffd5b50565b5f815190506119e0816119bc565b92915050565b5f5f5f606084860312156119fd576119fc610e65565b5b5f84015167ffffffffffffffff811115611a1a57611a19610e69565b5b611a268682870161198f565b935050602084015167ffffffffffffffff811115611a4757611a46610e69565b5b611a538682870161198f565b9250506040611a64868287016119d2565b915050925092509256fea26469706673582212206fe60afb7c7be08a4f4b35784dccf533fe28d3ef68fab78f36409fd7233e6bda64736f6c634300081c0033608060405260016002553480156013575f5ffd5b5061154e806100215f395ff3fe608060405234801561000f575f5ffd5b5060043610610055575f3560e01c8063152052b014610059578063523cd0351461008b57806382b696c6146100bb5780638eff9c8a146100d7578063fd66091e14610107575b5f5ffd5b610073600480360381019061006e9190610a53565b61013c565b60405161008293929190610b08565b60405180910390f35b6100a560048036038101906100a09190610b7e565b61033b565b6040516100b29190610bb8565b60405180910390f35b6100d560048036038101906100d09190610c32565b61036b565b005b6100f160048036038101906100ec9190610ce4565b6104fe565b6040516100fe9190610da3565b60405180910390f35b610121600480360381019061011c9190610a53565b610883565b60405161013396959493929190610dbc565b60405180910390f35b6060805f5f5f5f8673ffffffffffffffffffffffffffffffffffffffff1673ffffffffffffffffffffffffffffffffffffffff1681526020019081526020015f2060040154036101c1576040517f08c379a00000000000000000000000000000000000000000000000000000000081526004016101b890610e73565b60405180910390fd5b5f5f5f8673ffffffffffffffffffffffffffffffffffffffff1673ffffffffffffffffffffffffffffffffffffffff1681526020019081526020015f2090508060010181600201826003015f9054906101000a900460ff1682805461022590610ebe565b80601f016020809104026020016040519081016040528092919081815260200182805461025190610ebe565b801561029c5780601f106102735761010080835404028352916020019161029c565b820191905f5260205f20905b81548152906001019060200180831161027f57829003601f168201915b505050505092508180546102af90610ebe565b80601f01602080910402602001604051908101604052809291908181526020018280546102db90610ebe565b80156103265780601f106102fd57610100808354040283529160200191610326565b820191905f5260205f20905b81548152906001019060200180831161030957829003601f168201915b50505050509150935093509350509193909250565b6001602052805f5260405f205f915054906101000a900473ffffffffffffffffffffffffffffffffffffffff1681565b5f5f5f8573ffffffffffffffffffffffffffffffffffffffff1673ffffffffffffffffffffffffffffffffffffffff1681526020019081526020015f2060040154036103ec576040517f08c379a00000000000000000000000000000000000000000000000000000000081526004016103e390610e73565b60405180910390fd5b8273ffffffffffffffffffffffffffffffffffffffff163373ffffffffffffffffffffffffffffffffffffffff161461045a576040517f08c379a000000000000000000000000000000000000000000000000000000000815260040161045190610f38565b60405180910390fd5b81815f5f8673ffffffffffffffffffffffffffffffffffffffff1673ffffffffffffffffffffffffffffffffffffffff1681526020019081526020015f2060020191826104a892919061112d565b508273ffffffffffffffffffffffffffffffffffffffff167f43f742c46c8bc26e9c6f4f3debdea24595098dab47ffe06485d2d3e90f86628e83836040516104f1929190611234565b60405180910390a2505050565b5f5f8787905011610544576040517f08c379a000000000000000000000000000000000000000000000000000000000815260040161053b906112a0565b60405180910390fd5b5f8585905011610589576040517f08c379a000000000000000000000000000000000000000000000000000000000815260040161058090611308565b60405180910390fd5b5f5f5f3373ffffffffffffffffffffffffffffffffffffffff1673ffffffffffffffffffffffffffffffffffffffff1681526020019081526020015f20600401541461060a576040517f08c379a000000000000000000000000000000000000000000000000000000000815260040161060190611370565b60405180910390fd5b600254905060025f815480929190610621906113bb565b91905055506040518060c001604052803373ffffffffffffffffffffffffffffffffffffffff16815260200188888080601f0160208091040260200160405190810160405280939291908181526020018383808284375f81840152601f19601f82011690508083019250505050505050815260200186868080601f0160208091040260200160405190810160405280939291908181526020018383808284375f81840152601f19601f820116905080830192505050505050508152602001600115158152602001828152602001428152505f5f3373ffffffffffffffffffffffffffffffffffffffff1673ffffffffffffffffffffffffffffffffffffffff1681526020019081526020015f205f820151815f015f6101000a81548173ffffffffffffffffffffffffffffffffffffffff021916908373ffffffffffffffffffffffffffffffffffffffff16021790555060208201518160010190816107879190611402565b50604082015181600201908161079d9190611402565b506060820151816003015f6101000a81548160ff0219169083151502179055506080820151816004015560a082015181600501559050503360015f8381526020019081526020015f205f6101000a81548173ffffffffffffffffffffffffffffffffffffffff021916908373ffffffffffffffffffffffffffffffffffffffff1602179055503373ffffffffffffffffffffffffffffffffffffffff167f248e47df3340b8e2353b6b49e4327441598322a016a957d00e25e2f4d88b126082898989896040516108719594939291906114d1565b60405180910390a29695505050505050565b5f602052805f5260405f205f91509050805f015f9054906101000a900473ffffffffffffffffffffffffffffffffffffffff16908060010180546108c690610ebe565b80601f01602080910402602001604051908101604052809291908181526020018280546108f290610ebe565b801561093d5780601f106109145761010080835404028352916020019161093d565b820191905f5260205f20905b81548152906001019060200180831161092057829003601f168201915b50505050509080600201805461095290610ebe565b80601f016020809104026020016040519081016040528092919081815260200182805461097e90610ebe565b80156109c95780601f106109a0576101008083540402835291602001916109c9565b820191905f5260205f20905b8154815290600101906020018083116109ac57829003601f168201915b505050505090806003015f9054906101000a900460ff16908060040154908060050154905086565b5f5ffd5b5f5ffd5b5f73ffffffffffffffffffffffffffffffffffffffff82169050919050565b5f610a22826109f9565b9050919050565b610a3281610a18565b8114610a3c575f5ffd5b50565b5f81359050610a4d81610a29565b92915050565b5f60208284031215610a6857610a676109f1565b5b5f610a7584828501610a3f565b91505092915050565b5f81519050919050565b5f82825260208201905092915050565b8281835e5f83830152505050565b5f601f19601f8301169050919050565b5f610ac082610a7e565b610aca8185610a88565b9350610ada818560208601610a98565b610ae381610aa6565b840191505092915050565b5f8115159050919050565b610b0281610aee565b82525050565b5f6060820190508181035f830152610b208186610ab6565b90508181036020830152610b348185610ab6565b9050610b436040830184610af9565b949350505050565b5f819050919050565b610b5d81610b4b565b8114610b67575f5ffd5b50565b5f81359050610b7881610b54565b92915050565b5f60208284031215610b9357610b926109f1565b5b5f610ba084828501610b6a565b91505092915050565b610bb281610a18565b82525050565b5f602082019050610bcb5f830184610ba9565b92915050565b5f5ffd5b5f5ffd5b5f5ffd5b5f5f83601f840112610bf257610bf1610bd1565b5b8235905067ffffffffffffffff811115610c0f57610c0e610bd5565b5b602083019150836001820283011115610c2b57610c2a610bd9565b5b9250929050565b5f5f5f60408486031215610c4957610c486109f1565b5b5f610c5686828701610a3f565b935050602084013567ffffffffffffffff811115610c7757610c766109f5565b5b610c8386828701610bdd565b92509250509250925092565b5f5f83601f840112610ca457610ca3610bd1565b5b8235905067ffffffffffffffff811115610cc157610cc0610bd5565b5b602083019150836020820283011115610cdd57610cdc610bd9565b5b9250929050565b5f5f5f5f5f5f60608789031215610cfe57610cfd6109f1565b5b5f87013567ffffffffffffffff811115610d1b57610d1a6109f5565b5b610d2789828a01610bdd565b9650965050602087013567ffffffffffffffff811115610d4a57610d496109f5565b5b610d5689828a01610bdd565b9450945050604087013567ffffffffffffffff811115610d7957610d786109f5565b5b610d8589828a01610c8f565b92509250509295509295509295565b610d9d81610b4b565b82525050565b5f602082019050610db65f830184610d94565b92915050565b5f60c082019050610dcf5f830189610ba9565b8181036020830152610de18188610ab6565b90508181036040830152610df58187610ab6565b9050610e046060830186610af9565b610e116080830185610d94565b610e1e60a0830184610d94565b979650505050505050565b7f4167656e74206e6f7420726567697374657265640000000000000000000000005f82015250565b5f610e5d601483610a88565b9150610e6882610e29565b602082019050919050565b5f6020820190508181035f830152610e8a81610e51565b9050919050565b7f4e487b71000000000000000000000000000000000000000000000000000000005f52602260045260245ffd5b5f6002820490506001821680610ed557607f821691505b602082108103610ee857610ee7610e91565b5b50919050565b7f4f6e6c79206167656e742063616e2075706461746520656e64706f696e7400005f82015250565b5f610f22601e83610a88565b9150610f2d82610eee565b602082019050919050565b5f6020820190508181035f830152610f4f81610f16565b9050919050565b5f82905092915050565b7f4e487b71000000000000000000000000000000000000000000000000000000005f52604160045260245ffd5b5f819050815f5260205f209050919050565b5f6020601f8301049050919050565b5f82821b905092915050565b5f60088302610fe97fffffffffffffffffffffffffffffffffffffffffffffffffffffffffffffffff82610fae565b610ff38683610fae565b95508019841693508086168417925050509392505050565b5f819050919050565b5f61102e61102961102484610b4b565b61100b565b610b4b565b9050919050565b5f819050919050565b61104783611014565b61105b61105382611035565b848454610fba565b825550505050565b5f5f905090565b611072611063565b61107d81848461103e565b505050565b5b818110156110a0576110955f8261106a565b600181019050611083565b5050565b601f8211156110e5576110b681610f8d565b6110bf84610f9f565b810160208510156110ce578190505b6110e26110da85610f9f565b830182611082565b50505b505050565b5f82821c905092915050565b5f6111055f19846008026110ea565b1980831691505092915050565b5f61111d83836110f6565b9150826002028217905092915050565b6111378383610f56565b67ffffffffffffffff8111156111505761114f610f60565b5b61115a8254610ebe565b6111658282856110a4565b5f601f831160018114611192575f8415611180578287013590505b61118a8582611112565b8655506111f1565b601f1984166111a086610f8d565b5f5b828110156111c7578489013582556001820191506020850194506020810190506111a2565b868310156111e457848901356111e0601f8916826110f6565b8355505b6001600288020188555050505b50505050505050565b828183375f83830152505050565b5f6112138385610a88565b93506112208385846111fa565b61122983610aa6565b840190509392505050565b5f6020820190508181035f83015261124d818486611208565b90509392505050565b7f4167656e7420747970652063616e6e6f7420626520656d7074790000000000005f82015250565b5f61128a601a83610a88565b915061129582611256565b602082019050919050565b5f6020820190508181035f8301526112b78161127e565b9050919050565b7f5365727669636520656e64706f696e742063616e6e6f7420626520656d7074795f82015250565b5f6112f2602083610a88565b91506112fd826112be565b602082019050919050565b5f6020820190508181035f83015261131f816112e6565b9050919050565b7f4167656e7420616c7265616479207265676973746572656400000000000000005f82015250565b5f61135a601883610a88565b915061136582611326565b602082019050919050565b5f6020820190508181035f8301526113878161134e565b9050919050565b7f4e487b71000000000000000000000000000000000000000000000000000000005f52601160045260245ffd5b5f6113c582610b4b565b91507fffffffffffffffffffffffffffffffffffffffffffffffffffffffffffffffff82036113f7576113f661138e565b5b600182019050919050565b61140b82610a7e565b67ffffffffffffffff81111561142457611423610f60565b5b61142e8254610ebe565b6114398282856110a4565b5f60209050601f83116001811461146a575f8415611458578287015190505b6114628582611112565b8655506114c9565b601f19841661147886610f8d565b5f5b8281101561149f5784890151825560018201915060208501945060208101905061147a565b868310156114bc57848901516114b8601f8916826110f6565b8355505b6001600288020188555050505b505050505050565b5f6060820190506114e45f830188610d94565b81810360208301526114f7818688611208565b9050818103604083015261150c818486611208565b9050969550505050505056fea26469706673582212205d0c696aaba726892a8c7b8eb77b1d8f796e95fd9b7b7cfd7d9de6626f74bf9264736f6c634300081c00336080604052348015600e575f5ffd5b5061171a8061001c5f395ff3fe608060405234801561000f575f5ffd5b5060043610610055575f3560e01c806306fa15a7146100595780630f23920c1461008c5780636f648813146100bc5780639c89a0e2146100ef578063e2d5276a14610122575b5f5ffd5b610073600480360381019061006e9190610a13565b61013e565b6040516100839493929190610a56565b60405180910390f35b6100a660048036038101906100a19190610a13565b610169565b6040516100b39190610d32565b60405180910390f35b6100d660048036038101906100d19190610d7c565b6103e0565b6040516100e69493929190610e20565b60405180910390f35b61010960048036038101906101049190610a13565b6104d7565b6040516101199493929190610a56565b60405180910390f35b61013c60048036038101906101379190610f4a565b610561565b005b5f602052805f5260405f205f91509050805f0154908060010154908060020154908060030154905084565b606060015f8373ffffffffffffffffffffffffffffffffffffffff1673ffffffffffffffffffffffffffffffffffffffff1681526020019081526020015f20805480602002602001604051908101604052809291908181526020015f905b828210156103d5578382905f5260205f2090600402016040518060a00160405290815f82015f9054906101000a900473ffffffffffffffffffffffffffffffffffffffff1673ffffffffffffffffffffffffffffffffffffffff1673ffffffffffffffffffffffffffffffffffffffff1681526020015f820160149054906101000a900460ff1660ff1660ff1681526020016001820180546102689061101a565b80601f01602080910402602001604051908101604052809291908181526020018280546102949061101a565b80156102df5780601f106102b6576101008083540402835291602001916102df565b820191905f5260205f20905b8154815290600101906020018083116102c257829003601f168201915b5050505050815260200160028201805480602002602001604051908101604052809291908181526020015f905b828210156103b4578382905f5260205f200180546103299061101a565b80601f01602080910402602001604051908101604052809291908181526020018280546103559061101a565b80156103a05780601f10610377576101008083540402835291602001916103a0565b820191905f5260205f20905b81548152906001019060200180831161038357829003601f168201915b50505050508152602001906001019061030c565b505050508152602001600382015481525050815260200190600101906101c7565b505050509050919050565b6001602052815f5260405f2081815481106103f9575f80fd5b905f5260205f2090600402015f9150915050805f015f9054906101000a900473ffffffffffffffffffffffffffffffffffffffff1690805f0160149054906101000a900460ff16908060010180546104509061101a565b80601f016020809104026020016040519081016040528092919081815260200182805461047c9061101a565b80156104c75780601f1061049e576101008083540402835291602001916104c7565b820191905f5260205f20905b8154815290600101906020018083116104aa57829003601f168201915b5050505050908060030154905084565b5f5f5f5f5f5f5f8773ffffffffffffffffffffffffffffffffffffffff1673ffffffffffffffffffffffffffffffffffffffff1681526020019081526020015f2090505f81600101541161052b575f61053f565b8060010154815f015461053e91906110a4565b5b9450848160010154826002015483600301549450945094509450509193509193565b60648560ff1611156105a8576040517f08c379a000000000000000000000000000000000000000000000000000000000815260040161059f9061111e565b60405180910390fd5b5f73ffffffffffffffffffffffffffffffffffffffff168673ffffffffffffffffffffffffffffffffffffffff1603610616576040517f08c379a000000000000000000000000000000000000000000000000000000000815260040161060d90611186565b60405180910390fd5b5f5f5f8873ffffffffffffffffffffffffffffffffffffffff1673ffffffffffffffffffffffffffffffffffffffff1681526020019081526020015f2090508560ff16815f015f82825461066a91906111a4565b92505081905550806001015f815480929190610685906111d7565b9190505550604b8660ff16106106b357806002015f8154809291906106a9906111d7565b91905055506106cd565b806003015f8154809291906106c7906111d7565b91905055505b60015f8873ffffffffffffffffffffffffffffffffffffffff1673ffffffffffffffffffffffffffffffffffffffff1681526020019081526020015f206040518060a001604052803373ffffffffffffffffffffffffffffffffffffffff1681526020018860ff16815260200187878080601f0160208091040260200160405190810160405280939291908181526020018383808284375f81840152601f19601f82011690508083019250505050505050815260200185859061079091906113f7565b815260200142815250908060018154018082558091505060019003905f5260205f2090600402015f909190919091505f820151815f015f6101000a81548173ffffffffffffffffffffffffffffffffffffffff021916908373ffffffffffffffffffffffffffffffffffffffff1602179055506020820151815f0160146101000a81548160ff021916908360ff160217905550604082015181600101908161083891906115ab565b5060608201518160020190805190602001906108559291906108d6565b506080820151816003015550503373ffffffffffffffffffffffffffffffffffffffff168773ffffffffffffffffffffffffffffffffffffffff167fb797d4bbe408d0e659dc034f1f3336cceee615cb53c0a1136e42fc2c094a402a888888426040516108c594939291906116a6565b60405180910390a350505050505050565b828054828255905f5260205f2090810192821561091c579160200282015b8281111561091b57825182908161090b91906115ab565b50916020019190600101906108f4565b5b509050610929919061092d565b5090565b5b8082111561094c575f81816109439190610950565b5060010161092e565b5090565b50805461095c9061101a565b5f825580601f1061096d575061098a565b601f0160209004905f5260205f2090810190610989919061098d565b5b50565b5b808211156109a4575f815f90555060010161098e565b5090565b5f604051905090565b5f5ffd5b5f5ffd5b5f73ffffffffffffffffffffffffffffffffffffffff82169050919050565b5f6109e2826109b9565b9050919050565b6109f2816109d8565b81146109fc575f5ffd5b50565b5f81359050610a0d816109e9565b92915050565b5f60208284031215610a2857610a276109b1565b5b5f610a35848285016109ff565b91505092915050565b5f819050919050565b610a5081610a3e565b82525050565b5f608082019050610a695f830187610a47565b610a766020830186610a47565b610a836040830185610a47565b610a906060830184610a47565b95945050505050565b5f81519050919050565b5f82825260208201905092915050565b5f819050602082019050919050565b610acb816109d8565b82525050565b5f60ff82169050919050565b610ae681610ad1565b82525050565b5f81519050919050565b5f82825260208201905092915050565b8281835e5f83830152505050565b5f601f19601f8301169050919050565b5f610b2e82610aec565b610b388185610af6565b9350610b48818560208601610b06565b610b5181610b14565b840191505092915050565b5f81519050919050565b5f82825260208201905092915050565b5f819050602082019050919050565b5f610b908383610b24565b905092915050565b5f602082019050919050565b5f610bae82610b5c565b610bb88185610b66565b935083602082028501610bca85610b76565b805f5b85811015610c055784840389528151610be68582610b85565b9450610bf183610b98565b925060208a01995050600181019050610bcd565b50829750879550505050505092915050565b610c2081610a3e565b82525050565b5f60a083015f830151610c3b5f860182610ac2565b506020830151610c4e6020860182610add565b5060408301518482036040860152610c668282610b24565b91505060608301518482036060860152610c808282610ba4565b9150506080830151610c956080860182610c17565b508091505092915050565b5f610cab8383610c26565b905092915050565b5f602082019050919050565b5f610cc982610a99565b610cd38185610aa3565b935083602082028501610ce585610ab3565b805f5b85811015610d205784840389528151610d018582610ca0565b9450610d0c83610cb3565b925060208a01995050600181019050610ce8565b50829750879550505050505092915050565b5f6020820190508181035f830152610d4a8184610cbf565b905092915050565b610d5b81610a3e565b8114610d65575f5ffd5b50565b5f81359050610d7681610d52565b92915050565b5f5f60408385031215610d9257610d916109b1565b5b5f610d9f858286016109ff565b9250506020610db085828601610d68565b9150509250929050565b610dc3816109d8565b82525050565b610dd281610ad1565b82525050565b5f82825260208201905092915050565b5f610df282610aec565b610dfc8185610dd8565b9350610e0c818560208601610b06565b610e1581610b14565b840191505092915050565b5f608082019050610e335f830187610dba565b610e406020830186610dc9565b8181036040830152610e528185610de8565b9050610e616060830184610a47565b95945050505050565b610e7381610ad1565b8114610e7d575f5ffd5b50565b5f81359050610e8e81610e6a565b92915050565b5f5ffd5b5f5ffd5b5f5ffd5b5f5f83601f840112610eb557610eb4610e94565b5b8235905067ffffffffffffffff811115610ed257610ed1610e98565b5b602083019150836001820283011115610eee57610eed610e9c565b5b9250929050565b5f5f83601f840112610f0a57610f09610e94565b5b8235905067ffffffffffffffff811115610f2757610f26610e98565b5b602083019150836020820283011115610f4357610f42610e9c565b5b9250929050565b5f5f5f5f5f5f60808789031215610f6457610f636109b1565b5b5f610f7189828a016109ff565b9650506020610f8289828a01610e80565b955050604087013567ffffffffffffffff811115610fa357610fa26109b5565b5b610faf89828a01610ea0565b9450945050606087013567ffffffffffffffff811115610fd257610fd16109b5565b5b610fde89828a01610ef5565b92509250509295509295509295565b7f4e487b71000000000000000000000000000000000000000000000000000000005f52602260045260245ffd5b5f600282049050600182168061103157607f821691505b60208210810361104457611043610fed565b5b50919050565b7f4e487b71000000000000000000000000000000000000000000000000000000005f52601260045260245ffd5b7f4e487b71000000000000000000000000000000000000000000000000000000005f52601160045260245ffd5b5f6110ae82610a3e565b91506110b983610a3e565b9250826110c9576110c861104a565b5b828204905092915050565b7f526174696e67206d75737420626520302d3130300000000000000000000000005f82015250565b5f611108601483610dd8565b9150611113826110d4565b602082019050919050565b5f6020820190508181035f830152611135816110fc565b9050919050565b7f496e76616c6964206167656e74206164647265737300000000000000000000005f82015250565b5f611170601583610dd8565b915061117b8261113c565b602082019050919050565b5f6020820190508181035f83015261119d81611164565b9050919050565b5f6111ae82610a3e565b91506111b983610a3e565b92508282019050808211156111d1576111d0611077565b5b92915050565b5f6111e182610a3e565b91507fffffffffffffffffffffffffffffffffffffffffffffffffffffffffffffffff820361121357611212611077565b5b600182019050919050565b7f4e487b71000000000000000000000000000000000000000000000000000000005f52604160045260245ffd5b61125482610b14565b810181811067ffffffffffffffff821117156112735761127261121e565b5b80604052505050565b5f6112856109a8565b9050611291828261124b565b919050565b5f67ffffffffffffffff8211156112b0576112af61121e565b5b602082029050602081019050919050565b5f5ffd5b5f67ffffffffffffffff8211156112df576112de61121e565b5b6112e882610b14565b9050602081019050919050565b828183375f83830152505050565b5f611315611310846112c5565b61127c565b905082815260208101848484011115611331576113306112c1565b5b61133c8482856112f5565b509392505050565b5f82601f83011261135857611357610e94565b5b8135611368848260208601611303565b91505092915050565b5f61138361137e84611296565b61127c565b905080838252602082019050602084028301858111156113a6576113a5610e9c565b5b835b818110156113ed57803567ffffffffffffffff8111156113cb576113ca610e94565b5b8086016113d88982611344565b855260208501945050506020810190506113a8565b5050509392505050565b5f611403368484611371565b905092915050565b5f819050815f5260205f209050919050565b5f6020601f8301049050919050565b5f82821b905092915050565b5f600883026114677fffffffffffffffffffffffffffffffffffffffffffffffffffffffffffffffff8261142c565b611471868361142c565b95508019841693508086168417925050509392505050565b5f819050919050565b5f6114ac6114a76114a284610a3e565b611489565b610a3e565b9050919050565b5f819050919050565b6114c583611492565b6114d96114d1826114b3565b848454611438565b825550505050565b5f5f905090565b6114f06114e1565b6114fb8184846114bc565b505050565b5b8181101561151e576115135f826114e8565b600181019050611501565b5050565b601f821115611563576115348161140b565b61153d8461141d565b8101602085101561154c578190505b6115606115588561141d565b830182611500565b50505b505050565b5f82821c905092915050565b5f6115835f1984600802611568565b1980831691505092915050565b5f61159b8383611574565b9150826002028217905092915050565b6115b482610aec565b67ffffffffffffffff8111156115cd576115cc61121e565b5b6115d7825461101a565b6115e2828285611522565b5f60209050601f831160018114611613575f8415611601578287015190505b61160b8582611590565b865550611672565b601f1984166116218661140b565b5f5b8281101561164857848901518255600182019150602085019450602081019050611623565b868310156116655784890151611661601f891682611574565b8355505b6001600288020188555050505b505050505050565b5f6116858385610dd8565b93506116928385846112f5565b61169b83610b14565b840190509392505050565b5f6060820190506116b95f830187610dc9565b81810360208301526116cc81858761167a565b90506116db6040830184610a47565b9594505050505056fea26469706673582212209fa24467a8c0b562527e28c02063789d1ac9f6d6e4ebfb7d87863afdb20aad3764736f6c634300081c0033","linkReferences":{}},"methodIdentifiers":{"erc8004RegistrationIds(address)":"df6f053e","getAgentInfoFromERC8004(address)":"f03b5704","getRegistrationId(address)":"d773a741","getReputationFromERC8004(address)":"aa228ab7","identityRegistry()":"134e18f4","isAgentRegisteredOnERC8004(address)":"75f16d50","isRegisteredOnERC8004(address)":"3d52c3a7","owner()":"8da5cb5b","postFeedbackToERC8004(address,uint8,string,string[])":"4cfa2cbd","registerAgentOnERC8004(string,string,string[])":"de347eaf","renounceOwnership()":"715018a6","reputationRegistry()":"c8db44e3","setIdentityRegistry(address)":"cbf3f861","setReputationRegistry(address)":"3f0ce714","transferOwnership(address)":"f2fde38b"},"id":50}