{"abi":[{"type":"function","name":"allFeedback","inputs":[{"name":"","type":"address","internalType":"address"},{"name":"","type":"uint256","internalType":"uint256"}],"outputs":[{"name":"rater","type":"address","internalType":"address"},{"name":"rating","type":"uint8","internalType":"uint8"},{"name":"feedbackText","type":"string","internalType":"string"},{"name":"timestamp","type":"uint256","internalType":"uint256"}],"stateMutability":"view"},{"type":"function","name":"getAllFeedback","inputs":[{"name":"agent","type":"address","internalType":"address"}],"outputs":[{"name":"","type":"tuple[]","internalType":"struct MockERC8004ReputationRegistry.Feedback[]","components":[{"name":"rater","type":"address","internalType":"address"},{"name":"rating","type":"uint8","internalType":"uint8"},{"name":"feedbackText","type":"string","internalType":"string"},{"name":"tags","type":"string[]","internalType":"string[]"},{"name":"timestamp","type":"uint256","internalType":"uint256"}]}],"stateMutability":"view"},{"type":"function","name":"getReputation","inputs":[{"name":"agent","type":"address","internalType":"address"}],"outputs":[{"name":"avgRating","type":"uint256","internalType":"uint256"},{"name":"feedbackCount","type":"uint256","internalType":"uint256"},{"name":"successCount","type":"uint256","internalType":"uint256"},{"name":"failureCount","type":"uint256","internalType":"uint256"}],"stateMutability":"view"},{"type":"function","name":"postFeedback","inputs":[{"name":"agent","type":"address","internalType":"address"},{"name":"rating","type":"uint8","internalType":"uint8"},{"name":"feedbackText","type":"string","internalType":"string"},{"name":"tags","type":"string[]","internalType":"string[]"}],"outputs":[],"stateMutability":"nonpayable"},{"type":"function","name":"reputations","inputs":[{"name":"","type":"address","internalType":"address"}],"outputs":[{"name":"totalRating","type":"uint256","internalType":"uint256"},{"name":"feedbackCount","type":"uint256","internalType":"uint256"},{"name":"successCount","type":"uint256","internalType":"uint256"},{"name":"failureCount","type":"uint256","internalType":"uint256"}],"stateMutability":"view"},{"type":"event","name":"FeedbackPosted","inputs":[{"name":"agent","type":"address","indexed":true,"internalType":"address"},{"name":"rater","type":"address","indexed":true,"internalType":"address"},{"name":"rating","type":"uint8","indexed":false,"internalType":"uint8"},{"name":"feedbackText","type":"string","indexed":false,"internalType":"string"},{"name":"timestamp","type":"uint256","indexed":false,"internalType":"uint256"}],"anonymous":false}],"bytecode":{"object":"0x6080604052348015600e575f5ffd5b5061171a8061001c5f395ff3fe608060405234801561000f575f5ffd5b5060043610610055575f3560e01c806306fa15a7146100595780630f23920c1461008c5780636f648813146100bc5780639c89a0e2146100ef578063e2d5276a14610122575b5f5ffd5b610073600480360381019061006e9190610a13565b61013e565b6040516100839493929190610a56565b60405180910390f35b6100a660048036038101906100a19190610a13565b610169565b6040516100b39190610d32565b60405180910390f35b6100d660048036038101906100d19190610d7c565b6103e0565b6040516100e69493929190610e20565b60405180910390f35b61010960048036038101906101049190610a13565b6104d7565b6040516101199493929190610a56565b60405180910390f35b61013c60048036038101906101379190610f4a565b610561565b005b5f602052805f5260405f205f91509050805f0154908060010154908060020154908060030154905084565b606060015f8373ffffffffffffffffffffffffffffffffffffffff1673ffffffffffffffffffffffffffffffffffffffff1681526020019081526020015f20805480602002602001604051908101604052809291908181526020015f905b828210156103d5578382905f5260205f2090600402016040518060a00160405290815f82015f9054906101000a900473ffffffffffffffffffffffffffffffffffffffff1673ffffffffffffffffffffffffffffffffffffffff1673ffffffffffffffffffffffffffffffffffffffff1681526020015f820160149054906101000a900460ff1660ff1660ff1681526020016001820180546102689061101a565b80601f01602080910402602001604051908101604052809291908181526020018280546102949061101a565b80156102df5780601f106102b6576101008083540402835291602001916102df565b820191905f5260205f20905b8154815290600101906020018083116102c257829003601f168201915b5050505050815260200160028201805480602002602001604051908101604052809291908181526020015f905b828210156103b4578382905f5260205f200180546103299061101a565b80601f01602080910402602001604051908101604052809291908181526020018280546103559061101a565b80156103a05780601f10610377576101008083540402835291602001916103a0565b820191905f5260205f20905b81548152906001019060200180831161038357829003601f168201915b50505050508152602001906001019061030c565b505050508152602001600382015481525050815260200190600101906101c7565b505050509050919050565b6001602052815f5260405f2081815481106103f9575f80fd5b905f5260205f2090600402015f9150915050805f015f9054906101000a900473ffffffffffffffffffffffffffffffffffffffff1690805f0160149054906101000a900460ff16908060010180546104509061101a565b80601f016020809104026020016040519081016040528092919081815260200182805461047c9061101a565b80156104c75780601f1061049e576101008083540402835291602001916104c7565b820191905f5260205f20905b8154815290600101906020018083116104aa57829003601f168201915b5050505050908060030154905084565b5f5f5f5f5f5f5f8773ffffffffffffffffffffffffffffffffffffffff1673ffffffffffffffffffffffffffffffffffffffff1681526020019081526020015f2090505f81600101541161052b575f61053f565b8060010154815f015461053e91906110a4565b5b9450848160010154826002015483600301549450945094509450509193509193565b60648560ff1611156105a8576040517f08c379a000000000000000000000000000000000000000000000000000000000815260040161059f9061111e565b60405180910390fd5b5f73ffffffffffffffffffffffffffffffffffffffff168673ffffffffffffffffffffffffffffffffffffffff1603610616576040517f08c379a000000000000000000000000000000000000000000000000000000000815260040161060d90611186565b60405180910390fd5b5f5f5f8873ffffffffffffffffffffffffffffffffffffffff1673ffffffffffffffffffffffffffffffffffffffff1681526020019081526020015f2090508560ff16815f015f82825461066a91906111a4565b92505081905550806001015f815480929190610685906111d7565b9190505550604b8660ff16106106b357806002015f8154809291906106a9906111d7565b91905055506106cd565b806003015f8154809291906106c7906111d7565b91905055505b60015f8873ffffffffffffffffffffffffffffffffffffffff1673ffffffffffffffffffffffffffffffffffffffff1681526020019081526020015f206040518060a001604052803373ffffffffffffffffffffffffffffffffffffffff1681526020018860ff16815260200187878080601f0160208091040260200160405190810160405280939291908181526020018383808284375f81840152601f19601f82011690508083019250505050505050815260200185859061079091906113f7565b815260200142815250908060018154018082558091505060019003905f5260205f2090600402015f909190919091505f820151815f015f6101000a81548173ffffffffffffffffffffffffffffffffffffffff021916908373ffffffffffffffffffffffffffffffffffffffff1602179055506020820151815f0160146101000a81548160ff021916908360ff160217905550604082015181600101908161083891906115ab565b5060608201518160020190805190602001906108559291906108d6565b506080820151816003015550503373ffffffffffffffffffffffffffffffffffffffff168773ffffffffffffffffffffffffffffffffffffffff167fb797d4bbe408d0e659dc034f1f3336cceee615cb53c0a1136e42fc2c094a402a888888426040516108c594939291906116a6565b60405180910390a350505050505050565b828054828255905f5260205f2090810192821561091c579160200282015b8281111561091b57825182908161090b91906115ab565b50916020019190600101906108f4565b5b509050610929919061092d565b5090565b5b8082111561094c575f81816109439190610950565b5060010161092e565b5090565b50805461095c9061101a565b5f825580601f1061096d575061098a565b601f0160209004905f5260205f2090810190610989919061098d565b5b50565b5b808211156109a4575f815f90555060010161098e565b5090565b5f604051905090565b5f5ffd5b5f5ffd5b5f73ffffffffffffffffffffffffffffffffffffffff82169050919050565b5f6109e2826109b9565b9050919050565b6109f2816109d8565b81146109fc575f5ffd5b50565b5f81359050610a0d816109e9565b92915050565b5f60208284031215610a2857610a276109b1565b5b5f610a35848285016109ff565b91505092915050565b5f819050919050565b610a5081610a3e565b82525050565b5f608082019050610a695f830187610a47565b610a766020830186610a47565b610a836040830185610a47565b610a906060830184610a47565b95945050505050565b5f81519050919050565b5f82825260208201905092915050565b5f819050602082019050919050565b610acb816109d8565b82525050565b5f60ff82169050919050565b610ae681610ad1565b82525050565b5f81519050919050565b5f82825260208201905092915050565b8281835e5f83830152505050565b5f601f19601f8301169050919050565b5f610b2e82610aec565b610b388185610af6565b9350610b48818560208601610b06565b610b5181610b14565b840191505092915050565b5f81519050919050565b5f82825260208201905092915050565b5f819050602082019050919050565b5f610b908383610b24565b905092915050565b5f602082019050919050565b5f610bae82610b5c565b610bb88185610b66565b935083602082028501610bca85610b76565b805f5b85811015610c055784840389528151610be68582610b85565b9450610bf183610b98565b925060208a01995050600181019050610bcd565b50829750879550505050505092915050565b610c2081610a3e565b82525050565b5f60a083015f830151610c3b5f860182610ac2565b506020830151610c4e6020860182610add565b5060408301518482036040860152610c668282610b24565b91505060608301518482036060860152610c808282610ba4565b9150506080830151610c956080860182610c17565b508091505092915050565b5f610cab8383610c26565b905092915050565b5f602082019050919050565b5f610cc982610a99565b610cd38185610aa3565b935083602082028501610ce585610ab3565b805f5b85811015610d205784840389528151610d018582610ca0565b9450610d0c83610cb3565b925060208a01995050600181019050610ce8565b50829750879550505050505092915050565b5f6020820190508181035f830152610d4a8184610cbf565b905092915050565b610d5b81610a3e565b8114610d65575f5ffd5b50565b5f81359050610d7681610d52565b92915050565b5f5f60408385031215610d9257610d916109b1565b5b5f610d9f858286016109ff565b9250506020610db085828601610d68565b9150509250929050565b610dc3816109d8565b82525050565b610dd281610ad1565b82525050565b5f82825260208201905092915050565b5f610df282610aec565b610dfc8185610dd8565b9350610e0c818560208601610b06565b610e1581610b14565b840191505092915050565b5f608082019050610e335f830187610dba565b610e406020830186610dc9565b8181036040830152610e528185610de8565b9050610e616060830184610a47565b95945050505050565b610e7381610ad1565b8114610e7d575f5ffd5b50565b5f81359050610e8e81610e6a565b92915050565b5f5ffd5b5f5ffd5b5f5ffd5b5f5f83601f840112610eb557610eb4610e94565b5b8235905067ffffffffffffffff811115610ed257610ed1610e98565b5b602083019150836001820283011115610eee57610eed610e9c565b5b9250929050565b5f5f83601f840112610f0a57610f09610e94565b5b8235905067ffffffffffffffff811115610f2757610f26610e98565b5b602083019150836020820283011115610f4357610f42610e9c565b5b9250929050565b5f5f5f5f5f5f60808789031215610f6457610f636109b1565b5b5f610f7189828a016109ff565b9650506020610f8289828a01610e80565b955050604087013567ffffffffffffffff811115610fa357610fa26109b5565b5b610faf89828a01610ea0565b9450945050606087013567ffffffffffffffff811115610fd257610fd16109b5565b5b610fde89828a01610ef5565b92509250509295509295509295565b7f4e487b71000000000000000000000000000000000000000000000000000000005f52602260045260245ffd5b5f600282049050600182168061103157607f821691505b60208210810361104457611043610fed565b5b50919050565b7f4e487b71000000000000000000000000000000000000000000000000000000005f52601260045260245ffd5b7f4e487b71000000000000000000000000000000000000000000000000000000005f52601160045260245ffd5b5f6110ae82610a3e565b91506110b983610a3e565b9250826110c9576110c861104a565b5b828204905092915050565b7f526174696e67206d75737420626520302d3130300000000000000000000000005f82015250565b5f611108601483610dd8565b9150611113826110d4565b602082019050919050565b5f6020820190508181035f830152611135816110fc565b9050919050565b7f496e76616c6964206167656e74206164647265737300000000000000000000005f82015250565b5f611170601583610dd8565b915061117b8261113c565b602082019050919050565b5f6020820190508181035f83015261119d81611164565b9050919050565b5f6111ae82610a3e565b91506111b983610a3e565b92508282019050808211156111d1576111d0611077565b5b92915050565b5f6111e182610a3e565b91507fffffffffffffffffffffffffffffffffffffffffffffffffffffffffffffffff820361121357611212611077565b5b600182019050919050565b7f4e487b71000000000000000000000000000000000000000000000000000000005f52604160045260245ffd5b61125482610b14565b810181811067ffffffffffffffff821117156112735761127261121e565b5b80604052505050565b5f6112856109a8565b9050611291828261124b565b919050565b5f67ffffffffffffffff8211156112b0576112af61121e565b5b602082029050602081019050919050565b5f5ffd5b5f67ffffffffffffffff8211156112df576112de61121e565b5b6112e882610b14565b9050602081019050919050565b828183375f83830152505050565b5f611315611310846112c5565b61127c565b905082815260208101848484011115611331576113306112c1565b5b61133c8482856112f5565b509392505050565b5f82601f83011261135857611357610e94565b5b8135611368848260208601611303565b91505092915050565b5f61138361137e84611296565b61127c565b905080838252602082019050602084028301858111156113a6576113a5610e9c565b5b835b818110156113ed57803567ffffffffffffffff8111156113cb576113ca610e94565b5b8086016113d88982611344565b855260208501945050506020810190506113a8565b5050509392505050565b5f611403368484611371565b905092915050565b5f819050815f5260205f209050919050565b5f6020601f8301049050919050565b5f82821b905092915050565b5f600883026114677fffffffffffffffffffffffffffffffffffffffffffffffffffffffffffffffff8261142c565b611471868361142c565b95508019841693508086168417925050509392505050565b5f819050919050565b5f6114ac6114a76114a284610a3e565b611489565b610a3e565b9050919050565b5f819050919050565b6114c583611492565b6114d96114d1826114b3565b848454611438565b825550505050565b5f5f905090565b6114f06114e1565b6114fb8184846114bc565b505050565b5b8181101561151e576115135f826114e8565b600181019050611501565b5050565b601f821115611563576115348161140b565b61153d8461141d565b8101602085101561154c578190505b6115606115588561141d565b830182611500565b50505b505050565b5f82821c905092915050565b5f6115835f1984600802611568565b1980831691505092915050565b5f61159b8383611574565b9150826002028217905092915050565b6115b482610aec565b67ffffffffffffffff8111156115cd576115cc61121e565b5b6115d7825461101a565b6115e2828285611522565b5f60209050601f831160018114611613575f8415611601578287015190505b61160b8582611590565b865550611672565b601f1984166116218661140b565b5f5b8281101561164857848901518255600182019150602085019450602081019050611623565b868310156116655784890151611661601f891682611574565b8355505b6001600288020188555050505b505050505050565b5f6116858385610dd8565b93506116928385846112f5565b61169b83610b14565b840190509392505050565b5f6060820190506116b95f830187610dc9565b81810360208301526116cc81858761167a565b90506116db6040830184610a47565b9594505050505056fea26469706673582212209fa24467a8c0b562527e28c02063789d1ac9f6d6e4ebfb7d87863afdb20aad3764736f6c634300081c0033","linkReferences":{}},"methodIdentifiers":{"allFeedback(address,uint256)":"6f648813","getAllFeedback(address)":"0f23920c","getReputation(address)":"9c89a0e2","postFeedback(address,uint8,string,string[])":"e2d5276a","reputations(address)":"06fa15a7"},"id":50}