{"abi":[{"type":"function","name":"agents","inputs":[{"name":"","type":"address","internalType":"address"}],"outputs":[{"name":"agent","type":"address","internalType":"address"},{"name":"agentType","type":"string","internalType":"string"},{"name":"serviceEndpoint","type":"string","internalType":"string"},{"name":"isActive","type":"bool","internalType":"bool"},{"name":"registrationId","type":"uint256","internalType":"uint256"},{"name":"registeredAt","type":"uint256","internalType":"uint256"}],"stateMutability":"view"},{"type":"function","name":"getAgentInfo","inputs":[{"name":"agent","type":"address","internalType":"address"}],"outputs":[{"name":"agentType","type":"string","internalType":"string"},{"name":"serviceEndpoint","type":"string","internalType":"string"},{"name":"isActive","type":"bool","internalType":"bool"}],"stateMutability":"view"},{"type":"function","name":"registerAgent","inputs":[{"name":"agentType","type":"string","internalType":"string"},{"name":"serviceEndpoint","type":"string","internalType":"string"},{"name":"endpointMetadata","type":"string[]","internalType":"string[]"}],"outputs":[{"name":"registrationId","type":"uint256","internalType":"uint256"}],"stateMutability":"nonpayable"},{"type":"function","name":"registrationIdToAgent","inputs":[{"name":"","type":"uint256","internalType":"uint256"}],"outputs":[{"name":"","type":"address","internalType":"address"}],"stateMutability":"view"},{"type":"function","name":"updateServiceEndpoint","inputs":[{"name":"agent","type":"address","internalType":"address"},{"name":"newEndpoint","type":"string","internalType":"string"}],"outputs":[],"stateMutability":"nonpayable"},{"type":"event","name":"AgentRegisteredOnRegistry","inputs":[{"name":"agent","type":"address","indexed":true,"internalType":"address"},{"name":"registrationId","type":"uint256","indexed":false,"internalType":"uint256"},{"name":"agentType","type":"string","indexed":false,"internalType":"string"},{"name":"serviceEndpoint","type":"string","indexed":false,"internalType":"string"}],"anonymous":false},{"type":"event","name":"ServiceEndpointUpdated","inputs":[{"name":"agent","type":"address","indexed":true,"internalType":"address"},{"name":"newEndpoint","type":"string","indexed":false,"internalType":"string"}],"anonymous":false}],"bytecode":{"object":"0x608060405260016002553480156013575f5ffd5b5061154e806100215f395ff3fe608060405234801561000f575f5ffd5b5060043610610055575f3560e01c8063152052b014610059578063523cd0351461008b57806382b696c6146100bb5780638eff9c8a146100d7578063fd66091e14610107575b5f5ffd5b610073600480360381019061006e9190610a53565b61013c565b60405161008293929190610b08565b60405180910390f35b6100a560048036038101906100a09190610b7e565b61033b565b6040516100b29190610bb8565b60405180910390f35b6100d560048036038101906100d09190610c32565b61036b565b005b6100f160048036038101906100ec9190610ce4565b6104fe565b6040516100fe9190610da3565b60405180910390f35b610121600480360381019061011c9190610a53565b610883565b60405161013396959493929190610dbc565b60405180910390f35b6060805f5f5f5f8673ffffffffffffffffffffffffffffffffffffffff1673ffffffffffffffffffffffffffffffffffffffff1681526020019081526020015f2060040154036101c1576040517f08c379a00000000000000000000000000000000000000000000000000000000081526004016101b890610e73565b60405180910390fd5b5f5f5f8673ffffffffffffffffffffffffffffffffffffffff1673ffffffffffffffffffffffffffffffffffffffff1681526020019081526020015f2090508060010181600201826003015f9054906101000a900460ff1682805461022590610ebe565b80601f016020809104026020016040519081016040528092919081815260200182805461025190610ebe565b801561029c5780601f106102735761010080835404028352916020019161029c565b820191905f5260205f20905b81548152906001019060200180831161027f57829003601f168201915b505050505092508180546102af90610ebe565b80601f01602080910402602001604051908101604052809291908181526020018280546102db90610ebe565b80156103265780601f106102fd57610100808354040283529160200191610326565b820191905f5260205f20905b81548152906001019060200180831161030957829003601f168201915b50505050509150935093509350509193909250565b6001602052805f5260405f205f915054906101000a900473ffffffffffffffffffffffffffffffffffffffff1681565b5f5f5f8573ffffffffffffffffffffffffffffffffffffffff1673ffffffffffffffffffffffffffffffffffffffff1681526020019081526020015f2060040154036103ec576040517f08c379a00000000000000000000000000000000000000000000000000000000081526004016103e390610e73565b60405180910390fd5b8273ffffffffffffffffffffffffffffffffffffffff163373ffffffffffffffffffffffffffffffffffffffff161461045a576040517f08c379a000000000000000000000000000000000000000000000000000000000815260040161045190610f38565b60405180910390fd5b81815f5f8673ffffffffffffffffffffffffffffffffffffffff1673ffffffffffffffffffffffffffffffffffffffff1681526020019081526020015f2060020191826104a892919061112d565b508273ffffffffffffffffffffffffffffffffffffffff167f43f742c46c8bc26e9c6f4f3debdea24595098dab47ffe06485d2d3e90f86628e83836040516104f1929190611234565b60405180910390a2505050565b5f5f8787905011610544576040517f08c379a000000000000000000000000000000000000000000000000000000000815260040161053b906112a0565b60405180910390fd5b5f8585905011610589576040517f08c379a000000000000000000000000000000000000000000000000000000000815260040161058090611308565b60405180910390fd5b5f5f5f3373ffffffffffffffffffffffffffffffffffffffff1673ffffffffffffffffffffffffffffffffffffffff1681526020019081526020015f20600401541461060a576040517f08c379a000000000000000000000000000000000000000000000000000000000815260040161060190611370565b60405180910390fd5b600254905060025f815480929190610621906113bb565b91905055506040518060c001604052803373ffffffffffffffffffffffffffffffffffffffff16815260200188888080601f0160208091040260200160405190810160405280939291908181526020018383808284375f81840152601f19601f82011690508083019250505050505050815260200186868080601f0160208091040260200160405190810160405280939291908181526020018383808284375f81840152601f19601f820116905080830192505050505050508152602001600115158152602001828152602001428152505f5f3373ffffffffffffffffffffffffffffffffffffffff1673ffffffffffffffffffffffffffffffffffffffff1681526020019081526020015f205f820151815f015f6101000a81548173ffffffffffffffffffffffffffffffffffffffff021916908373ffffffffffffffffffffffffffffffffffffffff16021790555060208201518160010190816107879190611402565b50604082015181600201908161079d9190611402565b506060820151816003015f6101000a81548160ff0219169083151502179055506080820151816004015560a082015181600501559050503360015f8381526020019081526020015f205f6101000a81548173ffffffffffffffffffffffffffffffffffffffff021916908373ffffffffffffffffffffffffffffffffffffffff1602179055503373ffffffffffffffffffffffffffffffffffffffff167f248e47df3340b8e2353b6b49e4327441598322a016a957d00e25e2f4d88b126082898989896040516108719594939291906114d1565b60405180910390a29695505050505050565b5f602052805f5260405f205f91509050805f015f9054906101000a900473ffffffffffffffffffffffffffffffffffffffff16908060010180546108c690610ebe565b80601f01602080910402602001604051908101604052809291908181526020018280546108f290610ebe565b801561093d5780601f106109145761010080835404028352916020019161093d565b820191905f5260205f20905b81548152906001019060200180831161092057829003601f168201915b50505050509080600201805461095290610ebe565b80601f016020809104026020016040519081016040528092919081815260200182805461097e90610ebe565b80156109c95780601f106109a0576101008083540402835291602001916109c9565b820191905f5260205f20905b8154815290600101906020018083116109ac57829003601f168201915b505050505090806003015f9054906101000a900460ff16908060040154908060050154905086565b5f5ffd5b5f5ffd5b5f73ffffffffffffffffffffffffffffffffffffffff82169050919050565b5f610a22826109f9565b9050919050565b610a3281610a18565b8114610a3c575f5ffd5b50565b5f81359050610a4d81610a29565b92915050565b5f60208284031215610a6857610a676109f1565b5b5f610a7584828501610a3f565b91505092915050565b5f81519050919050565b5f82825260208201905092915050565b8281835e5f83830152505050565b5f601f19601f8301169050919050565b5f610ac082610a7e565b610aca8185610a88565b9350610ada818560208601610a98565b610ae381610aa6565b840191505092915050565b5f8115159050919050565b610b0281610aee565b82525050565b5f6060820190508181035f830152610b208186610ab6565b90508181036020830152610b348185610ab6565b9050610b436040830184610af9565b949350505050565b5f819050919050565b610b5d81610b4b565b8114610b67575f5ffd5b50565b5f81359050610b7881610b54565b92915050565b5f60208284031215610b9357610b926109f1565b5b5f610ba084828501610b6a565b91505092915050565b610bb281610a18565b82525050565b5f602082019050610bcb5f830184610ba9565b92915050565b5f5ffd5b5f5ffd5b5f5ffd5b5f5f83601f840112610bf257610bf1610bd1565b5b8235905067ffffffffffffffff811115610c0f57610c0e610bd5565b5b602083019150836001820283011115610c2b57610c2a610bd9565b5b9250929050565b5f5f5f60408486031215610c4957610c486109f1565b5b5f610c5686828701610a3f565b935050602084013567ffffffffffffffff811115610c7757610c766109f5565b5b610c8386828701610bdd565b92509250509250925092565b5f5f83601f840112610ca457610ca3610bd1565b5b8235905067ffffffffffffffff811115610cc157610cc0610bd5565b5b602083019150836020820283011115610cdd57610cdc610bd9565b5b9250929050565b5f5f5f5f5f5f60608789031215610cfe57610cfd6109f1565b5b5f87013567ffffffffffffffff811115610d1b57610d1a6109f5565b5b610d2789828a01610bdd565b9650965050602087013567ffffffffffffffff811115610d4a57610d496109f5565b5b610d5689828a01610bdd565b9450945050604087013567ffffffffffffffff811115610d7957610d786109f5565b5b610d8589828a01610c8f565b92509250509295509295509295565b610d9d81610b4b565b82525050565b5f602082019050610db65f830184610d94565b92915050565b5f60c082019050610dcf5f830189610ba9565b8181036020830152610de18188610ab6565b90508181036040830152610df58187610ab6565b9050610e046060830186610af9565b610e116080830185610d94565b610e1e60a0830184610d94565b979650505050505050565b7f4167656e74206e6f7420726567697374657265640000000000000000000000005f82015250565b5f610e5d601483610a88565b9150610e6882610e29565b602082019050919050565b5f6020820190508181035f830152610e8a81610e51565b9050919050565b7f4e487b71000000000000000000000000000000000000000000000000000000005f52602260045260245ffd5b5f6002820490506001821680610ed557607f821691505b602082108103610ee857610ee7610e91565b5b50919050565b7f4f6e6c79206167656e742063616e2075706461746520656e64706f696e7400005f82015250565b5f610f22601e83610a88565b9150610f2d82610eee565b602082019050919050565b5f6020820190508181035f830152610f4f81610f16565b9050919050565b5f82905092915050565b7f4e487b71000000000000000000000000000000000000000000000000000000005f52604160045260245ffd5b5f819050815f5260205f209050919050565b5f6020601f8301049050919050565b5f82821b905092915050565b5f60088302610fe97fffffffffffffffffffffffffffffffffffffffffffffffffffffffffffffffff82610fae565b610ff38683610fae565b95508019841693508086168417925050509392505050565b5f819050919050565b5f61102e61102961102484610b4b565b61100b565b610b4b565b9050919050565b5f819050919050565b61104783611014565b61105b61105382611035565b848454610fba565b825550505050565b5f5f905090565b611072611063565b61107d81848461103e565b505050565b5b818110156110a0576110955f8261106a565b600181019050611083565b5050565b601f8211156110e5576110b681610f8d565b6110bf84610f9f565b810160208510156110ce578190505b6110e26110da85610f9f565b830182611082565b50505b505050565b5f82821c905092915050565b5f6111055f19846008026110ea565b1980831691505092915050565b5f61111d83836110f6565b9150826002028217905092915050565b6111378383610f56565b67ffffffffffffffff8111156111505761114f610f60565b5b61115a8254610ebe565b6111658282856110a4565b5f601f831160018114611192575f8415611180578287013590505b61118a8582611112565b8655506111f1565b601f1984166111a086610f8d565b5f5b828110156111c7578489013582556001820191506020850194506020810190506111a2565b868310156111e457848901356111e0601f8916826110f6565b8355505b6001600288020188555050505b50505050505050565b828183375f83830152505050565b5f6112138385610a88565b93506112208385846111fa565b61122983610aa6565b840190509392505050565b5f6020820190508181035f83015261124d818486611208565b90509392505050565b7f4167656e7420747970652063616e6e6f7420626520656d7074790000000000005f82015250565b5f61128a601a83610a88565b915061129582611256565b602082019050919050565b5f6020820190508181035f8301526112b78161127e565b9050919050565b7f5365727669636520656e64706f696e742063616e6e6f7420626520656d7074795f82015250565b5f6112f2602083610a88565b91506112fd826112be565b602082019050919050565b5f6020820190508181035f83015261131f816112e6565b9050919050565b7f4167656e7420616c7265616479207265676973746572656400000000000000005f82015250565b5f61135a601883610a88565b915061136582611326565b602082019050919050565b5f6020820190508181035f8301526113878161134e565b9050919050565b7f4e487b71000000000000000000000000000000000000000000000000000000005f52601160045260245ffd5b5f6113c582610b4b565b91507fffffffffffffffffffffffffffffffffffffffffffffffffffffffffffffffff82036113f7576113f661138e565b5b600182019050919050565b61140b82610a7e565b67ffffffffffffffff81111561142457611423610f60565b5b61142e8254610ebe565b6114398282856110a4565b5f60209050601f83116001811461146a575f8415611458578287015190505b6114628582611112565b8655506114c9565b601f19841661147886610f8d565b5f5b8281101561149f5784890151825560018201915060208501945060208101905061147a565b868310156114bc57848901516114b8601f8916826110f6565b8355505b6001600288020188555050505b505050505050565b5f6060820190506114e45f830188610d94565b81810360208301526114f7818688611208565b9050818103604083015261150c818486611208565b9050969550505050505056fea26469706673582212205d0c696aaba726892a8c7b8eb77b1d8f796e95fd9b7b7cfd7d9de6626f74bf9264736f6c634300081c0033","linkReferences":{}},"methodIdentifiers":{"agents(address)":"fd66091e","getAgentInfo(address)":"152052b0","registerAgent(string,string,string[])":"8eff9c8a","registrationIdToAgent(uint256)":"523cd035","updateServiceEndpoint(address,string)":"82b696c6"},"id":50}