{"abi":[{"type":"constructor","inputs":[{"name":"_cUSD","type":"address","internalType":"address"},{"name":"_initialFee","type":"uint256","internalType":"uint256"}],"stateMutability":"nonpayable"},{"type":"function","name":"cUSD","inputs":[],"outputs":[{"name":"","type":"address","internalType":"contract IERC20"}],"stateMutability":"view"},{"type":"function","name":"chainId","inputs":[],"outputs":[{"name":"","type":"uint256","internalType":"uint256"}],"stateMutability":"view"},{"type":"function","name":"fee","inputs":[],"outputs":[{"name":"","type":"uint256","internalType":"uint256"}],"stateMutability":"view"},{"type":"function","name":"getBalance","inputs":[],"outputs":[{"name":"","type":"uint256","internalType":"uint256"}],"stateMutability":"view"},{"type":"function","name":"getFee","inputs":[],"outputs":[{"name":"","type":"uint256","internalType":"uint256"}],"stateMutability":"view"},{"type":"function","name":"getTotalCollected","inputs":[],"outputs":[{"name":"","type":"uint256","internalType":"uint256"}],"stateMutability":"view"},{"type":"function","name":"hasPaid","inputs":[{"name":"intentId","type":"uint256","internalType":"uint256"}],"outputs":[{"name":"","type":"bool","internalType":"bool"}],"stateMutability":"view"},{"type":"function","name":"intentPayments","inputs":[{"name":"","type":"uint256","internalType":"uint256"},{"name":"","type":"address","internalType":"address"}],"outputs":[{"name":"","type":"uint256","internalType":"uint256"}],"stateMutability":"view"},{"type":"function","name":"owner","inputs":[],"outputs":[{"name":"","type":"address","internalType":"address"}],"stateMutability":"view"},{"type":"function","name":"paidIntents","inputs":[{"name":"","type":"uint256","internalType":"uint256"}],"outputs":[{"name":"","type":"bool","internalType":"bool"}],"stateMutability":"view"},{"type":"function","name":"payForService","inputs":[{"name":"intentId","type":"uint256","internalType":"uint256"}],"outputs":[],"stateMutability":"nonpayable"},{"type":"function","name":"paymentDetails","inputs":[],"outputs":[{"name":"payTo","type":"address","internalType":"address"},{"name":"amount","type":"uint256","internalType":"uint256"},{"name":"token","type":"address","internalType":"address"},{"name":"chainIdValue","type":"uint256","internalType":"uint256"},{"name":"network","type":"string","internalType":"string"}],"stateMutability":"view"},{"type":"function","name":"renounceOwnership","inputs":[],"outputs":[],"stateMutability":"nonpayable"},{"type":"function","name":"setFee","inputs":[{"name":"newFee","type":"uint256","internalType":"uint256"}],"outputs":[],"stateMutability":"nonpayable"},{"type":"function","name":"totalCollected","inputs":[],"outputs":[{"name":"","type":"uint256","internalType":"uint256"}],"stateMutability":"view"},{"type":"function","name":"transferOwnership","inputs":[{"name":"newOwner","type":"address","internalType":"address"}],"outputs":[],"stateMutability":"nonpayable"},{"type":"function","name":"withdraw","inputs":[],"outputs":[],"stateMutability":"nonpayable"},{"type":"event","name":"FeeSet","inputs":[{"name":"newFee","type":"uint256","indexed":true,"internalType":"uint256"},{"name":"timestamp","type":"uint256","indexed":false,"internalType":"uint256"}],"anonymous":false},{"type":"event","name":"OwnershipTransferred","inputs":[{"name":"previousOwner","type":"address","indexed":true,"internalType":"address"},{"name":"newOwner","type":"address","indexed":true,"internalType":"address"}],"anonymous":false},{"type":"event","name":"PaymentReceived","inputs":[{"name":"intentId","type":"uint256","indexed":true,"internalType":"uint256"},{"name":"payer","type":"address","indexed":true,"internalType":"address"},{"name":"amount","type":"uint256","indexed":false,"internalType":"uint256"},{"name":"timestamp","type":"uint256","indexed":false,"internalType":"uint256"}],"anonymous":false},{"type":"event","name":"Withdrawn","inputs":[{"name":"recipient","type":"address","indexed":true,"internalType":"address"},{"name":"amount","type":"uint256","indexed":false,"internalType":"uint256"},{"name":"timestamp","type":"uint256","indexed":false,"internalType":"uint256"}],"anonymous":false},{"type":"error","name":"OwnableInvalidOwner","inputs":[{"name":"owner","type":"address","internalType":"address"}]},{"type":"error","name":"OwnableUnauthorizedAccount","inputs":[{"name":"account","type":"address","internalType":"address"}]},{"type":"error","name":"ReentrancyGuardReentrantCall","inputs":[]}],"bytecode":{"object":"0x60c060405234801561000f575f5ffd5b506040516118893803806118898339818101604052810190610031919061034a565b335f73ffffffffffffffffffffffffffffffffffffffff168173ffffffffffffffffffffffffffffffffffffffff16036100a2575f6040517f1e4fbdf70000000000000000000000000000000000000000000000000000000081526004016100999190610397565b60405180910390fd5b6100b1816101c660201b60201c565b5060016100d06100c561028760201b60201c565b6102b060201b60201c565b5f01819055505f73ffffffffffffffffffffffffffffffffffffffff168273ffffffffffffffffffffffffffffffffffffffff1603610144576040517f08c379a000000000000000000000000000000000000000000000000000000000815260040161013b9061040a565b60405180910390fd5b8173ffffffffffffffffffffffffffffffffffffffff1660808173ffffffffffffffffffffffffffffffffffffffff1681525050806001819055504660a08181525050807f74dbbbe280ef27b79a8a0c449d5ae2ba7a31849103241d0f98df70bbc9d03e37426040516101b79190610437565b60405180910390a25050610450565b5f5f5f9054906101000a900473ffffffffffffffffffffffffffffffffffffffff169050815f5f6101000a81548173ffffffffffffffffffffffffffffffffffffffff021916908373ffffffffffffffffffffffffffffffffffffffff1602179055508173ffffffffffffffffffffffffffffffffffffffff168173ffffffffffffffffffffffffffffffffffffffff167f8be0079c531659141344cd1fd0a4f28419497f9722a3daafe3b4186f6b6457e060405160405180910390a35050565b5f7f9b779b17422d0df92223018b32b4d1fa46e071723d6817e2486d003becc55f005f1b905090565b5f819050919050565b5f5ffd5b5f73ffffffffffffffffffffffffffffffffffffffff82169050919050565b5f6102e6826102bd565b9050919050565b6102f6816102dc565b8114610300575f5ffd5b50565b5f81519050610311816102ed565b92915050565b5f819050919050565b61032981610317565b8114610333575f5ffd5b50565b5f8151905061034481610320565b92915050565b5f5f604083850312156103605761035f6102b9565b5b5f61036d85828601610303565b925050602061037e85828601610336565b9150509250929050565b610391816102dc565b82525050565b5f6020820190506103aa5f830184610388565b92915050565b5f82825260208201905092915050565b7f496e76616c6964206355534420616464726573730000000000000000000000005f82015250565b5f6103f46014836103b0565b91506103ff826103c0565b602082019050919050565b5f6020820190508181035f830152610421816103e8565b9050919050565b61043181610317565b82525050565b5f60208201905061044a5f830184610428565b92915050565b60805160a0516113e76104a25f395f81816106f7015281816109dc0152610a0201525f8181610337015281816103d401528181610409015281816104e6015281816107cf01526109b901526113e75ff3fe608060405234801561000f575f5ffd5b5060043610610109575f3560e01c80638da5cb5b116100a0578063ddca3f431161006f578063ddca3f431461027f578063dec3fc381461029d578063e29eb836146102bf578063f2fde38b146102dd578063fbe5d87e146102f957610109565b80638da5cb5b146102095780639a8a059214610227578063ced72f8714610245578063dbec6def1461026357610109565b806340dcb14f116100dc57806340dcb14f14610183578063566e02c1146101b357806369fe0e2d146101e3578063715018a6146101ff57610109565b806304f6ad761461010d57806312065fe01461013d5780631fccf6721461015b5780633ccfd60b14610179575b5f5ffd5b61012760048036038101906101229190610d85565b610317565b6040516101349190610dca565b60405180910390f35b610145610334565b6040516101529190610df2565b60405180910390f35b6101636103d2565b6040516101709190610e85565b60405180910390f35b6101816103f6565b005b61019d60048036038101906101989190610ed9565b61062b565b6040516101aa9190610df2565b60405180910390f35b6101cd60048036038101906101c89190610d85565b61064b565b6040516101da9190610dca565b60405180910390f35b6101fd60048036038101906101f89190610d85565b610671565b005b6102076106bb565b005b6102116106ce565b60405161021e9190610f26565b60405180910390f35b61022f6106f5565b60405161023c9190610df2565b60405180910390f35b61024d610719565b60405161025a9190610df2565b60405180910390f35b61027d60048036038101906102789190610d85565b610722565b005b6102876109a3565b6040516102949190610df2565b60405180910390f35b6102a56109a9565b6040516102b6959493929190610faf565b60405180910390f35b6102c7610aa1565b6040516102d49190610df2565b60405180910390f35b6102f760048036038101906102f29190611007565b610aa7565b005b610301610b2b565b60405161030e9190610df2565b60405180910390f35b6003602052805f5260405f205f915054906101000a900460ff1681565b5f7f000000000000000000000000000000000000000000000000000000000000000073ffffffffffffffffffffffffffffffffffffffff166370a08231306040518263ffffffff1660e01b815260040161038e9190610f26565b602060405180830381865afa1580156103a9573d5f5f3e3d5ffd5b505050506040513d601f19601f820116820180604052508101906103cd9190611046565b905090565b7f000000000000000000000000000000000000000000000000000000000000000081565b6103fe610b34565b610406610bbb565b5f7f000000000000000000000000000000000000000000000000000000000000000073ffffffffffffffffffffffffffffffffffffffff166370a08231306040518263ffffffff1660e01b81526004016104609190610f26565b602060405180830381865afa15801561047b573d5f5f3e3d5ffd5b505050506040513d601f19601f8201168201806040525081019061049f9190611046565b90505f81116104e3576040517f08c379a00000000000000000000000000000000000000000000000000000000081526004016104da906110bb565b60405180910390fd5b5f7f000000000000000000000000000000000000000000000000000000000000000073ffffffffffffffffffffffffffffffffffffffff1663a9059cbb6105286106ce565b846040518363ffffffff1660e01b81526004016105469291906110d9565b6020604051808303815f875af1158015610562573d5f5f3e3d5ffd5b505050506040513d601f19601f82011682018060405250810190610586919061112a565b9050806105c8576040517f08c379a00000000000000000000000000000000000000000000000000000000081526004016105bf9061119f565b60405180910390fd5b6105d06106ce565b73ffffffffffffffffffffffffffffffffffffffff167f92ccf450a286a957af52509bc1c9939d1a6a481783e142e41e2499f0bb66ebc683426040516106179291906111bd565b60405180910390a25050610629610bdd565b565b6002602052815f5260405f20602052805f5260405f205f91509150505481565b5f60035f8381526020019081526020015f205f9054906101000a900460ff169050919050565b610679610b34565b80600181905550807f74dbbbe280ef27b79a8a0c449d5ae2ba7a31849103241d0f98df70bbc9d03e37426040516106b09190610df2565b60405180910390a250565b6106c3610b34565b6106cc5f610bf7565b565b5f5f5f9054906101000a900473ffffffffffffffffffffffffffffffffffffffff16905090565b7f000000000000000000000000000000000000000000000000000000000000000081565b5f600154905090565b61072a610bbb565b5f6001541161076e576040517f08c379a00000000000000000000000000000000000000000000000000000000081526004016107659061122e565b60405180910390fd5b60035f8281526020019081526020015f205f9054906101000a900460ff16156107cc576040517f08c379a00000000000000000000000000000000000000000000000000000000081526004016107c390611296565b60405180910390fd5b5f7f000000000000000000000000000000000000000000000000000000000000000073ffffffffffffffffffffffffffffffffffffffff166323b872dd33306001546040518463ffffffff1660e01b815260040161082c939291906112b4565b6020604051808303815f875af1158015610848573d5f5f3e3d5ffd5b505050506040513d601f19601f8201168201806040525081019061086c919061112a565b9050806108ae576040517f08c379a00000000000000000000000000000000000000000000000000000000081526004016108a590611333565b60405180910390fd5b600160035f8481526020019081526020015f205f6101000a81548160ff02191690831515021790555060015460025f8481526020019081526020015f205f3373ffffffffffffffffffffffffffffffffffffffff1673ffffffffffffffffffffffffffffffffffffffff1681526020019081526020015f208190555060015460045f82825461093d919061137e565b925050819055503373ffffffffffffffffffffffffffffffffffffffff16827f1ccb44f7994f1a3d2e759376c53231768e4c9cd9b230ad05d26d158cf6ac66cf6001544260405161098f9291906111bd565b60405180910390a3506109a0610bdd565b50565b60015481565b5f5f5f5f606030945060015493507f000000000000000000000000000000000000000000000000000000000000000092507f0000000000000000000000000000000000000000000000000000000000000000915061aef37f000000000000000000000000000000000000000000000000000000000000000014610a61576040518060400160405280600c81526020017f63656c6f2d6d61696e6e65740000000000000000000000000000000000000000815250610a98565b6040518060400160405280600c81526020017f63656c6f2d7365706f6c696100000000000000000000000000000000000000008152505b90509091929394565b60045481565b610aaf610b34565b5f73ffffffffffffffffffffffffffffffffffffffff168173ffffffffffffffffffffffffffffffffffffffff1603610b1f575f6040517f1e4fbdf7000000000000000000000000000000000000000000000000000000008152600401610b169190610f26565b60405180910390fd5b610b2881610bf7565b50565b5f600454905090565b610b3c610cb8565b73ffffffffffffffffffffffffffffffffffffffff16610b5a6106ce565b73ffffffffffffffffffffffffffffffffffffffff1614610bb957610b7d610cb8565b6040517f118cdaa7000000000000000000000000000000000000000000000000000000008152600401610bb09190610f26565b60405180910390fd5b565b610bc3610cbf565b6002610bd5610bd0610d00565b610d29565b5f0181905550565b6001610bef610bea610d00565b610d29565b5f0181905550565b5f5f5f9054906101000a900473ffffffffffffffffffffffffffffffffffffffff169050815f5f6101000a81548173ffffffffffffffffffffffffffffffffffffffff021916908373ffffffffffffffffffffffffffffffffffffffff1602179055508173ffffffffffffffffffffffffffffffffffffffff168173ffffffffffffffffffffffffffffffffffffffff167f8be0079c531659141344cd1fd0a4f28419497f9722a3daafe3b4186f6b6457e060405160405180910390a35050565b5f33905090565b610cc7610d32565b15610cfe576040517f3ee5aeb500000000000000000000000000000000000000000000000000000000815260040160405180910390fd5b565b5f7f9b779b17422d0df92223018b32b4d1fa46e071723d6817e2486d003becc55f005f1b905090565b5f819050919050565b5f6002610d45610d40610d00565b610d29565b5f015414905090565b5f5ffd5b5f819050919050565b610d6481610d52565b8114610d6e575f5ffd5b50565b5f81359050610d7f81610d5b565b92915050565b5f60208284031215610d9a57610d99610d4e565b5b5f610da784828501610d71565b91505092915050565b5f8115159050919050565b610dc481610db0565b82525050565b5f602082019050610ddd5f830184610dbb565b92915050565b610dec81610d52565b82525050565b5f602082019050610e055f830184610de3565b92915050565b5f73ffffffffffffffffffffffffffffffffffffffff82169050919050565b5f819050919050565b5f610e4d610e48610e4384610e0b565b610e2a565b610e0b565b9050919050565b5f610e5e82610e33565b9050919050565b5f610e6f82610e54565b9050919050565b610e7f81610e65565b82525050565b5f602082019050610e985f830184610e76565b92915050565b5f610ea882610e0b565b9050919050565b610eb881610e9e565b8114610ec2575f5ffd5b50565b5f81359050610ed381610eaf565b92915050565b5f5f60408385031215610eef57610eee610d4e565b5b5f610efc85828601610d71565b9250506020610f0d85828601610ec5565b9150509250929050565b610f2081610e9e565b82525050565b5f602082019050610f395f830184610f17565b92915050565b5f81519050919050565b5f82825260208201905092915050565b8281835e5f83830152505050565b5f601f19601f8301169050919050565b5f610f8182610f3f565b610f8b8185610f49565b9350610f9b818560208601610f59565b610fa481610f67565b840191505092915050565b5f60a082019050610fc25f830188610f17565b610fcf6020830187610de3565b610fdc6040830186610f17565b610fe96060830185610de3565b8181036080830152610ffb8184610f77565b90509695505050505050565b5f6020828403121561101c5761101b610d4e565b5b5f61102984828501610ec5565b91505092915050565b5f8151905061104081610d5b565b92915050565b5f6020828403121561105b5761105a610d4e565b5b5f61106884828501611032565b91505092915050565b7f4e6f206665657320746f207769746864726177000000000000000000000000005f82015250565b5f6110a5601383610f49565b91506110b082611071565b602082019050919050565b5f6020820190508181035f8301526110d281611099565b9050919050565b5f6040820190506110ec5f830185610f17565b6110f96020830184610de3565b9392505050565b61110981610db0565b8114611113575f5ffd5b50565b5f8151905061112481611100565b92915050565b5f6020828403121561113f5761113e610d4e565b5b5f61114c84828501611116565b91505092915050565b7f5769746864726177616c206661696c65640000000000000000000000000000005f82015250565b5f611189601183610f49565b915061119482611155565b602082019050919050565b5f6020820190508181035f8301526111b68161117d565b9050919050565b5f6040820190506111d05f830185610de3565b6111dd6020830184610de3565b9392505050565b7f466565206d7573742062652067726561746572207468616e207a65726f0000005f82015250565b5f611218601d83610f49565b9150611223826111e4565b602082019050919050565b5f6020820190508181035f8301526112458161120c565b9050919050565b7f496e74656e7420616c72656164792070616964000000000000000000000000005f82015250565b5f611280601383610f49565b915061128b8261124c565b602082019050919050565b5f6020820190508181035f8301526112ad81611274565b9050919050565b5f6060820190506112c75f830186610f17565b6112d46020830185610f17565b6112e16040830184610de3565b949350505050565b7f63555344207472616e73666572206661696c65640000000000000000000000005f82015250565b5f61131d601483610f49565b9150611328826112e9565b602082019050919050565b5f6020820190508181035f83015261134a81611311565b9050919050565b7f4e487b71000000000000000000000000000000000000000000000000000000005f52601160045260245ffd5b5f61138882610d52565b915061139383610d52565b92508282019050808211156113ab576113aa611351565b5b9291505056fea2646970667358221220e5300fd2067109fdc8275b615f30b3c563ba11ce94b3074b9d2c6eb62fb02ef764736f6c634300081c0033","linkReferences":{}},"methodIdentifiers":{"cUSD()":"1fccf672","chainId()":"9a8a0592","fee()":"ddca3f43","getBalance()":"12065fe0","getFee()":"ced72f87","getTotalCollected()":"fbe5d87e","hasPaid(uint256)":"566e02c1","intentPayments(uint256,address)":"40dcb14f","owner()":"8da5cb5b","paidIntents(uint256)":"04f6ad76","payForService(uint256)":"dbec6def","paymentDetails()":"dec3fc38","renounceOwnership()":"715018a6","setFee(uint256)":"69fe0e2d","totalCollected()":"e29eb836","transferOwnership(address)":"f2fde38b","withdraw()":"3ccfd60b"},"id":44}