{"abi":[{"type":"function","name":"getTrustEdges","inputs":[{"name":"user","type":"address","internalType":"address"}],"outputs":[{"name":"","type":"tuple[]","internalType":"struct CircleTrust.TrustEdge[]","components":[{"name":"trustee","type":"address","internalType":"address"},{"name":"expiresAt","type":"uint96","internalType":"uint96"}]}],"stateMutability":"view"},{"type":"function","name":"isTrusted","inputs":[{"name":"truster","type":"address","internalType":"address"},{"name":"trustee","type":"address","internalType":"address"}],"outputs":[{"name":"","type":"bool","internalType":"bool"}],"stateMutability":"view"},{"type":"function","name":"meetsMinTrust","inputs":[{"name":"user","type":"address","internalType":"address"},{"name":"minScore","type":"uint256","internalType":"uint256"}],"outputs":[{"name":"","type":"bool","internalType":"bool"}],"stateMutability":"view"},{"type":"function","name":"revokeTrust","inputs":[{"name":"trustee","type":"address","internalType":"address"}],"outputs":[],"stateMutability":"nonpayable"},{"type":"function","name":"trust","inputs":[{"name":"trustee","type":"address","internalType":"address"},{"name":"expiresAt","type":"uint96","internalType":"uint96"}],"outputs":[],"stateMutability":"nonpayable"},{"type":"function","name":"trustScore","inputs":[{"name":"user","type":"address","internalType":"address"}],"outputs":[{"name":"","type":"uint256","internalType":"uint256"}],"stateMutability":"view"},{"type":"event","name":"TrustAdded","inputs":[{"name":"truster","type":"address","indexed":true,"internalType":"address"},{"name":"trustee","type":"address","indexed":true,"internalType":"address"},{"name":"expiresAt","type":"uint96","indexed":false,"internalType":"uint96"}],"anonymous":false},{"type":"event","name":"TrustExpired","inputs":[{"name":"truster","type":"address","indexed":true,"internalType":"address"},{"name":"trustee","type":"address","indexed":true,"internalType":"address"}],"anonymous":false},{"type":"event","name":"TrustRevoked","inputs":[{"name":"truster","type":"address","indexed":true,"internalType":"address"},{"name":"trustee","type":"address","indexed":true,"internalType":"address"}],"anonymous":false}],"bytecode":{"object":"0x6080604052348015600e575f5ffd5b506117818061001c5f395ff3fe608060405234801561000f575f5ffd5b5060043610610060575f3560e01c806327822fcf146100645780633582c45114610094578063534a8465146100b05780636713e230146100e057806375dcebc714610110578063ab10ef9e1461012c575b5f5ffd5b61007e6004803603810190610079919061111c565b61015c565b60405161008b9190611174565b60405180910390f35b6100ae60048036038101906100a9919061118d565b6101a6565b005b6100ca60048036038101906100c5919061118d565b6102a8565b6040516100d791906111c7565b60405180910390f35b6100fa60048036038101906100f591906111e0565b6102f8565b6040516101079190611174565b60405180910390f35b61012a6004803603810190610125919061125f565b61030b565b005b6101466004803603810190610141919061118d565b610801565b6040516101539190611390565b60405180910390f35b5f8160025f8573ffffffffffffffffffffffffffffffffffffffff1673ffffffffffffffffffffffffffffffffffffffff1681526020019081526020015f20541015905092915050565b6101b03382610926565b6101ef576040517f08c379a00000000000000000000000000000000000000000000000000000000081526004016101e69061140a565b60405180910390fd5b6101f93382610abc565b60025f8273ffffffffffffffffffffffffffffffffffffffff1673ffffffffffffffffffffffffffffffffffffffff1681526020019081526020015f205f81548092919061024690611455565b91905055508073ffffffffffffffffffffffffffffffffffffffff163373ffffffffffffffffffffffffffffffffffffffff167fa1673fe49d4b8e481c52acc49aaf59068bb73ef73a77b34f77646c1078cf135c60405160405180910390a350565b5f5f5f90505f60025f8573ffffffffffffffffffffffffffffffffffffffff1673ffffffffffffffffffffffffffffffffffffffff1681526020019081526020015f205490508092505050919050565b5f6103038383610e9f565b905092915050565b3373ffffffffffffffffffffffffffffffffffffffff168273ffffffffffffffffffffffffffffffffffffffff1603610379576040517f08c379a0000000000000000000000000000000000000000000000000000000008152600401610370906114c6565b60405180910390fd5b5f73ffffffffffffffffffffffffffffffffffffffff168273ffffffffffffffffffffffffffffffffffffffff16036103e7576040517f08c379a00000000000000000000000000000000000000000000000000000000081526004016103de9061152e565b60405180910390fd5b5f5f90506103f53384610926565b15610558575f60015f3373ffffffffffffffffffffffffffffffffffffffff1673ffffffffffffffffffffffffffffffffffffffff1681526020019081526020015f205f8573ffffffffffffffffffffffffffffffffffffffff1673ffffffffffffffffffffffffffffffffffffffff1681526020019081526020015f205490505f81116104b8576040517f08c379a00000000000000000000000000000000000000000000000000000000081526004016104af90611596565b60405180910390fd5b6001816104c591906115b4565b9050825f5f3373ffffffffffffffffffffffffffffffffffffffff1673ffffffffffffffffffffffffffffffffffffffff1681526020019081526020015f208281548110610516576105156115e7565b5b905f5260205f20015f0160146101000a8154816bffffffffffffffffffffffff02191690836bffffffffffffffffffffffff1602179055506001915050610797565b5f5f3373ffffffffffffffffffffffffffffffffffffffff1673ffffffffffffffffffffffffffffffffffffffff1681526020019081526020015f2060405180604001604052808573ffffffffffffffffffffffffffffffffffffffff168152602001846bffffffffffffffffffffffff16815250908060018154018082558091505060019003905f5260205f20015f909190919091505f820151815f015f6101000a81548173ffffffffffffffffffffffffffffffffffffffff021916908373ffffffffffffffffffffffffffffffffffffffff1602179055506020820151815f0160146101000a8154816bffffffffffffffffffffffff02191690836bffffffffffffffffffffffff16021790555050505f60015f5f3373ffffffffffffffffffffffffffffffffffffffff1673ffffffffffffffffffffffffffffffffffffffff1681526020019081526020015f20805490506106b891906115b4565b90506001816106c79190611614565b60015f3373ffffffffffffffffffffffffffffffffffffffff1673ffffffffffffffffffffffffffffffffffffffff1681526020019081526020015f205f8673ffffffffffffffffffffffffffffffffffffffff1673ffffffffffffffffffffffffffffffffffffffff1681526020019081526020015f208190555060025f8573ffffffffffffffffffffffffffffffffffffffff1673ffffffffffffffffffffffffffffffffffffffff1681526020019081526020015f205f81548092919061079090611647565b9190505550505b8273ffffffffffffffffffffffffffffffffffffffff163373ffffffffffffffffffffffffffffffffffffffff167fcd454e282b4d418a41dfe56736f2dfa8138efacf99eba3cbae1fc5c7bd643502846040516107f4919061169d565b60405180910390a3505050565b60605f5f8373ffffffffffffffffffffffffffffffffffffffff1673ffffffffffffffffffffffffffffffffffffffff1681526020019081526020015f20805480602002602001604051908101604052809291908181526020015f905b8282101561091b578382905f5260205f20016040518060400160405290815f82015f9054906101000a900473ffffffffffffffffffffffffffffffffffffffff1673ffffffffffffffffffffffffffffffffffffffff1673ffffffffffffffffffffffffffffffffffffffff1681526020015f820160149054906101000a90046bffffffffffffffffffffffff166bffffffffffffffffffffffff166bffffffffffffffffffffffff16815250508152602001906001019061085e565b505050509050919050565b5f5f60015f8573ffffffffffffffffffffffffffffffffffffffff1673ffffffffffffffffffffffffffffffffffffffff1681526020019081526020015f205f8473ffffffffffffffffffffffffffffffffffffffff1673ffffffffffffffffffffffffffffffffffffffff1681526020019081526020015f205490505f81036109b3575f915050610ab6565b6001816109c091906115b4565b90505f5f8573ffffffffffffffffffffffffffffffffffffffff1673ffffffffffffffffffffffffffffffffffffffff1681526020019081526020015f208054905081108015610ab257508273ffffffffffffffffffffffffffffffffffffffff165f5f8673ffffffffffffffffffffffffffffffffffffffff1673ffffffffffffffffffffffffffffffffffffffff1681526020019081526020015f208281548110610a7057610a6f6115e7565b5b905f5260205f20015f015f9054906101000a900473ffffffffffffffffffffffffffffffffffffffff1673ffffffffffffffffffffffffffffffffffffffff16145b9150505b92915050565b5f60015f8473ffffffffffffffffffffffffffffffffffffffff1673ffffffffffffffffffffffffffffffffffffffff1681526020019081526020015f205f8373ffffffffffffffffffffffffffffffffffffffff1673ffffffffffffffffffffffffffffffffffffffff1681526020019081526020015f205490505f8111610b7a576040517f08c379a0000000000000000000000000000000000000000000000000000000008152600401610b719061140a565b60405180910390fd5b600181610b8791906115b4565b90505f5f5f8573ffffffffffffffffffffffffffffffffffffffff1673ffffffffffffffffffffffffffffffffffffffff1681526020019081526020015f20905080805490508210610c0e576040517f08c379a0000000000000000000000000000000000000000000000000000000008152600401610c0590611700565b60405180910390fd5b5f8160018380549050610c2191906115b4565b81548110610c3257610c316115e7565b5b905f5260205f2001905080828481548110610c5057610c4f6115e7565b5b905f5260205f20015f82015f9054906101000a900473ffffffffffffffffffffffffffffffffffffffff16815f015f6101000a81548173ffffffffffffffffffffffffffffffffffffffff021916908373ffffffffffffffffffffffffffffffffffffffff1602179055505f820160149054906101000a90046bffffffffffffffffffffffff16815f0160146101000a8154816bffffffffffffffffffffffff02191690836bffffffffffffffffffffffff160217905550905050600183610d189190611614565b60015f8773ffffffffffffffffffffffffffffffffffffffff1673ffffffffffffffffffffffffffffffffffffffff1681526020019081526020015f205f835f015f9054906101000a900473ffffffffffffffffffffffffffffffffffffffff1673ffffffffffffffffffffffffffffffffffffffff1673ffffffffffffffffffffffffffffffffffffffff1681526020019081526020015f208190555081805480610dc757610dc661171e565b5b600190038181905f5260205f20015f5f82015f6101000a81549073ffffffffffffffffffffffffffffffffffffffff02191690555f820160146101000a8154906bffffffffffffffffffffffff02191690555050905560015f8673ffffffffffffffffffffffffffffffffffffffff1673ffffffffffffffffffffffffffffffffffffffff1681526020019081526020015f205f8573ffffffffffffffffffffffffffffffffffffffff1673ffffffffffffffffffffffffffffffffffffffff1681526020019081526020015f205f90555050505050565b5f5f60015f8573ffffffffffffffffffffffffffffffffffffffff1673ffffffffffffffffffffffffffffffffffffffff1681526020019081526020015f205f8473ffffffffffffffffffffffffffffffffffffffff1673ffffffffffffffffffffffffffffffffffffffff1681526020019081526020015f205490505f8103610f2c575f915050611085565b600181610f3991906115b4565b90505f5f5f8673ffffffffffffffffffffffffffffffffffffffff1673ffffffffffffffffffffffffffffffffffffffff1681526020019081526020015f20905080805490508210610f8f575f92505050611085565b5f818381548110610fa357610fa26115e7565b5b905f5260205f200190508473ffffffffffffffffffffffffffffffffffffffff16815f015f9054906101000a900473ffffffffffffffffffffffffffffffffffffffff1673ffffffffffffffffffffffffffffffffffffffff161461100d575f9350505050611085565b5f815f0160149054906101000a90046bffffffffffffffffffffffff166bffffffffffffffffffffffff1611801561106d5750805f0160149054906101000a90046bffffffffffffffffffffffff166bffffffffffffffffffffffff1642115b1561107d575f9350505050611085565b600193505050505b92915050565b5f5ffd5b5f73ffffffffffffffffffffffffffffffffffffffff82169050919050565b5f6110b88261108f565b9050919050565b6110c8816110ae565b81146110d2575f5ffd5b50565b5f813590506110e3816110bf565b92915050565b5f819050919050565b6110fb816110e9565b8114611105575f5ffd5b50565b5f81359050611116816110f2565b92915050565b5f5f604083850312156111325761113161108b565b5b5f61113f858286016110d5565b925050602061115085828601611108565b9150509250929050565b5f8115159050919050565b61116e8161115a565b82525050565b5f6020820190506111875f830184611165565b92915050565b5f602082840312156111a2576111a161108b565b5b5f6111af848285016110d5565b91505092915050565b6111c1816110e9565b82525050565b5f6020820190506111da5f8301846111b8565b92915050565b5f5f604083850312156111f6576111f561108b565b5b5f611203858286016110d5565b9250506020611214858286016110d5565b9150509250929050565b5f6bffffffffffffffffffffffff82169050919050565b61123e8161121e565b8114611248575f5ffd5b50565b5f8135905061125981611235565b92915050565b5f5f604083850312156112755761127461108b565b5b5f611282858286016110d5565b92505060206112938582860161124b565b9150509250929050565b5f81519050919050565b5f82825260208201905092915050565b5f819050602082019050919050565b6112cf816110ae565b82525050565b6112de8161121e565b82525050565b604082015f8201516112f85f8501826112c6565b50602082015161130b60208501826112d5565b50505050565b5f61131c83836112e4565b60408301905092915050565b5f602082019050919050565b5f61133e8261129d565b61134881856112a7565b9350611353836112b7565b805f5b8381101561138357815161136a8882611311565b975061137583611328565b925050600181019050611356565b5085935050505092915050565b5f6020820190508181035f8301526113a88184611334565b905092915050565b5f82825260208201905092915050565b7f4e6f74207472757374696e6720746869732061646472657373000000000000005f82015250565b5f6113f46019836113b0565b91506113ff826113c0565b602082019050919050565b5f6020820190508181035f830152611421816113e8565b9050919050565b7f4e487b71000000000000000000000000000000000000000000000000000000005f52601160045260245ffd5b5f61145f826110e9565b91505f820361147157611470611428565b5b600182039050919050565b7f43616e6e6f7420747275737420796f757273656c6600000000000000000000005f82015250565b5f6114b06015836113b0565b91506114bb8261147c565b602082019050919050565b5f6020820190508181035f8301526114dd816114a4565b9050919050565b7f43616e6e6f74207472757374207a65726f2061646472657373000000000000005f82015250565b5f6115186019836113b0565b9150611523826114e4565b602082019050919050565b5f6020820190508181035f8301526115458161150c565b9050919050565b7f496e76616c696420696e646578000000000000000000000000000000000000005f82015250565b5f611580600d836113b0565b915061158b8261154c565b602082019050919050565b5f6020820190508181035f8301526115ad81611574565b9050919050565b5f6115be826110e9565b91506115c9836110e9565b92508282039050818111156115e1576115e0611428565b5b92915050565b7f4e487b71000000000000000000000000000000000000000000000000000000005f52603260045260245ffd5b5f61161e826110e9565b9150611629836110e9565b925082820190508082111561164157611640611428565b5b92915050565b5f611651826110e9565b91507fffffffffffffffffffffffffffffffffffffffffffffffffffffffffffffffff820361168357611682611428565b5b600182019050919050565b6116978161121e565b82525050565b5f6020820190506116b05f83018461168e565b92915050565b7f496e76616c696420747275737420696e646578000000000000000000000000005f82015250565b5f6116ea6013836113b0565b91506116f5826116b6565b602082019050919050565b5f6020820190508181035f830152611717816116de565b9050919050565b7f4e487b71000000000000000000000000000000000000000000000000000000005f52603160045260245ffdfea2646970667358221220a9567d2ebc0dd960e1d591da6ad22b03f0a024cd58da22009313045c2603a01d64736f6c634300081c0033","linkReferences":{}},"methodIdentifiers":{"getTrustEdges(address)":"ab10ef9e","isTrusted(address,address)":"6713e230","meetsMinTrust(address,uint256)":"27822fcf","revokeTrust(address)":"3582c451","trust(address,uint96)":"75dcebc7","trustScore(address)":"534a8465"},"id":47}