{"abi":[{"type":"constructor","inputs":[{"name":"_circleId","type":"uint256","internalType":"uint256"},{"name":"_agent","type":"address","internalType":"address"},{"name":"_trustContract","type":"address","internalType":"address"},{"name":"_yieldVault","type":"address","internalType":"address"},{"name":"_minTrustScore","type":"uint256","internalType":"uint256"},{"name":"_roundDuration","type":"uint256","internalType":"uint256"}],"stateMutability":"nonpayable"},{"type":"function","name":"agent","inputs":[],"outputs":[{"name":"","type":"address","internalType":"address"}],"stateMutability":"view"},{"type":"function","name":"circleId","inputs":[],"outputs":[{"name":"","type":"uint256","internalType":"uint256"}],"stateMutability":"view"},{"type":"function","name":"claimRotation","inputs":[],"outputs":[],"stateMutability":"nonpayable"},{"type":"function","name":"contribute","inputs":[],"outputs":[],"stateMutability":"nonpayable"},{"type":"function","name":"contributionAmount","inputs":[],"outputs":[{"name":"","type":"uint256","internalType":"uint256"}],"stateMutability":"view"},{"type":"function","name":"currentRound","inputs":[],"outputs":[{"name":"","type":"uint256","internalType":"uint256"}],"stateMutability":"view"},{"type":"function","name":"dissolve","inputs":[],"outputs":[],"stateMutability":"nonpayable"},{"type":"function","name":"getMemberCount","inputs":[],"outputs":[{"name":"","type":"uint256","internalType":"uint256"}],"stateMutability":"view"},{"type":"function","name":"getMembers","inputs":[],"outputs":[{"name":"","type":"address[]","internalType":"address[]"}],"stateMutability":"view"},{"type":"function","name":"getState","inputs":[],"outputs":[{"name":"","type":"uint8","internalType":"enum SaveCircle.CircleState"}],"stateMutability":"view"},{"type":"function","name":"harvestYield","inputs":[],"outputs":[],"stateMutability":"nonpayable"},{"type":"function","name":"hasClaimedThisRound","inputs":[{"name":"","type":"address","internalType":"address"}],"outputs":[{"name":"","type":"bool","internalType":"bool"}],"stateMutability":"view"},{"type":"function","name":"initialize","inputs":[{"name":"_tokenAddress","type":"address","internalType":"address"},{"name":"_contributionAmount","type":"uint256","internalType":"uint256"}],"outputs":[],"stateMutability":"nonpayable"},{"type":"function","name":"isMember","inputs":[{"name":"","type":"address","internalType":"address"}],"outputs":[{"name":"","type":"bool","internalType":"bool"}],"stateMutability":"view"},{"type":"function","name":"join","inputs":[{"name":"intentId","type":"uint256","internalType":"uint256"}],"outputs":[],"stateMutability":"nonpayable"},{"type":"function","name":"memberIndex","inputs":[{"name":"","type":"address","internalType":"address"}],"outputs":[{"name":"","type":"uint256","internalType":"uint256"}],"stateMutability":"view"},{"type":"function","name":"members","inputs":[{"name":"","type":"uint256","internalType":"uint256"}],"outputs":[{"name":"","type":"address","internalType":"address"}],"stateMutability":"view"},{"type":"function","name":"minTrustScore","inputs":[],"outputs":[{"name":"","type":"uint256","internalType":"uint256"}],"stateMutability":"view"},{"type":"function","name":"penalize","inputs":[{"name":"member","type":"address","internalType":"address"}],"outputs":[],"stateMutability":"nonpayable"},{"type":"function","name":"penaltyCount","inputs":[{"name":"","type":"address","internalType":"address"}],"outputs":[{"name":"","type":"uint256","internalType":"uint256"}],"stateMutability":"view"},{"type":"function","name":"rotationIndex","inputs":[],"outputs":[{"name":"","type":"uint256","internalType":"uint256"}],"stateMutability":"view"},{"type":"function","name":"roundDuration","inputs":[],"outputs":[{"name":"","type":"uint256","internalType":"uint256"}],"stateMutability":"view"},{"type":"function","name":"roundStartTime","inputs":[],"outputs":[{"name":"","type":"uint256","internalType":"uint256"}],"stateMutability":"view"},{"type":"function","name":"startCircle","inputs":[],"outputs":[],"stateMutability":"nonpayable"},{"type":"function","name":"state","inputs":[],"outputs":[{"name":"","type":"uint8","internalType":"enum SaveCircle.CircleState"}],"stateMutability":"view"},{"type":"function","name":"sweepToYield","inputs":[{"name":"amount","type":"uint256","internalType":"uint256"}],"outputs":[],"stateMutability":"nonpayable"},{"type":"function","name":"tokenAddress","inputs":[],"outputs":[{"name":"","type":"address","internalType":"address"}],"stateMutability":"view"},{"type":"function","name":"totalContributed","inputs":[{"name":"","type":"address","internalType":"address"}],"outputs":[{"name":"","type":"uint256","internalType":"uint256"}],"stateMutability":"view"},{"type":"function","name":"totalYieldGenerated","inputs":[],"outputs":[{"name":"","type":"uint256","internalType":"uint256"}],"stateMutability":"view"},{"type":"function","name":"trustContract","inputs":[],"outputs":[{"name":"","type":"address","internalType":"address"}],"stateMutability":"view"},{"type":"function","name":"yieldVault","inputs":[],"outputs":[{"name":"","type":"address","internalType":"address"}],"stateMutability":"view"},{"type":"event","name":"CircleCompleted","inputs":[],"anonymous":false},{"type":"event","name":"CircleDissolved","inputs":[],"anonymous":false},{"type":"event","name":"CircleFormed","inputs":[{"name":"circleId","type":"uint256","indexed":true,"internalType":"uint256"}],"anonymous":false},{"type":"event","name":"ContributionMade","inputs":[{"name":"member","type":"address","indexed":true,"internalType":"address"},{"name":"amount","type":"uint256","indexed":false,"internalType":"uint256"}],"anonymous":false},{"type":"event","name":"MemberJoined","inputs":[{"name":"member","type":"address","indexed":true,"internalType":"address"}],"anonymous":false},{"type":"event","name":"MemberPenalized","inputs":[{"name":"member","type":"address","indexed":true,"internalType":"address"},{"name":"penalty","type":"uint256","indexed":false,"internalType":"uint256"}],"anonymous":false},{"type":"event","name":"RotationClaimed","inputs":[{"name":"member","type":"address","indexed":true,"internalType":"address"},{"name":"amount","type":"uint256","indexed":false,"internalType":"uint256"}],"anonymous":false},{"type":"event","name":"YieldHarvested","inputs":[{"name":"amount","type":"uint256","indexed":false,"internalType":"uint256"}],"anonymous":false},{"type":"event","name":"YieldSwept","inputs":[{"name":"amount","type":"uint256","indexed":false,"internalType":"uint256"}],"anonymous":false},{"type":"error","name":"ReentrancyGuardReentrantCall","inputs":[]},{"type":"error","name":"SafeERC20FailedOperation","inputs":[{"name":"token","type":"address","internalType":"address"}]}],"bytecode":{"object":"0x608060405234801561000f575f5ffd5b506040516137eb3803806137eb8339818101604052810190610031919061022e565b600161004f61004461016b60201b60201c565b61019460201b60201c565b5f0181905550855f819055508460015f6101000a81548173ffffffffffffffffffffffffffffffffffffffff021916908373ffffffffffffffffffffffffffffffffffffffff1602179055508360025f6101000a81548173ffffffffffffffffffffffffffffffffffffffff021916908373ffffffffffffffffffffffffffffffffffffffff1602179055508260035f6101000a81548173ffffffffffffffffffffffffffffffffffffffff021916908373ffffffffffffffffffffffffffffffffffffffff16021790555081600581905550806006819055505f60085f6101000a81548160ff0219169083600381111561014d5761014c6102b7565b5b02179055505f600a819055505f600b819055505050505050506102e4565b5f7f9b779b17422d0df92223018b32b4d1fa46e071723d6817e2486d003becc55f005f1b905090565b5f819050919050565b5f5ffd5b5f819050919050565b6101b3816101a1565b81146101bd575f5ffd5b50565b5f815190506101ce816101aa565b92915050565b5f73ffffffffffffffffffffffffffffffffffffffff82169050919050565b5f6101fd826101d4565b9050919050565b61020d816101f3565b8114610217575f5ffd5b50565b5f8151905061022881610204565b92915050565b5f5f5f5f5f5f60c087890312156102485761024761019d565b5b5f61025589828a016101c0565b965050602061026689828a0161021a565b955050604061027789828a0161021a565b945050606061028889828a0161021a565b935050608061029989828a016101c0565b92505060a06102aa89828a016101c0565b9150509295509295509295565b7f4e487b71000000000000000000000000000000000000000000000000000000005f52602160045260245ffd5b6134fa806102f15f395ff3fe608060405234801561000f575f5ffd5b50600436106101e3575f3560e01c80639d76ea581161010d578063c43cfb7b116100a0578063e8d991d11161006f578063e8d991d114610539578063e99daac914610543578063f5ff5c761461054d578063f7cb789a1461056b576101e3565b8063c43cfb7b146104c5578063cd6dc687146104f5578063d7bb99ba14610511578063dd4f8f741461051b576101e3565b8063a7f8a5e2116100dc578063a7f8a5e21461043b578063a9330b0e14610459578063c19d93fb14610489578063c30db746146104a7576101e3565b80639d76ea581461039f5780639eab5253146103bd578063a0f243b8146103db578063a230c5241461040b576101e3565b80635daf08ca116101855780638a19c8bc116101545780638a19c8bc146103275780638c8250561461034557806395a853d414610363578063997072f714610381576101e3565b80635daf08ca1461029f5780635fa0b65f146102cf57806378d97c94146102ed578063859d448c14610309576101e3565b80631865c57d116101c15780631865c57d1461022957806337d287f7146102475780633bef8a3a146102655780633dd352791461026f576101e3565b8063049878f3146101e757806309e8bfa714610203578063125de6771461021f575b5f5ffd5b61020160048036038101906101fc9190612874565b610589565b005b61021d60048036038101906102189190612874565b610904565b005b610227610c7f565b005b61023161103a565b60405161023e9190612912565b60405180910390f35b61024f61104f565b60405161025c919061293a565b60405180910390f35b61026d611055565b005b610289600480360381019061028491906129ad565b611320565b604051610296919061293a565b60405180910390f35b6102b960048036038101906102b49190612874565b611335565b6040516102c691906129e7565b60405180910390f35b6102d7611370565b6040516102e4919061293a565b60405180910390f35b610307600480360381019061030291906129ad565b611376565b005b610311611709565b60405161031e919061293a565b60405180910390f35b61032f61170f565b60405161033c919061293a565b60405180910390f35b61034d611715565b60405161035a919061293a565b60405180910390f35b61036b61171b565b60405161037891906129e7565b60405180910390f35b610389611740565b604051610396919061293a565b60405180910390f35b6103a761174c565b6040516103b491906129e7565b60405180910390f35b6103c5611771565b6040516103d29190612ab7565b60405180910390f35b6103f560048036038101906103f091906129ad565b6117fc565b604051610402919061293a565b60405180910390f35b610425600480360381019061042091906129ad565b611811565b6040516104329190612af1565b60405180910390f35b61044361182e565b60405161045091906129e7565b60405180910390f35b610473600480360381019061046e91906129ad565b611853565b604051610480919061293a565b60405180910390f35b610491611868565b60405161049e9190612912565b60405180910390f35b6104af61187a565b6040516104bc919061293a565b60405180910390f35b6104df60048036038101906104da91906129ad565b61187f565b6040516104ec9190612af1565b60405180910390f35b61050f600480360381019061050a9190612b0a565b61189c565b005b610519611a9c565b005b610523611d87565b604051610530919061293a565b60405180910390f35b610541611d8d565b005b61054b612215565b005b6105556123ca565b60405161056291906129e7565b60405180910390f35b6105736123ef565b604051610580919061293a565b60405180910390f35b5f80600381111561059d5761059c61289f565b5b60085f9054906101000a900460ff1660038111156105be576105bd61289f565b5b146105fe576040517f08c379a00000000000000000000000000000000000000000000000000000000081526004016105f590612ba2565b60405180910390fd5b6106066123f5565b600d5f3373ffffffffffffffffffffffffffffffffffffffff1673ffffffffffffffffffffffffffffffffffffffff1681526020019081526020015f205f9054906101000a900460ff1615610690576040517f08c379a000000000000000000000000000000000000000000000000000000000815260040161068790612c0a565b60405180910390fd5b6032600c80549050106106d8576040517f08c379a00000000000000000000000000000000000000000000000000000000081526004016106cf90612c72565b60405180910390fd5b5f60025f9054906101000a900473ffffffffffffffffffffffffffffffffffffffff1690508073ffffffffffffffffffffffffffffffffffffffff166327822fcf336005546040518363ffffffff1660e01b815260040161073a929190612c90565b602060405180830381865afa158015610755573d5f5f3e3d5ffd5b505050506040513d601f19601f820116820180604052508101906107799190612ce1565b6107b8576040517f08c379a00000000000000000000000000000000000000000000000000000000081526004016107af90612d56565b60405180910390fd5b600c80549050600e5f3373ffffffffffffffffffffffffffffffffffffffff1673ffffffffffffffffffffffffffffffffffffffff1681526020019081526020015f2081905550600c33908060018154018082558091505060019003905f5260205f20015f9091909190916101000a81548173ffffffffffffffffffffffffffffffffffffffff021916908373ffffffffffffffffffffffffffffffffffffffff1602179055506001600d5f3373ffffffffffffffffffffffffffffffffffffffff1673ffffffffffffffffffffffffffffffffffffffff1681526020019081526020015f205f6101000a81548160ff0219169083151502179055503373ffffffffffffffffffffffffffffffffffffffff167f0abf3b3f643594d958297062a019458e27d7766629590ac621aa1000fa1298ab60405160405180910390a250610900612417565b5050565b60015f9054906101000a900473ffffffffffffffffffffffffffffffffffffffff1673ffffffffffffffffffffffffffffffffffffffff163373ffffffffffffffffffffffffffffffffffffffff1614610993576040517f08c379a000000000000000000000000000000000000000000000000000000000815260040161098a90612dbe565b60405180910390fd5b60018060038111156109a8576109a761289f565b5b60085f9054906101000a900460ff1660038111156109c9576109c861289f565b5b14610a09576040517f08c379a0000000000000000000000000000000000000000000000000000000008152600401610a0090612ba2565b60405180910390fd5b610a116123f5565b5f60045f9054906101000a900473ffffffffffffffffffffffffffffffffffffffff169050828173ffffffffffffffffffffffffffffffffffffffff166370a08231306040518263ffffffff1660e01b8152600401610a7091906129e7565b602060405180830381865afa158015610a8b573d5f5f3e3d5ffd5b505050506040513d601f19601f82011682018060405250810190610aaf9190612df0565b1015610af0576040517f08c379a0000000000000000000000000000000000000000000000000000000008152600401610ae790612e65565b60405180910390fd5b8073ffffffffffffffffffffffffffffffffffffffff1663095ea7b360035f9054906101000a900473ffffffffffffffffffffffffffffffffffffffff16856040518363ffffffff1660e01b8152600401610b4c929190612c90565b6020604051808303815f875af1158015610b68573d5f5f3e3d5ffd5b505050506040513d601f19601f82011682018060405250810190610b8c9190612ce1565b5060035f9054906101000a900473ffffffffffffffffffffffffffffffffffffffff1673ffffffffffffffffffffffffffffffffffffffff1663e8eda9df60045f9054906101000a900473ffffffffffffffffffffffffffffffffffffffff1685305f6040518563ffffffff1660e01b8152600401610c0e9493929190612ed2565b5f604051808303815f87803b158015610c25575f5ffd5b505af1158015610c37573d5f5f3e3d5ffd5b505050507f30913accb920534a9bbf66fa5d30be5b69e38f91e4167d42c02d132c17dcd3a783604051610c6a919061293a565b60405180910390a150610c7b612417565b5050565b600d5f3373ffffffffffffffffffffffffffffffffffffffff1673ffffffffffffffffffffffffffffffffffffffff1681526020019081526020015f205f9054906101000a900460ff16610d08576040517f08c379a0000000000000000000000000000000000000000000000000000000008152600401610cff90612f5f565b60405180910390fd5b6001806003811115610d1d57610d1c61289f565b5b60085f9054906101000a900460ff166003811115610d3e57610d3d61289f565b5b14610d7e576040517f08c379a0000000000000000000000000000000000000000000000000000000008152600401610d7590612ba2565b60405180910390fd5b610d866123f5565b600a54600e5f3373ffffffffffffffffffffffffffffffffffffffff1673ffffffffffffffffffffffffffffffffffffffff1681526020019081526020015f205414610e07576040517f08c379a0000000000000000000000000000000000000000000000000000000008152600401610dfe90612fc7565b60405180910390fd5b5f600c80549050600754610e1b9190613012565b90505f5f60125411610e2d575f610e41565b600c80549050601254610e409190613080565b5b90505f8183610e5091906130b0565b90505f60045f9054906101000a900473ffffffffffffffffffffffffffffffffffffffff1690505f8173ffffffffffffffffffffffffffffffffffffffff166370a08231306040518263ffffffff1660e01b8152600401610eb191906129e7565b602060405180830381865afa158015610ecc573d5f5f3e3d5ffd5b505050506040513d601f19601f82011682018060405250810190610ef09190612df0565b905082811015610f35576040517f08c379a0000000000000000000000000000000000000000000000000000000008152600401610f2c9061312d565b60405180910390fd5b610f6033848473ffffffffffffffffffffffffffffffffffffffff166124319092919063ffffffff16565b3373ffffffffffffffffffffffffffffffffffffffff167f9aef81cc79530644ebe2e7de375cfc443eef0e1cb3d1122dd29b657358f04ee584604051610fa6919061293a565b60405180910390a2600a5f815480929190610fc09061314b565b9190505550600c80549050600a541061102a57600260085f6101000a81548160ff02191690836003811115610ff857610ff761289f565b5b02179055507fdf90819e1122eef4a1d19215dfe6aa85aa2f8a1c60e53ae52143e1fd6c5f3bee60405160405180910390a15b5050505050611037612417565b50565b5f60085f9054906101000a900460ff16905090565b600a5481565b60015f9054906101000a900473ffffffffffffffffffffffffffffffffffffffff1673ffffffffffffffffffffffffffffffffffffffff163373ffffffffffffffffffffffffffffffffffffffff16146110e4576040517f08c379a00000000000000000000000000000000000000000000000000000000081526004016110db90612dbe565b60405180910390fd5b6110ec6123f5565b60026003811115611100576110ff61289f565b5b60085f9054906101000a900460ff1660038111156111215761112061289f565b5b03611161576040517f08c379a0000000000000000000000000000000000000000000000000000000008152600401611158906131dc565b60405180910390fd5b5f60045f9054906101000a900473ffffffffffffffffffffffffffffffffffffffff1690505f8173ffffffffffffffffffffffffffffffffffffffff166370a08231306040518263ffffffff1660e01b81526004016111c091906129e7565b602060405180830381865afa1580156111db573d5f5f3e3d5ffd5b505050506040513d601f19601f820116820180604052508101906111ff9190612df0565b90505f8111801561121457505f600c80549050115b156112be575f600c805490508261122b9190613080565b90505f5f90505b600c805490508110156112bb575f8211156112ae576112ad600c828154811061125e5761125d6131fa565b5b905f5260205f20015f9054906101000a900473ffffffffffffffffffffffffffffffffffffffff16838673ffffffffffffffffffffffffffffffffffffffff166124319092919063ffffffff16565b5b8080600101915050611232565b50505b600360085f6101000a81548160ff021916908360038111156112e3576112e261289f565b5b02179055507fdedf6c81900dcd7d3df33e4392e5a0f9f5dbbd3c424bd45d6f5148d960e3827360405160405180910390a1505061131e612417565b565b600e602052805f5260405f205f915090505481565b600c8181548110611344575f80fd5b905f5260205f20015f915054906101000a900473ffffffffffffffffffffffffffffffffffffffff1681565b60075481565b60015f9054906101000a900473ffffffffffffffffffffffffffffffffffffffff1673ffffffffffffffffffffffffffffffffffffffff163373ffffffffffffffffffffffffffffffffffffffff1614611405576040517f08c379a00000000000000000000000000000000000000000000000000000000081526004016113fc90612dbe565b60405180910390fd5b600180600381111561141a5761141961289f565b5b60085f9054906101000a900460ff16600381111561143b5761143a61289f565b5b1461147b576040517f08c379a000000000000000000000000000000000000000000000000000000000815260040161147290612ba2565b60405180910390fd5b600d5f8373ffffffffffffffffffffffffffffffffffffffff1673ffffffffffffffffffffffffffffffffffffffff1681526020019081526020015f205f9054906101000a900460ff16611504576040517f08c379a00000000000000000000000000000000000000000000000000000000081526004016114fb90612f5f565b60405180910390fd5b5f6064600a6007546115169190613012565b6115209190613080565b905060115f8473ffffffffffffffffffffffffffffffffffffffff1673ffffffffffffffffffffffffffffffffffffffff1681526020019081526020015f205f81548092919061156f9061314b565b91905055505f60045f9054906101000a900473ffffffffffffffffffffffffffffffffffffffff169050818173ffffffffffffffffffffffffffffffffffffffff166370a08231866040518263ffffffff1660e01b81526004016115d391906129e7565b602060405180830381865afa1580156115ee573d5f5f3e3d5ffd5b505050506040513d601f19601f820116820180604052508101906116129190612df0565b10611666576116658460015f9054906101000a900473ffffffffffffffffffffffffffffffffffffffff16848473ffffffffffffffffffffffffffffffffffffffff16612484909392919063ffffffff16565b5b8373ffffffffffffffffffffffffffffffffffffffff167ff40ef45a88500961e4ca8bb34c3545f8b26de69ea8af680f186cbaf39d721527836040516116ac919061293a565b60405180910390a2600360115f8673ffffffffffffffffffffffffffffffffffffffff1673ffffffffffffffffffffffffffffffffffffffff1681526020019081526020015f20541061170357611702846124d9565b5b50505050565b60055481565b600b5481565b60125481565b60025f9054906101000a900473ffffffffffffffffffffffffffffffffffffffff1681565b5f600c80549050905090565b60045f9054906101000a900473ffffffffffffffffffffffffffffffffffffffff1681565b6060600c8054806020026020016040519081016040528092919081815260200182805480156117f257602002820191905f5260205f20905b815f9054906101000a900473ffffffffffffffffffffffffffffffffffffffff1673ffffffffffffffffffffffffffffffffffffffff16815260200190600101908083116117a9575b5050505050905090565b600f602052805f5260405f205f915090505481565b600d602052805f5260405f205f915054906101000a900460ff1681565b60035f9054906101000a900473ffffffffffffffffffffffffffffffffffffffff1681565b6011602052805f5260405f205f915090505481565b60085f9054906101000a900460ff1681565b5f5481565b6010602052805f5260405f205f915054906101000a900460ff1681565b60015f9054906101000a900473ffffffffffffffffffffffffffffffffffffffff1673ffffffffffffffffffffffffffffffffffffffff163373ffffffffffffffffffffffffffffffffffffffff161461192b576040517f08c379a000000000000000000000000000000000000000000000000000000000815260040161192290612dbe565b60405180910390fd5b5f80600381111561193f5761193e61289f565b5b60085f9054906101000a900460ff1660038111156119605761195f61289f565b5b146119a0576040517f08c379a000000000000000000000000000000000000000000000000000000000815260040161199790612ba2565b60405180910390fd5b5f73ffffffffffffffffffffffffffffffffffffffff168373ffffffffffffffffffffffffffffffffffffffff1603611a0e576040517f08c379a0000000000000000000000000000000000000000000000000000000008152600401611a0590613271565b60405180910390fd5b5f8211611a50576040517f08c379a0000000000000000000000000000000000000000000000000000000008152600401611a47906132d9565b60405180910390fd5b8260045f6101000a81548173ffffffffffffffffffffffffffffffffffffffff021916908373ffffffffffffffffffffffffffffffffffffffff16021790555081600781905550505050565b600d5f3373ffffffffffffffffffffffffffffffffffffffff1673ffffffffffffffffffffffffffffffffffffffff1681526020019081526020015f205f9054906101000a900460ff16611b25576040517f08c379a0000000000000000000000000000000000000000000000000000000008152600401611b1c90612f5f565b60405180910390fd5b6001806003811115611b3a57611b3961289f565b5b60085f9054906101000a900460ff166003811115611b5b57611b5a61289f565b5b14611b9b576040517f08c379a0000000000000000000000000000000000000000000000000000000008152600401611b9290612ba2565b60405180910390fd5b611ba36123f5565b60105f3373ffffffffffffffffffffffffffffffffffffffff1673ffffffffffffffffffffffffffffffffffffffff1681526020019081526020015f205f9054906101000a900460ff1615611c2d576040517f08c379a0000000000000000000000000000000000000000000000000000000008152600401611c2490613341565b60405180910390fd5b5f60045f9054906101000a900473ffffffffffffffffffffffffffffffffffffffff169050611c8133306007548473ffffffffffffffffffffffffffffffffffffffff16612484909392919063ffffffff16565b600754600f5f3373ffffffffffffffffffffffffffffffffffffffff1673ffffffffffffffffffffffffffffffffffffffff1681526020019081526020015f205f828254611ccf91906130b0565b92505081905550600160105f3373ffffffffffffffffffffffffffffffffffffffff1673ffffffffffffffffffffffffffffffffffffffff1681526020019081526020015f205f6101000a81548160ff0219169083151502179055503373ffffffffffffffffffffffffffffffffffffffff167f6770260ea820d2f539364e7617e021543aaf6d192f2fd2a47c20db6bd99a4eb9600754604051611d73919061293a565b60405180910390a250611d84612417565b50565b60095481565b60015f9054906101000a900473ffffffffffffffffffffffffffffffffffffffff1673ffffffffffffffffffffffffffffffffffffffff163373ffffffffffffffffffffffffffffffffffffffff1614611e1c576040517f08c379a0000000000000000000000000000000000000000000000000000000008152600401611e1390612dbe565b60405180910390fd5b6001806003811115611e3157611e3061289f565b5b60085f9054906101000a900460ff166003811115611e5257611e5161289f565b5b14611e92576040517f08c379a0000000000000000000000000000000000000000000000000000000008152600401611e8990612ba2565b60405180910390fd5b611e9a6123f5565b5f60035f9054906101000a900473ffffffffffffffffffffffffffffffffffffffff1690505f8173ffffffffffffffffffffffffffffffffffffffff1663d15e005360045f9054906101000a900473ffffffffffffffffffffffffffffffffffffffff166040518263ffffffff1660e01b8152600401611f1a91906129e7565b602060405180830381865afa158015611f35573d5f5f3e3d5ffd5b505050506040513d601f19601f82011682018060405250810190611f599190612df0565b90505f8111611f9d576040517f08c379a0000000000000000000000000000000000000000000000000000000008152600401611f94906133a9565b60405180910390fd5b5f60035f9054906101000a900473ffffffffffffffffffffffffffffffffffffffff1690505f8173ffffffffffffffffffffffffffffffffffffffff166370a08231306040518263ffffffff1660e01b8152600401611ffc91906129e7565b602060405180830381865afa158015612017573d5f5f3e3d5ffd5b505050506040513d601f19601f8201168201806040525081019061203b9190612df0565b90505f811115612206578373ffffffffffffffffffffffffffffffffffffffff166369328dec60045f9054906101000a900473ffffffffffffffffffffffffffffffffffffffff1683306040518463ffffffff1660e01b81526004016120a3939291906133c7565b6020604051808303815f875af11580156120bf573d5f5f3e3d5ffd5b505050506040513d601f19601f820116820180604052508101906120e39190612df0565b505f60045f9054906101000a900473ffffffffffffffffffffffffffffffffffffffff1690505f8173ffffffffffffffffffffffffffffffffffffffff166370a08231306040518263ffffffff1660e01b815260040161214391906129e7565b602060405180830381865afa15801561215e573d5f5f3e3d5ffd5b505050506040513d601f19601f820116820180604052508101906121829190612df0565b90505f600c805490506007546121989190613012565b905080821115612202575f81836121af91906133fc565b90508060125f8282546121c291906130b0565b925050819055507feb2d114a827fe0da3db4c0e374010959cf461f7ed76987aeff51666dea9add9b816040516121f8919061293a565b60405180910390a1505b5050505b50505050612212612417565b50565b60015f9054906101000a900473ffffffffffffffffffffffffffffffffffffffff1673ffffffffffffffffffffffffffffffffffffffff163373ffffffffffffffffffffffffffffffffffffffff16146122a4576040517f08c379a000000000000000000000000000000000000000000000000000000000815260040161229b90612dbe565b60405180910390fd5b5f8060038111156122b8576122b761289f565b5b60085f9054906101000a900460ff1660038111156122d9576122d861289f565b5b14612319576040517f08c379a000000000000000000000000000000000000000000000000000000000815260040161231090612ba2565b60405180910390fd5b5f600c8054905011612360576040517f08c379a000000000000000000000000000000000000000000000000000000000815260040161235790613479565b60405180910390fd5b600160085f6101000a81548160ff021916908360038111156123855761238461289f565b5b0217905550426009819055506001600b819055505f547f99a57c67df4f41b63e799c8f7427b6f3e4e4fbea70a2fde7dfdecbce4b62c98560405160405180910390a250565b60015f9054906101000a900473ffffffffffffffffffffffffffffffffffffffff1681565b60065481565b6123fd6126db565b600261240f61240a61271c565b612745565b5f0181905550565b600161242961242461271c565b612745565b5f0181905550565b61243e838383600161274e565b61247f57826040517f5274afe700000000000000000000000000000000000000000000000000000000815260040161247691906129e7565b60405180910390fd5b505050565b6124928484848460016127b0565b6124d357836040517f5274afe70000000000000000000000000000000000000000000000000000000081526004016124ca91906129e7565b60405180910390fd5b50505050565b5f600e5f8373ffffffffffffffffffffffffffffffffffffffff1673ffffffffffffffffffffffffffffffffffffffff1681526020019081526020015f205490505f600c6001600c8054905061252f91906133fc565b815481106125405761253f6131fa565b5b905f5260205f20015f9054906101000a900473ffffffffffffffffffffffffffffffffffffffff16905080600c838154811061257f5761257e6131fa565b5b905f5260205f20015f6101000a81548173ffffffffffffffffffffffffffffffffffffffff021916908373ffffffffffffffffffffffffffffffffffffffff16021790555081600e5f8373ffffffffffffffffffffffffffffffffffffffff1673ffffffffffffffffffffffffffffffffffffffff1681526020019081526020015f2081905550600c80548061261857612617613497565b5b600190038181905f5260205f20015f6101000a81549073ffffffffffffffffffffffffffffffffffffffff02191690559055600d5f8473ffffffffffffffffffffffffffffffffffffffff1673ffffffffffffffffffffffffffffffffffffffff1681526020019081526020015f205f6101000a81549060ff0219169055600e5f8473ffffffffffffffffffffffffffffffffffffffff1673ffffffffffffffffffffffffffffffffffffffff1681526020019081526020015f205f9055505050565b6126e3612821565b1561271a576040517f3ee5aeb500000000000000000000000000000000000000000000000000000000815260040160405180910390fd5b565b5f7f9b779b17422d0df92223018b32b4d1fa46e071723d6817e2486d003becc55f005f1b905090565b5f819050919050565b5f5f63a9059cbb60e01b9050604051815f525f1960601c86166004528460245260205f60445f5f8b5af1925060015f511483166127a2578383151615612796573d5f823e3d81fd5b5f873b113d1516831692505b806040525050949350505050565b5f5f6323b872dd60e01b9050604051815f525f1960601c87166004525f1960601c86166024528460445260205f60645f5f8c5af1925060015f5114831661280e578383151615612802573d5f823e3d81fd5b5f883b113d1516831692505b806040525f606052505095945050505050565b5f600261283461282f61271c565b612745565b5f015414905090565b5f5ffd5b5f819050919050565b61285381612841565b811461285d575f5ffd5b50565b5f8135905061286e8161284a565b92915050565b5f602082840312156128895761288861283d565b5b5f61289684828501612860565b91505092915050565b7f4e487b71000000000000000000000000000000000000000000000000000000005f52602160045260245ffd5b600481106128dd576128dc61289f565b5b50565b5f8190506128ed826128cc565b919050565b5f6128fc826128e0565b9050919050565b61290c816128f2565b82525050565b5f6020820190506129255f830184612903565b92915050565b61293481612841565b82525050565b5f60208201905061294d5f83018461292b565b92915050565b5f73ffffffffffffffffffffffffffffffffffffffff82169050919050565b5f61297c82612953565b9050919050565b61298c81612972565b8114612996575f5ffd5b50565b5f813590506129a781612983565b92915050565b5f602082840312156129c2576129c161283d565b5b5f6129cf84828501612999565b91505092915050565b6129e181612972565b82525050565b5f6020820190506129fa5f8301846129d8565b92915050565b5f81519050919050565b5f82825260208201905092915050565b5f819050602082019050919050565b612a3281612972565b82525050565b5f612a438383612a29565b60208301905092915050565b5f602082019050919050565b5f612a6582612a00565b612a6f8185612a0a565b9350612a7a83612a1a565b805f5b83811015612aaa578151612a918882612a38565b9750612a9c83612a4f565b925050600181019050612a7d565b5085935050505092915050565b5f6020820190508181035f830152612acf8184612a5b565b905092915050565b5f8115159050919050565b612aeb81612ad7565b82525050565b5f602082019050612b045f830184612ae2565b92915050565b5f5f60408385031215612b2057612b1f61283d565b5b5f612b2d85828601612999565b9250506020612b3e85828601612860565b9150509250929050565b5f82825260208201905092915050565b7f496e76616c696420636972636c652073746174650000000000000000000000005f82015250565b5f612b8c601483612b48565b9150612b9782612b58565b602082019050919050565b5f6020820190508181035f830152612bb981612b80565b9050919050565b7f416c72656164792061206d656d626572000000000000000000000000000000005f82015250565b5f612bf4601083612b48565b9150612bff82612bc0565b602082019050919050565b5f6020820190508181035f830152612c2181612be8565b9050919050565b7f436972636c652069732066756c6c0000000000000000000000000000000000005f82015250565b5f612c5c600e83612b48565b9150612c6782612c28565b602082019050919050565b5f6020820190508181035f830152612c8981612c50565b9050919050565b5f604082019050612ca35f8301856129d8565b612cb0602083018461292b565b9392505050565b612cc081612ad7565b8114612cca575f5ffd5b50565b5f81519050612cdb81612cb7565b92915050565b5f60208284031215612cf657612cf561283d565b5b5f612d0384828501612ccd565b91505092915050565b7f496e73756666696369656e742074727573742073636f726500000000000000005f82015250565b5f612d40601883612b48565b9150612d4b82612d0c565b602082019050919050565b5f6020820190508181035f830152612d6d81612d34565b9050919050565b7f4f6e6c79206167656e742063616e2063616c6c207468697300000000000000005f82015250565b5f612da8601883612b48565b9150612db382612d74565b602082019050919050565b5f6020820190508181035f830152612dd581612d9c565b9050919050565b5f81519050612dea8161284a565b92915050565b5f60208284031215612e0557612e0461283d565b5b5f612e1284828501612ddc565b91505092915050565b7f496e73756666696369656e742062616c616e63650000000000000000000000005f82015250565b5f612e4f601483612b48565b9150612e5a82612e1b565b602082019050919050565b5f6020820190508181035f830152612e7c81612e43565b9050919050565b5f819050919050565b5f61ffff82169050919050565b5f819050919050565b5f612ebc612eb7612eb284612e83565b612e99565b612e8c565b9050919050565b612ecc81612ea2565b82525050565b5f608082019050612ee55f8301876129d8565b612ef2602083018661292b565b612eff60408301856129d8565b612f0c6060830184612ec3565b95945050505050565b7f4e6f742061206d656d62657200000000000000000000000000000000000000005f82015250565b5f612f49600c83612b48565b9150612f5482612f15565b602082019050919050565b5f6020820190508181035f830152612f7681612f3d565b9050919050565b7f4e6f7420796f7572207475726e000000000000000000000000000000000000005f82015250565b5f612fb1600d83612b48565b9150612fbc82612f7d565b602082019050919050565b5f6020820190508181035f830152612fde81612fa5565b9050919050565b7f4e487b71000000000000000000000000000000000000000000000000000000005f52601160045260245ffd5b5f61301c82612841565b915061302783612841565b925082820261303581612841565b9150828204841483151761304c5761304b612fe5565b5b5092915050565b7f4e487b71000000000000000000000000000000000000000000000000000000005f52601260045260245ffd5b5f61308a82612841565b915061309583612841565b9250826130a5576130a4613053565b5b828204905092915050565b5f6130ba82612841565b91506130c583612841565b92508282019050808211156130dd576130dc612fe5565b5b92915050565b7f496e73756666696369656e742066756e647300000000000000000000000000005f82015250565b5f613117601283612b48565b9150613122826130e3565b602082019050919050565b5f6020820190508181035f8301526131448161310b565b9050919050565b5f61315582612841565b91507fffffffffffffffffffffffffffffffffffffffffffffffffffffffffffffffff820361318757613186612fe5565b5b600182019050919050565b7f416c726561647920636f6d706c657465640000000000000000000000000000005f82015250565b5f6131c6601183612b48565b91506131d182613192565b602082019050919050565b5f6020820190508181035f8301526131f3816131ba565b9050919050565b7f4e487b71000000000000000000000000000000000000000000000000000000005f52603260045260245ffd5b7f496e76616c696420746f6b656e000000000000000000000000000000000000005f82015250565b5f61325b600d83612b48565b915061326682613227565b602082019050919050565b5f6020820190508181035f8301526132888161324f565b9050919050565b7f496e76616c696420636f6e747269627574696f6e20616d6f756e7400000000005f82015250565b5f6132c3601b83612b48565b91506132ce8261328f565b602082019050919050565b5f6020820190508181035f8301526132f0816132b7565b9050919050565b7f416c726561647920636c61696d6564207468697320726f756e640000000000005f82015250565b5f61332b601a83612b48565b9150613336826132f7565b602082019050919050565b5f6020820190508181035f8301526133588161331f565b9050919050565b7f496e76616c6964207265736572766500000000000000000000000000000000005f82015250565b5f613393600f83612b48565b915061339e8261335f565b602082019050919050565b5f6020820190508181035f8301526133c081613387565b9050919050565b5f6060820190506133da5f8301866129d8565b6133e7602083018561292b565b6133f460408301846129d8565b949350505050565b5f61340682612841565b915061341183612841565b925082820390508181111561342957613428612fe5565b5b92915050565b7f4e6f206d656d6265727320696e20636972636c650000000000000000000000005f82015250565b5f613463601483612b48565b915061346e8261342f565b602082019050919050565b5f6020820190508181035f83015261349081613457565b9050919050565b7f4e487b71000000000000000000000000000000000000000000000000000000005f52603160045260245ffdfea26469706673582212201993e0c9a13c0989b6c2340fe1164d4c7d51b7a8d13c23b22c11ac3d47a4a83664736f6c634300081c0033","linkReferences":{}},"methodIdentifiers":{"agent()":"f5ff5c76","circleId()":"c30db746","claimRotation()":"125de677","contribute()":"d7bb99ba","contributionAmount()":"5fa0b65f","currentRound()":"8a19c8bc","dissolve()":"3bef8a3a","getMemberCount()":"997072f7","getMembers()":"9eab5253","getState()":"1865c57d","harvestYield()":"e8d991d1","hasClaimedThisRound(address)":"c43cfb7b","initialize(address,uint256)":"cd6dc687","isMember(address)":"a230c524","join(uint256)":"049878f3","memberIndex(address)":"3dd35279","members(uint256)":"5daf08ca","minTrustScore()":"859d448c","penalize(address)":"78d97c94","penaltyCount(address)":"a9330b0e","rotationIndex()":"37d287f7","roundDuration()":"f7cb789a","roundStartTime()":"dd4f8f74","startCircle()":"e99daac9","state()":"c19d93fb","sweepToYield(uint256)":"09e8bfa7","tokenAddress()":"9d76ea58","totalContributed(address)":"a0f243b8","totalYieldGenerated()":"8c825056","trustContract()":"95a853d4","yieldVault()":"a7f8a5e2"},"id":33}