{"abi":[{"type":"constructor","inputs":[{"name":"_circleId","type":"uint256","internalType":"uint256"},{"name":"_agent","type":"address","internalType":"address"},{"name":"_trustContract","type":"address","internalType":"address"},{"name":"_yieldVault","type":"address","internalType":"address"},{"name":"_minTrustScore","type":"uint256","internalType":"uint256"},{"name":"_roundDuration","type":"uint256","internalType":"uint256"}],"stateMutability":"nonpayable"},{"type":"function","name":"KEEPER_FEE_BPS","inputs":[],"outputs":[{"name":"","type":"uint256","internalType":"uint256"}],"stateMutability":"view"},{"type":"function","name":"agent","inputs":[],"outputs":[{"name":"","type":"address","internalType":"address"}],"stateMutability":"view"},{"type":"function","name":"circleId","inputs":[],"outputs":[{"name":"","type":"uint256","internalType":"uint256"}],"stateMutability":"view"},{"type":"function","name":"claimRotation","inputs":[],"outputs":[],"stateMutability":"nonpayable"},{"type":"function","name":"contribute","inputs":[],"outputs":[],"stateMutability":"nonpayable"},{"type":"function","name":"contributionAmount","inputs":[],"outputs":[{"name":"","type":"uint256","internalType":"uint256"}],"stateMutability":"view"},{"type":"function","name":"currentRound","inputs":[],"outputs":[{"name":"","type":"uint256","internalType":"uint256"}],"stateMutability":"view"},{"type":"function","name":"dissolve","inputs":[],"outputs":[],"stateMutability":"nonpayable"},{"type":"function","name":"getMemberCount","inputs":[],"outputs":[{"name":"","type":"uint256","internalType":"uint256"}],"stateMutability":"view"},{"type":"function","name":"getMembers","inputs":[],"outputs":[{"name":"","type":"address[]","internalType":"address[]"}],"stateMutability":"view"},{"type":"function","name":"getState","inputs":[],"outputs":[{"name":"","type":"uint8","internalType":"enum SaveCircle.CircleState"}],"stateMutability":"view"},{"type":"function","name":"harvestYield","inputs":[],"outputs":[],"stateMutability":"nonpayable"},{"type":"function","name":"hasContributedThisRound","inputs":[{"name":"","type":"address","internalType":"address"}],"outputs":[{"name":"","type":"bool","internalType":"bool"}],"stateMutability":"view"},{"type":"function","name":"initialize","inputs":[{"name":"_tokenAddress","type":"address","internalType":"address"},{"name":"_contributionAmount","type":"uint256","internalType":"uint256"}],"outputs":[],"stateMutability":"nonpayable"},{"type":"function","name":"isMember","inputs":[{"name":"","type":"address","internalType":"address"}],"outputs":[{"name":"","type":"bool","internalType":"bool"}],"stateMutability":"view"},{"type":"function","name":"join","inputs":[{"name":"intentId","type":"uint256","internalType":"uint256"}],"outputs":[],"stateMutability":"nonpayable"},{"type":"function","name":"memberIndex","inputs":[{"name":"","type":"address","internalType":"address"}],"outputs":[{"name":"","type":"uint256","internalType":"uint256"}],"stateMutability":"view"},{"type":"function","name":"members","inputs":[{"name":"","type":"uint256","internalType":"uint256"}],"outputs":[{"name":"","type":"address","internalType":"address"}],"stateMutability":"view"},{"type":"function","name":"minTrustScore","inputs":[],"outputs":[{"name":"","type":"uint256","internalType":"uint256"}],"stateMutability":"view"},{"type":"function","name":"penalize","inputs":[{"name":"member","type":"address","internalType":"address"}],"outputs":[],"stateMutability":"nonpayable"},{"type":"function","name":"penaltyCount","inputs":[{"name":"","type":"address","internalType":"address"}],"outputs":[{"name":"","type":"uint256","internalType":"uint256"}],"stateMutability":"view"},{"type":"function","name":"rotationIndex","inputs":[],"outputs":[{"name":"","type":"uint256","internalType":"uint256"}],"stateMutability":"view"},{"type":"function","name":"roundDuration","inputs":[],"outputs":[{"name":"","type":"uint256","internalType":"uint256"}],"stateMutability":"view"},{"type":"function","name":"roundStartTime","inputs":[],"outputs":[{"name":"","type":"uint256","internalType":"uint256"}],"stateMutability":"view"},{"type":"function","name":"startCircle","inputs":[],"outputs":[],"stateMutability":"nonpayable"},{"type":"function","name":"state","inputs":[],"outputs":[{"name":"","type":"uint8","internalType":"enum SaveCircle.CircleState"}],"stateMutability":"view"},{"type":"function","name":"sweepToYield","inputs":[{"name":"amount","type":"uint256","internalType":"uint256"}],"outputs":[],"stateMutability":"nonpayable"},{"type":"function","name":"tokenAddress","inputs":[],"outputs":[{"name":"","type":"address","internalType":"address"}],"stateMutability":"view"},{"type":"function","name":"totalContributed","inputs":[{"name":"","type":"address","internalType":"address"}],"outputs":[{"name":"","type":"uint256","internalType":"uint256"}],"stateMutability":"view"},{"type":"function","name":"totalYieldGenerated","inputs":[],"outputs":[{"name":"","type":"uint256","internalType":"uint256"}],"stateMutability":"view"},{"type":"function","name":"trustContract","inputs":[],"outputs":[{"name":"","type":"address","internalType":"address"}],"stateMutability":"view"},{"type":"function","name":"yieldVault","inputs":[],"outputs":[{"name":"","type":"address","internalType":"address"}],"stateMutability":"view"},{"type":"event","name":"CircleCompleted","inputs":[],"anonymous":false},{"type":"event","name":"CircleDissolved","inputs":[],"anonymous":false},{"type":"event","name":"CircleFormed","inputs":[{"name":"circleId","type":"uint256","indexed":true,"internalType":"uint256"}],"anonymous":false},{"type":"event","name":"ContributionMade","inputs":[{"name":"member","type":"address","indexed":true,"internalType":"address"},{"name":"amount","type":"uint256","indexed":false,"internalType":"uint256"}],"anonymous":false},{"type":"event","name":"MemberJoined","inputs":[{"name":"member","type":"address","indexed":true,"internalType":"address"}],"anonymous":false},{"type":"event","name":"MemberPenalized","inputs":[{"name":"member","type":"address","indexed":true,"internalType":"address"},{"name":"penalty","type":"uint256","indexed":false,"internalType":"uint256"}],"anonymous":false},{"type":"event","name":"RotationClaimed","inputs":[{"name":"member","type":"address","indexed":true,"internalType":"address"},{"name":"amount","type":"uint256","indexed":false,"internalType":"uint256"}],"anonymous":false},{"type":"event","name":"YieldHarvested","inputs":[{"name":"amount","type":"uint256","indexed":false,"internalType":"uint256"}],"anonymous":false},{"type":"event","name":"YieldSwept","inputs":[{"name":"amount","type":"uint256","indexed":false,"internalType":"uint256"}],"anonymous":false},{"type":"error","name":"ReentrancyGuardReentrantCall","inputs":[]},{"type":"error","name":"SafeERC20FailedOperation","inputs":[{"name":"token","type":"address","internalType":"address"}]}],"bytecode":{"object":"0x608060405234801561000f575f5ffd5b50604051613a97380380613a978339818101604052810190610031919061022e565b600161004f61004461016b60201b60201c565b61019460201b60201c565b5f0181905550855f819055508460015f6101000a81548173ffffffffffffffffffffffffffffffffffffffff021916908373ffffffffffffffffffffffffffffffffffffffff1602179055508360025f6101000a81548173ffffffffffffffffffffffffffffffffffffffff021916908373ffffffffffffffffffffffffffffffffffffffff1602179055508260035f6101000a81548173ffffffffffffffffffffffffffffffffffffffff021916908373ffffffffffffffffffffffffffffffffffffffff16021790555081600581905550806006819055505f60085f6101000a81548160ff0219169083600381111561014d5761014c6102b7565b5b02179055505f600a819055505f600b819055505050505050506102e4565b5f7f9b779b17422d0df92223018b32b4d1fa46e071723d6817e2486d003becc55f005f1b905090565b5f819050919050565b5f5ffd5b5f819050919050565b6101b3816101a1565b81146101bd575f5ffd5b50565b5f815190506101ce816101aa565b92915050565b5f73ffffffffffffffffffffffffffffffffffffffff82169050919050565b5f6101fd826101d4565b9050919050565b61020d816101f3565b8114610217575f5ffd5b50565b5f8151905061022881610204565b92915050565b5f5f5f5f5f5f60c087890312156102485761024761019d565b5b5f61025589828a016101c0565b965050602061026689828a0161021a565b955050604061027789828a0161021a565b945050606061028889828a0161021a565b935050608061029989828a016101c0565b92505060a06102aa89828a016101c0565b9150509295509295509295565b7f4e487b71000000000000000000000000000000000000000000000000000000005f52602160045260245ffd5b6137a6806102f15f395ff3fe608060405234801561000f575f5ffd5b50600436106101ee575f3560e01c8063997072f71161010d578063c30db746116100a0578063e8d991d11161006f578063e8d991d114610562578063e99daac91461056c578063f5ff5c7614610576578063f7cb789a14610594576101ee565b8063c30db74614610500578063cd6dc6871461051e578063d7bb99ba1461053a578063dd4f8f7414610544576101ee565b8063a230c524116100dc578063a230c52414610464578063a7f8a5e214610494578063a9330b0e146104b2578063c19d93fb146104e2576101ee565b8063997072f7146103da5780639d76ea58146103f85780639eab525314610416578063a0f243b814610434576101ee565b80635d27746111610185578063859d448c11610154578063859d448c146103625780638a19c8bc146103805780638c8250561461039e57806395a853d4146103bc576101ee565b80635d277461146102da5780635daf08ca146102f85780635fa0b65f1461032857806378d97c9414610346576101ee565b806337d287f7116101c157806337d287f7146102525780633bef8a3a146102705780633dd352791461027a57806347d3dad9146102aa576101ee565b8063049878f3146101f257806309e8bfa71461020e578063125de6771461022a5780631865c57d14610234575b5f5ffd5b61020c60048036038101906102079190612af9565b6105b2565b005b61022860048036038101906102239190612af9565b61092d565b005b610232610c57565b005b61023c6110d8565b6040516102499190612b97565b60405180910390f35b61025a6110ed565b6040516102679190612bbf565b60405180910390f35b6102786110f3565b005b610294600480360381019061028f9190612c32565b6113be565b6040516102a19190612bbf565b60405180910390f35b6102c460048036038101906102bf9190612c32565b6113d3565b6040516102d19190612c77565b60405180910390f35b6102e26113f0565b6040516102ef9190612bbf565b60405180910390f35b610312600480360381019061030d9190612af9565b6113f5565b60405161031f9190612c9f565b60405180910390f35b610330611430565b60405161033d9190612bbf565b60405180910390f35b610360600480360381019061035b9190612c32565b611436565b005b61036a611875565b6040516103779190612bbf565b60405180910390f35b61038861187b565b6040516103959190612bbf565b60405180910390f35b6103a6611881565b6040516103b39190612bbf565b60405180910390f35b6103c4611887565b6040516103d19190612c9f565b60405180910390f35b6103e26118ac565b6040516103ef9190612bbf565b60405180910390f35b6104006118b8565b60405161040d9190612c9f565b60405180910390f35b61041e6118dd565b60405161042b9190612d6f565b60405180910390f35b61044e60048036038101906104499190612c32565b611968565b60405161045b9190612bbf565b60405180910390f35b61047e60048036038101906104799190612c32565b61197d565b60405161048b9190612c77565b60405180910390f35b61049c61199a565b6040516104a99190612c9f565b60405180910390f35b6104cc60048036038101906104c79190612c32565b6119bf565b6040516104d99190612bbf565b60405180910390f35b6104ea6119d4565b6040516104f79190612b97565b60405180910390f35b6105086119e6565b6040516105159190612bbf565b60405180910390f35b61053860048036038101906105339190612d8f565b6119eb565b005b610542611beb565b005b61054c611ed6565b6040516105599190612bbf565b60405180910390f35b61056a611edc565b005b610574612364565b005b61057e612519565b60405161058b9190612c9f565b60405180910390f35b61059c61253e565b6040516105a99190612bbf565b60405180910390f35b5f8060038111156105c6576105c5612b24565b5b60085f9054906101000a900460ff1660038111156105e7576105e6612b24565b5b14610627576040517f08c379a000000000000000000000000000000000000000000000000000000000815260040161061e90612e27565b60405180910390fd5b61062f612544565b600d5f3373ffffffffffffffffffffffffffffffffffffffff1673ffffffffffffffffffffffffffffffffffffffff1681526020019081526020015f205f9054906101000a900460ff16156106b9576040517f08c379a00000000000000000000000000000000000000000000000000000000081526004016106b090612e8f565b60405180910390fd5b6032600c8054905010610701576040517f08c379a00000000000000000000000000000000000000000000000000000000081526004016106f890612ef7565b60405180910390fd5b5f60025f9054906101000a900473ffffffffffffffffffffffffffffffffffffffff1690508073ffffffffffffffffffffffffffffffffffffffff166327822fcf336005546040518363ffffffff1660e01b8152600401610763929190612f15565b602060405180830381865afa15801561077e573d5f5f3e3d5ffd5b505050506040513d601f19601f820116820180604052508101906107a29190612f66565b6107e1576040517f08c379a00000000000000000000000000000000000000000000000000000000081526004016107d890612fdb565b60405180910390fd5b600c80549050600e5f3373ffffffffffffffffffffffffffffffffffffffff1673ffffffffffffffffffffffffffffffffffffffff1681526020019081526020015f2081905550600c33908060018154018082558091505060019003905f5260205f20015f9091909190916101000a81548173ffffffffffffffffffffffffffffffffffffffff021916908373ffffffffffffffffffffffffffffffffffffffff1602179055506001600d5f3373ffffffffffffffffffffffffffffffffffffffff1673ffffffffffffffffffffffffffffffffffffffff1681526020019081526020015f205f6101000a81548160ff0219169083151502179055503373ffffffffffffffffffffffffffffffffffffffff167f0abf3b3f643594d958297062a019458e27d7766629590ac621aa1000fa1298ab60405160405180910390a250610929612566565b5050565b60015f9054906101000a900473ffffffffffffffffffffffffffffffffffffffff1673ffffffffffffffffffffffffffffffffffffffff163373ffffffffffffffffffffffffffffffffffffffff16146109bc576040517f08c379a00000000000000000000000000000000000000000000000000000000081526004016109b390613043565b60405180910390fd5b60018060038111156109d1576109d0612b24565b5b60085f9054906101000a900460ff1660038111156109f2576109f1612b24565b5b14610a32576040517f08c379a0000000000000000000000000000000000000000000000000000000008152600401610a2990612e27565b60405180910390fd5b610a3a612544565b5f60045f9054906101000a900473ffffffffffffffffffffffffffffffffffffffff169050828173ffffffffffffffffffffffffffffffffffffffff166370a08231306040518263ffffffff1660e01b8152600401610a999190612c9f565b602060405180830381865afa158015610ab4573d5f5f3e3d5ffd5b505050506040513d601f19601f82011682018060405250810190610ad89190613075565b1015610b19576040517f08c379a0000000000000000000000000000000000000000000000000000000008152600401610b10906130ea565b60405180910390fd5b610b6560035f9054906101000a900473ffffffffffffffffffffffffffffffffffffffff16848373ffffffffffffffffffffffffffffffffffffffff166125809092919063ffffffff16565b60035f9054906101000a900473ffffffffffffffffffffffffffffffffffffffff1673ffffffffffffffffffffffffffffffffffffffff1663e8eda9df60045f9054906101000a900473ffffffffffffffffffffffffffffffffffffffff1685305f6040518563ffffffff1660e01b8152600401610be69493929190613157565b5f604051808303815f87803b158015610bfd575f5ffd5b505af1158015610c0f573d5f5f3e3d5ffd5b505050507f30913accb920534a9bbf66fa5d30be5b69e38f91e4167d42c02d132c17dcd3a783604051610c429190612bbf565b60405180910390a150610c53612566565b5050565b600d5f3373ffffffffffffffffffffffffffffffffffffffff1673ffffffffffffffffffffffffffffffffffffffff1681526020019081526020015f205f9054906101000a900460ff16610ce0576040517f08c379a0000000000000000000000000000000000000000000000000000000008152600401610cd7906131e4565b60405180910390fd5b6001806003811115610cf557610cf4612b24565b5b60085f9054906101000a900460ff166003811115610d1657610d15612b24565b5b14610d56576040517f08c379a0000000000000000000000000000000000000000000000000000000008152600401610d4d90612e27565b60405180910390fd5b610d5e612544565b600a54600e5f3373ffffffffffffffffffffffffffffffffffffffff1673ffffffffffffffffffffffffffffffffffffffff1681526020019081526020015f205414610ddf576040517f08c379a0000000000000000000000000000000000000000000000000000000008152600401610dd69061324c565b60405180910390fd5b5f600c80549050600754610df39190613297565b90505f5f60125411610e05575f610e19565b600c80549050601254610e189190613305565b5b90505f8183610e289190613335565b90505f60045f9054906101000a900473ffffffffffffffffffffffffffffffffffffffff1690505f8173ffffffffffffffffffffffffffffffffffffffff166370a08231306040518263ffffffff1660e01b8152600401610e899190612c9f565b602060405180830381865afa158015610ea4573d5f5f3e3d5ffd5b505050506040513d601f19601f82011682018060405250810190610ec89190613075565b905082811015610f0d576040517f08c379a0000000000000000000000000000000000000000000000000000000008152600401610f04906133b2565b60405180910390fd5b610f3833848473ffffffffffffffffffffffffffffffffffffffff166126329092919063ffffffff16565b3373ffffffffffffffffffffffffffffffffffffffff167f9aef81cc79530644ebe2e7de375cfc443eef0e1cb3d1122dd29b657358f04ee584604051610f7e9190612bbf565b60405180910390a2600a5f815480929190610f98906133d0565b9190505550600b5f815480929190610faf906133d0565b91905055505f5f90505b600c80549050811015611062575f60105f600c8481548110610fde57610fdd613417565b5b905f5260205f20015f9054906101000a900473ffffffffffffffffffffffffffffffffffffffff1673ffffffffffffffffffffffffffffffffffffffff1673ffffffffffffffffffffffffffffffffffffffff1681526020019081526020015f205f6101000a81548160ff0219169083151502179055508080600101915050610fb9565b50600c80549050600a54106110c857600260085f6101000a81548160ff0219169083600381111561109657611095612b24565b5b02179055507fdf90819e1122eef4a1d19215dfe6aa85aa2f8a1c60e53ae52143e1fd6c5f3bee60405160405180910390a15b50505050506110d5612566565b50565b5f60085f9054906101000a900460ff16905090565b600a5481565b60015f9054906101000a900473ffffffffffffffffffffffffffffffffffffffff1673ffffffffffffffffffffffffffffffffffffffff163373ffffffffffffffffffffffffffffffffffffffff1614611182576040517f08c379a000000000000000000000000000000000000000000000000000000000815260040161117990613043565b60405180910390fd5b61118a612544565b6002600381111561119e5761119d612b24565b5b60085f9054906101000a900460ff1660038111156111bf576111be612b24565b5b036111ff576040517f08c379a00000000000000000000000000000000000000000000000000000000081526004016111f69061348e565b60405180910390fd5b5f60045f9054906101000a900473ffffffffffffffffffffffffffffffffffffffff1690505f8173ffffffffffffffffffffffffffffffffffffffff166370a08231306040518263ffffffff1660e01b815260040161125e9190612c9f565b602060405180830381865afa158015611279573d5f5f3e3d5ffd5b505050506040513d601f19601f8201168201806040525081019061129d9190613075565b90505f811180156112b257505f600c80549050115b1561135c575f600c80549050826112c99190613305565b90505f5f90505b600c80549050811015611359575f82111561134c5761134b600c82815481106112fc576112fb613417565b5b905f5260205f20015f9054906101000a900473ffffffffffffffffffffffffffffffffffffffff16838673ffffffffffffffffffffffffffffffffffffffff166126329092919063ffffffff16565b5b80806001019150506112d0565b50505b600360085f6101000a81548160ff0219169083600381111561138157611380612b24565b5b02179055507fdedf6c81900dcd7d3df33e4392e5a0f9f5dbbd3c424bd45d6f5148d960e3827360405160405180910390a150506113bc612566565b565b600e602052805f5260405f205f915090505481565b6010602052805f5260405f205f915054906101000a900460ff1681565b606481565b600c8181548110611404575f80fd5b905f5260205f20015f915054906101000a900473ffffffffffffffffffffffffffffffffffffffff1681565b60075481565b60015f9054906101000a900473ffffffffffffffffffffffffffffffffffffffff1673ffffffffffffffffffffffffffffffffffffffff163373ffffffffffffffffffffffffffffffffffffffff16146114c5576040517f08c379a00000000000000000000000000000000000000000000000000000000081526004016114bc90613043565b60405180910390fd5b60018060038111156114da576114d9612b24565b5b60085f9054906101000a900460ff1660038111156114fb576114fa612b24565b5b1461153b576040517f08c379a000000000000000000000000000000000000000000000000000000000815260040161153290612e27565b60405180910390fd5b611543612544565b600d5f8373ffffffffffffffffffffffffffffffffffffffff1673ffffffffffffffffffffffffffffffffffffffff1681526020019081526020015f205f9054906101000a900460ff166115cc576040517f08c379a00000000000000000000000000000000000000000000000000000000081526004016115c3906131e4565b60405180910390fd5b5f6064600a6007546115de9190613297565b6115e89190613305565b905060115f8473ffffffffffffffffffffffffffffffffffffffff1673ffffffffffffffffffffffffffffffffffffffff1681526020019081526020015f205f815480929190611637906133d0565b91905055505f60045f9054906101000a900473ffffffffffffffffffffffffffffffffffffffff16905081600f5f8673ffffffffffffffffffffffffffffffffffffffff1673ffffffffffffffffffffffffffffffffffffffff1681526020019081526020015f2054101580156117255750818173ffffffffffffffffffffffffffffffffffffffff166370a08231306040518263ffffffff1660e01b81526004016116e39190612c9f565b602060405180830381865afa1580156116fe573d5f5f3e3d5ffd5b505050506040513d601f19601f820116820180604052508101906117229190613075565b10155b156117ca5781600f5f8673ffffffffffffffffffffffffffffffffffffffff1673ffffffffffffffffffffffffffffffffffffffff1681526020019081526020015f205f82825461177691906134ac565b925050819055506117c960015f9054906101000a900473ffffffffffffffffffffffffffffffffffffffff16838373ffffffffffffffffffffffffffffffffffffffff166126329092919063ffffffff16565b5b8373ffffffffffffffffffffffffffffffffffffffff167ff40ef45a88500961e4ca8bb34c3545f8b26de69ea8af680f186cbaf39d721527836040516118109190612bbf565b60405180910390a2600360115f8673ffffffffffffffffffffffffffffffffffffffff1673ffffffffffffffffffffffffffffffffffffffff1681526020019081526020015f2054106118675761186684612685565b5b5050611871612566565b5050565b60055481565b600b5481565b60125481565b60025f9054906101000a900473ffffffffffffffffffffffffffffffffffffffff1681565b5f600c80549050905090565b60045f9054906101000a900473ffffffffffffffffffffffffffffffffffffffff1681565b6060600c80548060200260200160405190810160405280929190818152602001828054801561195e57602002820191905f5260205f20905b815f9054906101000a900473ffffffffffffffffffffffffffffffffffffffff1673ffffffffffffffffffffffffffffffffffffffff1681526020019060010190808311611915575b5050505050905090565b600f602052805f5260405f205f915090505481565b600d602052805f5260405f205f915054906101000a900460ff1681565b60035f9054906101000a900473ffffffffffffffffffffffffffffffffffffffff1681565b6011602052805f5260405f205f915090505481565b60085f9054906101000a900460ff1681565b5f5481565b60015f9054906101000a900473ffffffffffffffffffffffffffffffffffffffff1673ffffffffffffffffffffffffffffffffffffffff163373ffffffffffffffffffffffffffffffffffffffff1614611a7a576040517f08c379a0000000000000000000000000000000000000000000000000000000008152600401611a7190613043565b60405180910390fd5b5f806003811115611a8e57611a8d612b24565b5b60085f9054906101000a900460ff166003811115611aaf57611aae612b24565b5b14611aef576040517f08c379a0000000000000000000000000000000000000000000000000000000008152600401611ae690612e27565b60405180910390fd5b5f73ffffffffffffffffffffffffffffffffffffffff168373ffffffffffffffffffffffffffffffffffffffff1603611b5d576040517f08c379a0000000000000000000000000000000000000000000000000000000008152600401611b5490613529565b60405180910390fd5b5f8211611b9f576040517f08c379a0000000000000000000000000000000000000000000000000000000008152600401611b9690613591565b60405180910390fd5b8260045f6101000a81548173ffffffffffffffffffffffffffffffffffffffff021916908373ffffffffffffffffffffffffffffffffffffffff16021790555081600781905550505050565b600d5f3373ffffffffffffffffffffffffffffffffffffffff1673ffffffffffffffffffffffffffffffffffffffff1681526020019081526020015f205f9054906101000a900460ff16611c74576040517f08c379a0000000000000000000000000000000000000000000000000000000008152600401611c6b906131e4565b60405180910390fd5b6001806003811115611c8957611c88612b24565b5b60085f9054906101000a900460ff166003811115611caa57611ca9612b24565b5b14611cea576040517f08c379a0000000000000000000000000000000000000000000000000000000008152600401611ce190612e27565b60405180910390fd5b611cf2612544565b60105f3373ffffffffffffffffffffffffffffffffffffffff1673ffffffffffffffffffffffffffffffffffffffff1681526020019081526020015f205f9054906101000a900460ff1615611d7c576040517f08c379a0000000000000000000000000000000000000000000000000000000008152600401611d73906135f9565b60405180910390fd5b5f60045f9054906101000a900473ffffffffffffffffffffffffffffffffffffffff169050611dd033306007548473ffffffffffffffffffffffffffffffffffffffff166128a9909392919063ffffffff16565b600754600f5f3373ffffffffffffffffffffffffffffffffffffffff1673ffffffffffffffffffffffffffffffffffffffff1681526020019081526020015f205f828254611e1e9190613335565b92505081905550600160105f3373ffffffffffffffffffffffffffffffffffffffff1673ffffffffffffffffffffffffffffffffffffffff1681526020019081526020015f205f6101000a81548160ff0219169083151502179055503373ffffffffffffffffffffffffffffffffffffffff167f6770260ea820d2f539364e7617e021543aaf6d192f2fd2a47c20db6bd99a4eb9600754604051611ec29190612bbf565b60405180910390a250611ed3612566565b50565b60095481565b60015f9054906101000a900473ffffffffffffffffffffffffffffffffffffffff1673ffffffffffffffffffffffffffffffffffffffff163373ffffffffffffffffffffffffffffffffffffffff1614611f6b576040517f08c379a0000000000000000000000000000000000000000000000000000000008152600401611f6290613043565b60405180910390fd5b6001806003811115611f8057611f7f612b24565b5b60085f9054906101000a900460ff166003811115611fa157611fa0612b24565b5b14611fe1576040517f08c379a0000000000000000000000000000000000000000000000000000000008152600401611fd890612e27565b60405180910390fd5b611fe9612544565b5f60035f9054906101000a900473ffffffffffffffffffffffffffffffffffffffff1690505f8173ffffffffffffffffffffffffffffffffffffffff1663d15e005360045f9054906101000a900473ffffffffffffffffffffffffffffffffffffffff166040518263ffffffff1660e01b81526004016120699190612c9f565b602060405180830381865afa158015612084573d5f5f3e3d5ffd5b505050506040513d601f19601f820116820180604052508101906120a89190613075565b90505f81116120ec576040517f08c379a00000000000000000000000000000000000000000000000000000000081526004016120e390613661565b60405180910390fd5b5f60035f9054906101000a900473ffffffffffffffffffffffffffffffffffffffff1690505f8173ffffffffffffffffffffffffffffffffffffffff166370a08231306040518263ffffffff1660e01b815260040161214b9190612c9f565b602060405180830381865afa158015612166573d5f5f3e3d5ffd5b505050506040513d601f19601f8201168201806040525081019061218a9190613075565b90505f811115612355578373ffffffffffffffffffffffffffffffffffffffff166369328dec60045f9054906101000a900473ffffffffffffffffffffffffffffffffffffffff1683306040518463ffffffff1660e01b81526004016121f29392919061367f565b6020604051808303815f875af115801561220e573d5f5f3e3d5ffd5b505050506040513d601f19601f820116820180604052508101906122329190613075565b505f60045f9054906101000a900473ffffffffffffffffffffffffffffffffffffffff1690505f8173ffffffffffffffffffffffffffffffffffffffff166370a08231306040518263ffffffff1660e01b81526004016122929190612c9f565b602060405180830381865afa1580156122ad573d5f5f3e3d5ffd5b505050506040513d601f19601f820116820180604052508101906122d19190613075565b90505f600c805490506007546122e79190613297565b905080821115612351575f81836122fe91906134ac565b90508060125f8282546123119190613335565b925050819055507feb2d114a827fe0da3db4c0e374010959cf461f7ed76987aeff51666dea9add9b816040516123479190612bbf565b60405180910390a1505b5050505b50505050612361612566565b50565b60015f9054906101000a900473ffffffffffffffffffffffffffffffffffffffff1673ffffffffffffffffffffffffffffffffffffffff163373ffffffffffffffffffffffffffffffffffffffff16146123f3576040517f08c379a00000000000000000000000000000000000000000000000000000000081526004016123ea90613043565b60405180910390fd5b5f80600381111561240757612406612b24565b5b60085f9054906101000a900460ff16600381111561242857612427612b24565b5b14612468576040517f08c379a000000000000000000000000000000000000000000000000000000000815260040161245f90612e27565b60405180910390fd5b5f600c80549050116124af576040517f08c379a00000000000000000000000000000000000000000000000000000000081526004016124a6906136fe565b60405180910390fd5b600160085f6101000a81548160ff021916908360038111156124d4576124d3612b24565b5b0217905550426009819055506001600b819055505f547f99a57c67df4f41b63e799c8f7427b6f3e4e4fbea70a2fde7dfdecbce4b62c98560405160405180910390a250565b60015f9054906101000a900473ffffffffffffffffffffffffffffffffffffffff1681565b60065481565b61254c6128fe565b600261255e61255961293f565b612968565b5f0181905550565b600161257861257361293f565b612968565b5f0181905550565b61258c8383835f612971565b61262d5761259d83835f6001612971565b6125de57826040517f5274afe70000000000000000000000000000000000000000000000000000000081526004016125d59190612c9f565b60405180910390fd5b6125eb8383836001612971565b61262c57826040517f5274afe70000000000000000000000000000000000000000000000000000000081526004016126239190612c9f565b60405180910390fd5b5b505050565b61263f83838360016129d3565b61268057826040517f5274afe70000000000000000000000000000000000000000000000000000000081526004016126779190612c9f565b60405180910390fd5b505050565b5f600e5f8373ffffffffffffffffffffffffffffffffffffffff1673ffffffffffffffffffffffffffffffffffffffff1681526020019081526020015f20549050600a548110156126e857600a5f8154809291906126e29061371c565b91905055505b5f600c6001600c805490506126fd91906134ac565b8154811061270e5761270d613417565b5b905f5260205f20015f9054906101000a900473ffffffffffffffffffffffffffffffffffffffff16905080600c838154811061274d5761274c613417565b5b905f5260205f20015f6101000a81548173ffffffffffffffffffffffffffffffffffffffff021916908373ffffffffffffffffffffffffffffffffffffffff16021790555081600e5f8373ffffffffffffffffffffffffffffffffffffffff1673ffffffffffffffffffffffffffffffffffffffff1681526020019081526020015f2081905550600c8054806127e6576127e5613743565b5b600190038181905f5260205f20015f6101000a81549073ffffffffffffffffffffffffffffffffffffffff02191690559055600d5f8473ffffffffffffffffffffffffffffffffffffffff1673ffffffffffffffffffffffffffffffffffffffff1681526020019081526020015f205f6101000a81549060ff0219169055600e5f8473ffffffffffffffffffffffffffffffffffffffff1673ffffffffffffffffffffffffffffffffffffffff1681526020019081526020015f205f9055505050565b6128b7848484846001612a35565b6128f857836040517f5274afe70000000000000000000000000000000000000000000000000000000081526004016128ef9190612c9f565b60405180910390fd5b50505050565b612906612aa6565b1561293d576040517f3ee5aeb500000000000000000000000000000000000000000000000000000000815260040160405180910390fd5b565b5f7f9b779b17422d0df92223018b32b4d1fa46e071723d6817e2486d003becc55f005f1b905090565b5f819050919050565b5f5f63095ea7b360e01b9050604051815f525f1960601c86166004528460245260205f60445f5f8b5af1925060015f511483166129c55783831516156129b9573d5f823e3d81fd5b5f873b113d1516831692505b806040525050949350505050565b5f5f63a9059cbb60e01b9050604051815f525f1960601c86166004528460245260205f60445f5f8b5af1925060015f51148316612a27578383151615612a1b573d5f823e3d81fd5b5f873b113d1516831692505b806040525050949350505050565b5f5f6323b872dd60e01b9050604051815f525f1960601c87166004525f1960601c86166024528460445260205f60645f5f8c5af1925060015f51148316612a93578383151615612a87573d5f823e3d81fd5b5f883b113d1516831692505b806040525f606052505095945050505050565b5f6002612ab9612ab461293f565b612968565b5f015414905090565b5f5ffd5b5f819050919050565b612ad881612ac6565b8114612ae2575f5ffd5b50565b5f81359050612af381612acf565b92915050565b5f60208284031215612b0e57612b0d612ac2565b5b5f612b1b84828501612ae5565b91505092915050565b7f4e487b71000000000000000000000000000000000000000000000000000000005f52602160045260245ffd5b60048110612b6257612b61612b24565b5b50565b5f819050612b7282612b51565b919050565b5f612b8182612b65565b9050919050565b612b9181612b77565b82525050565b5f602082019050612baa5f830184612b88565b92915050565b612bb981612ac6565b82525050565b5f602082019050612bd25f830184612bb0565b92915050565b5f73ffffffffffffffffffffffffffffffffffffffff82169050919050565b5f612c0182612bd8565b9050919050565b612c1181612bf7565b8114612c1b575f5ffd5b50565b5f81359050612c2c81612c08565b92915050565b5f60208284031215612c4757612c46612ac2565b5b5f612c5484828501612c1e565b91505092915050565b5f8115159050919050565b612c7181612c5d565b82525050565b5f602082019050612c8a5f830184612c68565b92915050565b612c9981612bf7565b82525050565b5f602082019050612cb25f830184612c90565b92915050565b5f81519050919050565b5f82825260208201905092915050565b5f819050602082019050919050565b612cea81612bf7565b82525050565b5f612cfb8383612ce1565b60208301905092915050565b5f602082019050919050565b5f612d1d82612cb8565b612d278185612cc2565b9350612d3283612cd2565b805f5b83811015612d62578151612d498882612cf0565b9750612d5483612d07565b925050600181019050612d35565b5085935050505092915050565b5f6020820190508181035f830152612d878184612d13565b905092915050565b5f5f60408385031215612da557612da4612ac2565b5b5f612db285828601612c1e565b9250506020612dc385828601612ae5565b9150509250929050565b5f82825260208201905092915050565b7f496e76616c696420636972636c652073746174650000000000000000000000005f82015250565b5f612e11601483612dcd565b9150612e1c82612ddd565b602082019050919050565b5f6020820190508181035f830152612e3e81612e05565b9050919050565b7f416c72656164792061206d656d626572000000000000000000000000000000005f82015250565b5f612e79601083612dcd565b9150612e8482612e45565b602082019050919050565b5f6020820190508181035f830152612ea681612e6d565b9050919050565b7f436972636c652069732066756c6c0000000000000000000000000000000000005f82015250565b5f612ee1600e83612dcd565b9150612eec82612ead565b602082019050919050565b5f6020820190508181035f830152612f0e81612ed5565b9050919050565b5f604082019050612f285f830185612c90565b612f356020830184612bb0565b9392505050565b612f4581612c5d565b8114612f4f575f5ffd5b50565b5f81519050612f6081612f3c565b92915050565b5f60208284031215612f7b57612f7a612ac2565b5b5f612f8884828501612f52565b91505092915050565b7f496e73756666696369656e742074727573742073636f726500000000000000005f82015250565b5f612fc5601883612dcd565b9150612fd082612f91565b602082019050919050565b5f6020820190508181035f830152612ff281612fb9565b9050919050565b7f4f6e6c79206167656e742063616e2063616c6c207468697300000000000000005f82015250565b5f61302d601883612dcd565b915061303882612ff9565b602082019050919050565b5f6020820190508181035f83015261305a81613021565b9050919050565b5f8151905061306f81612acf565b92915050565b5f6020828403121561308a57613089612ac2565b5b5f61309784828501613061565b91505092915050565b7f496e73756666696369656e742062616c616e63650000000000000000000000005f82015250565b5f6130d4601483612dcd565b91506130df826130a0565b602082019050919050565b5f6020820190508181035f830152613101816130c8565b9050919050565b5f819050919050565b5f61ffff82169050919050565b5f819050919050565b5f61314161313c61313784613108565b61311e565b613111565b9050919050565b61315181613127565b82525050565b5f60808201905061316a5f830187612c90565b6131776020830186612bb0565b6131846040830185612c90565b6131916060830184613148565b95945050505050565b7f4e6f742061206d656d62657200000000000000000000000000000000000000005f82015250565b5f6131ce600c83612dcd565b91506131d98261319a565b602082019050919050565b5f6020820190508181035f8301526131fb816131c2565b9050919050565b7f4e6f7420796f7572207475726e000000000000000000000000000000000000005f82015250565b5f613236600d83612dcd565b915061324182613202565b602082019050919050565b5f6020820190508181035f8301526132638161322a565b9050919050565b7f4e487b71000000000000000000000000000000000000000000000000000000005f52601160045260245ffd5b5f6132a182612ac6565b91506132ac83612ac6565b92508282026132ba81612ac6565b915082820484148315176132d1576132d061326a565b5b5092915050565b7f4e487b71000000000000000000000000000000000000000000000000000000005f52601260045260245ffd5b5f61330f82612ac6565b915061331a83612ac6565b92508261332a576133296132d8565b5b828204905092915050565b5f61333f82612ac6565b915061334a83612ac6565b92508282019050808211156133625761336161326a565b5b92915050565b7f496e73756666696369656e742066756e647300000000000000000000000000005f82015250565b5f61339c601283612dcd565b91506133a782613368565b602082019050919050565b5f6020820190508181035f8301526133c981613390565b9050919050565b5f6133da82612ac6565b91507fffffffffffffffffffffffffffffffffffffffffffffffffffffffffffffffff820361340c5761340b61326a565b5b600182019050919050565b7f4e487b71000000000000000000000000000000000000000000000000000000005f52603260045260245ffd5b7f416c726561647920636f6d706c657465640000000000000000000000000000005f82015250565b5f613478601183612dcd565b915061348382613444565b602082019050919050565b5f6020820190508181035f8301526134a58161346c565b9050919050565b5f6134b682612ac6565b91506134c183612ac6565b92508282039050818111156134d9576134d861326a565b5b92915050565b7f496e76616c696420746f6b656e000000000000000000000000000000000000005f82015250565b5f613513600d83612dcd565b915061351e826134df565b602082019050919050565b5f6020820190508181035f83015261354081613507565b9050919050565b7f496e76616c696420636f6e747269627574696f6e20616d6f756e7400000000005f82015250565b5f61357b601b83612dcd565b915061358682613547565b602082019050919050565b5f6020820190508181035f8301526135a88161356f565b9050919050565b7f416c726561647920636f6e7472696275746564207468697320726f756e6400005f82015250565b5f6135e3601e83612dcd565b91506135ee826135af565b602082019050919050565b5f6020820190508181035f830152613610816135d7565b9050919050565b7f496e76616c6964207265736572766500000000000000000000000000000000005f82015250565b5f61364b600f83612dcd565b915061365682613617565b602082019050919050565b5f6020820190508181035f8301526136788161363f565b9050919050565b5f6060820190506136925f830186612c90565b61369f6020830185612bb0565b6136ac6040830184612c90565b949350505050565b7f4e6f206d656d6265727320696e20636972636c650000000000000000000000005f82015250565b5f6136e8601483612dcd565b91506136f3826136b4565b602082019050919050565b5f6020820190508181035f830152613715816136dc565b9050919050565b5f61372682612ac6565b91505f82036137385761373761326a565b5b600182039050919050565b7f4e487b71000000000000000000000000000000000000000000000000000000005f52603160045260245ffdfea2646970667358221220fd04c393035d80f9f6297d8caff4c42886d6bac778d1344387fe5c1df2feb6e664736f6c634300081c0033","linkReferences":{}},"methodIdentifiers":{"KEEPER_FEE_BPS()":"5d277461","agent()":"f5ff5c76","circleId()":"c30db746","claimRotation()":"125de677","contribute()":"d7bb99ba","contributionAmount()":"5fa0b65f","currentRound()":"8a19c8bc","dissolve()":"3bef8a3a","getMemberCount()":"997072f7","getMembers()":"9eab5253","getState()":"1865c57d","harvestYield()":"e8d991d1","hasContributedThisRound(address)":"47d3dad9","initialize(address,uint256)":"cd6dc687","isMember(address)":"a230c524","join(uint256)":"049878f3","memberIndex(address)":"3dd35279","members(uint256)":"5daf08ca","minTrustScore()":"859d448c","penalize(address)":"78d97c94","penaltyCount(address)":"a9330b0e","rotationIndex()":"37d287f7","roundDuration()":"f7cb789a","roundStartTime()":"dd4f8f74","startCircle()":"e99daac9","state()":"c19d93fb","sweepToYield(uint256)":"09e8bfa7","tokenAddress()":"9d76ea58","totalContributed(address)":"a0f243b8","totalYieldGenerated()":"8c825056","trustContract()":"95a853d4","yieldVault()":"a7f8a5e2"},"id":33}