{"abi":[{"type":"constructor","inputs":[{"name":"_circleId","type":"uint256","internalType":"uint256"},{"name":"_agent","type":"address","internalType":"address"},{"name":"_trustContract","type":"address","internalType":"address"},{"name":"_lendingPool","type":"address","internalType":"address"},{"name":"_aToken","type":"address","internalType":"address"},{"name":"_minTrustScore","type":"uint256","internalType":"uint256"},{"name":"_roundDuration","type":"uint256","internalType":"uint256"}],"stateMutability":"nonpayable"},{"type":"function","name":"KEEPER_FEE_BPS","inputs":[],"outputs":[{"name":"","type":"uint256","internalType":"uint256"}],"stateMutability":"view"},{"type":"function","name":"aToken","inputs":[],"outputs":[{"name":"","type":"address","internalType":"address"}],"stateMutability":"view"},{"type":"function","name":"agent","inputs":[],"outputs":[{"name":"","type":"address","internalType":"address"}],"stateMutability":"view"},{"type":"function","name":"circleId","inputs":[],"outputs":[{"name":"","type":"uint256","internalType":"uint256"}],"stateMutability":"view"},{"type":"function","name":"claimRotation","inputs":[],"outputs":[],"stateMutability":"nonpayable"},{"type":"function","name":"contribute","inputs":[],"outputs":[],"stateMutability":"nonpayable"},{"type":"function","name":"contributionAmount","inputs":[],"outputs":[{"name":"","type":"uint256","internalType":"uint256"}],"stateMutability":"view"},{"type":"function","name":"currentRound","inputs":[],"outputs":[{"name":"","type":"uint256","internalType":"uint256"}],"stateMutability":"view"},{"type":"function","name":"dissolve","inputs":[],"outputs":[],"stateMutability":"nonpayable"},{"type":"function","name":"getMemberCount","inputs":[],"outputs":[{"name":"","type":"uint256","internalType":"uint256"}],"stateMutability":"view"},{"type":"function","name":"getMembers","inputs":[],"outputs":[{"name":"","type":"address[]","internalType":"address[]"}],"stateMutability":"view"},{"type":"function","name":"getState","inputs":[],"outputs":[{"name":"","type":"uint8","internalType":"enum SaveCircle.CircleState"}],"stateMutability":"view"},{"type":"function","name":"harvestYield","inputs":[],"outputs":[],"stateMutability":"nonpayable"},{"type":"function","name":"hasContributedThisRound","inputs":[{"name":"","type":"address","internalType":"address"}],"outputs":[{"name":"","type":"bool","internalType":"bool"}],"stateMutability":"view"},{"type":"function","name":"initialize","inputs":[{"name":"_tokenAddress","type":"address","internalType":"address"},{"name":"_contributionAmount","type":"uint256","internalType":"uint256"}],"outputs":[],"stateMutability":"nonpayable"},{"type":"function","name":"isMember","inputs":[{"name":"","type":"address","internalType":"address"}],"outputs":[{"name":"","type":"bool","internalType":"bool"}],"stateMutability":"view"},{"type":"function","name":"join","inputs":[],"outputs":[],"stateMutability":"nonpayable"},{"type":"function","name":"lendingPool","inputs":[],"outputs":[{"name":"","type":"address","internalType":"address"}],"stateMutability":"view"},{"type":"function","name":"memberIndex","inputs":[{"name":"","type":"address","internalType":"address"}],"outputs":[{"name":"","type":"uint256","internalType":"uint256"}],"stateMutability":"view"},{"type":"function","name":"members","inputs":[{"name":"","type":"uint256","internalType":"uint256"}],"outputs":[{"name":"","type":"address","internalType":"address"}],"stateMutability":"view"},{"type":"function","name":"minTrustScore","inputs":[],"outputs":[{"name":"","type":"uint256","internalType":"uint256"}],"stateMutability":"view"},{"type":"function","name":"penalize","inputs":[{"name":"member","type":"address","internalType":"address"}],"outputs":[],"stateMutability":"nonpayable"},{"type":"function","name":"penaltyCount","inputs":[{"name":"","type":"address","internalType":"address"}],"outputs":[{"name":"","type":"uint256","internalType":"uint256"}],"stateMutability":"view"},{"type":"function","name":"rotationIndex","inputs":[],"outputs":[{"name":"","type":"uint256","internalType":"uint256"}],"stateMutability":"view"},{"type":"function","name":"roundDuration","inputs":[],"outputs":[{"name":"","type":"uint256","internalType":"uint256"}],"stateMutability":"view"},{"type":"function","name":"roundStartTime","inputs":[],"outputs":[{"name":"","type":"uint256","internalType":"uint256"}],"stateMutability":"view"},{"type":"function","name":"startCircle","inputs":[],"outputs":[],"stateMutability":"nonpayable"},{"type":"function","name":"state","inputs":[],"outputs":[{"name":"","type":"uint8","internalType":"enum SaveCircle.CircleState"}],"stateMutability":"view"},{"type":"function","name":"sweepToYield","inputs":[{"name":"amount","type":"uint256","internalType":"uint256"}],"outputs":[],"stateMutability":"nonpayable"},{"type":"function","name":"tokenAddress","inputs":[],"outputs":[{"name":"","type":"address","internalType":"address"}],"stateMutability":"view"},{"type":"function","name":"totalContributed","inputs":[{"name":"","type":"address","internalType":"address"}],"outputs":[{"name":"","type":"uint256","internalType":"uint256"}],"stateMutability":"view"},{"type":"function","name":"totalYieldGenerated","inputs":[],"outputs":[{"name":"","type":"uint256","internalType":"uint256"}],"stateMutability":"view"},{"type":"function","name":"trustContract","inputs":[],"outputs":[{"name":"","type":"address","internalType":"address"}],"stateMutability":"view"},{"type":"event","name":"CircleCompleted","inputs":[],"anonymous":false},{"type":"event","name":"CircleDissolved","inputs":[],"anonymous":false},{"type":"event","name":"CircleFormed","inputs":[{"name":"circleId","type":"uint256","indexed":true,"internalType":"uint256"}],"anonymous":false},{"type":"event","name":"ContributionMade","inputs":[{"name":"member","type":"address","indexed":true,"internalType":"address"},{"name":"amount","type":"uint256","indexed":false,"internalType":"uint256"}],"anonymous":false},{"type":"event","name":"MemberJoined","inputs":[{"name":"member","type":"address","indexed":true,"internalType":"address"}],"anonymous":false},{"type":"event","name":"MemberPenalized","inputs":[{"name":"member","type":"address","indexed":true,"internalType":"address"},{"name":"penalty","type":"uint256","indexed":false,"internalType":"uint256"}],"anonymous":false},{"type":"event","name":"RotationClaimed","inputs":[{"name":"member","type":"address","indexed":true,"internalType":"address"},{"name":"amount","type":"uint256","indexed":false,"internalType":"uint256"}],"anonymous":false},{"type":"event","name":"YieldHarvested","inputs":[{"name":"amount","type":"uint256","indexed":false,"internalType":"uint256"}],"anonymous":false},{"type":"event","name":"YieldSwept","inputs":[{"name":"amount","type":"uint256","indexed":false,"internalType":"uint256"}],"anonymous":false},{"type":"error","name":"ReentrancyGuardReentrantCall","inputs":[]},{"type":"error","name":"SafeERC20FailedOperation","inputs":[{"name":"token","type":"address","internalType":"address"}]}],"bytecode":{"object":"0x608060405234801561000f575f5ffd5b50604051613c76380380613c768339818101604052810190610031919061026f565b600161004f6100446101ac60201b60201c565b6101d560201b60201c565b5f0181905550865f819055508560015f6101000a81548173ffffffffffffffffffffffffffffffffffffffff021916908373ffffffffffffffffffffffffffffffffffffffff1602179055508460025f6101000a81548173ffffffffffffffffffffffffffffffffffffffff021916908373ffffffffffffffffffffffffffffffffffffffff1602179055508360035f6101000a81548173ffffffffffffffffffffffffffffffffffffffff021916908373ffffffffffffffffffffffffffffffffffffffff1602179055508260045f6101000a81548173ffffffffffffffffffffffffffffffffffffffff021916908373ffffffffffffffffffffffffffffffffffffffff16021790555081600681905550806007819055505f60095f6101000a81548160ff0219169083600381111561018d5761018c61030c565b5b02179055505f600b819055505f600c8190555050505050505050610339565b5f7f9b779b17422d0df92223018b32b4d1fa46e071723d6817e2486d003becc55f005f1b905090565b5f819050919050565b5f5ffd5b5f819050919050565b6101f4816101e2565b81146101fe575f5ffd5b50565b5f8151905061020f816101eb565b92915050565b5f73ffffffffffffffffffffffffffffffffffffffff82169050919050565b5f61023e82610215565b9050919050565b61024e81610234565b8114610258575f5ffd5b50565b5f8151905061026981610245565b92915050565b5f5f5f5f5f5f5f60e0888a03121561028a576102896101de565b5b5f6102978a828b01610201565b97505060206102a88a828b0161025b565b96505060406102b98a828b0161025b565b95505060606102ca8a828b0161025b565b94505060806102db8a828b0161025b565b93505060a06102ec8a828b01610201565b92505060c06102fd8a828b01610201565b91505092959891949750929550565b7f4e487b71000000000000000000000000000000000000000000000000000000005f52602160045260245ffd5b613930806103465f395ff3fe608060405234801561000f575f5ffd5b50600436106101f9575f3560e01c80639d76ea5811610118578063c19d93fb116100ab578063dd4f8f741161007a578063dd4f8f741461055b578063e8d991d114610579578063e99daac914610583578063f5ff5c761461058d578063f7cb789a146105ab576101f9565b8063c19d93fb146104f9578063c30db74614610517578063cd6dc68714610535578063d7bb99ba14610551576101f9565b8063a230c524116100e7578063a230c52414610471578063a59a9973146104a1578063a9330b0e146104bf578063b688a363146104ef576101f9565b80639d76ea58146103e75780639eab525314610405578063a0c1f15e14610423578063a0f243b814610441576101f9565b80635daf08ca116101905780638a19c8bc1161015f5780638a19c8bc1461036f5780638c8250561461038d57806395a853d4146103ab578063997072f7146103c9576101f9565b80635daf08ca146102e75780635fa0b65f1461031757806378d97c9414610335578063859d448c14610351576101f9565b80633bef8a3a116101cc5780633bef8a3a1461025f5780633dd352791461026957806347d3dad9146102995780635d277461146102c9576101f9565b806309e8bfa7146101fd578063125de677146102195780631865c57d1461022357806337d287f714610241575b5f5ffd5b61021760048036038101906102129190612c83565b6105c9565b005b6102216108f3565b005b61022b610d74565b6040516102389190612d21565b60405180910390f35b610249610d89565b6040516102569190612d49565b60405180910390f35b610267610d8f565b005b610283600480360381019061027e9190612dbc565b61112b565b6040516102909190612d49565b60405180910390f35b6102b360048036038101906102ae9190612dbc565b611140565b6040516102c09190612e01565b60405180910390f35b6102d161115d565b6040516102de9190612d49565b60405180910390f35b61030160048036038101906102fc9190612c83565b611162565b60405161030e9190612e29565b60405180910390f35b61031f61119d565b60405161032c9190612d49565b60405180910390f35b61034f600480360381019061034a9190612dbc565b6111a3565b005b6103596115e2565b6040516103669190612d49565b60405180910390f35b6103776115e8565b6040516103849190612d49565b60405180910390f35b6103956115ee565b6040516103a29190612d49565b60405180910390f35b6103b36115f4565b6040516103c09190612e29565b60405180910390f35b6103d1611619565b6040516103de9190612d49565b60405180910390f35b6103ef611625565b6040516103fc9190612e29565b60405180910390f35b61040d61164a565b60405161041a9190612ef9565b60405180910390f35b61042b6116d5565b6040516104389190612e29565b60405180910390f35b61045b60048036038101906104569190612dbc565b6116fa565b6040516104689190612d49565b60405180910390f35b61048b60048036038101906104869190612dbc565b61170f565b6040516104989190612e01565b60405180910390f35b6104a961172c565b6040516104b69190612e29565b60405180910390f35b6104d960048036038101906104d49190612dbc565b611751565b6040516104e69190612d49565b60405180910390f35b6104f7611766565b005b610501611ae0565b60405161050e9190612d21565b60405180910390f35b61051f611af2565b60405161052c9190612d49565b60405180910390f35b61054f600480360381019061054a9190612f19565b611af7565b005b610559611cf7565b005b610563611fe2565b6040516105709190612d49565b60405180910390f35b610581611fe8565b005b61058b6124ee565b005b6105956126a3565b6040516105a29190612e29565b60405180910390f35b6105b36126c8565b6040516105c09190612d49565b60405180910390f35b60015f9054906101000a900473ffffffffffffffffffffffffffffffffffffffff1673ffffffffffffffffffffffffffffffffffffffff163373ffffffffffffffffffffffffffffffffffffffff1614610658576040517f08c379a000000000000000000000000000000000000000000000000000000000815260040161064f90612fb1565b60405180910390fd5b600180600381111561066d5761066c612cae565b5b60095f9054906101000a900460ff16600381111561068e5761068d612cae565b5b146106ce576040517f08c379a00000000000000000000000000000000000000000000000000000000081526004016106c590613019565b60405180910390fd5b6106d66126ce565b5f60055f9054906101000a900473ffffffffffffffffffffffffffffffffffffffff169050828173ffffffffffffffffffffffffffffffffffffffff166370a08231306040518263ffffffff1660e01b81526004016107359190612e29565b602060405180830381865afa158015610750573d5f5f3e3d5ffd5b505050506040513d601f19601f82011682018060405250810190610774919061304b565b10156107b5576040517f08c379a00000000000000000000000000000000000000000000000000000000081526004016107ac906130c0565b60405180910390fd5b61080160035f9054906101000a900473ffffffffffffffffffffffffffffffffffffffff16848373ffffffffffffffffffffffffffffffffffffffff166126f09092919063ffffffff16565b60035f9054906101000a900473ffffffffffffffffffffffffffffffffffffffff1673ffffffffffffffffffffffffffffffffffffffff1663e8eda9df60055f9054906101000a900473ffffffffffffffffffffffffffffffffffffffff1685305f6040518563ffffffff1660e01b8152600401610882949392919061312d565b5f604051808303815f87803b158015610899575f5ffd5b505af11580156108ab573d5f5f3e3d5ffd5b505050507f30913accb920534a9bbf66fa5d30be5b69e38f91e4167d42c02d132c17dcd3a7836040516108de9190612d49565b60405180910390a1506108ef6127a2565b5050565b600e5f3373ffffffffffffffffffffffffffffffffffffffff1673ffffffffffffffffffffffffffffffffffffffff1681526020019081526020015f205f9054906101000a900460ff1661097c576040517f08c379a0000000000000000000000000000000000000000000000000000000008152600401610973906131ba565b60405180910390fd5b600180600381111561099157610990612cae565b5b60095f9054906101000a900460ff1660038111156109b2576109b1612cae565b5b146109f2576040517f08c379a00000000000000000000000000000000000000000000000000000000081526004016109e990613019565b60405180910390fd5b6109fa6126ce565b600b54600f5f3373ffffffffffffffffffffffffffffffffffffffff1673ffffffffffffffffffffffffffffffffffffffff1681526020019081526020015f205414610a7b576040517f08c379a0000000000000000000000000000000000000000000000000000000008152600401610a7290613222565b60405180910390fd5b5f600d80549050600854610a8f919061326d565b90505f5f60135411610aa1575f610ab5565b600d80549050601354610ab491906132db565b5b90505f8183610ac4919061330b565b90505f60055f9054906101000a900473ffffffffffffffffffffffffffffffffffffffff1690505f8173ffffffffffffffffffffffffffffffffffffffff166370a08231306040518263ffffffff1660e01b8152600401610b259190612e29565b602060405180830381865afa158015610b40573d5f5f3e3d5ffd5b505050506040513d601f19601f82011682018060405250810190610b64919061304b565b905082811015610ba9576040517f08c379a0000000000000000000000000000000000000000000000000000000008152600401610ba090613388565b60405180910390fd5b610bd433848473ffffffffffffffffffffffffffffffffffffffff166127bc9092919063ffffffff16565b3373ffffffffffffffffffffffffffffffffffffffff167f9aef81cc79530644ebe2e7de375cfc443eef0e1cb3d1122dd29b657358f04ee584604051610c1a9190612d49565b60405180910390a2600b5f815480929190610c34906133a6565b9190505550600c5f815480929190610c4b906133a6565b91905055505f5f90505b600d80549050811015610cfe575f60115f600d8481548110610c7a57610c796133ed565b5b905f5260205f20015f9054906101000a900473ffffffffffffffffffffffffffffffffffffffff1673ffffffffffffffffffffffffffffffffffffffff1673ffffffffffffffffffffffffffffffffffffffff1681526020019081526020015f205f6101000a81548160ff0219169083151502179055508080600101915050610c55565b50600d80549050600b5410610d6457600260095f6101000a81548160ff02191690836003811115610d3257610d31612cae565b5b02179055507fdf90819e1122eef4a1d19215dfe6aa85aa2f8a1c60e53ae52143e1fd6c5f3bee60405160405180910390a15b5050505050610d716127a2565b50565b5f60095f9054906101000a900460ff16905090565b600b5481565b60015f9054906101000a900473ffffffffffffffffffffffffffffffffffffffff1673ffffffffffffffffffffffffffffffffffffffff163373ffffffffffffffffffffffffffffffffffffffff1614610e1e576040517f08c379a0000000000000000000000000000000000000000000000000000000008152600401610e1590612fb1565b60405180910390fd5b610e266126ce565b60026003811115610e3a57610e39612cae565b5b60095f9054906101000a900460ff166003811115610e5b57610e5a612cae565b5b03610e9b576040517f08c379a0000000000000000000000000000000000000000000000000000000008152600401610e9290613464565b60405180910390fd5b5f60055f9054906101000a900473ffffffffffffffffffffffffffffffffffffffff1690505f8173ffffffffffffffffffffffffffffffffffffffff166370a08231306040518263ffffffff1660e01b8152600401610efa9190612e29565b602060405180830381865afa158015610f15573d5f5f3e3d5ffd5b505050506040513d601f19601f82011682018060405250810190610f39919061304b565b90505f81118015610f4e57505f600d80549050115b156110c9575f600d8054905082610f6591906132db565b90505f5f90505b600d80549050811015610ff5575f821115610fe857610fe7600d8281548110610f9857610f976133ed565b5b905f5260205f20015f9054906101000a900473ffffffffffffffffffffffffffffffffffffffff16838673ffffffffffffffffffffffffffffffffffffffff166127bc9092919063ffffffff16565b5b8080600101915050610f6c565b505f8373ffffffffffffffffffffffffffffffffffffffff166370a08231306040518263ffffffff1660e01b81526004016110309190612e29565b602060405180830381865afa15801561104b573d5f5f3e3d5ffd5b505050506040513d601f19601f8201168201806040525081019061106f919061304b565b90505f8111156110c6576110c560015f9054906101000a900473ffffffffffffffffffffffffffffffffffffffff16828673ffffffffffffffffffffffffffffffffffffffff166127bc9092919063ffffffff16565b5b50505b600360095f6101000a81548160ff021916908360038111156110ee576110ed612cae565b5b02179055507fdedf6c81900dcd7d3df33e4392e5a0f9f5dbbd3c424bd45d6f5148d960e3827360405160405180910390a150506111296127a2565b565b600f602052805f5260405f205f915090505481565b6011602052805f5260405f205f915054906101000a900460ff1681565b606481565b600d8181548110611171575f80fd5b905f5260205f20015f915054906101000a900473ffffffffffffffffffffffffffffffffffffffff1681565b60085481565b60015f9054906101000a900473ffffffffffffffffffffffffffffffffffffffff1673ffffffffffffffffffffffffffffffffffffffff163373ffffffffffffffffffffffffffffffffffffffff1614611232576040517f08c379a000000000000000000000000000000000000000000000000000000000815260040161122990612fb1565b60405180910390fd5b600180600381111561124757611246612cae565b5b60095f9054906101000a900460ff16600381111561126857611267612cae565b5b146112a8576040517f08c379a000000000000000000000000000000000000000000000000000000000815260040161129f90613019565b60405180910390fd5b6112b06126ce565b600e5f8373ffffffffffffffffffffffffffffffffffffffff1673ffffffffffffffffffffffffffffffffffffffff1681526020019081526020015f205f9054906101000a900460ff16611339576040517f08c379a0000000000000000000000000000000000000000000000000000000008152600401611330906131ba565b60405180910390fd5b5f6064600a60085461134b919061326d565b61135591906132db565b905060125f8473ffffffffffffffffffffffffffffffffffffffff1673ffffffffffffffffffffffffffffffffffffffff1681526020019081526020015f205f8154809291906113a4906133a6565b91905055505f60055f9054906101000a900473ffffffffffffffffffffffffffffffffffffffff1690508160105f8673ffffffffffffffffffffffffffffffffffffffff1673ffffffffffffffffffffffffffffffffffffffff1681526020019081526020015f2054101580156114925750818173ffffffffffffffffffffffffffffffffffffffff166370a08231306040518263ffffffff1660e01b81526004016114509190612e29565b602060405180830381865afa15801561146b573d5f5f3e3d5ffd5b505050506040513d601f19601f8201168201806040525081019061148f919061304b565b10155b15611537578160105f8673ffffffffffffffffffffffffffffffffffffffff1673ffffffffffffffffffffffffffffffffffffffff1681526020019081526020015f205f8282546114e39190613482565b9250508190555061153660015f9054906101000a900473ffffffffffffffffffffffffffffffffffffffff16838373ffffffffffffffffffffffffffffffffffffffff166127bc9092919063ffffffff16565b5b8373ffffffffffffffffffffffffffffffffffffffff167ff40ef45a88500961e4ca8bb34c3545f8b26de69ea8af680f186cbaf39d7215278360405161157d9190612d49565b60405180910390a2600360125f8673ffffffffffffffffffffffffffffffffffffffff1673ffffffffffffffffffffffffffffffffffffffff1681526020019081526020015f2054106115d4576115d38461280f565b5b50506115de6127a2565b5050565b60065481565b600c5481565b60135481565b60025f9054906101000a900473ffffffffffffffffffffffffffffffffffffffff1681565b5f600d80549050905090565b60055f9054906101000a900473ffffffffffffffffffffffffffffffffffffffff1681565b6060600d8054806020026020016040519081016040528092919081815260200182805480156116cb57602002820191905f5260205f20905b815f9054906101000a900473ffffffffffffffffffffffffffffffffffffffff1673ffffffffffffffffffffffffffffffffffffffff1681526020019060010190808311611682575b5050505050905090565b60045f9054906101000a900473ffffffffffffffffffffffffffffffffffffffff1681565b6010602052805f5260405f205f915090505481565b600e602052805f5260405f205f915054906101000a900460ff1681565b60035f9054906101000a900473ffffffffffffffffffffffffffffffffffffffff1681565b6012602052805f5260405f205f915090505481565b5f80600381111561177a57611779612cae565b5b60095f9054906101000a900460ff16600381111561179b5761179a612cae565b5b146117db576040517f08c379a00000000000000000000000000000000000000000000000000000000081526004016117d290613019565b60405180910390fd5b6117e36126ce565b600e5f3373ffffffffffffffffffffffffffffffffffffffff1673ffffffffffffffffffffffffffffffffffffffff1681526020019081526020015f205f9054906101000a900460ff161561186d576040517f08c379a0000000000000000000000000000000000000000000000000000000008152600401611864906134ff565b60405180910390fd5b6032600d80549050106118b5576040517f08c379a00000000000000000000000000000000000000000000000000000000081526004016118ac90613567565b60405180910390fd5b5f60025f9054906101000a900473ffffffffffffffffffffffffffffffffffffffff1690508073ffffffffffffffffffffffffffffffffffffffff166327822fcf336006546040518363ffffffff1660e01b8152600401611917929190613585565b602060405180830381865afa158015611932573d5f5f3e3d5ffd5b505050506040513d601f19601f8201168201806040525081019061195691906135d6565b611995576040517f08c379a000000000000000000000000000000000000000000000000000000000815260040161198c9061364b565b60405180910390fd5b600d80549050600f5f3373ffffffffffffffffffffffffffffffffffffffff1673ffffffffffffffffffffffffffffffffffffffff1681526020019081526020015f2081905550600d33908060018154018082558091505060019003905f5260205f20015f9091909190916101000a81548173ffffffffffffffffffffffffffffffffffffffff021916908373ffffffffffffffffffffffffffffffffffffffff1602179055506001600e5f3373ffffffffffffffffffffffffffffffffffffffff1673ffffffffffffffffffffffffffffffffffffffff1681526020019081526020015f205f6101000a81548160ff0219169083151502179055503373ffffffffffffffffffffffffffffffffffffffff167f0abf3b3f643594d958297062a019458e27d7766629590ac621aa1000fa1298ab60405160405180910390a250611add6127a2565b50565b60095f9054906101000a900460ff1681565b5f5481565b60015f9054906101000a900473ffffffffffffffffffffffffffffffffffffffff1673ffffffffffffffffffffffffffffffffffffffff163373ffffffffffffffffffffffffffffffffffffffff1614611b86576040517f08c379a0000000000000000000000000000000000000000000000000000000008152600401611b7d90612fb1565b60405180910390fd5b5f806003811115611b9a57611b99612cae565b5b60095f9054906101000a900460ff166003811115611bbb57611bba612cae565b5b14611bfb576040517f08c379a0000000000000000000000000000000000000000000000000000000008152600401611bf290613019565b60405180910390fd5b5f73ffffffffffffffffffffffffffffffffffffffff168373ffffffffffffffffffffffffffffffffffffffff1603611c69576040517f08c379a0000000000000000000000000000000000000000000000000000000008152600401611c60906136b3565b60405180910390fd5b5f8211611cab576040517f08c379a0000000000000000000000000000000000000000000000000000000008152600401611ca29061371b565b60405180910390fd5b8260055f6101000a81548173ffffffffffffffffffffffffffffffffffffffff021916908373ffffffffffffffffffffffffffffffffffffffff16021790555081600881905550505050565b600e5f3373ffffffffffffffffffffffffffffffffffffffff1673ffffffffffffffffffffffffffffffffffffffff1681526020019081526020015f205f9054906101000a900460ff16611d80576040517f08c379a0000000000000000000000000000000000000000000000000000000008152600401611d77906131ba565b60405180910390fd5b6001806003811115611d9557611d94612cae565b5b60095f9054906101000a900460ff166003811115611db657611db5612cae565b5b14611df6576040517f08c379a0000000000000000000000000000000000000000000000000000000008152600401611ded90613019565b60405180910390fd5b611dfe6126ce565b60115f3373ffffffffffffffffffffffffffffffffffffffff1673ffffffffffffffffffffffffffffffffffffffff1681526020019081526020015f205f9054906101000a900460ff1615611e88576040517f08c379a0000000000000000000000000000000000000000000000000000000008152600401611e7f90613783565b60405180910390fd5b5f60055f9054906101000a900473ffffffffffffffffffffffffffffffffffffffff169050611edc33306008548473ffffffffffffffffffffffffffffffffffffffff16612a33909392919063ffffffff16565b60085460105f3373ffffffffffffffffffffffffffffffffffffffff1673ffffffffffffffffffffffffffffffffffffffff1681526020019081526020015f205f828254611f2a919061330b565b92505081905550600160115f3373ffffffffffffffffffffffffffffffffffffffff1673ffffffffffffffffffffffffffffffffffffffff1681526020019081526020015f205f6101000a81548160ff0219169083151502179055503373ffffffffffffffffffffffffffffffffffffffff167f6770260ea820d2f539364e7617e021543aaf6d192f2fd2a47c20db6bd99a4eb9600854604051611fce9190612d49565b60405180910390a250611fdf6127a2565b50565b600a5481565b60015f9054906101000a900473ffffffffffffffffffffffffffffffffffffffff1673ffffffffffffffffffffffffffffffffffffffff163373ffffffffffffffffffffffffffffffffffffffff1614612077576040517f08c379a000000000000000000000000000000000000000000000000000000000815260040161206e90612fb1565b60405180910390fd5b600180600381111561208c5761208b612cae565b5b60095f9054906101000a900460ff1660038111156120ad576120ac612cae565b5b146120ed576040517f08c379a00000000000000000000000000000000000000000000000000000000081526004016120e490613019565b60405180910390fd5b6120f56126ce565b5f60035f9054906101000a900473ffffffffffffffffffffffffffffffffffffffff1690505f8173ffffffffffffffffffffffffffffffffffffffff1663d15e005360055f9054906101000a900473ffffffffffffffffffffffffffffffffffffffff166040518263ffffffff1660e01b81526004016121759190612e29565b602060405180830381865afa158015612190573d5f5f3e3d5ffd5b505050506040513d601f19601f820116820180604052508101906121b4919061304b565b90505f81116121f8576040517f08c379a00000000000000000000000000000000000000000000000000000000081526004016121ef906137eb565b60405180910390fd5b5f60045f9054906101000a900473ffffffffffffffffffffffffffffffffffffffff1690505f8173ffffffffffffffffffffffffffffffffffffffff166370a08231306040518263ffffffff1660e01b81526004016122579190612e29565b602060405180830381865afa158015612272573d5f5f3e3d5ffd5b505050506040513d601f19601f82011682018060405250810190612296919061304b565b90505f8111156124df578373ffffffffffffffffffffffffffffffffffffffff166369328dec60055f9054906101000a900473ffffffffffffffffffffffffffffffffffffffff1683306040518463ffffffff1660e01b81526004016122fe93929190613809565b6020604051808303815f875af115801561231a573d5f5f3e3d5ffd5b505050506040513d601f19601f8201168201806040525081019061233e919061304b565b505f60055f9054906101000a900473ffffffffffffffffffffffffffffffffffffffff1690505f8173ffffffffffffffffffffffffffffffffffffffff166370a08231306040518263ffffffff1660e01b815260040161239e9190612e29565b602060405180830381865afa1580156123b9573d5f5f3e3d5ffd5b505050506040513d601f19601f820116820180604052508101906123dd919061304b565b90505f600d805490506008546123f3919061326d565b9050808211156124db575f818361240a9190613482565b90505f61271060648361241d919061326d565b61242791906132db565b90505f81111561247e5761247d60015f9054906101000a900473ffffffffffffffffffffffffffffffffffffffff16828773ffffffffffffffffffffffffffffffffffffffff166127bc9092919063ffffffff16565b5b808261248a9190613482565b60135f82825461249a919061330b565b925050819055507feb2d114a827fe0da3db4c0e374010959cf461f7ed76987aeff51666dea9add9b826040516124d09190612d49565b60405180910390a150505b5050505b505050506124eb6127a2565b50565b60015f9054906101000a900473ffffffffffffffffffffffffffffffffffffffff1673ffffffffffffffffffffffffffffffffffffffff163373ffffffffffffffffffffffffffffffffffffffff161461257d576040517f08c379a000000000000000000000000000000000000000000000000000000000815260040161257490612fb1565b60405180910390fd5b5f80600381111561259157612590612cae565b5b60095f9054906101000a900460ff1660038111156125b2576125b1612cae565b5b146125f2576040517f08c379a00000000000000000000000000000000000000000000000000000000081526004016125e990613019565b60405180910390fd5b5f600d8054905011612639576040517f08c379a000000000000000000000000000000000000000000000000000000000815260040161263090613888565b60405180910390fd5b600160095f6101000a81548160ff0219169083600381111561265e5761265d612cae565b5b021790555042600a819055506001600c819055505f547f99a57c67df4f41b63e799c8f7427b6f3e4e4fbea70a2fde7dfdecbce4b62c98560405160405180910390a250565b60015f9054906101000a900473ffffffffffffffffffffffffffffffffffffffff1681565b60075481565b6126d6612a88565b60026126e86126e3612ac9565b612af2565b5f0181905550565b6126fc8383835f612afb565b61279d5761270d83835f6001612afb565b61274e57826040517f5274afe70000000000000000000000000000000000000000000000000000000081526004016127459190612e29565b60405180910390fd5b61275b8383836001612afb565b61279c57826040517f5274afe70000000000000000000000000000000000000000000000000000000081526004016127939190612e29565b60405180910390fd5b5b505050565b60016127b46127af612ac9565b612af2565b5f0181905550565b6127c98383836001612b5d565b61280a57826040517f5274afe70000000000000000000000000000000000000000000000000000000081526004016128019190612e29565b60405180910390fd5b505050565b5f600f5f8373ffffffffffffffffffffffffffffffffffffffff1673ffffffffffffffffffffffffffffffffffffffff1681526020019081526020015f20549050600b5481101561287257600b5f81548092919061286c906138a6565b91905055505b5f600d6001600d805490506128879190613482565b81548110612898576128976133ed565b5b905f5260205f20015f9054906101000a900473ffffffffffffffffffffffffffffffffffffffff16905080600d83815481106128d7576128d66133ed565b5b905f5260205f20015f6101000a81548173ffffffffffffffffffffffffffffffffffffffff021916908373ffffffffffffffffffffffffffffffffffffffff16021790555081600f5f8373ffffffffffffffffffffffffffffffffffffffff1673ffffffffffffffffffffffffffffffffffffffff1681526020019081526020015f2081905550600d8054806129705761296f6138cd565b5b600190038181905f5260205f20015f6101000a81549073ffffffffffffffffffffffffffffffffffffffff02191690559055600e5f8473ffffffffffffffffffffffffffffffffffffffff1673ffffffffffffffffffffffffffffffffffffffff1681526020019081526020015f205f6101000a81549060ff0219169055600f5f8473ffffffffffffffffffffffffffffffffffffffff1673ffffffffffffffffffffffffffffffffffffffff1681526020019081526020015f205f9055505050565b612a41848484846001612bbf565b612a8257836040517f5274afe7000000000000000000000000000000000000000000000000000000008152600401612a799190612e29565b60405180910390fd5b50505050565b612a90612c30565b15612ac7576040517f3ee5aeb500000000000000000000000000000000000000000000000000000000815260040160405180910390fd5b565b5f7f9b779b17422d0df92223018b32b4d1fa46e071723d6817e2486d003becc55f005f1b905090565b5f819050919050565b5f5f63095ea7b360e01b9050604051815f525f1960601c86166004528460245260205f60445f5f8b5af1925060015f51148316612b4f578383151615612b43573d5f823e3d81fd5b5f873b113d1516831692505b806040525050949350505050565b5f5f63a9059cbb60e01b9050604051815f525f1960601c86166004528460245260205f60445f5f8b5af1925060015f51148316612bb1578383151615612ba5573d5f823e3d81fd5b5f873b113d1516831692505b806040525050949350505050565b5f5f6323b872dd60e01b9050604051815f525f1960601c87166004525f1960601c86166024528460445260205f60645f5f8c5af1925060015f51148316612c1d578383151615612c11573d5f823e3d81fd5b5f883b113d1516831692505b806040525f606052505095945050505050565b5f6002612c43612c3e612ac9565b612af2565b5f015414905090565b5f5ffd5b5f819050919050565b612c6281612c50565b8114612c6c575f5ffd5b50565b5f81359050612c7d81612c59565b92915050565b5f60208284031215612c9857612c97612c4c565b5b5f612ca584828501612c6f565b91505092915050565b7f4e487b71000000000000000000000000000000000000000000000000000000005f52602160045260245ffd5b60048110612cec57612ceb612cae565b5b50565b5f819050612cfc82612cdb565b919050565b5f612d0b82612cef565b9050919050565b612d1b81612d01565b82525050565b5f602082019050612d345f830184612d12565b92915050565b612d4381612c50565b82525050565b5f602082019050612d5c5f830184612d3a565b92915050565b5f73ffffffffffffffffffffffffffffffffffffffff82169050919050565b5f612d8b82612d62565b9050919050565b612d9b81612d81565b8114612da5575f5ffd5b50565b5f81359050612db681612d92565b92915050565b5f60208284031215612dd157612dd0612c4c565b5b5f612dde84828501612da8565b91505092915050565b5f8115159050919050565b612dfb81612de7565b82525050565b5f602082019050612e145f830184612df2565b92915050565b612e2381612d81565b82525050565b5f602082019050612e3c5f830184612e1a565b92915050565b5f81519050919050565b5f82825260208201905092915050565b5f819050602082019050919050565b612e7481612d81565b82525050565b5f612e858383612e6b565b60208301905092915050565b5f602082019050919050565b5f612ea782612e42565b612eb18185612e4c565b9350612ebc83612e5c565b805f5b83811015612eec578151612ed38882612e7a565b9750612ede83612e91565b925050600181019050612ebf565b5085935050505092915050565b5f6020820190508181035f830152612f118184612e9d565b905092915050565b5f5f60408385031215612f2f57612f2e612c4c565b5b5f612f3c85828601612da8565b9250506020612f4d85828601612c6f565b9150509250929050565b5f82825260208201905092915050565b7f4f6e6c79206167656e742063616e2063616c6c207468697300000000000000005f82015250565b5f612f9b601883612f57565b9150612fa682612f67565b602082019050919050565b5f6020820190508181035f830152612fc881612f8f565b9050919050565b7f496e76616c696420636972636c652073746174650000000000000000000000005f82015250565b5f613003601483612f57565b915061300e82612fcf565b602082019050919050565b5f6020820190508181035f83015261303081612ff7565b9050919050565b5f8151905061304581612c59565b92915050565b5f602082840312156130605761305f612c4c565b5b5f61306d84828501613037565b91505092915050565b7f496e73756666696369656e742062616c616e63650000000000000000000000005f82015250565b5f6130aa601483612f57565b91506130b582613076565b602082019050919050565b5f6020820190508181035f8301526130d78161309e565b9050919050565b5f819050919050565b5f61ffff82169050919050565b5f819050919050565b5f61311761311261310d846130de565b6130f4565b6130e7565b9050919050565b613127816130fd565b82525050565b5f6080820190506131405f830187612e1a565b61314d6020830186612d3a565b61315a6040830185612e1a565b613167606083018461311e565b95945050505050565b7f4e6f742061206d656d62657200000000000000000000000000000000000000005f82015250565b5f6131a4600c83612f57565b91506131af82613170565b602082019050919050565b5f6020820190508181035f8301526131d181613198565b9050919050565b7f4e6f7420796f7572207475726e000000000000000000000000000000000000005f82015250565b5f61320c600d83612f57565b9150613217826131d8565b602082019050919050565b5f6020820190508181035f83015261323981613200565b9050919050565b7f4e487b71000000000000000000000000000000000000000000000000000000005f52601160045260245ffd5b5f61327782612c50565b915061328283612c50565b925082820261329081612c50565b915082820484148315176132a7576132a6613240565b5b5092915050565b7f4e487b71000000000000000000000000000000000000000000000000000000005f52601260045260245ffd5b5f6132e582612c50565b91506132f083612c50565b925082613300576132ff6132ae565b5b828204905092915050565b5f61331582612c50565b915061332083612c50565b925082820190508082111561333857613337613240565b5b92915050565b7f496e73756666696369656e742066756e647300000000000000000000000000005f82015250565b5f613372601283612f57565b915061337d8261333e565b602082019050919050565b5f6020820190508181035f83015261339f81613366565b9050919050565b5f6133b082612c50565b91507fffffffffffffffffffffffffffffffffffffffffffffffffffffffffffffffff82036133e2576133e1613240565b5b600182019050919050565b7f4e487b71000000000000000000000000000000000000000000000000000000005f52603260045260245ffd5b7f416c726561647920636f6d706c657465640000000000000000000000000000005f82015250565b5f61344e601183612f57565b91506134598261341a565b602082019050919050565b5f6020820190508181035f83015261347b81613442565b9050919050565b5f61348c82612c50565b915061349783612c50565b92508282039050818111156134af576134ae613240565b5b92915050565b7f416c72656164792061206d656d626572000000000000000000000000000000005f82015250565b5f6134e9601083612f57565b91506134f4826134b5565b602082019050919050565b5f6020820190508181035f830152613516816134dd565b9050919050565b7f436972636c652069732066756c6c0000000000000000000000000000000000005f82015250565b5f613551600e83612f57565b915061355c8261351d565b602082019050919050565b5f6020820190508181035f83015261357e81613545565b9050919050565b5f6040820190506135985f830185612e1a565b6135a56020830184612d3a565b9392505050565b6135b581612de7565b81146135bf575f5ffd5b50565b5f815190506135d0816135ac565b92915050565b5f602082840312156135eb576135ea612c4c565b5b5f6135f8848285016135c2565b91505092915050565b7f496e73756666696369656e742074727573742073636f726500000000000000005f82015250565b5f613635601883612f57565b915061364082613601565b602082019050919050565b5f6020820190508181035f83015261366281613629565b9050919050565b7f496e76616c696420746f6b656e000000000000000000000000000000000000005f82015250565b5f61369d600d83612f57565b91506136a882613669565b602082019050919050565b5f6020820190508181035f8301526136ca81613691565b9050919050565b7f496e76616c696420636f6e747269627574696f6e20616d6f756e7400000000005f82015250565b5f613705601b83612f57565b9150613710826136d1565b602082019050919050565b5f6020820190508181035f830152613732816136f9565b9050919050565b7f416c726561647920636f6e7472696275746564207468697320726f756e6400005f82015250565b5f61376d601e83612f57565b915061377882613739565b602082019050919050565b5f6020820190508181035f83015261379a81613761565b9050919050565b7f496e76616c6964207265736572766500000000000000000000000000000000005f82015250565b5f6137d5600f83612f57565b91506137e0826137a1565b602082019050919050565b5f6020820190508181035f830152613802816137c9565b9050919050565b5f60608201905061381c5f830186612e1a565b6138296020830185612d3a565b6138366040830184612e1a565b949350505050565b7f4e6f206d656d6265727320696e20636972636c650000000000000000000000005f82015250565b5f613872601483612f57565b915061387d8261383e565b602082019050919050565b5f6020820190508181035f83015261389f81613866565b9050919050565b5f6138b082612c50565b91505f82036138c2576138c1613240565b5b600182039050919050565b7f4e487b71000000000000000000000000000000000000000000000000000000005f52603160045260245ffdfea26469706673582212205ccbeab862beb7f10b5267d21bd617dfaa9a8df88942b5c5903a19884a15f71c64736f6c634300081c0033","linkReferences":{}},"methodIdentifiers":{"KEEPER_FEE_BPS()":"5d277461","aToken()":"a0c1f15e","agent()":"f5ff5c76","circleId()":"c30db746","claimRotation()":"125de677","contribute()":"d7bb99ba","contributionAmount()":"5fa0b65f","currentRound()":"8a19c8bc","dissolve()":"3bef8a3a","getMemberCount()":"997072f7","getMembers()":"9eab5253","getState()":"1865c57d","harvestYield()":"e8d991d1","hasContributedThisRound(address)":"47d3dad9","initialize(address,uint256)":"cd6dc687","isMember(address)":"a230c524","join()":"b688a363","lendingPool()":"a59a9973","memberIndex(address)":"3dd35279","members(uint256)":"5daf08ca","minTrustScore()":"859d448c","penalize(address)":"78d97c94","penaltyCount(address)":"a9330b0e","rotationIndex()":"37d287f7","roundDuration()":"f7cb789a","roundStartTime()":"dd4f8f74","startCircle()":"e99daac9","state()":"c19d93fb","sweepToYield(uint256)":"09e8bfa7","tokenAddress()":"9d76ea58","totalContributed(address)":"a0f243b8","totalYieldGenerated()":"8c825056","trustContract()":"95a853d4"},"id":33}