{"abi":[{"type":"constructor","inputs":[{"name":"_agentRegistry","type":"address","internalType":"address"}],"stateMutability":"nonpayable"},{"type":"function","name":"agentRegistry","inputs":[],"outputs":[{"name":"","type":"address","internalType":"contract AgentRegistry8004"}],"stateMutability":"view"},{"type":"function","name":"cachedTiers","inputs":[{"name":"","type":"address","internalType":"address"}],"outputs":[{"name":"","type":"uint8","internalType":"enum TrustTierManager.Tier"}],"stateMutability":"view"},{"type":"function","name":"canIssueCreditLine","inputs":[{"name":"agent","type":"address","internalType":"address"}],"outputs":[{"name":"","type":"bool","internalType":"bool"}],"stateMutability":"view"},{"type":"function","name":"canSettleBarter","inputs":[{"name":"agent","type":"address","internalType":"address"}],"outputs":[{"name":"","type":"bool","internalType":"bool"}],"stateMutability":"view"},{"type":"function","name":"creditorThreshold","inputs":[],"outputs":[{"name":"","type":"uint256","internalType":"uint256"}],"stateMutability":"view"},{"type":"function","name":"getMaxCreditIssueAmount","inputs":[{"name":"agent","type":"address","internalType":"address"}],"outputs":[{"name":"","type":"uint256","internalType":"uint256"}],"stateMutability":"view"},{"type":"function","name":"getThresholds","inputs":[],"outputs":[{"name":"newcomer","type":"uint256","internalType":"uint256"},{"name":"member","type":"uint256","internalType":"uint256"},{"name":"creditor","type":"uint256","internalType":"uint256"}],"stateMutability":"view"},{"type":"function","name":"getTier","inputs":[{"name":"agent","type":"address","internalType":"address"}],"outputs":[{"name":"","type":"uint8","internalType":"enum TrustTierManager.Tier"}],"stateMutability":"view"},{"type":"function","name":"getTierName","inputs":[{"name":"tier","type":"uint8","internalType":"enum TrustTierManager.Tier"}],"outputs":[{"name":"tierName","type":"string","internalType":"string"}],"stateMutability":"pure"},{"type":"function","name":"invalidateTierCache","inputs":[{"name":"agent","type":"address","internalType":"address"}],"outputs":[],"stateMutability":"nonpayable"},{"type":"function","name":"memberThreshold","inputs":[],"outputs":[{"name":"","type":"uint256","internalType":"uint256"}],"stateMutability":"view"},{"type":"function","name":"newcomerThreshold","inputs":[],"outputs":[{"name":"","type":"uint256","internalType":"uint256"}],"stateMutability":"view"},{"type":"function","name":"owner","inputs":[],"outputs":[{"name":"","type":"address","internalType":"address"}],"stateMutability":"view"},{"type":"function","name":"renounceOwnership","inputs":[],"outputs":[],"stateMutability":"nonpayable"},{"type":"function","name":"setCreditorThreshold","inputs":[{"name":"newThreshold","type":"uint256","internalType":"uint256"}],"outputs":[],"stateMutability":"nonpayable"},{"type":"function","name":"setMemberThreshold","inputs":[{"name":"newThreshold","type":"uint256","internalType":"uint256"}],"outputs":[],"stateMutability":"nonpayable"},{"type":"function","name":"setNewcomerThreshold","inputs":[{"name":"newThreshold","type":"uint256","internalType":"uint256"}],"outputs":[],"stateMutability":"nonpayable"},{"type":"function","name":"tierCached","inputs":[{"name":"","type":"address","internalType":"address"}],"outputs":[{"name":"","type":"bool","internalType":"bool"}],"stateMutability":"view"},{"type":"function","name":"transferOwnership","inputs":[{"name":"newOwner","type":"address","internalType":"address"}],"outputs":[],"stateMutability":"nonpayable"},{"type":"event","name":"OwnershipTransferred","inputs":[{"name":"previousOwner","type":"address","indexed":true,"internalType":"address"},{"name":"newOwner","type":"address","indexed":true,"internalType":"address"}],"anonymous":false},{"type":"event","name":"ThresholdUpdated","inputs":[{"name":"thresholdName","type":"string","indexed":true,"internalType":"string"},{"name":"oldValue","type":"uint256","indexed":false,"internalType":"uint256"},{"name":"newValue","type":"uint256","indexed":false,"internalType":"uint256"}],"anonymous":false},{"type":"event","name":"TierChanged","inputs":[{"name":"agent","type":"address","indexed":true,"internalType":"address"},{"name":"oldTier","type":"uint8","indexed":false,"internalType":"enum TrustTierManager.Tier"},{"name":"newTier","type":"uint8","indexed":false,"internalType":"enum TrustTierManager.Tier"}],"anonymous":false},{"type":"error","name":"OwnableInvalidOwner","inputs":[{"name":"owner","type":"address","internalType":"address"}]},{"type":"error","name":"OwnableUnauthorizedAccount","inputs":[{"name":"account","type":"address","internalType":"address"}]}],"bytecode":{"object":"0x6080604052611388600255611f3f6003556124b7600455348015610021575f5ffd5b50604051611e64380380611e6483398181016040528101906100439190610297565b335f73ffffffffffffffffffffffffffffffffffffffff168173ffffffffffffffffffffffffffffffffffffffff16036100b4575f6040517f1e4fbdf70000000000000000000000000000000000000000000000000000000081526004016100ab91906102d1565b60405180910390fd5b6100c38161017860201b60201c565b505f73ffffffffffffffffffffffffffffffffffffffff168173ffffffffffffffffffffffffffffffffffffffff1603610132576040517f08c379a000000000000000000000000000000000000000000000000000000000815260040161012990610344565b60405180910390fd5b8060015f6101000a81548173ffffffffffffffffffffffffffffffffffffffff021916908373ffffffffffffffffffffffffffffffffffffffff16021790555050610362565b5f5f5f9054906101000a900473ffffffffffffffffffffffffffffffffffffffff169050815f5f6101000a81548173ffffffffffffffffffffffffffffffffffffffff021916908373ffffffffffffffffffffffffffffffffffffffff1602179055508173ffffffffffffffffffffffffffffffffffffffff168173ffffffffffffffffffffffffffffffffffffffff167f8be0079c531659141344cd1fd0a4f28419497f9722a3daafe3b4186f6b6457e060405160405180910390a35050565b5f5ffd5b5f73ffffffffffffffffffffffffffffffffffffffff82169050919050565b5f6102668261023d565b9050919050565b6102768161025c565b8114610280575f5ffd5b50565b5f815190506102918161026d565b92915050565b5f602082840312156102ac576102ab610239565b5b5f6102b984828501610283565b91505092915050565b6102cb8161025c565b82525050565b5f6020820190506102e45f8301846102c2565b92915050565b5f82825260208201905092915050565b7f496e76616c6964207265676973747279206164647265737300000000000000005f82015250565b5f61032e6018836102ea565b9150610339826102fa565b602082019050919050565b5f6020820190508181035f83015261035b81610322565b9050919050565b611af58061036f5f395ff3fe608060405234801561000f575f5ffd5b506004361061011f575f3560e01c80638da5cb5b116100ab578063e64bd5931161006f578063e64bd59314610309578063e841b36a14610339578063f054056414610355578063f2fde38b14610385578063fc21ea65146103a15761011f565b80638da5cb5b1461023b5780639c3977b514610259578063b45aae5214610279578063b46a65c4146102a9578063bfab0ca2146102d95761011f565b80634cca32e1116100f25780634cca32e1146101ab57806351b17d0a146101c75780636452a7ed146101e5578063715018a614610201578063867ae4491461020b5761011f565b8063020ff92e146101235780630d1cfcae146101535780631c799e4514610171578063373f05bb1461018d575b5f5ffd5b61013d60048036038101906101389190611258565b6103bf565b60405161014a919061129b565b60405180910390f35b61015b610595565b604051610168919061130f565b60405180910390f35b61018b60048036038101906101869190611352565b6105ba565b005b6101956106b0565b6040516101a2919061129b565b60405180910390f35b6101c560048036038101906101c09190611352565b6106b6565b005b6101cf6107b7565b6040516101dc919061129b565b60405180910390f35b6101ff60048036038101906101fa9190611352565b6107bd565b005b6102096108f7565b005b61022560048036038101906102209190611258565b61090a565b60405161023291906113f0565b60405180910390f35b610243610927565b6040516102509190611418565b60405180910390f35b61026161094e565b60405161027093929190611431565b60405180910390f35b610293600480360381019061028e9190611258565b610965565b6040516102a091906113f0565b60405180910390f35b6102c360048036038101906102be9190611258565b610b20565b6040516102d09190611480565b60405180910390f35b6102f360048036038101906102ee9190611258565b610ca4565b6040516103009190611480565b60405180910390f35b610323600480360381019061031e91906114bc565b610cc1565b6040516103309190611557565b60405180910390f35b610353600480360381019061034e9190611258565b610e3b565b005b61036f600480360381019061036a9190611258565b610e9a565b60405161037c9190611480565b60405180910390f35b61039f600480360381019061039a9190611258565b61101f565b005b6103a96110a3565b6040516103b6919061129b565b60405180910390f35b5f60015f9054906101000a900473ffffffffffffffffffffffffffffffffffffffff1673ffffffffffffffffffffffffffffffffffffffff1663689b6c44836040518263ffffffff1660e01b815260040161041a9190611418565b602060405180830381865afa158015610435573d5f5f3e3d5ffd5b505050506040513d601f19601f8201168201806040525081019061045991906115a1565b610498576040517f08c379a000000000000000000000000000000000000000000000000000000000815260040161048f90611616565b60405180910390fd5b5f60015f9054906101000a900473ffffffffffffffffffffffffffffffffffffffff1673ffffffffffffffffffffffffffffffffffffffff16639c89a0e2846040518263ffffffff1660e01b81526004016104f39190611418565b606060405180830381865afa15801561050e573d5f5f3e3d5ffd5b505050506040513d601f19601f820116820180604052508101906105329190611648565b92505050611f40811015610549575f915050610590565b5f611f408261055891906116c5565b90505f681b1ae4d6e2ef50000090505f6605543df729c0008361057b91906116f8565b905080826105899190611739565b9450505050505b919050565b60015f9054906101000a900473ffffffffffffffffffffffffffffffffffffffff1681565b6105c26110a9565b6003548111610606576040517f08c379a00000000000000000000000000000000000000000000000000000000081526004016105fd906117b6565b60405180910390fd5b612710811061064a576040517f08c379a00000000000000000000000000000000000000000000000000000000081526004016106419061181e565b60405180910390fd5b5f60045490508160048190555061065f611130565b60405161066b90611890565b60405180910390207fb4fa87b548db8e1f413d37a7f7e6a36e70badcd19428dc15374cbd0f090b0bdc82846040516106a49291906118a4565b60405180910390a25050565b60035481565b6106be6110a9565b5f811180156106ce575061271081105b61070d576040517f08c379a00000000000000000000000000000000000000000000000000000000081526004016107049061181e565b60405180910390fd5b6003548110610751576040517f08c379a000000000000000000000000000000000000000000000000000000000815260040161074890611915565b60405180910390fd5b5f600254905081600281905550610766611130565b6040516107729061197d565b60405180910390207fb4fa87b548db8e1f413d37a7f7e6a36e70badcd19428dc15374cbd0f090b0bdc82846040516107ab9291906118a4565b60405180910390a25050565b60025481565b6107c56110a9565b6002548111610809576040517f08c379a0000000000000000000000000000000000000000000000000000000008152600401610800906119db565b60405180910390fd5b600454811061084d576040517f08c379a000000000000000000000000000000000000000000000000000000000815260040161084490611a43565b60405180910390fd5b6127108110610891576040517f08c379a00000000000000000000000000000000000000000000000000000000081526004016108889061181e565b60405180910390fd5b5f6003549050816003819055506108a6611130565b6040516108b290611aab565b60405180910390207fb4fa87b548db8e1f413d37a7f7e6a36e70badcd19428dc15374cbd0f090b0bdc82846040516108eb9291906118a4565b60405180910390a25050565b6108ff6110a9565b6109085f611132565b565b6005602052805f5260405f205f915054906101000a900460ff1681565b5f5f5f9054906101000a900473ffffffffffffffffffffffffffffffffffffffff16905090565b5f5f5f600254600354600454925092509250909192565b5f60015f9054906101000a900473ffffffffffffffffffffffffffffffffffffffff1673ffffffffffffffffffffffffffffffffffffffff1663689b6c44836040518263ffffffff1660e01b81526004016109c09190611418565b602060405180830381865afa1580156109db573d5f5f3e3d5ffd5b505050506040513d601f19601f820116820180604052508101906109ff91906115a1565b610a3e576040517f08c379a0000000000000000000000000000000000000000000000000000000008152600401610a3590611616565b60405180910390fd5b5f60015f9054906101000a900473ffffffffffffffffffffffffffffffffffffffff1673ffffffffffffffffffffffffffffffffffffffff16639c89a0e2846040518263ffffffff1660e01b8152600401610a999190611418565b606060405180830381865afa158015610ab4573d5f5f3e3d5ffd5b505050506040513d601f19601f82011682018060405250810190610ad89190611648565b92505050600254811015610aef575f915050610b1b565b6003548111610b02576001915050610b1b565b6004548111610b15576002915050610b1b565b60039150505b919050565b5f60015f9054906101000a900473ffffffffffffffffffffffffffffffffffffffff1673ffffffffffffffffffffffffffffffffffffffff1663689b6c44836040518263ffffffff1660e01b8152600401610b7b9190611418565b602060405180830381865afa158015610b96573d5f5f3e3d5ffd5b505050506040513d601f19601f82011682018060405250810190610bba91906115a1565b610bf9576040517f08c379a0000000000000000000000000000000000000000000000000000000008152600401610bf090611616565b60405180910390fd5b5f60015f9054906101000a900473ffffffffffffffffffffffffffffffffffffffff1673ffffffffffffffffffffffffffffffffffffffff16639c89a0e2846040518263ffffffff1660e01b8152600401610c549190611418565b606060405180830381865afa158015610c6f573d5f5f3e3d5ffd5b505050506040513d601f19601f82011682018060405250810190610c939190611648565b925050506003548111915050919050565b6006602052805f5260405f205f915054906101000a900460ff1681565b60605f6003811115610cd657610cd561137d565b5b826003811115610ce957610ce861137d565b5b03610d2b576040518060400160405280600881526020017f4e4557434f4d45520000000000000000000000000000000000000000000000008152509050610e36565b60016003811115610d3f57610d3e61137d565b5b826003811115610d5257610d5161137d565b5b03610d94576040518060400160405280600681526020017f4d454d42455200000000000000000000000000000000000000000000000000008152509050610e36565b60026003811115610da857610da761137d565b5b826003811115610dbb57610dba61137d565b5b03610dfd576040518060400160405280600881526020017f4352454449544f520000000000000000000000000000000000000000000000008152509050610e36565b6040518060400160405280600581526020017f454c44455200000000000000000000000000000000000000000000000000000081525090505b919050565b610e436110a9565b5f60065f8373ffffffffffffffffffffffffffffffffffffffff1673ffffffffffffffffffffffffffffffffffffffff1681526020019081526020015f205f6101000a81548160ff02191690831515021790555050565b5f60015f9054906101000a900473ffffffffffffffffffffffffffffffffffffffff1673ffffffffffffffffffffffffffffffffffffffff1663689b6c44836040518263ffffffff1660e01b8152600401610ef59190611418565b602060405180830381865afa158015610f10573d5f5f3e3d5ffd5b505050506040513d601f19601f82011682018060405250810190610f3491906115a1565b610f73576040517f08c379a0000000000000000000000000000000000000000000000000000000008152600401610f6a90611616565b60405180910390fd5b5f60015f9054906101000a900473ffffffffffffffffffffffffffffffffffffffff1673ffffffffffffffffffffffffffffffffffffffff16639c89a0e2846040518263ffffffff1660e01b8152600401610fce9190611418565b606060405180830381865afa158015610fe9573d5f5f3e3d5ffd5b505050506040513d601f19601f8201168201806040525081019061100d9190611648565b9250505061251c811015915050919050565b6110276110a9565b5f73ffffffffffffffffffffffffffffffffffffffff168173ffffffffffffffffffffffffffffffffffffffff1603611097575f6040517f1e4fbdf700000000000000000000000000000000000000000000000000000000815260040161108e9190611418565b60405180910390fd5b6110a081611132565b50565b60045481565b6110b16111f3565b73ffffffffffffffffffffffffffffffffffffffff166110cf610927565b73ffffffffffffffffffffffffffffffffffffffff161461112e576110f26111f3565b6040517f118cdaa70000000000000000000000000000000000000000000000000000000081526004016111259190611418565b60405180910390fd5b565b565b5f5f5f9054906101000a900473ffffffffffffffffffffffffffffffffffffffff169050815f5f6101000a81548173ffffffffffffffffffffffffffffffffffffffff021916908373ffffffffffffffffffffffffffffffffffffffff1602179055508173ffffffffffffffffffffffffffffffffffffffff168173ffffffffffffffffffffffffffffffffffffffff167f8be0079c531659141344cd1fd0a4f28419497f9722a3daafe3b4186f6b6457e060405160405180910390a35050565b5f33905090565b5f5ffd5b5f73ffffffffffffffffffffffffffffffffffffffff82169050919050565b5f611227826111fe565b9050919050565b6112378161121d565b8114611241575f5ffd5b50565b5f813590506112528161122e565b92915050565b5f6020828403121561126d5761126c6111fa565b5b5f61127a84828501611244565b91505092915050565b5f819050919050565b61129581611283565b82525050565b5f6020820190506112ae5f83018461128c565b92915050565b5f819050919050565b5f6112d76112d26112cd846111fe565b6112b4565b6111fe565b9050919050565b5f6112e8826112bd565b9050919050565b5f6112f9826112de565b9050919050565b611309816112ef565b82525050565b5f6020820190506113225f830184611300565b92915050565b61133181611283565b811461133b575f5ffd5b50565b5f8135905061134c81611328565b92915050565b5f60208284031215611367576113666111fa565b5b5f6113748482850161133e565b91505092915050565b7f4e487b71000000000000000000000000000000000000000000000000000000005f52602160045260245ffd5b600481106113bb576113ba61137d565b5b50565b5f8190506113cb826113aa565b919050565b5f6113da826113be565b9050919050565b6113ea816113d0565b82525050565b5f6020820190506114035f8301846113e1565b92915050565b6114128161121d565b82525050565b5f60208201905061142b5f830184611409565b92915050565b5f6060820190506114445f83018661128c565b611451602083018561128c565b61145e604083018461128c565b949350505050565b5f8115159050919050565b61147a81611466565b82525050565b5f6020820190506114935f830184611471565b92915050565b600481106114a5575f5ffd5b50565b5f813590506114b681611499565b92915050565b5f602082840312156114d1576114d06111fa565b5b5f6114de848285016114a8565b91505092915050565b5f81519050919050565b5f82825260208201905092915050565b8281835e5f83830152505050565b5f601f19601f8301169050919050565b5f611529826114e7565b61153381856114f1565b9350611543818560208601611501565b61154c8161150f565b840191505092915050565b5f6020820190508181035f83015261156f818461151f565b905092915050565b61158081611466565b811461158a575f5ffd5b50565b5f8151905061159b81611577565b92915050565b5f602082840312156115b6576115b56111fa565b5b5f6115c38482850161158d565b91505092915050565b7f4167656e74206e6f7420726567697374657265640000000000000000000000005f82015250565b5f6116006014836114f1565b915061160b826115cc565b602082019050919050565b5f6020820190508181035f83015261162d816115f4565b9050919050565b5f8151905061164281611328565b92915050565b5f5f5f6060848603121561165f5761165e6111fa565b5b5f61166c86828701611634565b935050602061167d86828701611634565b925050604061168e86828701611634565b9150509250925092565b7f4e487b71000000000000000000000000000000000000000000000000000000005f52601160045260245ffd5b5f6116cf82611283565b91506116da83611283565b92508282039050818111156116f2576116f1611698565b5b92915050565b5f61170282611283565b915061170d83611283565b925082820261171b81611283565b9150828204841483151761173257611731611698565b5b5092915050565b5f61174382611283565b915061174e83611283565b925082820190508082111561176657611765611698565b5b92915050565b7f4d7573742062652061626f7665206d656d626572207468726573686f6c6400005f82015250565b5f6117a0601e836114f1565b91506117ab8261176c565b602082019050919050565b5f6020820190508181035f8301526117cd81611794565b9050919050565b7f496e76616c6964207468726573686f6c640000000000000000000000000000005f82015250565b5f6118086011836114f1565b9150611813826117d4565b602082019050919050565b5f6020820190508181035f830152611835816117fc565b9050919050565b5f81905092915050565b7f6372656469746f720000000000000000000000000000000000000000000000005f82015250565b5f61187a60088361183c565b915061188582611846565b600882019050919050565b5f61189a8261186e565b9150819050919050565b5f6040820190506118b75f83018561128c565b6118c4602083018461128c565b9392505050565b7f4d7573742062652062656c6f77206d656d626572207468726573686f6c6400005f82015250565b5f6118ff601e836114f1565b915061190a826118cb565b602082019050919050565b5f6020820190508181035f83015261192c816118f3565b9050919050565b7f6e6577636f6d65720000000000000000000000000000000000000000000000005f82015250565b5f61196760088361183c565b915061197282611933565b600882019050919050565b5f6119878261195b565b9150819050919050565b7f4d7573742062652061626f7665206e6577636f6d6572207468726573686f6c645f82015250565b5f6119c56020836114f1565b91506119d082611991565b602082019050919050565b5f6020820190508181035f8301526119f2816119b9565b9050919050565b7f4d7573742062652062656c6f77206372656469746f72207468726573686f6c645f82015250565b5f611a2d6020836114f1565b9150611a38826119f9565b602082019050919050565b5f6020820190508181035f830152611a5a81611a21565b9050919050565b7f6d656d62657200000000000000000000000000000000000000000000000000005f82015250565b5f611a9560068361183c565b9150611aa082611a61565b600682019050919050565b5f611ab582611a89565b915081905091905056fea26469706673582212201864f67f33724a0146a5a5ac70fa387c2d8713dfec3bbf9486431114cef16b1364736f6c634300081c0033","linkReferences":{}},"methodIdentifiers":{"agentRegistry()":"0d1cfcae","cachedTiers(address)":"867ae449","canIssueCreditLine(address)":"b46a65c4","canSettleBarter(address)":"f0540564","creditorThreshold()":"fc21ea65","getMaxCreditIssueAmount(address)":"020ff92e","getThresholds()":"9c3977b5","getTier(address)":"b45aae52","getTierName(uint8)":"e64bd593","invalidateTierCache(address)":"e841b36a","memberThreshold()":"373f05bb","newcomerThreshold()":"51b17d0a","owner()":"8da5cb5b","renounceOwnership()":"715018a6","setCreditorThreshold(uint256)":"1c799e45","setMemberThreshold(uint256)":"6452a7ed","setNewcomerThreshold(uint256)":"4cca32e1","tierCached(address)":"bfab0ca2","transferOwnership(address)":"f2fde38b"},"id":54}